{
  "_format": "hh-sol-artifact-1",
  "contractName": "VillageNft",
  "sourceName": "contracts/VillageNft.sol",
  "abi": [
    {
      "inputs": [],
      "stateMutability": "nonpayable",
      "type": "constructor"
    },
    {
      "anonymous": false,
      "inputs": [
        {
          "indexed": true,
          "internalType": "address",
          "name": "owner",
          "type": "address"
        },
        {
          "indexed": true,
          "internalType": "address",
          "name": "approved",
          "type": "address"
        },
        {
          "indexed": true,
          "internalType": "uint256",
          "name": "tokenId",
          "type": "uint256"
        }
      ],
      "name": "Approval",
      "type": "event"
    },
    {
      "anonymous": false,
      "inputs": [
        {
          "indexed": true,
          "internalType": "address",
          "name": "owner",
          "type": "address"
        },
        {
          "indexed": true,
          "internalType": "address",
          "name": "operator",
          "type": "address"
        },
        {
          "indexed": false,
          "internalType": "bool",
          "name": "approved",
          "type": "bool"
        }
      ],
      "name": "ApprovalForAll",
      "type": "event"
    },
    {
      "anonymous": false,
      "inputs": [
        {
          "indexed": false,
          "internalType": "uint256",
          "name": "villageId",
          "type": "uint256"
        },
        {
          "indexed": false,
          "internalType": "enum VillageGame.BuildingTypes",
          "name": "buildingType",
          "type": "uint8"
        },
        {
          "indexed": false,
          "internalType": "uint8",
          "name": "_x",
          "type": "uint8"
        },
        {
          "indexed": false,
          "internalType": "uint8",
          "name": "_y",
          "type": "uint8"
        }
      ],
      "name": "NewBuilding",
      "type": "event"
    },
    {
      "anonymous": false,
      "inputs": [
        {
          "indexed": false,
          "internalType": "uint256",
          "name": "villageId",
          "type": "uint256"
        },
        {
          "indexed": false,
          "internalType": "string",
          "name": "name",
          "type": "string"
        },
        {
          "indexed": false,
          "internalType": "int8",
          "name": "_x",
          "type": "int8"
        },
        {
          "indexed": false,
          "internalType": "int8",
          "name": "_y",
          "type": "int8"
        }
      ],
      "name": "NewVillage",
      "type": "event"
    },
    {
      "anonymous": false,
      "inputs": [
        {
          "indexed": true,
          "internalType": "address",
          "name": "previousOwner",
          "type": "address"
        },
        {
          "indexed": true,
          "internalType": "address",
          "name": "newOwner",
          "type": "address"
        }
      ],
      "name": "OwnershipTransferred",
      "type": "event"
    },
    {
      "anonymous": false,
      "inputs": [
        {
          "indexed": true,
          "internalType": "address",
          "name": "from",
          "type": "address"
        },
        {
          "indexed": true,
          "internalType": "address",
          "name": "to",
          "type": "address"
        },
        {
          "indexed": true,
          "internalType": "uint256",
          "name": "tokenId",
          "type": "uint256"
        }
      ],
      "name": "Transfer",
      "type": "event"
    },
    {
      "inputs": [
        {
          "internalType": "address",
          "name": "to",
          "type": "address"
        },
        {
          "internalType": "uint256",
          "name": "tokenId",
          "type": "uint256"
        }
      ],
      "name": "approve",
      "outputs": [],
      "stateMutability": "nonpayable",
      "type": "function"
    },
    {
      "inputs": [
        {
          "internalType": "address",
          "name": "owner",
          "type": "address"
        }
      ],
      "name": "balanceOf",
      "outputs": [
        {
          "internalType": "uint256",
          "name": "",
          "type": "uint256"
        }
      ],
      "stateMutability": "view",
      "type": "function"
    },
    {
      "inputs": [
        {
          "internalType": "enum VillageGame.BuildingTypes",
          "name": "",
          "type": "uint8"
        }
      ],
      "name": "buildingSizes",
      "outputs": [
        {
          "internalType": "uint8",
          "name": "",
          "type": "uint8"
        }
      ],
      "stateMutability": "view",
      "type": "function"
    },
    {
      "inputs": [
        {
          "internalType": "string",
          "name": "_name",
          "type": "string"
        },
        {
          "internalType": "int8",
          "name": "_x",
          "type": "int8"
        },
        {
          "internalType": "int8",
          "name": "_y",
          "type": "int8"
        }
      ],
      "name": "createVillage",
      "outputs": [
        {
          "internalType": "uint256",
          "name": "villageId",
          "type": "uint256"
        }
      ],
      "stateMutability": "nonpayable",
      "type": "function"
    },
    {
      "inputs": [
        {
          "internalType": "uint256",
          "name": "tokenId",
          "type": "uint256"
        }
      ],
      "name": "getApproved",
      "outputs": [
        {
          "internalType": "address",
          "name": "",
          "type": "address"
        }
      ],
      "stateMutability": "view",
      "type": "function"
    },
    {
      "inputs": [
        {
          "internalType": "uint256",
          "name": "_villageId",
          "type": "uint256"
        }
      ],
      "name": "getVillage",
      "outputs": [
        {
          "components": [
            {
              "internalType": "int8",
              "name": "x",
              "type": "int8"
            },
            {
              "internalType": "int8",
              "name": "y",
              "type": "int8"
            },
            {
              "internalType": "uint8",
              "name": "size",
              "type": "uint8"
            },
            {
              "internalType": "uint8",
              "name": "baseGoldRate",
              "type": "uint8"
            },
            {
              "internalType": "uint32",
              "name": "readyToMineTime",
              "type": "uint32"
            },
            {
              "internalType": "uint256",
              "name": "id",
              "type": "uint256"
            },
            {
              "internalType": "string",
              "name": "name",
              "type": "string"
            },
            {
              "components": [
                {
                  "internalType": "uint8",
                  "name": "x",
                  "type": "uint8"
                },
                {
                  "internalType": "uint8",
                  "name": "y",
                  "type": "uint8"
                },
                {
                  "internalType": "uint8",
                  "name": "size",
                  "type": "uint8"
                },
                {
                  "internalType": "uint8",
                  "name": "level",
                  "type": "uint8"
                },
                {
                  "internalType": "uint32",
                  "name": "upgradeCompleteTime",
                  "type": "uint32"
                },
                {
                  "internalType": "enum VillageGame.BuildingTypes",
                  "name": "buildingType",
                  "type": "uint8"
                }
              ],
              "internalType": "struct VillageGame.BuildingPlacement[]",
              "name": "buildings",
              "type": "tuple[]"
            },
            {
              "internalType": "bool",
              "name": "exists",
              "type": "bool"
            }
          ],
          "internalType": "struct VillageGame.Village",
          "name": "village",
          "type": "tuple"
        }
      ],
      "stateMutability": "view",
      "type": "function"
    },
    {
      "inputs": [
        {
          "internalType": "address",
          "name": "owner",
          "type": "address"
        },
        {
          "internalType": "address",
          "name": "operator",
          "type": "address"
        }
      ],
      "name": "isApprovedForAll",
      "outputs": [
        {
          "internalType": "bool",
          "name": "",
          "type": "bool"
        }
      ],
      "stateMutability": "view",
      "type": "function"
    },
    {
      "inputs": [],
      "name": "name",
      "outputs": [
        {
          "internalType": "string",
          "name": "",
          "type": "string"
        }
      ],
      "stateMutability": "view",
      "type": "function"
    },
    {
      "inputs": [],
      "name": "owner",
      "outputs": [
        {
          "internalType": "address",
          "name": "",
          "type": "address"
        }
      ],
      "stateMutability": "view",
      "type": "function"
    },
    {
      "inputs": [
        {
          "internalType": "uint256",
          "name": "tokenId",
          "type": "uint256"
        }
      ],
      "name": "ownerOf",
      "outputs": [
        {
          "internalType": "address",
          "name": "",
          "type": "address"
        }
      ],
      "stateMutability": "view",
      "type": "function"
    },
    {
      "inputs": [
        {
          "internalType": "uint256",
          "name": "_villageId",
          "type": "uint256"
        },
        {
          "internalType": "enum VillageGame.BuildingTypes",
          "name": "_buildingType",
          "type": "uint8"
        },
        {
          "internalType": "uint8",
          "name": "_x",
          "type": "uint8"
        },
        {
          "internalType": "uint8",
          "name": "_y",
          "type": "uint8"
        }
      ],
      "name": "placeBuilding",
      "outputs": [],
      "stateMutability": "nonpayable",
      "type": "function"
    },
    {
      "inputs": [],
      "name": "renounceOwnership",
      "outputs": [],
      "stateMutability": "nonpayable",
      "type": "function"
    },
    {
      "inputs": [
        {
          "internalType": "address",
          "name": "from",
          "type": "address"
        },
        {
          "internalType": "address",
          "name": "to",
          "type": "address"
        },
        {
          "internalType": "uint256",
          "name": "tokenId",
          "type": "uint256"
        }
      ],
      "name": "safeTransferFrom",
      "outputs": [],
      "stateMutability": "nonpayable",
      "type": "function"
    },
    {
      "inputs": [
        {
          "internalType": "address",
          "name": "from",
          "type": "address"
        },
        {
          "internalType": "address",
          "name": "to",
          "type": "address"
        },
        {
          "internalType": "uint256",
          "name": "tokenId",
          "type": "uint256"
        },
        {
          "internalType": "bytes",
          "name": "_data",
          "type": "bytes"
        }
      ],
      "name": "safeTransferFrom",
      "outputs": [],
      "stateMutability": "nonpayable",
      "type": "function"
    },
    {
      "inputs": [
        {
          "internalType": "address",
          "name": "operator",
          "type": "address"
        },
        {
          "internalType": "bool",
          "name": "approved",
          "type": "bool"
        }
      ],
      "name": "setApprovalForAll",
      "outputs": [],
      "stateMutability": "nonpayable",
      "type": "function"
    },
    {
      "inputs": [
        {
          "internalType": "uint256",
          "name": "_mapSize",
          "type": "uint256"
        }
      ],
      "name": "setMapSize",
      "outputs": [],
      "stateMutability": "nonpayable",
      "type": "function"
    },
    {
      "inputs": [
        {
          "internalType": "bytes4",
          "name": "interfaceId",
          "type": "bytes4"
        }
      ],
      "name": "supportsInterface",
      "outputs": [
        {
          "internalType": "bool",
          "name": "",
          "type": "bool"
        }
      ],
      "stateMutability": "view",
      "type": "function"
    },
    {
      "inputs": [],
      "name": "symbol",
      "outputs": [
        {
          "internalType": "string",
          "name": "",
          "type": "string"
        }
      ],
      "stateMutability": "view",
      "type": "function"
    },
    {
      "inputs": [
        {
          "internalType": "uint256",
          "name": "index",
          "type": "uint256"
        }
      ],
      "name": "tokenByIndex",
      "outputs": [
        {
          "internalType": "uint256",
          "name": "",
          "type": "uint256"
        }
      ],
      "stateMutability": "view",
      "type": "function"
    },
    {
      "inputs": [
        {
          "internalType": "address",
          "name": "owner",
          "type": "address"
        },
        {
          "internalType": "uint256",
          "name": "index",
          "type": "uint256"
        }
      ],
      "name": "tokenOfOwnerByIndex",
      "outputs": [
        {
          "internalType": "uint256",
          "name": "",
          "type": "uint256"
        }
      ],
      "stateMutability": "view",
      "type": "function"
    },
    {
      "inputs": [
        {
          "internalType": "uint256",
          "name": "tokenId",
          "type": "uint256"
        }
      ],
      "name": "tokenURI",
      "outputs": [
        {
          "internalType": "string",
          "name": "",
          "type": "string"
        }
      ],
      "stateMutability": "view",
      "type": "function"
    },
    {
      "inputs": [],
      "name": "totalSupply",
      "outputs": [
        {
          "internalType": "uint256",
          "name": "",
          "type": "uint256"
        }
      ],
      "stateMutability": "view",
      "type": "function"
    },
    {
      "inputs": [
        {
          "internalType": "address",
          "name": "from",
          "type": "address"
        },
        {
          "internalType": "address",
          "name": "to",
          "type": "address"
        },
        {
          "internalType": "uint256",
          "name": "tokenId",
          "type": "uint256"
        }
      ],
      "name": "transferFrom",
      "outputs": [],
      "stateMutability": "nonpayable",
      "type": "function"
    },
    {
      "inputs": [
        {
          "internalType": "address",
          "name": "newOwner",
          "type": "address"
        }
      ],
      "name": "transferOwnership",
      "outputs": [],
      "stateMutability": "nonpayable",
      "type": "function"
    }
  ],
  "bytecode": "0x6080604052606460045560016005553480156200001b57600080fd5b506040518060400160405280600881526020017f47616d654c616e640000000000000000000000000000000000000000000000008152506040518060400160405280600381526020017f4c4e440000000000000000000000000000000000000000000000000000000000815250620000a86200009c6200053b60201b60201c565b6200054360201b60201c565b600360016000806006811115620000e8577f4e487b7100000000000000000000000000000000000000000000000000000000600052602160045260246000fd5b600681111562000121577f4e487b7100000000000000000000000000000000000000000000000000000000600052602160045260246000fd5b815260200190815260200160002060006101000a81548160ff021916908360ff16021790555060018060006001600681111562000187577f4e487b7100000000000000000000000000000000000000000000000000000000600052602160045260246000fd5b6006811115620001c0577f4e487b7100000000000000000000000000000000000000000000000000000000600052602160045260246000fd5b815260200190815260200160002060006101000a81548160ff021916908360ff1602179055506000600160006002600681111562000227577f4e487b7100000000000000000000000000000000000000000000000000000000600052602160045260246000fd5b600681111562000260577f4e487b7100000000000000000000000000000000000000000000000000000000600052602160045260246000fd5b815260200190815260200160002060006101000a81548160ff021916908360ff160217905550600180600060036006811115620002c6577f4e487b7100000000000000000000000000000000000000000000000000000000600052602160045260246000fd5b6006811115620002ff577f4e487b7100000000000000000000000000000000000000000000000000000000600052602160045260246000fd5b815260200190815260200160002060006101000a81548160ff021916908360ff16021790555060018060006004600681111562000365577f4e487b7100000000000000000000000000000000000000000000000000000000600052602160045260246000fd5b60068111156200039e577f4e487b7100000000000000000000000000000000000000000000000000000000600052602160045260246000fd5b815260200190815260200160002060006101000a81548160ff021916908360ff16021790555060018060006005600681111562000404577f4e487b7100000000000000000000000000000000000000000000000000000000600052602160045260246000fd5b60068111156200043d577f4e487b7100000000000000000000000000000000000000000000000000000000600052602160045260246000fd5b815260200190815260200160002060006101000a81548160ff021916908360ff1602179055506001806000600680811115620004a2577f4e487b7100000000000000000000000000000000000000000000000000000000600052602160045260246000fd5b6006811115620004db577f4e487b7100000000000000000000000000000000000000000000000000000000600052602160045260246000fd5b815260200190815260200160002060006101000a81548160ff021916908360ff16021790555081600790805190602001906200051992919062000607565b5080600890805190602001906200053292919062000607565b5050506200071c565b600033905090565b60008060009054906101000a900473ffffffffffffffffffffffffffffffffffffffff169050816000806101000a81548173ffffffffffffffffffffffffffffffffffffffff021916908373ffffffffffffffffffffffffffffffffffffffff1602179055508173ffffffffffffffffffffffffffffffffffffffff168173ffffffffffffffffffffffffffffffffffffffff167f8be0079c531659141344cd1fd0a4f28419497f9722a3daafe3b4186f6b6457e060405160405180910390a35050565b8280546200061590620006b7565b90600052602060002090601f01602090048101928262000639576000855562000685565b82601f106200065457805160ff191683800117855562000685565b8280016001018555821562000685579182015b828111156200068457825182559160200191906001019062000667565b5b50905062000694919062000698565b5090565b5b80821115620006b357600081600090555060010162000699565b5090565b60006002820490506001821680620006d057607f821691505b60208210811415620006e757620006e6620006ed565b5b50919050565b7f4e487b7100000000000000000000000000000000000000000000000000000000600052602260045260246000fd5b614eda806200072c6000396000f3fe608060405234801561001057600080fd5b50600436106101585760003560e01c80636352211e116100c3578063a22cb4651161007c578063a22cb465146103eb578063b88d4fde14610407578063c87b56dd14610423578063e5e59e4314610453578063e985e9c514610483578063f2fde38b146104b357610158565b80636352211e1461032957806370a0823114610359578063715018a6146103895780637dabb1f3146103935780638da5cb5b146103af57806395d89b41146103cd57610158565b806318160ddd1161011557806318160ddd1461024357806323b872dd146102615780632f745c591461027d5780634213edf2146102ad57806342842e0e146102dd5780634f6ccce7146102f957610158565b806301ffc9a71461015d5780630234f9161461018d57806306fdde03146101bd578063081812fc146101db5780630838409a1461020b578063095ea7b314610227575b600080fd5b61017760048036038101906101729190613308565b6104cf565b6040516101849190613c22565b60405180910390f35b6101a760048036038101906101a291906133ea565b610549565b6040516101b49190613fdf565b60405180910390f35b6101c5610890565b6040516101d29190613c3d565b60405180910390f35b6101f560048036038101906101f091906133ea565b610922565b6040516102029190613bbb565b60405180910390f35b610225600480360381019061022091906133ea565b6109a7565b005b610241600480360381019061023c91906132cc565b610a71565b005b61024b610b89565b6040516102589190614001565b60405180910390f35b61027b600480360381019061027691906131c6565b610b96565b005b610297600480360381019061029291906132cc565b610bf6565b6040516102a49190614001565b60405180910390f35b6102c760048036038101906102c29190613383565b610c9b565b6040516102d49190614001565b60405180910390f35b6102f760048036038101906102f291906131c6565b610cbb565b005b610313600480360381019061030e91906133ea565b610cdb565b6040516103209190614001565b60405180910390f35b610343600480360381019061033e91906133ea565b610d72565b6040516103509190613bbb565b60405180910390f35b610373600480360381019061036e9190613161565b610e24565b6040516103809190614001565b60405180910390f35b610391610edc565b005b6103ad60048036038101906103a89190613413565b610f64565b005b6103b7610fee565b6040516103c49190613bbb565b60405180910390f35b6103d5611017565b6040516103e29190613c3d565b60405180910390f35b61040560048036038101906104009190613290565b6110a9565b005b610421600480360381019061041c9190613215565b61122a565b005b61043d600480360381019061043891906133ea565b61128c565b60405161044a9190613c3d565b60405180910390f35b61046d6004803603810190610468919061335a565b611333565b60405161047a91906140ad565b60405180910390f35b61049d6004803603810190610498919061318a565b611353565b6040516104aa9190613c22565b60405180910390f35b6104cd60048036038101906104c89190613161565b6113e7565b005b60007f780e9d63000000000000000000000000000000000000000000000000000000007bffffffffffffffffffffffffffffffffffffffffffffffffffffffff1916827bffffffffffffffffffffffffffffffffffffffffffffffffffffffff191614806105425750610541826114df565b5b9050919050565b610551612ee8565b60026000838152602001908152602001600020604051806101200160405290816000820160009054906101000a900460000b60000b60000b81526020016000820160019054906101000a900460000b60000b60000b81526020016000820160029054906101000a900460ff1660ff1660ff1681526020016000820160039054906101000a900460ff1660ff1660ff1681526020016000820160049054906101000a900463ffffffff1663ffffffff1663ffffffff16815260200160018201548152602001600282018054610624906144a5565b80601f0160208091040260200160405190810160405280929190818152602001828054610650906144a5565b801561069d5780601f106106725761010080835404028352916020019161069d565b820191906000526020600020905b81548152906001019060200180831161068057829003601f168201915b5050505050815260200160038201805480602002602001604051908101604052809291908181526020016000905b8282101561081a578382906000526020600020016040518060c00160405290816000820160009054906101000a900460ff1660ff1660ff1681526020016000820160019054906101000a900460ff1660ff1660ff1681526020016000820160029054906101000a900460ff1660ff1660ff1681526020016000820160039054906101000a900460ff1660ff1660ff1681526020016000820160049054906101000a900463ffffffff1663ffffffff1663ffffffff1681526020016000820160089054906101000a900460ff1660068111156107cf577f4e487b7100000000000000000000000000000000000000000000000000000000600052602160045260246000fd5b6006811115610807577f4e487b7100000000000000000000000000000000000000000000000000000000600052602160045260246000fd5b81525050815260200190600101906106cb565b5050505081526020016004820160009054906101000a900460ff16151515158152505090506001151581610100015115151461088b576040517f08c379a000000000000000000000000000000000000000000000000000000000815260040161088290613dff565b60405180910390fd5b919050565b60606007805461089f906144a5565b80601f01602080910402602001604051908101604052809291908181526020018280546108cb906144a5565b80156109185780601f106108ed57610100808354040283529160200191610918565b820191906000526020600020905b8154815290600101906020018083116108fb57829003601f168201915b5050505050905090565b600061092d826115c1565b61096c576040517f08c379a000000000000000000000000000000000000000000000000000000000815260040161096390613e1f565b60405180910390fd5b600b600083815260200190815260200160002060009054906101000a900473ffffffffffffffffffffffffffffffffffffffff169050919050565b6109af61162d565b73ffffffffffffffffffffffffffffffffffffffff166109cd610fee565b73ffffffffffffffffffffffffffffffffffffffff1614610a23576040517f08c379a0000000000000000000000000000000000000000000000000000000008152600401610a1a90613e5f565b60405180910390fd5b6004548111610a67576040517f08c379a0000000000000000000000000000000000000000000000000000000008152600401610a5e90613f1f565b60405180910390fd5b8060048190555050565b6000610a7c82610d72565b90508073ffffffffffffffffffffffffffffffffffffffff168373ffffffffffffffffffffffffffffffffffffffff161415610aed576040517f08c379a0000000000000000000000000000000000000000000000000000000008152600401610ae490613eff565b60405180910390fd5b8073ffffffffffffffffffffffffffffffffffffffff16610b0c61162d565b73ffffffffffffffffffffffffffffffffffffffff161480610b3b5750610b3a81610b3561162d565b611353565b5b610b7a576040517f08c379a0000000000000000000000000000000000000000000000000000000008152600401610b7190613d7f565b60405180910390fd5b610b848383611635565b505050565b6000600f80549050905090565b610ba7610ba161162d565b826116ee565b610be6576040517f08c379a0000000000000000000000000000000000000000000000000000000008152600401610bdd90613f3f565b60405180910390fd5b610bf18383836117cc565b505050565b6000610c0183610e24565b8210610c42576040517f08c379a0000000000000000000000000000000000000000000000000000000008152600401610c3990613c5f565b60405180910390fd5b600d60008473ffffffffffffffffffffffffffffffffffffffff1673ffffffffffffffffffffffffffffffffffffffff168152602001908152602001600020600083815260200190815260200160002054905092915050565b6000610ca8848484611a28565b9050610cb43382611cef565b9392505050565b610cd68383836040518060200160405280600081525061122a565b505050565b6000610ce5610b89565b8210610d26576040517f08c379a0000000000000000000000000000000000000000000000000000000008152600401610d1d90613f5f565b60405180910390fd5b600f8281548110610d60577f4e487b7100000000000000000000000000000000000000000000000000000000600052603260045260246000fd5b90600052602060002001549050919050565b6000806009600084815260200190815260200160002060009054906101000a900473ffffffffffffffffffffffffffffffffffffffff169050600073ffffffffffffffffffffffffffffffffffffffff168173ffffffffffffffffffffffffffffffffffffffff161415610e1b576040517f08c379a0000000000000000000000000000000000000000000000000000000008152600401610e1290613dbf565b60405180910390fd5b80915050919050565b60008073ffffffffffffffffffffffffffffffffffffffff168273ffffffffffffffffffffffffffffffffffffffff161415610e95576040517f08c379a0000000000000000000000000000000000000000000000000000000008152600401610e8c90613d9f565b60405180910390fd5b600a60008373ffffffffffffffffffffffffffffffffffffffff1673ffffffffffffffffffffffffffffffffffffffff168152602001908152602001600020549050919050565b610ee461162d565b73ffffffffffffffffffffffffffffffffffffffff16610f02610fee565b73ffffffffffffffffffffffffffffffffffffffff1614610f58576040517f08c379a0000000000000000000000000000000000000000000000000000000008152600401610f4f90613e5f565b60405180910390fd5b610f626000611ebd565b565b833373ffffffffffffffffffffffffffffffffffffffff16610f8582610d72565b73ffffffffffffffffffffffffffffffffffffffff1614610fdb576040517f08c379a0000000000000000000000000000000000000000000000000000000008152600401610fd290613e9f565b60405180910390fd5b610fe785858585611f81565b5050505050565b60008060009054906101000a900473ffffffffffffffffffffffffffffffffffffffff16905090565b606060088054611026906144a5565b80601f0160208091040260200160405190810160405280929190818152602001828054611052906144a5565b801561109f5780601f106110745761010080835404028352916020019161109f565b820191906000526020600020905b81548152906001019060200180831161108257829003601f168201915b5050505050905090565b6110b161162d565b73ffffffffffffffffffffffffffffffffffffffff168273ffffffffffffffffffffffffffffffffffffffff16141561111f576040517f08c379a000000000000000000000000000000000000000000000000000000000815260040161111690613cff565b60405180910390fd5b80600c600061112c61162d565b73ffffffffffffffffffffffffffffffffffffffff1673ffffffffffffffffffffffffffffffffffffffff16815260200190815260200160002060008473ffffffffffffffffffffffffffffffffffffffff1673ffffffffffffffffffffffffffffffffffffffff16815260200190815260200160002060006101000a81548160ff0219169083151502179055508173ffffffffffffffffffffffffffffffffffffffff166111d961162d565b73ffffffffffffffffffffffffffffffffffffffff167f17307eab39ab6107e8899845ad3d59bd9653f200f220920489ca2b5937696c318360405161121e9190613c22565b60405180910390a35050565b61123b61123561162d565b836116ee565b61127a576040517f08c379a000000000000000000000000000000000000000000000000000000000815260040161127190613f3f565b60405180910390fd5b611286848484846123e9565b50505050565b6060611297826115c1565b6112d6576040517f08c379a00000000000000000000000000000000000000000000000000000000081526004016112cd90613edf565b60405180910390fd5b60006112e0612445565b90506000815111611300576040518060200160405280600081525061132b565b8061130a8461245c565b60405160200161131b929190613b97565b6040516020818303038152906040525b915050919050565b60016020528060005260406000206000915054906101000a900460ff1681565b6000600c60008473ffffffffffffffffffffffffffffffffffffffff1673ffffffffffffffffffffffffffffffffffffffff16815260200190815260200160002060008373ffffffffffffffffffffffffffffffffffffffff1673ffffffffffffffffffffffffffffffffffffffff16815260200190815260200160002060009054906101000a900460ff16905092915050565b6113ef61162d565b73ffffffffffffffffffffffffffffffffffffffff1661140d610fee565b73ffffffffffffffffffffffffffffffffffffffff1614611463576040517f08c379a000000000000000000000000000000000000000000000000000000000815260040161145a90613e5f565b60405180910390fd5b600073ffffffffffffffffffffffffffffffffffffffff168173ffffffffffffffffffffffffffffffffffffffff1614156114d3576040517f08c379a00000000000000000000000000000000000000000000000000000000081526004016114ca90613c9f565b60405180910390fd5b6114dc81611ebd565b50565b60007f80ac58cd000000000000000000000000000000000000000000000000000000007bffffffffffffffffffffffffffffffffffffffffffffffffffffffff1916827bffffffffffffffffffffffffffffffffffffffffffffffffffffffff191614806115aa57507f5b5e139f000000000000000000000000000000000000000000000000000000007bffffffffffffffffffffffffffffffffffffffffffffffffffffffff1916827bffffffffffffffffffffffffffffffffffffffffffffffffffffffff1916145b806115ba57506115b982612609565b5b9050919050565b60008073ffffffffffffffffffffffffffffffffffffffff166009600084815260200190815260200160002060009054906101000a900473ffffffffffffffffffffffffffffffffffffffff1673ffffffffffffffffffffffffffffffffffffffff1614159050919050565b600033905090565b81600b600083815260200190815260200160002060006101000a81548173ffffffffffffffffffffffffffffffffffffffff021916908373ffffffffffffffffffffffffffffffffffffffff160217905550808273ffffffffffffffffffffffffffffffffffffffff166116a883610d72565b73ffffffffffffffffffffffffffffffffffffffff167f8c5be1e5ebec7d5bd14f71427d1e84f3dd0314c0f7b2291e5b200ac8c7c3b92560405160405180910390a45050565b60006116f9826115c1565b611738576040517f08c379a000000000000000000000000000000000000000000000000000000000815260040161172f90613d1f565b60405180910390fd5b600061174383610d72565b90508073ffffffffffffffffffffffffffffffffffffffff168473ffffffffffffffffffffffffffffffffffffffff1614806117b257508373ffffffffffffffffffffffffffffffffffffffff1661179a84610922565b73ffffffffffffffffffffffffffffffffffffffff16145b806117c357506117c28185611353565b5b91505092915050565b8273ffffffffffffffffffffffffffffffffffffffff166117ec82610d72565b73ffffffffffffffffffffffffffffffffffffffff1614611842576040517f08c379a000000000000000000000000000000000000000000000000000000000815260040161183990613ebf565b60405180910390fd5b600073ffffffffffffffffffffffffffffffffffffffff168273ffffffffffffffffffffffffffffffffffffffff1614156118b2576040517f08c379a00000000000000000000000000000000000000000000000000000000081526004016118a990613cdf565b60405180910390fd5b6118bd838383612673565b6118c8600082611635565b6001600a60008573ffffffffffffffffffffffffffffffffffffffff1673ffffffffffffffffffffffffffffffffffffffff1681526020019081526020016000206000828254611918919061432e565b925050819055506001600a60008473ffffffffffffffffffffffffffffffffffffffff1673ffffffffffffffffffffffffffffffffffffffff168152602001908152602001600020600082825461196f91906141dc565b92505081905550816009600083815260200190815260200160002060006101000a81548173ffffffffffffffffffffffffffffffffffffffff021916908373ffffffffffffffffffffffffffffffffffffffff160217905550808273ffffffffffffffffffffffffffffffffffffffff168473ffffffffffffffffffffffffffffffffffffffff167fddf252ad1be2c89b69c2b068fc378daa952ba7f163c4a11628f55a4df523b3ef60405160405180910390a4505050565b60006004548360000b13158015611a5057506004546000611a49919061429a565b8360000b12155b611a8f576040517f08c379a0000000000000000000000000000000000000000000000000000000008152600401611a8690613e7f565b60405180910390fd5b6004548260000b13158015611ab557506004546000611aae919061429a565b8260000b12155b611af4576040517f08c379a0000000000000000000000000000000000000000000000000000000008152600401611aeb90613fbf565b60405180910390fd5b6000600360008560000b60000b815260200190815260200160002060008460000b60000b81526020019081526020016000205414611b67576040517f08c379a0000000000000000000000000000000000000000000000000000000008152600401611b5e90613d5f565b60405180910390fd5b60056000815480929190611b7a90614508565b9190505590506000600260008381526020019081526020016000209050818160010181905550838160000160006101000a81548160ff021916908360000b60ff160217905550828160000160016101000a81548160ff021916908360000b60ff16021790555060058160000160026101000a81548160ff021916908360ff16021790555060648160000160036101000a81548160ff021916908360ff160217905550428160000160046101000a81548163ffffffff021916908363ffffffff16021790555084816002019080519060200190611c57929190612f46565b5060018160040160006101000a81548160ff02191690831515021790555081600360008660000b60000b815260200190815260200160002060008560000b60000b8152602001908152602001600020819055507fb449d51a80a67072b11ef6826bc0a223593d54e719f7444cd86215a462c90bdb82868686604051611cdf9493929190614061565b60405180910390a1509392505050565b600073ffffffffffffffffffffffffffffffffffffffff168273ffffffffffffffffffffffffffffffffffffffff161415611d5f576040517f08c379a0000000000000000000000000000000000000000000000000000000008152600401611d5690613ddf565b60405180910390fd5b611d68816115c1565b15611da8576040517f08c379a0000000000000000000000000000000000000000000000000000000008152600401611d9f90613cbf565b60405180910390fd5b611db460008383612673565b6001600a60008473ffffffffffffffffffffffffffffffffffffffff1673ffffffffffffffffffffffffffffffffffffffff1681526020019081526020016000206000828254611e0491906141dc565b92505081905550816009600083815260200190815260200160002060006101000a81548173ffffffffffffffffffffffffffffffffffffffff021916908373ffffffffffffffffffffffffffffffffffffffff160217905550808273ffffffffffffffffffffffffffffffffffffffff16600073ffffffffffffffffffffffffffffffffffffffff167fddf252ad1be2c89b69c2b068fc378daa952ba7f163c4a11628f55a4df523b3ef60405160405180910390a45050565b60008060009054906101000a900473ffffffffffffffffffffffffffffffffffffffff169050816000806101000a81548173ffffffffffffffffffffffffffffffffffffffff021916908373ffffffffffffffffffffffffffffffffffffffff1602179055508173ffffffffffffffffffffffffffffffffffffffff168173ffffffffffffffffffffffffffffffffffffffff167f8be0079c531659141344cd1fd0a4f28419497f9722a3daafe3b4186f6b6457e060405160405180910390a35050565b60006002600086815260200190815260200160002090506000611fa48686612787565b60ff1614611fe7576040517f08c379a0000000000000000000000000000000000000000000000000000000008152600401611fde90613f9f565b60405180910390fd5b600060016000866006811115612026577f4e487b7100000000000000000000000000000000000000000000000000000000600052602160045260246000fd5b600681111561205e577f4e487b7100000000000000000000000000000000000000000000000000000000600052602160045260246000fd5b815260200190815260200160002060009054906101000a900460ff16905060008160ff16116120c2576040517f08c379a00000000000000000000000000000000000000000000000000000000081526004016120b990613d3f565b60405180910390fd5b8160000160029054906101000a900460ff1660ff1681856120e39190614232565b60ff161115612127576040517f08c379a000000000000000000000000000000000000000000000000000000000815260040161211e90613e3f565b60405180910390fd5b8160000160029054906101000a900460ff1660ff1681846121489190614232565b60ff16111561218c576040517f08c379a000000000000000000000000000000000000000000000000000000000815260040161218390613e3f565b60405180910390fd5b60008490505b818561219e9190614232565b60ff168160ff1610156121ff5760008490505b82856121bd9190614232565b60ff168160ff1610156121eb576121d8868686600301612833565b80806121e390614551565b9150506121b1565b5080806121f790614551565b915050612192565b50816003016040518060c001604052808660ff1681526020018560ff1681526020018360ff168152602001600160ff1681526020014263ffffffff168152602001876006811115612279577f4e487b7100000000000000000000000000000000000000000000000000000000600052602160045260246000fd5b8152509080600181540180825580915050600190039060005260206000200160009091909190915060008201518160000160006101000a81548160ff021916908360ff16021790555060208201518160000160016101000a81548160ff021916908360ff16021790555060408201518160000160026101000a81548160ff021916908360ff16021790555060608201518160000160036101000a81548160ff021916908360ff16021790555060808201518160000160046101000a81548163ffffffff021916908363ffffffff16021790555060a08201518160000160086101000a81548160ff0219169083600681111561239d577f4e487b7100000000000000000000000000000000000000000000000000000000600052602160045260246000fd5b021790555050507f65ba7aa5381aa165bd92d38abccd807c7fb086876c94483c5648bdc0b0687bac868686866040516123d9949392919061401c565b60405180910390a1505050505050565b6123f48484846117cc565b612400848484846129c1565b61243f576040517f08c379a000000000000000000000000000000000000000000000000000000000815260040161243690613c7f565b60405180910390fd5b50505050565b606060405180602001604052806000815250905090565b606060008214156124a4576040518060400160405280600181526020017f30000000000000000000000000000000000000000000000000000000000000008152509050612604565b600082905060005b600082146124d65780806124bf90614508565b915050600a826124cf9190614269565b91506124ac565b60008167ffffffffffffffff811115612518577f4e487b7100000000000000000000000000000000000000000000000000000000600052604160045260246000fd5b6040519080825280601f01601f19166020018201604052801561254a5781602001600182028036833780820191505090505b5090505b600085146125fd57600182612563919061432e565b9150600a85612572919061457b565b603061257e91906141dc565b60f81b8183815181106125ba577f4e487b7100000000000000000000000000000000000000000000000000000000600052603260045260246000fd5b60200101907effffffffffffffffffffffffffffffffffffffffffffffffffffffffffffff1916908160001a905350600a856125f69190614269565b945061254e565b8093505050505b919050565b60007f01ffc9a7000000000000000000000000000000000000000000000000000000007bffffffffffffffffffffffffffffffffffffffffffffffffffffffff1916827bffffffffffffffffffffffffffffffffffffffffffffffffffffffff1916149050919050565b61267e838383612b58565b600073ffffffffffffffffffffffffffffffffffffffff168373ffffffffffffffffffffffffffffffffffffffff1614156126c1576126bc81612b5d565b612700565b8173ffffffffffffffffffffffffffffffffffffffff168373ffffffffffffffffffffffffffffffffffffffff16146126ff576126fe8382612ba6565b5b5b600073ffffffffffffffffffffffffffffffffffffffff168273ffffffffffffffffffffffffffffffffffffffff1614156127435761273e81612d13565b612782565b8273ffffffffffffffffffffffffffffffffffffffff168273ffffffffffffffffffffffffffffffffffffffff1614612781576127808282612e56565b5b5b505050565b60006006600084815260200190815260200160002060008360068111156127d7577f4e487b7100000000000000000000000000000000000000000000000000000000600052602160045260246000fd5b600681111561280f577f4e487b7100000000000000000000000000000000000000000000000000000000600052602160045260246000fd5b815260200190815260200160002060009054906101000a900460ff16905092915050565b60005b81805490508160ff1610156129bb576000828260ff1681548110612883577f4e487b7100000000000000000000000000000000000000000000000000000000600052603260045260246000fd5b906000526020600020019050600060018260000160029054906101000a900460ff168360000160009054906101000a900460ff166128c19190614232565b6128cb9190614362565b9050600060018360000160029054906101000a900460ff168460000160019054906101000a900460ff166128ff9190614232565b6129099190614362565b90508260000160009054906101000a900460ff1660ff168760ff16108061293557508160ff168760ff16115b8061295657508260000160019054906101000a900460ff1660ff168660ff16105b8061296657508060ff168660ff16115b6129a5576040517f08c379a000000000000000000000000000000000000000000000000000000000815260040161299c90613f7f565b60405180910390fd5b50505080806129b390614551565b915050612836565b50505050565b60006129e28473ffffffffffffffffffffffffffffffffffffffff16612ed5565b15612b4b578373ffffffffffffffffffffffffffffffffffffffff1663150b7a02612a0b61162d565b8786866040518563ffffffff1660e01b8152600401612a2d9493929190613bd6565b602060405180830381600087803b158015612a4757600080fd5b505af1925050508015612a7857506040513d601f19601f82011682018060405250810190612a759190613331565b60015b612afb573d8060008114612aa8576040519150601f19603f3d011682016040523d82523d6000602084013e612aad565b606091505b50600081511415612af3576040517f08c379a0000000000000000000000000000000000000000000000000000000008152600401612aea90613c7f565b60405180910390fd5b805181602001fd5b63150b7a0260e01b7bffffffffffffffffffffffffffffffffffffffffffffffffffffffff1916817bffffffffffffffffffffffffffffffffffffffffffffffffffffffff191614915050612b50565b600190505b949350505050565b505050565b600f805490506010600083815260200190815260200160002081905550600f81908060018154018082558091505060019003906000526020600020016000909190919091505550565b60006001612bb384610e24565b612bbd919061432e565b90506000600e6000848152602001908152602001600020549050818114612ca2576000600d60008673ffffffffffffffffffffffffffffffffffffffff1673ffffffffffffffffffffffffffffffffffffffff168152602001908152602001600020600084815260200190815260200160002054905080600d60008773ffffffffffffffffffffffffffffffffffffffff1673ffffffffffffffffffffffffffffffffffffffff16815260200190815260200160002060008481526020019081526020016000208190555081600e600083815260200190815260200160002081905550505b600e600084815260200190815260200160002060009055600d60008573ffffffffffffffffffffffffffffffffffffffff1673ffffffffffffffffffffffffffffffffffffffff16815260200190815260200160002060008381526020019081526020016000206000905550505050565b60006001600f80549050612d27919061432e565b90506000601060008481526020019081526020016000205490506000600f8381548110612d7d577f4e487b7100000000000000000000000000000000000000000000000000000000600052603260045260246000fd5b9060005260206000200154905080600f8381548110612dc5577f4e487b7100000000000000000000000000000000000000000000000000000000600052603260045260246000fd5b90600052602060002001819055508160106000838152602001908152602001600020819055506010600085815260200190815260200160002060009055600f805480612e3a577f4e487b7100000000000000000000000000000000000000000000000000000000600052603160045260246000fd5b6001900381819060005260206000200160009055905550505050565b6000612e6183610e24565b905081600d60008573ffffffffffffffffffffffffffffffffffffffff1673ffffffffffffffffffffffffffffffffffffffff16815260200190815260200160002060008381526020019081526020016000208190555080600e600084815260200190815260200160002081905550505050565b600080823b905060008111915050919050565b6040518061012001604052806000800b81526020016000800b8152602001600060ff168152602001600060ff168152602001600063ffffffff1681526020016000815260200160608152602001606081526020016000151581525090565b828054612f52906144a5565b90600052602060002090601f016020900481019282612f745760008555612fbb565b82601f10612f8d57805160ff1916838001178555612fbb565b82800160010185558215612fbb579182015b82811115612fba578251825591602001919060010190612f9f565b5b509050612fc89190612fcc565b5090565b5b80821115612fe5576000816000905550600101612fcd565b5090565b6000612ffc612ff7846140ed565b6140c8565b90508281526020810184848401111561301457600080fd5b61301f848285614463565b509392505050565b600061303a6130358461411e565b6140c8565b90508281526020810184848401111561305257600080fd5b61305d848285614463565b509392505050565b60008135905061307481614e0a565b92915050565b60008135905061308981614e21565b92915050565b60008135905061309e81614e38565b92915050565b6000815190506130b381614e38565b92915050565b600082601f8301126130ca57600080fd5b81356130da848260208601612fe9565b91505092915050565b6000813590506130f281614e4f565b92915050565b60008135905061310781614e5f565b92915050565b600082601f83011261311e57600080fd5b813561312e848260208601613027565b91505092915050565b60008135905061314681614e76565b92915050565b60008135905061315b81614e8d565b92915050565b60006020828403121561317357600080fd5b600061318184828501613065565b91505092915050565b6000806040838503121561319d57600080fd5b60006131ab85828601613065565b92505060206131bc85828601613065565b9150509250929050565b6000806000606084860312156131db57600080fd5b60006131e986828701613065565b93505060206131fa86828701613065565b925050604061320b86828701613137565b9150509250925092565b6000806000806080858703121561322b57600080fd5b600061323987828801613065565b945050602061324a87828801613065565b935050604061325b87828801613137565b925050606085013567ffffffffffffffff81111561327857600080fd5b613284878288016130b9565b91505092959194509250565b600080604083850312156132a357600080fd5b60006132b185828601613065565b92505060206132c28582860161307a565b9150509250929050565b600080604083850312156132df57600080fd5b60006132ed85828601613065565b92505060206132fe85828601613137565b9150509250929050565b60006020828403121561331a57600080fd5b60006133288482850161308f565b91505092915050565b60006020828403121561334357600080fd5b6000613351848285016130a4565b91505092915050565b60006020828403121561336c57600080fd5b600061337a848285016130e3565b91505092915050565b60008060006060848603121561339857600080fd5b600084013567ffffffffffffffff8111156133b257600080fd5b6133be8682870161310d565b93505060206133cf868287016130f8565b92505060406133e0868287016130f8565b9150509250925092565b6000602082840312156133fc57600080fd5b600061340a84828501613137565b91505092915050565b6000806000806080858703121561342957600080fd5b600061343787828801613137565b9450506020613448878288016130e3565b93505060406134598782880161314c565b925050606061346a8782880161314c565b91505092959194509250565b60006134828383613a05565b60c08301905092915050565b61349781614396565b82525050565b60006134a88261415f565b6134b2818561418d565b93506134bd8361414f565b8060005b838110156134ee5781516134d58882613476565b97506134e083614180565b9250506001810190506134c1565b5085935050505092915050565b613504816143a8565b82525050565b613513816143a8565b82525050565b60006135248261416a565b61352e818561419e565b935061353e818560208601614472565b61354781614697565b840191505092915050565b61355b81614451565b82525050565b61356a81614451565b82525050565b613579816143fd565b82525050565b613588816143fd565b82525050565b600061359982614175565b6135a381856141af565b93506135b3818560208601614472565b6135bc81614697565b840191505092915050565b60006135d282614175565b6135dc81856141c0565b93506135ec818560208601614472565b6135f581614697565b840191505092915050565b600061360b82614175565b61361581856141d1565b9350613625818560208601614472565b80840191505092915050565b600061363e602b836141c0565b9150613649826146a8565b604082019050919050565b60006136616032836141c0565b915061366c826146f7565b604082019050919050565b60006136846026836141c0565b915061368f82614746565b604082019050919050565b60006136a7601c836141c0565b91506136b282614795565b602082019050919050565b60006136ca6024836141c0565b91506136d5826147be565b604082019050919050565b60006136ed6019836141c0565b91506136f88261480d565b602082019050919050565b6000613710602c836141c0565b915061371b82614836565b604082019050919050565b6000613733603c836141c0565b915061373e82614885565b604082019050919050565b6000613756602b836141c0565b9150613761826148d4565b604082019050919050565b60006137796038836141c0565b915061378482614923565b604082019050919050565b600061379c602a836141c0565b91506137a782614972565b604082019050919050565b60006137bf6029836141c0565b91506137ca826149c1565b604082019050919050565b60006137e26020836141c0565b91506137ed82614a10565b602082019050919050565b60006138056019836141c0565b915061381082614a39565b602082019050919050565b6000613828602c836141c0565b915061383382614a62565b604082019050919050565b600061384b602c836141c0565b915061385682614ab1565b604082019050919050565b600061386e6020836141c0565b915061387982614b00565b602082019050919050565b6000613891601a836141c0565b915061389c82614b29565b602082019050919050565b60006138b4601c836141c0565b91506138bf82614b52565b602082019050919050565b60006138d76029836141c0565b91506138e282614b7b565b604082019050919050565b60006138fa602f836141c0565b915061390582614bca565b604082019050919050565b600061391d6021836141c0565b915061392882614c19565b604082019050919050565b6000613940602d836141c0565b915061394b82614c68565b604082019050919050565b60006139636031836141c0565b915061396e82614cb7565b604082019050919050565b6000613986602c836141c0565b915061399182614d06565b604082019050919050565b60006139a9601e836141c0565b91506139b482614d55565b602082019050919050565b60006139cc602c836141c0565b91506139d782614d7e565b604082019050919050565b60006139ef601a836141c0565b91506139fa82614dcd565b602082019050919050565b60c082016000820151613a1b6000850182613b79565b506020820151613a2e6020850182613b79565b506040820151613a416040850182613b79565b506060820151613a546060850182613b79565b506080820151613a676080850182613b6a565b5060a0820151613a7a60a0850182613552565b50505050565b600061012083016000830151613a996000860182613570565b506020830151613aac6020860182613570565b506040830151613abf6040860182613b79565b506060830151613ad26060860182613b79565b506080830151613ae56080860182613b6a565b5060a0830151613af860a0860182613b4c565b5060c083015184820360c0860152613b10828261358e565b91505060e083015184820360e0860152613b2a828261349d565b915050610100830151613b416101008601826134fb565b508091505092915050565b613b558161442a565b82525050565b613b648161442a565b82525050565b613b7381614434565b82525050565b613b8281614444565b82525050565b613b9181614444565b82525050565b6000613ba38285613600565b9150613baf8284613600565b91508190509392505050565b6000602082019050613bd0600083018461348e565b92915050565b6000608082019050613beb600083018761348e565b613bf8602083018661348e565b613c056040830185613b5b565b8181036060830152613c178184613519565b905095945050505050565b6000602082019050613c37600083018461350a565b92915050565b60006020820190508181036000830152613c5781846135c7565b905092915050565b60006020820190508181036000830152613c7881613631565b9050919050565b60006020820190508181036000830152613c9881613654565b9050919050565b60006020820190508181036000830152613cb881613677565b9050919050565b60006020820190508181036000830152613cd88161369a565b9050919050565b60006020820190508181036000830152613cf8816136bd565b9050919050565b60006020820190508181036000830152613d18816136e0565b9050919050565b60006020820190508181036000830152613d3881613703565b9050919050565b60006020820190508181036000830152613d5881613726565b9050919050565b60006020820190508181036000830152613d7881613749565b9050919050565b60006020820190508181036000830152613d988161376c565b9050919050565b60006020820190508181036000830152613db88161378f565b9050919050565b60006020820190508181036000830152613dd8816137b2565b9050919050565b60006020820190508181036000830152613df8816137d5565b9050919050565b60006020820190508181036000830152613e18816137f8565b9050919050565b60006020820190508181036000830152613e388161381b565b9050919050565b60006020820190508181036000830152613e588161383e565b9050919050565b60006020820190508181036000830152613e7881613861565b9050919050565b60006020820190508181036000830152613e9881613884565b9050919050565b60006020820190508181036000830152613eb8816138a7565b9050919050565b60006020820190508181036000830152613ed8816138ca565b9050919050565b60006020820190508181036000830152613ef8816138ed565b9050919050565b60006020820190508181036000830152613f1881613910565b9050919050565b60006020820190508181036000830152613f3881613933565b9050919050565b60006020820190508181036000830152613f5881613956565b9050919050565b60006020820190508181036000830152613f7881613979565b9050919050565b60006020820190508181036000830152613f988161399c565b9050919050565b60006020820190508181036000830152613fb8816139bf565b9050919050565b60006020820190508181036000830152613fd8816139e2565b9050919050565b60006020820190508181036000830152613ff98184613a80565b905092915050565b60006020820190506140166000830184613b5b565b92915050565b60006080820190506140316000830187613b5b565b61403e6020830186613561565b61404b6040830185613b88565b6140586060830184613b88565b95945050505050565b60006080820190506140766000830187613b5b565b818103602083015261408881866135c7565b9050614097604083018561357f565b6140a4606083018461357f565b95945050505050565b60006020820190506140c26000830184613b88565b92915050565b60006140d26140e3565b90506140de82826144d7565b919050565b6000604051905090565b600067ffffffffffffffff82111561410857614107614668565b5b61411182614697565b9050602081019050919050565b600067ffffffffffffffff82111561413957614138614668565b5b61414282614697565b9050602081019050919050565b6000819050602082019050919050565b600081519050919050565b600081519050919050565b600081519050919050565b6000602082019050919050565b600082825260208201905092915050565b600082825260208201905092915050565b600082825260208201905092915050565b600082825260208201905092915050565b600081905092915050565b60006141e78261442a565b91506141f28361442a565b9250827fffffffffffffffffffffffffffffffffffffffffffffffffffffffffffffffff03821115614227576142266145ac565b5b828201905092915050565b600061423d82614444565b915061424883614444565b92508260ff0382111561425e5761425d6145ac565b5b828201905092915050565b60006142748261442a565b915061427f8361442a565b92508261428f5761428e6145db565b5b828204905092915050565b60006142a5826143f3565b91506142b0836143f3565b9250827f8000000000000000000000000000000000000000000000000000000000000000018212600084121516156142eb576142ea6145ac565b5b827f7fffffffffffffffffffffffffffffffffffffffffffffffffffffffffffffff018213600084121615614323576143226145ac565b5b828203905092915050565b60006143398261442a565b91506143448361442a565b925082821015614357576143566145ac565b5b828203905092915050565b600061436d82614444565b915061437883614444565b92508282101561438b5761438a6145ac565b5b828203905092915050565b60006143a18261440a565b9050919050565b60008115159050919050565b60007fffffffff0000000000000000000000000000000000000000000000000000000082169050919050565b60008190506143ee82614df6565b919050565b6000819050919050565b60008160000b9050919050565b600073ffffffffffffffffffffffffffffffffffffffff82169050919050565b6000819050919050565b600063ffffffff82169050919050565b600060ff82169050919050565b600061445c826143e0565b9050919050565b82818337600083830152505050565b60005b83811015614490578082015181840152602081019050614475565b8381111561449f576000848401525b50505050565b600060028204905060018216806144bd57607f821691505b602082108114156144d1576144d0614639565b5b50919050565b6144e082614697565b810181811067ffffffffffffffff821117156144ff576144fe614668565b5b80604052505050565b60006145138261442a565b91507fffffffffffffffffffffffffffffffffffffffffffffffffffffffffffffffff821415614546576145456145ac565b5b600182019050919050565b600061455c82614444565b915060ff8214156145705761456f6145ac565b5b600182019050919050565b60006145868261442a565b91506145918361442a565b9250826145a1576145a06145db565b5b828206905092915050565b7f4e487b7100000000000000000000000000000000000000000000000000000000600052601160045260246000fd5b7f4e487b7100000000000000000000000000000000000000000000000000000000600052601260045260246000fd5b7f4e487b7100000000000000000000000000000000000000000000000000000000600052602160045260246000fd5b7f4e487b7100000000000000000000000000000000000000000000000000000000600052602260045260246000fd5b7f4e487b7100000000000000000000000000000000000000000000000000000000600052604160045260246000fd5b6000601f19601f8301169050919050565b7f455243373231456e756d657261626c653a206f776e657220696e646578206f7560008201527f74206f6620626f756e6473000000000000000000000000000000000000000000602082015250565b7f4552433732313a207472616e7366657220746f206e6f6e20455243373231526560008201527f63656976657220696d706c656d656e7465720000000000000000000000000000602082015250565b7f4f776e61626c653a206e6577206f776e657220697320746865207a65726f206160008201527f6464726573730000000000000000000000000000000000000000000000000000602082015250565b7f4552433732313a20746f6b656e20616c7265616479206d696e74656400000000600082015250565b7f4552433732313a207472616e7366657220746f20746865207a65726f2061646460008201527f7265737300000000000000000000000000000000000000000000000000000000602082015250565b7f4552433732313a20617070726f766520746f2063616c6c657200000000000000600082015250565b7f4552433732313a206f70657261746f7220717565727920666f72206e6f6e657860008201527f697374656e7420746f6b656e0000000000000000000000000000000000000000602082015250565b7f4572726f722c20696e76616c6964206275696c64696e672073697a652e20436860008201527f65636b206275696c64696e67207479706520706172616d657465722e00000000602082015250565b7f76696c6c61676520616c7265616479206578697374732061742074686573652060008201527f636f6f7264696e61746573000000000000000000000000000000000000000000602082015250565b7f4552433732313a20617070726f76652063616c6c6572206973206e6f74206f7760008201527f6e6572206e6f7220617070726f76656420666f7220616c6c0000000000000000602082015250565b7f4552433732313a2062616c616e636520717565727920666f7220746865207a6560008201527f726f206164647265737300000000000000000000000000000000000000000000602082015250565b7f4552433732313a206f776e657220717565727920666f72206e6f6e657869737460008201527f656e7420746f6b656e0000000000000000000000000000000000000000000000602082015250565b7f4552433732313a206d696e7420746f20746865207a65726f2061646472657373600082015250565b7f76696c6c61676520494420646f6573206e6f7420657869737400000000000000600082015250565b7f4552433732313a20617070726f76656420717565727920666f72206e6f6e657860008201527f697374656e7420746f6b656e0000000000000000000000000000000000000000602082015250565b7f4e657720706c6163656d656e74206f7574206f6620626f756e647320666f722060008201527f76696c6c6167652073697a650000000000000000000000000000000000000000602082015250565b7f4f776e61626c653a2063616c6c6572206973206e6f7420746865206f776e6572600082015250565b7f7820636f6f7264696e617465206f7574206f6620626f756e6473000000000000600082015250565b7f4e6f7420746865206f776e6572206f66207468652076696c6c61676500000000600082015250565b7f4552433732313a207472616e73666572206f6620746f6b656e2074686174206960008201527f73206e6f74206f776e0000000000000000000000000000000000000000000000602082015250565b7f4552433732314d657461646174613a2055524920717565727920666f72206e6f60008201527f6e6578697374656e7420746f6b656e0000000000000000000000000000000000602082015250565b7f4552433732313a20617070726f76616c20746f2063757272656e74206f776e6560008201527f7200000000000000000000000000000000000000000000000000000000000000602082015250565b7f4e6577206d61702073697a65206d75737420626520626967676572207468616e60008201527f206f6c64206d61702073697a6500000000000000000000000000000000000000602082015250565b7f4552433732313a207472616e736665722063616c6c6572206973206e6f74206f60008201527f776e6572206e6f7220617070726f766564000000000000000000000000000000602082015250565b7f455243373231456e756d657261626c653a20676c6f62616c20696e646578206f60008201527f7574206f6620626f756e64730000000000000000000000000000000000000000602082015250565b7f436c61736865732077697468206578697374696e67206275696c64696e670000600082015250565b7f546869732074797065206f66206275696c64696e672068617320616c7265616460008201527f79206265656e206275696c740000000000000000000000000000000000000000602082015250565b7f7920636f6f7264696e617465206f7574206f6620626f756e6473000000000000600082015250565b60078110614e0757614e0661460a565b5b50565b614e1381614396565b8114614e1e57600080fd5b50565b614e2a816143a8565b8114614e3557600080fd5b50565b614e41816143b4565b8114614e4c57600080fd5b50565b60078110614e5c57600080fd5b50565b614e68816143fd565b8114614e7357600080fd5b50565b614e7f8161442a565b8114614e8a57600080fd5b50565b614e9681614444565b8114614ea157600080fd5b5056fea2646970667358221220b414ae93e7546d03319da9a5e80a430859fae6de9873cb770e2c25b6bdc929b164736f6c63430008040033",
  "linkReferences": {},
  "deployedLinkReferences": {}
}