{
  "_format": "hh-sol-artifact-1",
  "contractName": "VillageNft",
  "sourceName": "contracts/VillageNft.sol",
  "abi": [
    {
      "inputs": [],
      "stateMutability": "nonpayable",
      "type": "constructor"
    },
    {
      "anonymous": false,
      "inputs": [
        {
          "indexed": true,
          "internalType": "address",
          "name": "owner",
          "type": "address"
        },
        {
          "indexed": true,
          "internalType": "address",
          "name": "approved",
          "type": "address"
        },
        {
          "indexed": true,
          "internalType": "uint256",
          "name": "tokenId",
          "type": "uint256"
        }
      ],
      "name": "Approval",
      "type": "event"
    },
    {
      "anonymous": false,
      "inputs": [
        {
          "indexed": true,
          "internalType": "address",
          "name": "owner",
          "type": "address"
        },
        {
          "indexed": true,
          "internalType": "address",
          "name": "operator",
          "type": "address"
        },
        {
          "indexed": false,
          "internalType": "bool",
          "name": "approved",
          "type": "bool"
        }
      ],
      "name": "ApprovalForAll",
      "type": "event"
    },
    {
      "anonymous": false,
      "inputs": [
        {
          "indexed": false,
          "internalType": "uint256",
          "name": "villageId",
          "type": "uint256"
        },
        {
          "indexed": false,
          "internalType": "enum VillageGame.BuildingTypes",
          "name": "buildingType",
          "type": "uint8"
        },
        {
          "indexed": false,
          "internalType": "uint8",
          "name": "_x",
          "type": "uint8"
        },
        {
          "indexed": false,
          "internalType": "uint8",
          "name": "_y",
          "type": "uint8"
        }
      ],
      "name": "NewBuilding",
      "type": "event"
    },
    {
      "anonymous": false,
      "inputs": [
        {
          "indexed": false,
          "internalType": "uint256",
          "name": "villageId",
          "type": "uint256"
        },
        {
          "indexed": false,
          "internalType": "string",
          "name": "name",
          "type": "string"
        },
        {
          "indexed": false,
          "internalType": "int8",
          "name": "_x",
          "type": "int8"
        },
        {
          "indexed": false,
          "internalType": "int8",
          "name": "_y",
          "type": "int8"
        }
      ],
      "name": "NewVillage",
      "type": "event"
    },
    {
      "anonymous": false,
      "inputs": [
        {
          "indexed": true,
          "internalType": "address",
          "name": "previousOwner",
          "type": "address"
        },
        {
          "indexed": true,
          "internalType": "address",
          "name": "newOwner",
          "type": "address"
        }
      ],
      "name": "OwnershipTransferred",
      "type": "event"
    },
    {
      "anonymous": false,
      "inputs": [
        {
          "indexed": true,
          "internalType": "address",
          "name": "from",
          "type": "address"
        },
        {
          "indexed": true,
          "internalType": "address",
          "name": "to",
          "type": "address"
        },
        {
          "indexed": true,
          "internalType": "uint256",
          "name": "tokenId",
          "type": "uint256"
        }
      ],
      "name": "Transfer",
      "type": "event"
    },
    {
      "inputs": [
        {
          "internalType": "address",
          "name": "to",
          "type": "address"
        },
        {
          "internalType": "uint256",
          "name": "tokenId",
          "type": "uint256"
        }
      ],
      "name": "approve",
      "outputs": [],
      "stateMutability": "nonpayable",
      "type": "function"
    },
    {
      "inputs": [
        {
          "internalType": "address",
          "name": "owner",
          "type": "address"
        }
      ],
      "name": "balanceOf",
      "outputs": [
        {
          "internalType": "uint256",
          "name": "",
          "type": "uint256"
        }
      ],
      "stateMutability": "view",
      "type": "function"
    },
    {
      "inputs": [
        {
          "internalType": "enum VillageGame.BuildingTypes",
          "name": "",
          "type": "uint8"
        }
      ],
      "name": "buildingSizes",
      "outputs": [
        {
          "internalType": "uint8",
          "name": "",
          "type": "uint8"
        }
      ],
      "stateMutability": "view",
      "type": "function"
    },
    {
      "inputs": [
        {
          "internalType": "string",
          "name": "_name",
          "type": "string"
        },
        {
          "internalType": "int8",
          "name": "_x",
          "type": "int8"
        },
        {
          "internalType": "int8",
          "name": "_y",
          "type": "int8"
        }
      ],
      "name": "createVillage",
      "outputs": [
        {
          "internalType": "uint256",
          "name": "villageId",
          "type": "uint256"
        }
      ],
      "stateMutability": "nonpayable",
      "type": "function"
    },
    {
      "inputs": [
        {
          "internalType": "uint256",
          "name": "tokenId",
          "type": "uint256"
        }
      ],
      "name": "getApproved",
      "outputs": [
        {
          "internalType": "address",
          "name": "",
          "type": "address"
        }
      ],
      "stateMutability": "view",
      "type": "function"
    },
    {
      "inputs": [
        {
          "internalType": "uint256",
          "name": "_villageId",
          "type": "uint256"
        }
      ],
      "name": "getGoldMaxStorageAmount",
      "outputs": [
        {
          "internalType": "uint256",
          "name": "",
          "type": "uint256"
        }
      ],
      "stateMutability": "view",
      "type": "function"
    },
    {
      "inputs": [
        {
          "internalType": "uint256",
          "name": "_villageId",
          "type": "uint256"
        }
      ],
      "name": "getGoldMineableAmount",
      "outputs": [
        {
          "internalType": "uint256",
          "name": "",
          "type": "uint256"
        }
      ],
      "stateMutability": "view",
      "type": "function"
    },
    {
      "inputs": [
        {
          "internalType": "uint256",
          "name": "_villageId",
          "type": "uint256"
        }
      ],
      "name": "getVillage",
      "outputs": [
        {
          "components": [
            {
              "internalType": "int8",
              "name": "x",
              "type": "int8"
            },
            {
              "internalType": "int8",
              "name": "y",
              "type": "int8"
            },
            {
              "internalType": "uint8",
              "name": "size",
              "type": "uint8"
            },
            {
              "internalType": "uint8",
              "name": "baseGoldRate",
              "type": "uint8"
            },
            {
              "internalType": "uint256",
              "name": "lastMined",
              "type": "uint256"
            },
            {
              "internalType": "uint256",
              "name": "id",
              "type": "uint256"
            },
            {
              "internalType": "uint256",
              "name": "stats",
              "type": "uint256"
            },
            {
              "internalType": "string",
              "name": "name",
              "type": "string"
            },
            {
              "components": [
                {
                  "internalType": "uint8",
                  "name": "x",
                  "type": "uint8"
                },
                {
                  "internalType": "uint8",
                  "name": "y",
                  "type": "uint8"
                },
                {
                  "internalType": "uint8",
                  "name": "size",
                  "type": "uint8"
                },
                {
                  "internalType": "uint8",
                  "name": "level",
                  "type": "uint8"
                },
                {
                  "internalType": "uint32",
                  "name": "upgradeCompleteTime",
                  "type": "uint32"
                },
                {
                  "internalType": "enum VillageGame.BuildingTypes",
                  "name": "buildingType",
                  "type": "uint8"
                },
                {
                  "internalType": "bool",
                  "name": "exists",
                  "type": "bool"
                }
              ],
              "internalType": "struct VillageGame.BuildingPlacement[]",
              "name": "buildings",
              "type": "tuple[]"
            },
            {
              "internalType": "bool",
              "name": "exists",
              "type": "bool"
            }
          ],
          "internalType": "struct VillageGame.Village",
          "name": "village",
          "type": "tuple"
        }
      ],
      "stateMutability": "view",
      "type": "function"
    },
    {
      "inputs": [
        {
          "internalType": "address",
          "name": "owner",
          "type": "address"
        },
        {
          "internalType": "address",
          "name": "operator",
          "type": "address"
        }
      ],
      "name": "isApprovedForAll",
      "outputs": [
        {
          "internalType": "bool",
          "name": "",
          "type": "bool"
        }
      ],
      "stateMutability": "view",
      "type": "function"
    },
    {
      "inputs": [
        {
          "internalType": "uint256",
          "name": "_villageId",
          "type": "uint256"
        }
      ],
      "name": "mineGold",
      "outputs": [],
      "stateMutability": "nonpayable",
      "type": "function"
    },
    {
      "inputs": [],
      "name": "name",
      "outputs": [
        {
          "internalType": "string",
          "name": "",
          "type": "string"
        }
      ],
      "stateMutability": "view",
      "type": "function"
    },
    {
      "inputs": [],
      "name": "owner",
      "outputs": [
        {
          "internalType": "address",
          "name": "",
          "type": "address"
        }
      ],
      "stateMutability": "view",
      "type": "function"
    },
    {
      "inputs": [
        {
          "internalType": "uint256",
          "name": "tokenId",
          "type": "uint256"
        }
      ],
      "name": "ownerOf",
      "outputs": [
        {
          "internalType": "address",
          "name": "",
          "type": "address"
        }
      ],
      "stateMutability": "view",
      "type": "function"
    },
    {
      "inputs": [
        {
          "internalType": "uint256",
          "name": "_villageId",
          "type": "uint256"
        },
        {
          "internalType": "enum VillageGame.BuildingTypes",
          "name": "_buildingType",
          "type": "uint8"
        },
        {
          "internalType": "uint8",
          "name": "_x",
          "type": "uint8"
        },
        {
          "internalType": "uint8",
          "name": "_y",
          "type": "uint8"
        }
      ],
      "name": "placeBuilding",
      "outputs": [],
      "stateMutability": "nonpayable",
      "type": "function"
    },
    {
      "inputs": [],
      "name": "renounceOwnership",
      "outputs": [],
      "stateMutability": "nonpayable",
      "type": "function"
    },
    {
      "inputs": [
        {
          "internalType": "address",
          "name": "from",
          "type": "address"
        },
        {
          "internalType": "address",
          "name": "to",
          "type": "address"
        },
        {
          "internalType": "uint256",
          "name": "tokenId",
          "type": "uint256"
        }
      ],
      "name": "safeTransferFrom",
      "outputs": [],
      "stateMutability": "nonpayable",
      "type": "function"
    },
    {
      "inputs": [
        {
          "internalType": "address",
          "name": "from",
          "type": "address"
        },
        {
          "internalType": "address",
          "name": "to",
          "type": "address"
        },
        {
          "internalType": "uint256",
          "name": "tokenId",
          "type": "uint256"
        },
        {
          "internalType": "bytes",
          "name": "_data",
          "type": "bytes"
        }
      ],
      "name": "safeTransferFrom",
      "outputs": [],
      "stateMutability": "nonpayable",
      "type": "function"
    },
    {
      "inputs": [
        {
          "internalType": "address",
          "name": "operator",
          "type": "address"
        },
        {
          "internalType": "bool",
          "name": "approved",
          "type": "bool"
        }
      ],
      "name": "setApprovalForAll",
      "outputs": [],
      "stateMutability": "nonpayable",
      "type": "function"
    },
    {
      "inputs": [
        {
          "internalType": "uint256",
          "name": "_mapSize",
          "type": "uint256"
        }
      ],
      "name": "setMapSize",
      "outputs": [],
      "stateMutability": "nonpayable",
      "type": "function"
    },
    {
      "inputs": [
        {
          "internalType": "address",
          "name": "_contractAddress",
          "type": "address"
        }
      ],
      "name": "setVillageGoldContract",
      "outputs": [],
      "stateMutability": "nonpayable",
      "type": "function"
    },
    {
      "inputs": [
        {
          "internalType": "bytes4",
          "name": "interfaceId",
          "type": "bytes4"
        }
      ],
      "name": "supportsInterface",
      "outputs": [
        {
          "internalType": "bool",
          "name": "",
          "type": "bool"
        }
      ],
      "stateMutability": "view",
      "type": "function"
    },
    {
      "inputs": [],
      "name": "symbol",
      "outputs": [
        {
          "internalType": "string",
          "name": "",
          "type": "string"
        }
      ],
      "stateMutability": "view",
      "type": "function"
    },
    {
      "inputs": [
        {
          "internalType": "uint256",
          "name": "index",
          "type": "uint256"
        }
      ],
      "name": "tokenByIndex",
      "outputs": [
        {
          "internalType": "uint256",
          "name": "",
          "type": "uint256"
        }
      ],
      "stateMutability": "view",
      "type": "function"
    },
    {
      "inputs": [
        {
          "internalType": "address",
          "name": "owner",
          "type": "address"
        },
        {
          "internalType": "uint256",
          "name": "index",
          "type": "uint256"
        }
      ],
      "name": "tokenOfOwnerByIndex",
      "outputs": [
        {
          "internalType": "uint256",
          "name": "",
          "type": "uint256"
        }
      ],
      "stateMutability": "view",
      "type": "function"
    },
    {
      "inputs": [
        {
          "internalType": "uint256",
          "name": "tokenId",
          "type": "uint256"
        }
      ],
      "name": "tokenURI",
      "outputs": [
        {
          "internalType": "string",
          "name": "",
          "type": "string"
        }
      ],
      "stateMutability": "view",
      "type": "function"
    },
    {
      "inputs": [],
      "name": "totalSupply",
      "outputs": [
        {
          "internalType": "uint256",
          "name": "",
          "type": "uint256"
        }
      ],
      "stateMutability": "view",
      "type": "function"
    },
    {
      "inputs": [
        {
          "internalType": "address",
          "name": "from",
          "type": "address"
        },
        {
          "internalType": "address",
          "name": "to",
          "type": "address"
        },
        {
          "internalType": "uint256",
          "name": "tokenId",
          "type": "uint256"
        }
      ],
      "name": "transferFrom",
      "outputs": [],
      "stateMutability": "nonpayable",
      "type": "function"
    },
    {
      "inputs": [
        {
          "internalType": "address",
          "name": "newOwner",
          "type": "address"
        }
      ],
      "name": "transferOwnership",
      "outputs": [],
      "stateMutability": "nonpayable",
      "type": "function"
    },
    {
      "inputs": [
        {
          "internalType": "int8",
          "name": "",
          "type": "int8"
        },
        {
          "internalType": "int8",
          "name": "",
          "type": "int8"
        }
      ],
      "name": "villageMap",
      "outputs": [
        {
          "internalType": "uint256",
          "name": "",
          "type": "uint256"
        }
      ],
      "stateMutability": "view",
      "type": "function"
    }
  ],
  "bytecode": "0x60806040526010600455600454600a6200001a9190620007cb565b600555606460085560016009553480156200003457600080fd5b506040518060400160405280600c81526020017f56696c6c616765546f6b656e00000000000000000000000000000000000000008152506040518060400160405280600381526020017f564c470000000000000000000000000000000000000000000000000000000000815250620000c1620000b5620005f460201b60201c565b620005fc60201b60201c565b60036001600080600781111562000101577f4e487b7100000000000000000000000000000000000000000000000000000000600052602160045260246000fd5b60078111156200013a577f4e487b7100000000000000000000000000000000000000000000000000000000600052602160045260246000fd5b815260200190815260200160002060006101000a81548160ff021916908360ff160217905550600180600060016007811115620001a0577f4e487b7100000000000000000000000000000000000000000000000000000000600052602160045260246000fd5b6007811115620001d9577f4e487b7100000000000000000000000000000000000000000000000000000000600052602160045260246000fd5b815260200190815260200160002060006101000a81548160ff021916908360ff1602179055506000600160006002600781111562000240577f4e487b7100000000000000000000000000000000000000000000000000000000600052602160045260246000fd5b600781111562000279577f4e487b7100000000000000000000000000000000000000000000000000000000600052602160045260246000fd5b815260200190815260200160002060006101000a81548160ff021916908360ff160217905550600180600060036007811115620002df577f4e487b7100000000000000000000000000000000000000000000000000000000600052602160045260246000fd5b600781111562000318577f4e487b7100000000000000000000000000000000000000000000000000000000600052602160045260246000fd5b815260200190815260200160002060006101000a81548160ff021916908360ff1602179055506001806000600460078111156200037e577f4e487b7100000000000000000000000000000000000000000000000000000000600052602160045260246000fd5b6007811115620003b7577f4e487b7100000000000000000000000000000000000000000000000000000000600052602160045260246000fd5b815260200190815260200160002060006101000a81548160ff021916908360ff1602179055506001806000600560078111156200041d577f4e487b7100000000000000000000000000000000000000000000000000000000600052602160045260246000fd5b600781111562000456577f4e487b7100000000000000000000000000000000000000000000000000000000600052602160045260246000fd5b815260200190815260200160002060006101000a81548160ff021916908360ff160217905550600180600060066007811115620004bc577f4e487b7100000000000000000000000000000000000000000000000000000000600052602160045260246000fd5b6007811115620004f5577f4e487b7100000000000000000000000000000000000000000000000000000000600052602160045260246000fd5b815260200190815260200160002060006101000a81548160ff021916908360ff1602179055506002600160006007808111156200055b577f4e487b7100000000000000000000000000000000000000000000000000000000600052602160045260246000fd5b600781111562000594577f4e487b7100000000000000000000000000000000000000000000000000000000600052602160045260246000fd5b815260200190815260200160002060006101000a81548160ff021916908360ff16021790555081600b9080519060200190620005d2929190620006c0565b5080600c9080519060200190620005eb929190620006c0565b505050620009b3565b600033905090565b60008060009054906101000a900473ffffffffffffffffffffffffffffffffffffffff169050816000806101000a81548173ffffffffffffffffffffffffffffffffffffffff021916908373ffffffffffffffffffffffffffffffffffffffff1602179055508173ffffffffffffffffffffffffffffffffffffffff168173ffffffffffffffffffffffffffffffffffffffff167f8be0079c531659141344cd1fd0a4f28419497f9722a3daafe3b4186f6b6457e060405160405180910390a35050565b828054620006ce9062000912565b90600052602060002090601f016020900481019282620006f257600085556200073e565b82601f106200070d57805160ff19168380011785556200073e565b828001600101855582156200073e579182015b828111156200073d57825182559160200191906001019062000720565b5b5090506200074d919062000751565b5090565b5b808211156200076c57600081600090555060010162000752565b5090565b6000808291508390505b6001851115620007c2578086048111156200079a576200079962000948565b5b6001851615620007aa5780820291505b8081029050620007ba85620009a6565b94506200077a565b94509492505050565b6000620007d88262000908565b9150620007e58362000908565b9250620008147fffffffffffffffffffffffffffffffffffffffffffffffffffffffffffffffff84846200081c565b905092915050565b6000826200082e576001905062000901565b816200083e576000905062000901565b8160018114620008575760028114620008625762000898565b600191505062000901565b60ff84111562000877576200087662000948565b5b8360020a91508482111562000891576200089062000948565b5b5062000901565b5060208310610133831016604e8410600b8410161715620008d25782820a905083811115620008cc57620008cb62000948565b5b62000901565b620008e1848484600162000770565b92509050818404811115620008fb57620008fa62000948565b5b81810290505b9392505050565b6000819050919050565b600060028204905060018216806200092b57607f821691505b6020821081141562000942576200094162000977565b5b50919050565b7f4e487b7100000000000000000000000000000000000000000000000000000000600052601160045260246000fd5b7f4e487b7100000000000000000000000000000000000000000000000000000000600052602260045260246000fd5b60008160011c9050919050565b615f0c80620009c36000396000f3fe608060405234801561001057600080fd5b50600436106101cf5760003560e01c806370a0823111610104578063981e148a116100a2578063c87b56dd11610071578063c87b56dd14610562578063e5e59e4314610592578063e985e9c5146105c2578063f2fde38b146105f2576101cf565b8063981e148a146104f2578063a22cb4651461050e578063accb793d1461052a578063b88d4fde14610546576101cf565b80637dabb1f3116100de5780637dabb1f31461046a57806382aef042146104865780638da5cb5b146104b657806395d89b41146104d4576101cf565b806370a0823114610400578063715018a6146104305780637d14a0471461043a576101cf565b806323b872dd1161017157806342842e0e1161014b57806342842e0e146103545780634f6ccce7146103705780636352211e146103a057806369199081146103d0576101cf565b806323b872dd146102d85780632f745c59146102f45780634213edf214610324576101cf565b8063081812fc116101ad578063081812fc146102525780630838409a14610282578063095ea7b31461029e57806318160ddd146102ba576101cf565b806301ffc9a7146101d45780630234f9161461020457806306fdde0314610234575b600080fd5b6101ee60048036038101906101e99190613f58565b61060e565b6040516101fb91906149c1565b60405180910390f35b61021e60048036038101906102199190614076565b610688565b60405161022b9190614dbe565b60405180910390f35b61023c6109d8565b60405161024991906149dc565b60405180910390f35b61026c60048036038101906102679190614076565b610a6a565b6040516102799190614931565b60405180910390f35b61029c60048036038101906102979190614076565b610aef565b005b6102b860048036038101906102b39190613f1c565b610bb9565b005b6102c2610cd1565b6040516102cf9190614de0565b60405180910390f35b6102f260048036038101906102ed9190613e16565b610cde565b005b61030e60048036038101906103099190613f1c565b610d3e565b60405161031b9190614de0565b60405180910390f35b61033e6004803603810190610339919061400f565b610de3565b60405161034b9190614de0565b60405180910390f35b61036e60048036038101906103699190613e16565b610e03565b005b61038a60048036038101906103859190614076565b610e23565b6040516103979190614de0565b60405180910390f35b6103ba60048036038101906103b59190614076565b610eba565b6040516103c79190614931565b60405180910390f35b6103ea60048036038101906103e59190614076565b610f6c565b6040516103f79190614de0565b60405180910390f35b61041a60048036038101906104159190613db1565b610f7e565b6040516104279190614de0565b60405180910390f35b610438611036565b005b610454600480360381019061044f9190613fd3565b6110be565b6040516104619190614de0565b60405180910390f35b610484600480360381019061047f919061409f565b6110e3565b005b6104a0600480360381019061049b9190614076565b61116d565b6040516104ad9190614de0565b60405180910390f35b6104be61117f565b6040516104cb9190614931565b60405180910390f35b6104dc6111a8565b6040516104e991906149dc565b60405180910390f35b61050c60048036038101906105079190614076565b61123a565b005b61052860048036038101906105239190613ee0565b6112be565b005b610544600480360381019061053f9190613db1565b61143f565b005b610560600480360381019061055b9190613e65565b611540565b005b61057c60048036038101906105779190614076565b6115a2565b60405161058991906149dc565b60405180910390f35b6105ac60048036038101906105a79190613faa565b611649565b6040516105b99190614e8c565b60405180910390f35b6105dc60048036038101906105d79190613dda565b611669565b6040516105e991906149c1565b60405180910390f35b61060c60048036038101906106079190613db1565b6116fd565b005b60007f780e9d63000000000000000000000000000000000000000000000000000000007bffffffffffffffffffffffffffffffffffffffffffffffffffffffff1916827bffffffffffffffffffffffffffffffffffffffffffffffffffffffff191614806106815750610680826117f5565b5b9050919050565b610690613b37565b60066000838152602001908152602001600020604051806101400160405290816000820160009054906101000a900460000b60000b60000b81526020016000820160019054906101000a900460000b60000b60000b81526020016000820160029054906101000a900460ff1660ff1660ff1681526020016000820160039054906101000a900460ff1660ff1660ff1681526020016001820154815260200160028201548152602001600382015481526020016004820180546107519061544f565b80601f016020809104026020016040519081016040528092919081815260200182805461077d9061544f565b80156107ca5780601f1061079f576101008083540402835291602001916107ca565b820191906000526020600020905b8154815290600101906020018083116107ad57829003601f168201915b5050505050815260200160058201805480602002602001604051908101604052809291908181526020016000905b82821015610962578382906000526020600020016040518060e00160405290816000820160009054906101000a900460ff1660ff1660ff1681526020016000820160019054906101000a900460ff1660ff1660ff1681526020016000820160029054906101000a900460ff1660ff1660ff1681526020016000820160039054906101000a900460ff1660ff1660ff1681526020016000820160049054906101000a900463ffffffff1663ffffffff1663ffffffff1681526020016000820160089054906101000a900460ff1660078111156108fc577f4e487b7100000000000000000000000000000000000000000000000000000000600052602160045260246000fd5b6007811115610934577f4e487b7100000000000000000000000000000000000000000000000000000000600052602160045260246000fd5b81526020016000820160099054906101000a900460ff161515151581525050815260200190600101906107f8565b5050505081526020016006820160009054906101000a900460ff1615151515815250509050600115158161012001511515146109d3576040517f08c379a00000000000000000000000000000000000000000000000000000000081526004016109ca90614bbe565b60405180910390fd5b919050565b6060600b80546109e79061544f565b80601f0160208091040260200160405190810160405280929190818152602001828054610a139061544f565b8015610a605780601f10610a3557610100808354040283529160200191610a60565b820191906000526020600020905b815481529060010190602001808311610a4357829003601f168201915b5050505050905090565b6000610a75826118d7565b610ab4576040517f08c379a0000000000000000000000000000000000000000000000000000000008152600401610aab90614bde565b60405180910390fd5b600f600083815260200190815260200160002060009054906101000a900473ffffffffffffffffffffffffffffffffffffffff169050919050565b610af7611943565b73ffffffffffffffffffffffffffffffffffffffff16610b1561117f565b73ffffffffffffffffffffffffffffffffffffffff1614610b6b576040517f08c379a0000000000000000000000000000000000000000000000000000000008152600401610b6290614c1e565b60405180910390fd5b6008548111610baf576040517f08c379a0000000000000000000000000000000000000000000000000000000008152600401610ba690614cde565b60405180910390fd5b8060088190555050565b6000610bc482610eba565b90508073ffffffffffffffffffffffffffffffffffffffff168373ffffffffffffffffffffffffffffffffffffffff161415610c35576040517f08c379a0000000000000000000000000000000000000000000000000000000008152600401610c2c90614cbe565b60405180910390fd5b8073ffffffffffffffffffffffffffffffffffffffff16610c54611943565b73ffffffffffffffffffffffffffffffffffffffff161480610c835750610c8281610c7d611943565b611669565b5b610cc2576040517f08c379a0000000000000000000000000000000000000000000000000000000008152600401610cb990614b1e565b60405180910390fd5b610ccc838361194b565b505050565b6000601380549050905090565b610cef610ce9611943565b82611a04565b610d2e576040517f08c379a0000000000000000000000000000000000000000000000000000000008152600401610d2590614cfe565b60405180910390fd5b610d39838383611ae2565b505050565b6000610d4983610f7e565b8210610d8a576040517f08c379a0000000000000000000000000000000000000000000000000000000008152600401610d81906149fe565b60405180910390fd5b601160008473ffffffffffffffffffffffffffffffffffffffff1673ffffffffffffffffffffffffffffffffffffffff168152602001908152602001600020600083815260200190815260200160002054905092915050565b6000610df0848484611d3e565b9050610dfc3382611ffd565b9392505050565b610e1e83838360405180602001604052806000815250611540565b505050565b6000610e2d610cd1565b8210610e6e576040517f08c379a0000000000000000000000000000000000000000000000000000000008152600401610e6590614d3e565b60405180910390fd5b60138281548110610ea8577f4e487b7100000000000000000000000000000000000000000000000000000000600052603260045260246000fd5b90600052602060002001549050919050565b600080600d600084815260200190815260200160002060009054906101000a900473ffffffffffffffffffffffffffffffffffffffff169050600073ffffffffffffffffffffffffffffffffffffffff168173ffffffffffffffffffffffffffffffffffffffff161415610f63576040517f08c379a0000000000000000000000000000000000000000000000000000000008152600401610f5a90614b7e565b60405180910390fd5b80915050919050565b6000610f77826121cb565b9050919050565b60008073ffffffffffffffffffffffffffffffffffffffff168273ffffffffffffffffffffffffffffffffffffffff161415610fef576040517f08c379a0000000000000000000000000000000000000000000000000000000008152600401610fe690614b5e565b60405180910390fd5b600e60008373ffffffffffffffffffffffffffffffffffffffff1673ffffffffffffffffffffffffffffffffffffffff168152602001908152602001600020549050919050565b61103e611943565b73ffffffffffffffffffffffffffffffffffffffff1661105c61117f565b73ffffffffffffffffffffffffffffffffffffffff16146110b2576040517f08c379a00000000000000000000000000000000000000000000000000000000081526004016110a990614c1e565b60405180910390fd5b6110bc6000612337565b565b6007602052816000526040600020602052806000526040600020600091509150505481565b833373ffffffffffffffffffffffffffffffffffffffff1661110482610eba565b73ffffffffffffffffffffffffffffffffffffffff161461115a576040517f08c379a000000000000000000000000000000000000000000000000000000000815260040161115190614c5e565b60405180910390fd5b611166858585856123fb565b5050505050565b600061117882612979565b9050919050565b60008060009054906101000a900473ffffffffffffffffffffffffffffffffffffffff16905090565b6060600c80546111b79061544f565b80601f01602080910402602001604051908101604052809291908181526020018280546111e39061544f565b80156112305780601f1061120557610100808354040283529160200191611230565b820191906000526020600020905b81548152906001019060200180831161121357829003601f168201915b5050505050905090565b803373ffffffffffffffffffffffffffffffffffffffff1661125b82610eba565b73ffffffffffffffffffffffffffffffffffffffff16146112b1576040517f08c379a00000000000000000000000000000000000000000000000000000000081526004016112a890614c5e565b60405180910390fd5b6112ba82612d4b565b5050565b6112c6611943565b73ffffffffffffffffffffffffffffffffffffffff168273ffffffffffffffffffffffffffffffffffffffff161415611334576040517f08c379a000000000000000000000000000000000000000000000000000000000815260040161132b90614a9e565b60405180910390fd5b8060106000611341611943565b73ffffffffffffffffffffffffffffffffffffffff1673ffffffffffffffffffffffffffffffffffffffff16815260200190815260200160002060008473ffffffffffffffffffffffffffffffffffffffff1673ffffffffffffffffffffffffffffffffffffffff16815260200190815260200160002060006101000a81548160ff0219169083151502179055508173ffffffffffffffffffffffffffffffffffffffff166113ee611943565b73ffffffffffffffffffffffffffffffffffffffff167f17307eab39ab6107e8899845ad3d59bd9653f200f220920489ca2b5937696c318360405161143391906149c1565b60405180910390a35050565b611447611943565b73ffffffffffffffffffffffffffffffffffffffff1661146561117f565b73ffffffffffffffffffffffffffffffffffffffff16146114bb576040517f08c379a00000000000000000000000000000000000000000000000000000000081526004016114b290614c1e565b60405180910390fd5b80600260006101000a81548173ffffffffffffffffffffffffffffffffffffffff021916908373ffffffffffffffffffffffffffffffffffffffff16021790555080600360006101000a81548173ffffffffffffffffffffffffffffffffffffffff021916908373ffffffffffffffffffffffffffffffffffffffff16021790555050565b61155161154b611943565b83611a04565b611590576040517f08c379a000000000000000000000000000000000000000000000000000000000815260040161158790614cfe565b60405180910390fd5b61159c84848484612e56565b50505050565b60606115ad826118d7565b6115ec576040517f08c379a00000000000000000000000000000000000000000000000000000000081526004016115e390614c9e565b60405180910390fd5b60006115f6612eb2565b905060008151116116165760405180602001604052806000815250611641565b8061162084612ec9565b6040516020016116319291906148bf565b6040516020818303038152906040525b915050919050565b60016020528060005260406000206000915054906101000a900460ff1681565b6000601060008473ffffffffffffffffffffffffffffffffffffffff1673ffffffffffffffffffffffffffffffffffffffff16815260200190815260200160002060008373ffffffffffffffffffffffffffffffffffffffff1673ffffffffffffffffffffffffffffffffffffffff16815260200190815260200160002060009054906101000a900460ff16905092915050565b611705611943565b73ffffffffffffffffffffffffffffffffffffffff1661172361117f565b73ffffffffffffffffffffffffffffffffffffffff1614611779576040517f08c379a000000000000000000000000000000000000000000000000000000000815260040161177090614c1e565b60405180910390fd5b600073ffffffffffffffffffffffffffffffffffffffff168173ffffffffffffffffffffffffffffffffffffffff1614156117e9576040517f08c379a00000000000000000000000000000000000000000000000000000000081526004016117e090614a3e565b60405180910390fd5b6117f281612337565b50565b60007f80ac58cd000000000000000000000000000000000000000000000000000000007bffffffffffffffffffffffffffffffffffffffffffffffffffffffff1916827bffffffffffffffffffffffffffffffffffffffffffffffffffffffff191614806118c057507f5b5e139f000000000000000000000000000000000000000000000000000000007bffffffffffffffffffffffffffffffffffffffffffffffffffffffff1916827bffffffffffffffffffffffffffffffffffffffffffffffffffffffff1916145b806118d057506118cf82613076565b5b9050919050565b60008073ffffffffffffffffffffffffffffffffffffffff16600d600084815260200190815260200160002060009054906101000a900473ffffffffffffffffffffffffffffffffffffffff1673ffffffffffffffffffffffffffffffffffffffff1614159050919050565b600033905090565b81600f600083815260200190815260200160002060006101000a81548173ffffffffffffffffffffffffffffffffffffffff021916908373ffffffffffffffffffffffffffffffffffffffff160217905550808273ffffffffffffffffffffffffffffffffffffffff166119be83610eba565b73ffffffffffffffffffffffffffffffffffffffff167f8c5be1e5ebec7d5bd14f71427d1e84f3dd0314c0f7b2291e5b200ac8c7c3b92560405160405180910390a45050565b6000611a0f826118d7565b611a4e576040517f08c379a0000000000000000000000000000000000000000000000000000000008152600401611a4590614abe565b60405180910390fd5b6000611a5983610eba565b90508073ffffffffffffffffffffffffffffffffffffffff168473ffffffffffffffffffffffffffffffffffffffff161480611ac857508373ffffffffffffffffffffffffffffffffffffffff16611ab084610a6a565b73ffffffffffffffffffffffffffffffffffffffff16145b80611ad95750611ad88185611669565b5b91505092915050565b8273ffffffffffffffffffffffffffffffffffffffff16611b0282610eba565b73ffffffffffffffffffffffffffffffffffffffff1614611b58576040517f08c379a0000000000000000000000000000000000000000000000000000000008152600401611b4f90614c7e565b60405180910390fd5b600073ffffffffffffffffffffffffffffffffffffffff168273ffffffffffffffffffffffffffffffffffffffff161415611bc8576040517f08c379a0000000000000000000000000000000000000000000000000000000008152600401611bbf90614a7e565b60405180910390fd5b611bd38383836130e0565b611bde60008261194b565b6001600e60008573ffffffffffffffffffffffffffffffffffffffff1673ffffffffffffffffffffffffffffffffffffffff1681526020019081526020016000206000828254611c2e91906152d8565b925050819055506001600e60008473ffffffffffffffffffffffffffffffffffffffff1673ffffffffffffffffffffffffffffffffffffffff1681526020019081526020016000206000828254611c859190614fbb565b9250508190555081600d600083815260200190815260200160002060006101000a81548173ffffffffffffffffffffffffffffffffffffffff021916908373ffffffffffffffffffffffffffffffffffffffff160217905550808273ffffffffffffffffffffffffffffffffffffffff168473ffffffffffffffffffffffffffffffffffffffff167fddf252ad1be2c89b69c2b068fc378daa952ba7f163c4a11628f55a4df523b3ef60405160405180910390a4505050565b60006008548360000b13158015611d6657506008546000611d5f9190615244565b8360000b12155b611da5576040517f08c379a0000000000000000000000000000000000000000000000000000000008152600401611d9c90614c3e565b60405180910390fd5b6008548260000b13158015611dcb57506008546000611dc49190615244565b8260000b12155b611e0a576040517f08c379a0000000000000000000000000000000000000000000000000000000008152600401611e0190614d9e565b60405180910390fd5b6000600760008560000b60000b815260200190815260200160002060008460000b60000b81526020019081526020016000205414611e7d576040517f08c379a0000000000000000000000000000000000000000000000000000000008152600401611e7490614afe565b60405180910390fd5b60096000815480929190611e90906154b2565b9190505590506000600660008381526020019081526020016000209050818160020181905550838160000160006101000a81548160ff021916908360000b60ff160217905550828160000160016101000a81548160ff021916908360000b60ff16021790555060058160000160026101000a81548160ff021916908360ff16021790555060648160000160036101000a81548160ff021916908360ff16021790555043816001018190555084816004019080519060200190611f53929190613b96565b50611f5e84846131f4565b816003018190555060018160060160006101000a81548160ff02191690831515021790555081600760008660000b60000b815260200190815260200160002060008560000b60000b8152602001908152602001600020819055507fb449d51a80a67072b11ef6826bc0a223593d54e719f7444cd86215a462c90bdb82868686604051611fed9493929190614e40565b60405180910390a1509392505050565b600073ffffffffffffffffffffffffffffffffffffffff168273ffffffffffffffffffffffffffffffffffffffff16141561206d576040517f08c379a000000000000000000000000000000000000000000000000000000000815260040161206490614b9e565b60405180910390fd5b612076816118d7565b156120b6576040517f08c379a00000000000000000000000000000000000000000000000000000000081526004016120ad90614a5e565b60405180910390fd5b6120c2600083836130e0565b6001600e60008473ffffffffffffffffffffffffffffffffffffffff1673ffffffffffffffffffffffffffffffffffffffff16815260200190815260200160002060008282546121129190614fbb565b9250508190555081600d600083815260200190815260200160002060006101000a81548173ffffffffffffffffffffffffffffffffffffffff021916908373ffffffffffffffffffffffffffffffffffffffff160217905550808273ffffffffffffffffffffffffffffffffffffffff16600073ffffffffffffffffffffffffffffffffffffffff167fddf252ad1be2c89b69c2b068fc378daa952ba7f163c4a11628f55a4df523b3ef60405160405180910390a45050565b600080600a6000848152602001908152602001600020600060078081111561221c577f4e487b7100000000000000000000000000000000000000000000000000000000600052602160045260246000fd5b6007811115612254577f4e487b7100000000000000000000000000000000000000000000000000000000600052602160045260246000fd5b8152602001908152602001600020905060008160010160009054906101000a900460ff166122835760006122f1565b600660008581526020019081526020016000206005018260000154815481106122d5577f4e487b7100000000000000000000000000000000000000000000000000000000600052603260045260246000fd5b9060005260206000200160000160039054906101000a900460ff165b60ff16905060028161230391906150cc565b601e61230f91906151ea565b606461231b9190614fbb565b670de0b6b3a764000061232e91906151ea565b92505050919050565b60008060009054906101000a900473ffffffffffffffffffffffffffffffffffffffff169050816000806101000a81548173ffffffffffffffffffffffffffffffffffffffff021916908373ffffffffffffffffffffffffffffffffffffffff1602179055508173ffffffffffffffffffffffffffffffffffffffff168173ffffffffffffffffffffffffffffffffffffffff167f8be0079c531659141344cd1fd0a4f28419497f9722a3daafe3b4186f6b6457e060405160405180910390a35050565b600060066000868152602001908152602001600020905061241c8585613240565b1561245c576040517f08c379a000000000000000000000000000000000000000000000000000000000815260040161245390614d7e565b60405180910390fd5b60006001600086600781111561249b577f4e487b7100000000000000000000000000000000000000000000000000000000600052602160045260246000fd5b60078111156124d3577f4e487b7100000000000000000000000000000000000000000000000000000000600052602160045260246000fd5b815260200190815260200160002060009054906101000a900460ff16905060008160ff1611612537576040517f08c379a000000000000000000000000000000000000000000000000000000000815260040161252e90614ade565b60405180910390fd5b8160000160029054906101000a900460ff1660ff1681856125589190615011565b60ff16111561259c576040517f08c379a000000000000000000000000000000000000000000000000000000000815260040161259390614bfe565b60405180910390fd5b8160000160029054906101000a900460ff1660ff1681846125bd9190615011565b60ff161115612601576040517f08c379a00000000000000000000000000000000000000000000000000000000081526004016125f890614bfe565b60405180910390fd5b60008490505b81856126139190615011565b60ff168160ff1610156126745760008490505b82856126329190615011565b60ff168160ff1610156126605761264d8686866005016132f4565b8080612658906154fb565b915050612626565b50808061266c906154fb565b915050612607565b50816005016040518060e001604052808660ff1681526020018560ff1681526020018360ff168152602001600160ff1681526020014263ffffffff1681526020018760078111156126ee577f4e487b7100000000000000000000000000000000000000000000000000000000600052602160045260246000fd5b8152602001600115158152509080600181540180825580915050600190039060005260206000200160009091909190915060008201518160000160006101000a81548160ff021916908360ff16021790555060208201518160000160016101000a81548160ff021916908360ff16021790555060408201518160000160026101000a81548160ff021916908360ff16021790555060608201518160000160036101000a81548160ff021916908360ff16021790555060808201518160000160046101000a81548163ffffffff021916908363ffffffff16021790555060a08201518160000160086101000a81548160ff0219169083600781111561281b577f4e487b7100000000000000000000000000000000000000000000000000000000600052602160045260246000fd5b021790555060c08201518160000160096101000a81548160ff021916908315150217905550505060006001836005018054905061285891906152d8565b9050604051806040016040528082815260200160011515815250600a600089815260200190815260200160002060008860078111156128c0577f4e487b7100000000000000000000000000000000000000000000000000000000600052602160045260246000fd5b60078111156128f8577f4e487b7100000000000000000000000000000000000000000000000000000000600052602160045260246000fd5b81526020019081526020016000206000820151816000015560208201518160010160006101000a81548160ff0219169083151502179055509050507f65ba7aa5381aa165bd92d38abccd807c7fb086876c94483c5648bdc0b0687bac878787876040516129689493929190614dfb565b60405180910390a150505050505050565b60008060066000848152602001908152602001600020604051806101400160405290816000820160009054906101000a900460000b60000b60000b81526020016000820160019054906101000a900460000b60000b60000b81526020016000820160029054906101000a900460ff1660ff1660ff1681526020016000820160039054906101000a900460ff1660ff1660ff168152602001600182015481526020016002820154815260200160038201548152602001600482018054612a3d9061544f565b80601f0160208091040260200160405190810160405280929190818152602001828054612a699061544f565b8015612ab65780601f10612a8b57610100808354040283529160200191612ab6565b820191906000526020600020905b815481529060010190602001808311612a9957829003601f168201915b5050505050815260200160058201805480602002602001604051908101604052809291908181526020016000905b82821015612c4e578382906000526020600020016040518060e00160405290816000820160009054906101000a900460ff1660ff1660ff1681526020016000820160019054906101000a900460ff1660ff1660ff1681526020016000820160029054906101000a900460ff1660ff1660ff1681526020016000820160039054906101000a900460ff1660ff1660ff1681526020016000820160049054906101000a900463ffffffff1663ffffffff1663ffffffff1681526020016000820160089054906101000a900460ff166007811115612be8577f4e487b7100000000000000000000000000000000000000000000000000000000600052602160045260246000fd5b6007811115612c20577f4e487b7100000000000000000000000000000000000000000000000000000000600052602160045260246000fd5b81526020016000820160099054906101000a900460ff16151515158152505081526020019060010190612ae4565b5050505081526020016006820160009054906101000a900460ff161515151581525050905060011515816101200151151514612cbf576040517f08c379a0000000000000000000000000000000000000000000000000000000008152600401612cb690614bbe565b60405180910390fd5b612cca836001613240565b612cd8576000915050612d46565b6000612ce384613482565b90506000600660008681526020019081526020016000206001015443612d0991906152d8565b905060008183612d1991906151ea565b90506000612d26876121cb565b905080821115612d3d578095505050505050612d46565b81955050505050505b919050565b612d56816001613240565b612d95576040517f08c379a0000000000000000000000000000000000000000000000000000000008152600401612d8c90614d1e565b60405180910390fd5b6000612da082612979565b90506000600660008481526020019081526020016000209050600360009054906101000a900473ffffffffffffffffffffffffffffffffffffffff1673ffffffffffffffffffffffffffffffffffffffff1663aa691d0c33846040518363ffffffff1660e01b8152600401612e16929190614998565b600060405180830381600087803b158015612e3057600080fd5b505af1158015612e44573d6000803e3d6000fd5b50505050438160010181905550505050565b612e61848484611ae2565b612e6d848484846134c1565b612eac576040517f08c379a0000000000000000000000000000000000000000000000000000000008152600401612ea390614a1e565b60405180910390fd5b50505050565b606060405180602001604052806000815250905090565b60606000821415612f11576040518060400160405280600181526020017f30000000000000000000000000000000000000000000000000000000000000008152509050613071565b600082905060005b60008214612f43578080612f2c906154b2565b915050600a82612f3c9190615048565b9150612f19565b60008167ffffffffffffffff811115612f85577f4e487b7100000000000000000000000000000000000000000000000000000000600052604160045260246000fd5b6040519080825280601f01601f191660200182016040528015612fb75781602001600182028036833780820191505090505b5090505b6000851461306a57600182612fd091906152d8565b9150600a85612fdf9190615541565b6030612feb9190614fbb565b60f81b818381518110613027577f4e487b7100000000000000000000000000000000000000000000000000000000600052603260045260246000fd5b60200101907effffffffffffffffffffffffffffffffffffffffffffffffffffffffffffff1916908160001a905350600a856130639190615048565b9450612fbb565b8093505050505b919050565b60007f01ffc9a7000000000000000000000000000000000000000000000000000000007bffffffffffffffffffffffffffffffffffffffffffffffffffffffff1916827bffffffffffffffffffffffffffffffffffffffffffffffffffffffff1916149050919050565b6130eb838383613658565b600073ffffffffffffffffffffffffffffffffffffffff168373ffffffffffffffffffffffffffffffffffffffff16141561312e576131298161365d565b61316d565b8173ffffffffffffffffffffffffffffffffffffffff168373ffffffffffffffffffffffffffffffffffffffff161461316c5761316b83826136a6565b5b5b600073ffffffffffffffffffffffffffffffffffffffff168273ffffffffffffffffffffffffffffffffffffffff1614156131b0576131ab81613813565b6131ef565b8273ffffffffffffffffffffffffffffffffffffffff168273ffffffffffffffffffffffffffffffffffffffff16146131ee576131ed8282613956565b5b5b505050565b6000804244858560405160200161320e94939291906148e3565b6040516020818303038152906040528051906020012060001c9050600554816132379190615541565b91505092915050565b600080600a60008581526020019081526020016000206000846007811115613291577f4e487b7100000000000000000000000000000000000000000000000000000000600052602160045260246000fd5b60078111156132c9577f4e487b7100000000000000000000000000000000000000000000000000000000600052602160045260246000fd5b815260200190815260200160002090508060010160009054906101000a900460ff1691505092915050565b60005b81805490508160ff16101561347c576000828260ff1681548110613344577f4e487b7100000000000000000000000000000000000000000000000000000000600052603260045260246000fd5b906000526020600020019050600060018260000160029054906101000a900460ff168360000160009054906101000a900460ff166133829190615011565b61338c919061530c565b9050600060018360000160029054906101000a900460ff168460000160019054906101000a900460ff166133c09190615011565b6133ca919061530c565b90508260000160009054906101000a900460ff1660ff168760ff1610806133f657508160ff168760ff16115b8061341757508260000160019054906101000a900460ff1660ff168660ff16105b8061342757508060ff168660ff16115b613466576040517f08c379a000000000000000000000000000000000000000000000000000000000815260040161345d90614d5e565b60405180910390fd5b5050508080613474906154fb565b9150506132f7565b50505050565b6000806134908360016139d5565b60000160039054906101000a900460ff1660ff16905080666a94d74f4300006134b991906151ea565b915050919050565b60006134e28473ffffffffffffffffffffffffffffffffffffffff16613b24565b1561364b578373ffffffffffffffffffffffffffffffffffffffff1663150b7a0261350b611943565b8786866040518563ffffffff1660e01b815260040161352d949392919061494c565b602060405180830381600087803b15801561354757600080fd5b505af192505050801561357857506040513d601f19601f820116820180604052508101906135759190613f81565b60015b6135fb573d80600081146135a8576040519150601f19603f3d011682016040523d82523d6000602084013e6135ad565b606091505b506000815114156135f3576040517f08c379a00000000000000000000000000000000000000000000000000000000081526004016135ea90614a1e565b60405180910390fd5b805181602001fd5b63150b7a0260e01b7bffffffffffffffffffffffffffffffffffffffffffffffffffffffff1916817bffffffffffffffffffffffffffffffffffffffffffffffffffffffff191614915050613650565b600190505b949350505050565b505050565b6013805490506014600083815260200190815260200160002081905550601381908060018154018082558091505060019003906000526020600020016000909190919091505550565b600060016136b384610f7e565b6136bd91906152d8565b90506000601260008481526020019081526020016000205490508181146137a2576000601160008673ffffffffffffffffffffffffffffffffffffffff1673ffffffffffffffffffffffffffffffffffffffff168152602001908152602001600020600084815260200190815260200160002054905080601160008773ffffffffffffffffffffffffffffffffffffffff1673ffffffffffffffffffffffffffffffffffffffff168152602001908152602001600020600084815260200190815260200160002081905550816012600083815260200190815260200160002081905550505b6012600084815260200190815260200160002060009055601160008573ffffffffffffffffffffffffffffffffffffffff1673ffffffffffffffffffffffffffffffffffffffff16815260200190815260200160002060008381526020019081526020016000206000905550505050565b6000600160138054905061382791906152d8565b905060006014600084815260200190815260200160002054905060006013838154811061387d577f4e487b7100000000000000000000000000000000000000000000000000000000600052603260045260246000fd5b9060005260206000200154905080601383815481106138c5577f4e487b7100000000000000000000000000000000000000000000000000000000600052603260045260246000fd5b90600052602060002001819055508160146000838152602001908152602001600020819055506014600085815260200190815260200160002060009055601380548061393a577f4e487b7100000000000000000000000000000000000000000000000000000000600052603160045260246000fd5b6001900381819060005260206000200160009055905550505050565b600061396183610f7e565b905081601160008573ffffffffffffffffffffffffffffffffffffffff1673ffffffffffffffffffffffffffffffffffffffff168152602001908152602001600020600083815260200190815260200160002081905550806012600084815260200190815260200160002081905550505050565b600080600a60008581526020019081526020016000206000846007811115613a26577f4e487b7100000000000000000000000000000000000000000000000000000000600052602160045260246000fd5b6007811115613a5e577f4e487b7100000000000000000000000000000000000000000000000000000000600052602160045260246000fd5b815260200190815260200160002090508060010160009054906101000a900460ff16613abf576040517f08c379a0000000000000000000000000000000000000000000000000000000008152600401613ab690614b3e565b60405180910390fd5b60066000858152602001908152602001600020600501816000015481548110613b11577f4e487b7100000000000000000000000000000000000000000000000000000000600052603260045260246000fd5b9060005260206000200191505092915050565b600080823b905060008111915050919050565b6040518061014001604052806000800b81526020016000800b8152602001600060ff168152602001600060ff16815260200160008152602001600081526020016000815260200160608152602001606081526020016000151581525090565b828054613ba29061544f565b90600052602060002090601f016020900481019282613bc45760008555613c0b565b82601f10613bdd57805160ff1916838001178555613c0b565b82800160010185558215613c0b579182015b82811115613c0a578251825591602001919060010190613bef565b5b509050613c189190613c1c565b5090565b5b80821115613c35576000816000905550600101613c1d565b5090565b6000613c4c613c4784614ecc565b614ea7565b905082815260208101848484011115613c6457600080fd5b613c6f84828561540d565b509392505050565b6000613c8a613c8584614efd565b614ea7565b905082815260208101848484011115613ca257600080fd5b613cad84828561540d565b509392505050565b600081359050613cc481615e3c565b92915050565b600081359050613cd981615e53565b92915050565b600081359050613cee81615e6a565b92915050565b600081519050613d0381615e6a565b92915050565b600082601f830112613d1a57600080fd5b8135613d2a848260208601613c39565b91505092915050565b600081359050613d4281615e81565b92915050565b600081359050613d5781615e91565b92915050565b600082601f830112613d6e57600080fd5b8135613d7e848260208601613c77565b91505092915050565b600081359050613d9681615ea8565b92915050565b600081359050613dab81615ebf565b92915050565b600060208284031215613dc357600080fd5b6000613dd184828501613cb5565b91505092915050565b60008060408385031215613ded57600080fd5b6000613dfb85828601613cb5565b9250506020613e0c85828601613cb5565b9150509250929050565b600080600060608486031215613e2b57600080fd5b6000613e3986828701613cb5565b9350506020613e4a86828701613cb5565b9250506040613e5b86828701613d87565b9150509250925092565b60008060008060808587031215613e7b57600080fd5b6000613e8987828801613cb5565b9450506020613e9a87828801613cb5565b9350506040613eab87828801613d87565b925050606085013567ffffffffffffffff811115613ec857600080fd5b613ed487828801613d09565b91505092959194509250565b60008060408385031215613ef357600080fd5b6000613f0185828601613cb5565b9250506020613f1285828601613cca565b9150509250929050565b60008060408385031215613f2f57600080fd5b6000613f3d85828601613cb5565b9250506020613f4e85828601613d87565b9150509250929050565b600060208284031215613f6a57600080fd5b6000613f7884828501613cdf565b91505092915050565b600060208284031215613f9357600080fd5b6000613fa184828501613cf4565b91505092915050565b600060208284031215613fbc57600080fd5b6000613fca84828501613d33565b91505092915050565b60008060408385031215613fe657600080fd5b6000613ff485828601613d48565b925050602061400585828601613d48565b9150509250929050565b60008060006060848603121561402457600080fd5b600084013567ffffffffffffffff81111561403e57600080fd5b61404a86828701613d5d565b935050602061405b86828701613d48565b925050604061406c86828701613d48565b9150509250925092565b60006020828403121561408857600080fd5b600061409684828501613d87565b91505092915050565b600080600080608085870312156140b557600080fd5b60006140c387828801613d87565b94505060206140d487828801613d33565b93505060406140e587828801613d9c565b92505060606140f687828801613d9c565b91505092959194509250565b600061410e83836146ee565b60e08301905092915050565b61412381615340565b82525050565b600061413482614f3e565b61413e8185614f6c565b935061414983614f2e565b8060005b8381101561417a5781516141618882614102565b975061416c83614f5f565b92505060018101905061414d565b5085935050505092915050565b61419081615352565b82525050565b61419f81615352565b82525050565b60006141b082614f49565b6141ba8185614f7d565b93506141ca81856020860161541c565b6141d38161565d565b840191505092915050565b6141e7816153fb565b82525050565b6141f6816153fb565b82525050565b614205816153a7565b82525050565b614214816153a7565b82525050565b61422b614226826153a7565b615525565b82525050565b600061423c82614f54565b6142468185614f8e565b935061425681856020860161541c565b61425f8161565d565b840191505092915050565b600061427582614f54565b61427f8185614f9f565b935061428f81856020860161541c565b6142988161565d565b840191505092915050565b60006142ae82614f54565b6142b88185614fb0565b93506142c881856020860161541c565b80840191505092915050565b60006142e1602b83614f9f565b91506142ec82615688565b604082019050919050565b6000614304603283614f9f565b915061430f826156d7565b604082019050919050565b6000614327602683614f9f565b915061433282615726565b604082019050919050565b600061434a601c83614f9f565b915061435582615775565b602082019050919050565b600061436d602483614f9f565b91506143788261579e565b604082019050919050565b6000614390601983614f9f565b915061439b826157ed565b602082019050919050565b60006143b3602c83614f9f565b91506143be82615816565b604082019050919050565b60006143d6603c83614f9f565b91506143e182615865565b604082019050919050565b60006143f9602b83614f9f565b9150614404826158b4565b604082019050919050565b600061441c603883614f9f565b915061442782615903565b604082019050919050565b600061443f601783614f9f565b915061444a82615952565b602082019050919050565b6000614462602a83614f9f565b915061446d8261597b565b604082019050919050565b6000614485602983614f9f565b9150614490826159ca565b604082019050919050565b60006144a8602083614f9f565b91506144b382615a19565b602082019050919050565b60006144cb601983614f9f565b91506144d682615a42565b602082019050919050565b60006144ee602c83614f9f565b91506144f982615a6b565b604082019050919050565b6000614511602c83614f9f565b915061451c82615aba565b604082019050919050565b6000614534602083614f9f565b915061453f82615b09565b602082019050919050565b6000614557601a83614f9f565b915061456282615b32565b602082019050919050565b600061457a601c83614f9f565b915061458582615b5b565b602082019050919050565b600061459d602983614f9f565b91506145a882615b84565b604082019050919050565b60006145c0602f83614f9f565b91506145cb82615bd3565b604082019050919050565b60006145e3602183614f9f565b91506145ee82615c22565b604082019050919050565b6000614606602d83614f9f565b915061461182615c71565b604082019050919050565b6000614629603183614f9f565b915061463482615cc0565b604082019050919050565b600061464c601283614f9f565b915061465782615d0f565b602082019050919050565b600061466f602c83614f9f565b915061467a82615d38565b604082019050919050565b6000614692601e83614f9f565b915061469d82615d87565b602082019050919050565b60006146b5602c83614f9f565b91506146c082615db0565b604082019050919050565b60006146d8601a83614f9f565b91506146e382615dff565b602082019050919050565b60e08201600082015161470460008501826148a1565b50602082015161471760208501826148a1565b50604082015161472a60408501826148a1565b50606082015161473d60608501826148a1565b5060808201516147506080850182614892565b5060a082015161476360a08501826141de565b5060c082015161477660c0850182614187565b50505050565b60006101408301600083015161479560008601826141fc565b5060208301516147a860208601826141fc565b5060408301516147bb60408601826148a1565b5060608301516147ce60608601826148a1565b5060808301516147e1608086018261485d565b5060a08301516147f460a086018261485d565b5060c083015161480760c086018261485d565b5060e083015184820360e086015261481f8282614231565b91505061010083015184820361010086015261483b8282614129565b915050610120830151614852610120860182614187565b508091505092915050565b614866816153d4565b82525050565b614875816153d4565b82525050565b61488c614887826153d4565b615537565b82525050565b61489b816153de565b82525050565b6148aa816153ee565b82525050565b6148b9816153ee565b82525050565b60006148cb82856142a3565b91506148d782846142a3565b91508190509392505050565b60006148ef828761487b565b6020820191506148ff828661487b565b60208201915061490f828561421a565b60018201915061491f828461421a565b60018201915081905095945050505050565b6000602082019050614946600083018461411a565b92915050565b6000608082019050614961600083018761411a565b61496e602083018661411a565b61497b604083018561486c565b818103606083015261498d81846141a5565b905095945050505050565b60006040820190506149ad600083018561411a565b6149ba602083018461486c565b9392505050565b60006020820190506149d66000830184614196565b92915050565b600060208201905081810360008301526149f6818461426a565b905092915050565b60006020820190508181036000830152614a17816142d4565b9050919050565b60006020820190508181036000830152614a37816142f7565b9050919050565b60006020820190508181036000830152614a578161431a565b9050919050565b60006020820190508181036000830152614a778161433d565b9050919050565b60006020820190508181036000830152614a9781614360565b9050919050565b60006020820190508181036000830152614ab781614383565b9050919050565b60006020820190508181036000830152614ad7816143a6565b9050919050565b60006020820190508181036000830152614af7816143c9565b9050919050565b60006020820190508181036000830152614b17816143ec565b9050919050565b60006020820190508181036000830152614b378161440f565b9050919050565b60006020820190508181036000830152614b5781614432565b9050919050565b60006020820190508181036000830152614b7781614455565b9050919050565b60006020820190508181036000830152614b9781614478565b9050919050565b60006020820190508181036000830152614bb78161449b565b9050919050565b60006020820190508181036000830152614bd7816144be565b9050919050565b60006020820190508181036000830152614bf7816144e1565b9050919050565b60006020820190508181036000830152614c1781614504565b9050919050565b60006020820190508181036000830152614c3781614527565b9050919050565b60006020820190508181036000830152614c578161454a565b9050919050565b60006020820190508181036000830152614c778161456d565b9050919050565b60006020820190508181036000830152614c9781614590565b9050919050565b60006020820190508181036000830152614cb7816145b3565b9050919050565b60006020820190508181036000830152614cd7816145d6565b9050919050565b60006020820190508181036000830152614cf7816145f9565b9050919050565b60006020820190508181036000830152614d178161461c565b9050919050565b60006020820190508181036000830152614d378161463f565b9050919050565b60006020820190508181036000830152614d5781614662565b9050919050565b60006020820190508181036000830152614d7781614685565b9050919050565b60006020820190508181036000830152614d97816146a8565b9050919050565b60006020820190508181036000830152614db7816146cb565b9050919050565b60006020820190508181036000830152614dd8818461477c565b905092915050565b6000602082019050614df5600083018461486c565b92915050565b6000608082019050614e10600083018761486c565b614e1d60208301866141ed565b614e2a60408301856148b0565b614e3760608301846148b0565b95945050505050565b6000608082019050614e55600083018761486c565b8181036020830152614e67818661426a565b9050614e76604083018561420b565b614e83606083018461420b565b95945050505050565b6000602082019050614ea160008301846148b0565b92915050565b6000614eb1614ec2565b9050614ebd8282615481565b919050565b6000604051905090565b600067ffffffffffffffff821115614ee757614ee661562e565b5b614ef08261565d565b9050602081019050919050565b600067ffffffffffffffff821115614f1857614f1761562e565b5b614f218261565d565b9050602081019050919050565b6000819050602082019050919050565b600081519050919050565b600081519050919050565b600081519050919050565b6000602082019050919050565b600082825260208201905092915050565b600082825260208201905092915050565b600082825260208201905092915050565b600082825260208201905092915050565b600081905092915050565b6000614fc6826153d4565b9150614fd1836153d4565b9250827fffffffffffffffffffffffffffffffffffffffffffffffffffffffffffffffff0382111561500657615005615572565b5b828201905092915050565b600061501c826153ee565b9150615027836153ee565b92508260ff0382111561503d5761503c615572565b5b828201905092915050565b6000615053826153d4565b915061505e836153d4565b92508261506e5761506d6155a1565b5b828204905092915050565b6000808291508390505b60018511156150c35780860481111561509f5761509e615572565b5b60018516156150ae5780820291505b80810290506150bc8561567b565b9450615083565b94509492505050565b60006150d7826153d4565b91506150e2836153ee565b925061510f7fffffffffffffffffffffffffffffffffffffffffffffffffffffffffffffffff8484615117565b905092915050565b60008261512757600190506151e3565b8161513557600090506151e3565b816001811461514b576002811461515557615184565b60019150506151e3565b60ff84111561516757615166615572565b5b8360020a91508482111561517e5761517d615572565b5b506151e3565b5060208310610133831016604e8410600b84101617156151b95782820a9050838111156151b4576151b3615572565b5b6151e3565b6151c68484846001615079565b925090508184048111156151dd576151dc615572565b5b81810290505b9392505050565b60006151f5826153d4565b9150615200836153d4565b9250817fffffffffffffffffffffffffffffffffffffffffffffffffffffffffffffffff048311821515161561523957615238615572565b5b828202905092915050565b600061524f8261539d565b915061525a8361539d565b9250827f80000000000000000000000000000000000000000000000000000000000000000182126000841215161561529557615294615572565b5b827f7fffffffffffffffffffffffffffffffffffffffffffffffffffffffffffffff0182136000841216156152cd576152cc615572565b5b828203905092915050565b60006152e3826153d4565b91506152ee836153d4565b92508282101561530157615300615572565b5b828203905092915050565b6000615317826153ee565b9150615322836153ee565b92508282101561533557615334615572565b5b828203905092915050565b600061534b826153b4565b9050919050565b60008115159050919050565b60007fffffffff0000000000000000000000000000000000000000000000000000000082169050919050565b600081905061539882615e28565b919050565b6000819050919050565b60008160000b9050919050565b600073ffffffffffffffffffffffffffffffffffffffff82169050919050565b6000819050919050565b600063ffffffff82169050919050565b600060ff82169050919050565b60006154068261538a565b9050919050565b82818337600083830152505050565b60005b8381101561543a57808201518184015260208101905061541f565b83811115615449576000848401525b50505050565b6000600282049050600182168061546757607f821691505b6020821081141561547b5761547a6155ff565b5b50919050565b61548a8261565d565b810181811067ffffffffffffffff821117156154a9576154a861562e565b5b80604052505050565b60006154bd826153d4565b91507fffffffffffffffffffffffffffffffffffffffffffffffffffffffffffffffff8214156154f0576154ef615572565b5b600182019050919050565b6000615506826153ee565b915060ff82141561551a57615519615572565b5b600182019050919050565b60006155308261566e565b9050919050565b6000819050919050565b600061554c826153d4565b9150615557836153d4565b925082615567576155666155a1565b5b828206905092915050565b7f4e487b7100000000000000000000000000000000000000000000000000000000600052601160045260246000fd5b7f4e487b7100000000000000000000000000000000000000000000000000000000600052601260045260246000fd5b7f4e487b7100000000000000000000000000000000000000000000000000000000600052602160045260246000fd5b7f4e487b7100000000000000000000000000000000000000000000000000000000600052602260045260246000fd5b7f4e487b7100000000000000000000000000000000000000000000000000000000600052604160045260246000fd5b6000601f19601f8301169050919050565b60008160f81b9050919050565b60008160011c9050919050565b7f455243373231456e756d657261626c653a206f776e657220696e646578206f7560008201527f74206f6620626f756e6473000000000000000000000000000000000000000000602082015250565b7f4552433732313a207472616e7366657220746f206e6f6e20455243373231526560008201527f63656976657220696d706c656d656e7465720000000000000000000000000000602082015250565b7f4f776e61626c653a206e6577206f776e657220697320746865207a65726f206160008201527f6464726573730000000000000000000000000000000000000000000000000000602082015250565b7f4552433732313a20746f6b656e20616c7265616479206d696e74656400000000600082015250565b7f4552433732313a207472616e7366657220746f20746865207a65726f2061646460008201527f7265737300000000000000000000000000000000000000000000000000000000602082015250565b7f4552433732313a20617070726f766520746f2063616c6c657200000000000000600082015250565b7f4552433732313a206f70657261746f7220717565727920666f72206e6f6e657860008201527f697374656e7420746f6b656e0000000000000000000000000000000000000000602082015250565b7f4572726f722c20696e76616c6964206275696c64696e672073697a652e20436860008201527f65636b206275696c64696e67207479706520706172616d657465722e00000000602082015250565b7f76696c6c61676520616c7265616479206578697374732061742074686573652060008201527f636f6f7264696e61746573000000000000000000000000000000000000000000602082015250565b7f4552433732313a20617070726f76652063616c6c6572206973206e6f74206f7760008201527f6e6572206e6f7220617070726f76656420666f7220616c6c0000000000000000602082015250565b7f4275696c64696e67206e6f7420796574206275696c7421000000000000000000600082015250565b7f4552433732313a2062616c616e636520717565727920666f7220746865207a6560008201527f726f206164647265737300000000000000000000000000000000000000000000602082015250565b7f4552433732313a206f776e657220717565727920666f72206e6f6e657869737460008201527f656e7420746f6b656e0000000000000000000000000000000000000000000000602082015250565b7f4552433732313a206d696e7420746f20746865207a65726f2061646472657373600082015250565b7f76696c6c61676520494420646f6573206e6f7420657869737400000000000000600082015250565b7f4552433732313a20617070726f76656420717565727920666f72206e6f6e657860008201527f697374656e7420746f6b656e0000000000000000000000000000000000000000602082015250565b7f4e657720706c6163656d656e74206f7574206f6620626f756e647320666f722060008201527f76696c6c6167652073697a650000000000000000000000000000000000000000602082015250565b7f4f776e61626c653a2063616c6c6572206973206e6f7420746865206f776e6572600082015250565b7f7820636f6f7264696e617465206f7574206f6620626f756e6473000000000000600082015250565b7f4e6f7420746865206f776e6572206f66207468652076696c6c61676500000000600082015250565b7f4552433732313a207472616e73666572206f6620746f6b656e2074686174206960008201527f73206e6f74206f776e0000000000000000000000000000000000000000000000602082015250565b7f4552433732314d657461646174613a2055524920717565727920666f72206e6f60008201527f6e6578697374656e7420746f6b656e0000000000000000000000000000000000602082015250565b7f4552433732313a20617070726f76616c20746f2063757272656e74206f776e6560008201527f7200000000000000000000000000000000000000000000000000000000000000602082015250565b7f4e6577206d61702073697a65206d75737420626520626967676572207468616e60008201527f206f6c64206d61702073697a6500000000000000000000000000000000000000602082015250565b7f4552433732313a207472616e736665722063616c6c6572206973206e6f74206f60008201527f776e6572206e6f7220617070726f766564000000000000000000000000000000602082015250565b7f4d696e65206e6f7420796574206275696c740000000000000000000000000000600082015250565b7f455243373231456e756d657261626c653a20676c6f62616c20696e646578206f60008201527f7574206f6620626f756e64730000000000000000000000000000000000000000602082015250565b7f436c61736865732077697468206578697374696e67206275696c64696e670000600082015250565b7f546869732074797065206f66206275696c64696e672068617320616c7265616460008201527f79206265656e206275696c740000000000000000000000000000000000000000602082015250565b7f7920636f6f7264696e617465206f7574206f6620626f756e6473000000000000600082015250565b60088110615e3957615e386155d0565b5b50565b615e4581615340565b8114615e5057600080fd5b50565b615e5c81615352565b8114615e6757600080fd5b50565b615e738161535e565b8114615e7e57600080fd5b50565b60088110615e8e57600080fd5b50565b615e9a816153a7565b8114615ea557600080fd5b50565b615eb1816153d4565b8114615ebc57600080fd5b50565b615ec8816153ee565b8114615ed357600080fd5b5056fea2646970667358221220c40096c93f3f5e45bb41181b743a11949ea76e9aa320b23d0d930c08e1a7c8a164736f6c63430008040033",
  "linkReferences": {},
  "deployedLinkReferences": {}
}