{
  "_format": "hh-sol-artifact-1",
  "contractName": "VillageNft",
  "sourceName": "contracts/VillageNft.sol",
  "abi": [
    {
      "inputs": [],
      "stateMutability": "nonpayable",
      "type": "constructor"
    },
    {
      "anonymous": false,
      "inputs": [
        {
          "indexed": true,
          "internalType": "address",
          "name": "owner",
          "type": "address"
        },
        {
          "indexed": true,
          "internalType": "address",
          "name": "approved",
          "type": "address"
        },
        {
          "indexed": true,
          "internalType": "uint256",
          "name": "tokenId",
          "type": "uint256"
        }
      ],
      "name": "Approval",
      "type": "event"
    },
    {
      "anonymous": false,
      "inputs": [
        {
          "indexed": true,
          "internalType": "address",
          "name": "owner",
          "type": "address"
        },
        {
          "indexed": true,
          "internalType": "address",
          "name": "operator",
          "type": "address"
        },
        {
          "indexed": false,
          "internalType": "bool",
          "name": "approved",
          "type": "bool"
        }
      ],
      "name": "ApprovalForAll",
      "type": "event"
    },
    {
      "anonymous": false,
      "inputs": [
        {
          "indexed": false,
          "internalType": "uint256",
          "name": "villageId",
          "type": "uint256"
        },
        {
          "indexed": false,
          "internalType": "enum VillageGame.BuildingTypes",
          "name": "buildingType",
          "type": "uint8"
        },
        {
          "indexed": false,
          "internalType": "uint8",
          "name": "_x",
          "type": "uint8"
        },
        {
          "indexed": false,
          "internalType": "uint8",
          "name": "_y",
          "type": "uint8"
        }
      ],
      "name": "NewBuilding",
      "type": "event"
    },
    {
      "anonymous": false,
      "inputs": [
        {
          "indexed": false,
          "internalType": "uint256",
          "name": "villageId",
          "type": "uint256"
        },
        {
          "indexed": false,
          "internalType": "string",
          "name": "name",
          "type": "string"
        },
        {
          "indexed": false,
          "internalType": "int8",
          "name": "_x",
          "type": "int8"
        },
        {
          "indexed": false,
          "internalType": "int8",
          "name": "_y",
          "type": "int8"
        }
      ],
      "name": "NewVillage",
      "type": "event"
    },
    {
      "anonymous": false,
      "inputs": [
        {
          "indexed": true,
          "internalType": "address",
          "name": "previousOwner",
          "type": "address"
        },
        {
          "indexed": true,
          "internalType": "address",
          "name": "newOwner",
          "type": "address"
        }
      ],
      "name": "OwnershipTransferred",
      "type": "event"
    },
    {
      "anonymous": false,
      "inputs": [
        {
          "indexed": true,
          "internalType": "address",
          "name": "from",
          "type": "address"
        },
        {
          "indexed": true,
          "internalType": "address",
          "name": "to",
          "type": "address"
        },
        {
          "indexed": true,
          "internalType": "uint256",
          "name": "tokenId",
          "type": "uint256"
        }
      ],
      "name": "Transfer",
      "type": "event"
    },
    {
      "inputs": [
        {
          "internalType": "address",
          "name": "to",
          "type": "address"
        },
        {
          "internalType": "uint256",
          "name": "tokenId",
          "type": "uint256"
        }
      ],
      "name": "approve",
      "outputs": [],
      "stateMutability": "nonpayable",
      "type": "function"
    },
    {
      "inputs": [
        {
          "internalType": "address",
          "name": "owner",
          "type": "address"
        }
      ],
      "name": "balanceOf",
      "outputs": [
        {
          "internalType": "uint256",
          "name": "",
          "type": "uint256"
        }
      ],
      "stateMutability": "view",
      "type": "function"
    },
    {
      "inputs": [
        {
          "internalType": "string",
          "name": "_name",
          "type": "string"
        },
        {
          "internalType": "int8",
          "name": "_x",
          "type": "int8"
        },
        {
          "internalType": "int8",
          "name": "_y",
          "type": "int8"
        }
      ],
      "name": "createVillage",
      "outputs": [
        {
          "internalType": "uint256",
          "name": "villageId",
          "type": "uint256"
        }
      ],
      "stateMutability": "nonpayable",
      "type": "function"
    },
    {
      "inputs": [
        {
          "internalType": "uint256",
          "name": "tokenId",
          "type": "uint256"
        }
      ],
      "name": "getApproved",
      "outputs": [
        {
          "internalType": "address",
          "name": "",
          "type": "address"
        }
      ],
      "stateMutability": "view",
      "type": "function"
    },
    {
      "inputs": [
        {
          "internalType": "uint256",
          "name": "_villageId",
          "type": "uint256"
        }
      ],
      "name": "getVillage",
      "outputs": [
        {
          "components": [
            {
              "internalType": "int8",
              "name": "x",
              "type": "int8"
            },
            {
              "internalType": "int8",
              "name": "y",
              "type": "int8"
            },
            {
              "internalType": "uint8",
              "name": "size",
              "type": "uint8"
            },
            {
              "internalType": "uint8",
              "name": "baseGoldRate",
              "type": "uint8"
            },
            {
              "internalType": "uint32",
              "name": "readyToMineTime",
              "type": "uint32"
            },
            {
              "internalType": "uint256",
              "name": "id",
              "type": "uint256"
            },
            {
              "internalType": "string",
              "name": "name",
              "type": "string"
            },
            {
              "components": [
                {
                  "internalType": "uint8",
                  "name": "x",
                  "type": "uint8"
                },
                {
                  "internalType": "uint8",
                  "name": "y",
                  "type": "uint8"
                },
                {
                  "internalType": "uint8",
                  "name": "size",
                  "type": "uint8"
                },
                {
                  "internalType": "uint8",
                  "name": "level",
                  "type": "uint8"
                },
                {
                  "internalType": "uint32",
                  "name": "upgradeCompleteTime",
                  "type": "uint32"
                },
                {
                  "internalType": "enum VillageGame.BuildingTypes",
                  "name": "buildingType",
                  "type": "uint8"
                }
              ],
              "internalType": "struct VillageGame.BuildingPlacement[]",
              "name": "buildings",
              "type": "tuple[]"
            },
            {
              "internalType": "bool",
              "name": "exists",
              "type": "bool"
            }
          ],
          "internalType": "struct VillageGame.Village",
          "name": "village",
          "type": "tuple"
        }
      ],
      "stateMutability": "view",
      "type": "function"
    },
    {
      "inputs": [
        {
          "internalType": "address",
          "name": "owner",
          "type": "address"
        },
        {
          "internalType": "address",
          "name": "operator",
          "type": "address"
        }
      ],
      "name": "isApprovedForAll",
      "outputs": [
        {
          "internalType": "bool",
          "name": "",
          "type": "bool"
        }
      ],
      "stateMutability": "view",
      "type": "function"
    },
    {
      "inputs": [],
      "name": "name",
      "outputs": [
        {
          "internalType": "string",
          "name": "",
          "type": "string"
        }
      ],
      "stateMutability": "view",
      "type": "function"
    },
    {
      "inputs": [],
      "name": "owner",
      "outputs": [
        {
          "internalType": "address",
          "name": "",
          "type": "address"
        }
      ],
      "stateMutability": "view",
      "type": "function"
    },
    {
      "inputs": [
        {
          "internalType": "uint256",
          "name": "tokenId",
          "type": "uint256"
        }
      ],
      "name": "ownerOf",
      "outputs": [
        {
          "internalType": "address",
          "name": "",
          "type": "address"
        }
      ],
      "stateMutability": "view",
      "type": "function"
    },
    {
      "inputs": [
        {
          "internalType": "uint256",
          "name": "_villageId",
          "type": "uint256"
        },
        {
          "internalType": "enum VillageGame.BuildingTypes",
          "name": "_buildingType",
          "type": "uint8"
        },
        {
          "internalType": "uint8",
          "name": "_x",
          "type": "uint8"
        },
        {
          "internalType": "uint8",
          "name": "_y",
          "type": "uint8"
        }
      ],
      "name": "placeBuilding",
      "outputs": [],
      "stateMutability": "nonpayable",
      "type": "function"
    },
    {
      "inputs": [],
      "name": "renounceOwnership",
      "outputs": [],
      "stateMutability": "nonpayable",
      "type": "function"
    },
    {
      "inputs": [
        {
          "internalType": "address",
          "name": "from",
          "type": "address"
        },
        {
          "internalType": "address",
          "name": "to",
          "type": "address"
        },
        {
          "internalType": "uint256",
          "name": "tokenId",
          "type": "uint256"
        }
      ],
      "name": "safeTransferFrom",
      "outputs": [],
      "stateMutability": "nonpayable",
      "type": "function"
    },
    {
      "inputs": [
        {
          "internalType": "address",
          "name": "from",
          "type": "address"
        },
        {
          "internalType": "address",
          "name": "to",
          "type": "address"
        },
        {
          "internalType": "uint256",
          "name": "tokenId",
          "type": "uint256"
        },
        {
          "internalType": "bytes",
          "name": "_data",
          "type": "bytes"
        }
      ],
      "name": "safeTransferFrom",
      "outputs": [],
      "stateMutability": "nonpayable",
      "type": "function"
    },
    {
      "inputs": [
        {
          "internalType": "address",
          "name": "operator",
          "type": "address"
        },
        {
          "internalType": "bool",
          "name": "approved",
          "type": "bool"
        }
      ],
      "name": "setApprovalForAll",
      "outputs": [],
      "stateMutability": "nonpayable",
      "type": "function"
    },
    {
      "inputs": [
        {
          "internalType": "uint256",
          "name": "_mapSize",
          "type": "uint256"
        }
      ],
      "name": "setMapSize",
      "outputs": [],
      "stateMutability": "nonpayable",
      "type": "function"
    },
    {
      "inputs": [
        {
          "internalType": "bytes4",
          "name": "interfaceId",
          "type": "bytes4"
        }
      ],
      "name": "supportsInterface",
      "outputs": [
        {
          "internalType": "bool",
          "name": "",
          "type": "bool"
        }
      ],
      "stateMutability": "view",
      "type": "function"
    },
    {
      "inputs": [],
      "name": "symbol",
      "outputs": [
        {
          "internalType": "string",
          "name": "",
          "type": "string"
        }
      ],
      "stateMutability": "view",
      "type": "function"
    },
    {
      "inputs": [
        {
          "internalType": "uint256",
          "name": "index",
          "type": "uint256"
        }
      ],
      "name": "tokenByIndex",
      "outputs": [
        {
          "internalType": "uint256",
          "name": "",
          "type": "uint256"
        }
      ],
      "stateMutability": "view",
      "type": "function"
    },
    {
      "inputs": [
        {
          "internalType": "address",
          "name": "owner",
          "type": "address"
        },
        {
          "internalType": "uint256",
          "name": "index",
          "type": "uint256"
        }
      ],
      "name": "tokenOfOwnerByIndex",
      "outputs": [
        {
          "internalType": "uint256",
          "name": "",
          "type": "uint256"
        }
      ],
      "stateMutability": "view",
      "type": "function"
    },
    {
      "inputs": [
        {
          "internalType": "uint256",
          "name": "tokenId",
          "type": "uint256"
        }
      ],
      "name": "tokenURI",
      "outputs": [
        {
          "internalType": "string",
          "name": "",
          "type": "string"
        }
      ],
      "stateMutability": "view",
      "type": "function"
    },
    {
      "inputs": [],
      "name": "totalSupply",
      "outputs": [
        {
          "internalType": "uint256",
          "name": "",
          "type": "uint256"
        }
      ],
      "stateMutability": "view",
      "type": "function"
    },
    {
      "inputs": [
        {
          "internalType": "address",
          "name": "from",
          "type": "address"
        },
        {
          "internalType": "address",
          "name": "to",
          "type": "address"
        },
        {
          "internalType": "uint256",
          "name": "tokenId",
          "type": "uint256"
        }
      ],
      "name": "transferFrom",
      "outputs": [],
      "stateMutability": "nonpayable",
      "type": "function"
    },
    {
      "inputs": [
        {
          "internalType": "address",
          "name": "newOwner",
          "type": "address"
        }
      ],
      "name": "transferOwnership",
      "outputs": [],
      "stateMutability": "nonpayable",
      "type": "function"
    }
  ],
  "bytecode": "0x6080604052606460045560016005553480156200001b57600080fd5b506040518060400160405280600881526020017f47616d654c616e640000000000000000000000000000000000000000000000008152506040518060400160405280600381526020017f4c4e440000000000000000000000000000000000000000000000000000000000815250620000a86200009c6200053b60201b60201c565b6200054360201b60201c565b600360016000806006811115620000e8577f4e487b7100000000000000000000000000000000000000000000000000000000600052602160045260246000fd5b600681111562000121577f4e487b7100000000000000000000000000000000000000000000000000000000600052602160045260246000fd5b815260200190815260200160002060006101000a81548160ff021916908360ff16021790555060018060006001600681111562000187577f4e487b7100000000000000000000000000000000000000000000000000000000600052602160045260246000fd5b6006811115620001c0577f4e487b7100000000000000000000000000000000000000000000000000000000600052602160045260246000fd5b815260200190815260200160002060006101000a81548160ff021916908360ff1602179055506000600160006002600681111562000227577f4e487b7100000000000000000000000000000000000000000000000000000000600052602160045260246000fd5b600681111562000260577f4e487b7100000000000000000000000000000000000000000000000000000000600052602160045260246000fd5b815260200190815260200160002060006101000a81548160ff021916908360ff160217905550600180600060036006811115620002c6577f4e487b7100000000000000000000000000000000000000000000000000000000600052602160045260246000fd5b6006811115620002ff577f4e487b7100000000000000000000000000000000000000000000000000000000600052602160045260246000fd5b815260200190815260200160002060006101000a81548160ff021916908360ff16021790555060018060006004600681111562000365577f4e487b7100000000000000000000000000000000000000000000000000000000600052602160045260246000fd5b60068111156200039e577f4e487b7100000000000000000000000000000000000000000000000000000000600052602160045260246000fd5b815260200190815260200160002060006101000a81548160ff021916908360ff16021790555060018060006005600681111562000404577f4e487b7100000000000000000000000000000000000000000000000000000000600052602160045260246000fd5b60068111156200043d577f4e487b7100000000000000000000000000000000000000000000000000000000600052602160045260246000fd5b815260200190815260200160002060006101000a81548160ff021916908360ff1602179055506001806000600680811115620004a2577f4e487b7100000000000000000000000000000000000000000000000000000000600052602160045260246000fd5b6006811115620004db577f4e487b7100000000000000000000000000000000000000000000000000000000600052602160045260246000fd5b815260200190815260200160002060006101000a81548160ff021916908360ff16021790555081600790805190602001906200051992919062000607565b5080600890805190602001906200053292919062000607565b5050506200071c565b600033905090565b60008060009054906101000a900473ffffffffffffffffffffffffffffffffffffffff169050816000806101000a81548173ffffffffffffffffffffffffffffffffffffffff021916908373ffffffffffffffffffffffffffffffffffffffff1602179055508173ffffffffffffffffffffffffffffffffffffffff168173ffffffffffffffffffffffffffffffffffffffff167f8be0079c531659141344cd1fd0a4f28419497f9722a3daafe3b4186f6b6457e060405160405180910390a35050565b8280546200061590620006b7565b90600052602060002090601f01602090048101928262000639576000855562000685565b82601f106200065457805160ff191683800117855562000685565b8280016001018555821562000685579182015b828111156200068457825182559160200191906001019062000667565b5b50905062000694919062000698565b5090565b5b80821115620006b357600081600090555060010162000699565b5090565b60006002820490506001821680620006d057607f821691505b60208210811415620006e757620006e6620006ed565b5b50919050565b7f4e487b7100000000000000000000000000000000000000000000000000000000600052602260045260246000fd5b614de2806200072c6000396000f3fe608060405234801561001057600080fd5b506004361061014d5760003560e01c80634f6ccce7116100c357806395d89b411161007c57806395d89b41146103c2578063a22cb465146103e0578063b88d4fde146103fc578063c87b56dd14610418578063e985e9c514610448578063f2fde38b146104785761014d565b80634f6ccce7146102ee5780636352211e1461031e57806370a082311461034e578063715018a61461037e5780637dabb1f3146103885780638da5cb5b146103a45761014d565b8063095ea7b311610115578063095ea7b31461021c57806318160ddd1461023857806323b872dd146102565780632f745c59146102725780634213edf2146102a257806342842e0e146102d25761014d565b806301ffc9a7146101525780630234f9161461018257806306fdde03146101b2578063081812fc146101d05780630838409a14610200575b600080fd5b61016c60048036038101906101679190613288565b610494565b6040516101799190613b79565b60405180910390f35b61019c60048036038101906101979190613341565b61050e565b6040516101a99190613f36565b60405180910390f35b6101ba610855565b6040516101c79190613b94565b60405180910390f35b6101ea60048036038101906101e59190613341565b6108e7565b6040516101f79190613b12565b60405180910390f35b61021a60048036038101906102159190613341565b61096c565b005b6102366004803603810190610231919061324c565b610a36565b005b610240610b4e565b60405161024d9190613f58565b60405180910390f35b610270600480360381019061026b9190613146565b610b5b565b005b61028c6004803603810190610287919061324c565b610bbb565b6040516102999190613f58565b60405180910390f35b6102bc60048036038101906102b791906132da565b610c60565b6040516102c99190613f58565b60405180910390f35b6102ec60048036038101906102e79190613146565b610c80565b005b61030860048036038101906103039190613341565b610ca0565b6040516103159190613f58565b60405180910390f35b61033860048036038101906103339190613341565b610d37565b6040516103459190613b12565b60405180910390f35b610368600480360381019061036391906130e1565b610de9565b6040516103759190613f58565b60405180910390f35b610386610ea1565b005b6103a2600480360381019061039d919061336a565b610f29565b005b6103ac610fb3565b6040516103b99190613b12565b60405180910390f35b6103ca610fdc565b6040516103d79190613b94565b60405180910390f35b6103fa60048036038101906103f59190613210565b61106e565b005b61041660048036038101906104119190613195565b6111ef565b005b610432600480360381019061042d9190613341565b611251565b60405161043f9190613b94565b60405180910390f35b610462600480360381019061045d919061310a565b6112f8565b60405161046f9190613b79565b60405180910390f35b610492600480360381019061048d91906130e1565b61138c565b005b60007f780e9d63000000000000000000000000000000000000000000000000000000007bffffffffffffffffffffffffffffffffffffffffffffffffffffffff1916827bffffffffffffffffffffffffffffffffffffffffffffffffffffffff19161480610507575061050682611484565b5b9050919050565b610516612e68565b60026000838152602001908152602001600020604051806101200160405290816000820160009054906101000a900460000b60000b60000b81526020016000820160019054906101000a900460000b60000b60000b81526020016000820160029054906101000a900460ff1660ff1660ff1681526020016000820160039054906101000a900460ff1660ff1660ff1681526020016000820160049054906101000a900463ffffffff1663ffffffff1663ffffffff168152602001600182015481526020016002820180546105e9906143ad565b80601f0160208091040260200160405190810160405280929190818152602001828054610615906143ad565b80156106625780601f1061063757610100808354040283529160200191610662565b820191906000526020600020905b81548152906001019060200180831161064557829003601f168201915b5050505050815260200160038201805480602002602001604051908101604052809291908181526020016000905b828210156107df578382906000526020600020016040518060c00160405290816000820160009054906101000a900460ff1660ff1660ff1681526020016000820160019054906101000a900460ff1660ff1660ff1681526020016000820160029054906101000a900460ff1660ff1660ff1681526020016000820160039054906101000a900460ff1660ff1660ff1681526020016000820160049054906101000a900463ffffffff1663ffffffff1663ffffffff1681526020016000820160089054906101000a900460ff166006811115610794577f4e487b7100000000000000000000000000000000000000000000000000000000600052602160045260246000fd5b60068111156107cc577f4e487b7100000000000000000000000000000000000000000000000000000000600052602160045260246000fd5b8152505081526020019060010190610690565b5050505081526020016004820160009054906101000a900460ff161515151581525050905060011515816101000151151514610850576040517f08c379a000000000000000000000000000000000000000000000000000000000815260040161084790613d56565b60405180910390fd5b919050565b606060078054610864906143ad565b80601f0160208091040260200160405190810160405280929190818152602001828054610890906143ad565b80156108dd5780601f106108b2576101008083540402835291602001916108dd565b820191906000526020600020905b8154815290600101906020018083116108c057829003601f168201915b5050505050905090565b60006108f282611566565b610931576040517f08c379a000000000000000000000000000000000000000000000000000000000815260040161092890613d76565b60405180910390fd5b600b600083815260200190815260200160002060009054906101000a900473ffffffffffffffffffffffffffffffffffffffff169050919050565b6109746115d2565b73ffffffffffffffffffffffffffffffffffffffff16610992610fb3565b73ffffffffffffffffffffffffffffffffffffffff16146109e8576040517f08c379a00000000000000000000000000000000000000000000000000000000081526004016109df90613db6565b60405180910390fd5b6004548111610a2c576040517f08c379a0000000000000000000000000000000000000000000000000000000008152600401610a2390613e76565b60405180910390fd5b8060048190555050565b6000610a4182610d37565b90508073ffffffffffffffffffffffffffffffffffffffff168373ffffffffffffffffffffffffffffffffffffffff161415610ab2576040517f08c379a0000000000000000000000000000000000000000000000000000000008152600401610aa990613e56565b60405180910390fd5b8073ffffffffffffffffffffffffffffffffffffffff16610ad16115d2565b73ffffffffffffffffffffffffffffffffffffffff161480610b005750610aff81610afa6115d2565b6112f8565b5b610b3f576040517f08c379a0000000000000000000000000000000000000000000000000000000008152600401610b3690613cd6565b60405180910390fd5b610b4983836115da565b505050565b6000600f80549050905090565b610b6c610b666115d2565b82611693565b610bab576040517f08c379a0000000000000000000000000000000000000000000000000000000008152600401610ba290613e96565b60405180910390fd5b610bb6838383611771565b505050565b6000610bc683610de9565b8210610c07576040517f08c379a0000000000000000000000000000000000000000000000000000000008152600401610bfe90613bb6565b60405180910390fd5b600d60008473ffffffffffffffffffffffffffffffffffffffff1673ffffffffffffffffffffffffffffffffffffffff168152602001908152602001600020600083815260200190815260200160002054905092915050565b6000610c6d8484846119cd565b9050610c793382611c94565b9392505050565b610c9b838383604051806020016040528060008152506111ef565b505050565b6000610caa610b4e565b8210610ceb576040517f08c379a0000000000000000000000000000000000000000000000000000000008152600401610ce290613eb6565b60405180910390fd5b600f8281548110610d25577f4e487b7100000000000000000000000000000000000000000000000000000000600052603260045260246000fd5b90600052602060002001549050919050565b6000806009600084815260200190815260200160002060009054906101000a900473ffffffffffffffffffffffffffffffffffffffff169050600073ffffffffffffffffffffffffffffffffffffffff168173ffffffffffffffffffffffffffffffffffffffff161415610de0576040517f08c379a0000000000000000000000000000000000000000000000000000000008152600401610dd790613d16565b60405180910390fd5b80915050919050565b60008073ffffffffffffffffffffffffffffffffffffffff168273ffffffffffffffffffffffffffffffffffffffff161415610e5a576040517f08c379a0000000000000000000000000000000000000000000000000000000008152600401610e5190613cf6565b60405180910390fd5b600a60008373ffffffffffffffffffffffffffffffffffffffff1673ffffffffffffffffffffffffffffffffffffffff168152602001908152602001600020549050919050565b610ea96115d2565b73ffffffffffffffffffffffffffffffffffffffff16610ec7610fb3565b73ffffffffffffffffffffffffffffffffffffffff1614610f1d576040517f08c379a0000000000000000000000000000000000000000000000000000000008152600401610f1490613db6565b60405180910390fd5b610f276000611e62565b565b833373ffffffffffffffffffffffffffffffffffffffff16610f4a82610d37565b73ffffffffffffffffffffffffffffffffffffffff1614610fa0576040517f08c379a0000000000000000000000000000000000000000000000000000000008152600401610f9790613df6565b60405180910390fd5b610fac85858585611f26565b5050505050565b60008060009054906101000a900473ffffffffffffffffffffffffffffffffffffffff16905090565b606060088054610feb906143ad565b80601f0160208091040260200160405190810160405280929190818152602001828054611017906143ad565b80156110645780601f1061103957610100808354040283529160200191611064565b820191906000526020600020905b81548152906001019060200180831161104757829003601f168201915b5050505050905090565b6110766115d2565b73ffffffffffffffffffffffffffffffffffffffff168273ffffffffffffffffffffffffffffffffffffffff1614156110e4576040517f08c379a00000000000000000000000000000000000000000000000000000000081526004016110db90613c56565b60405180910390fd5b80600c60006110f16115d2565b73ffffffffffffffffffffffffffffffffffffffff1673ffffffffffffffffffffffffffffffffffffffff16815260200190815260200160002060008473ffffffffffffffffffffffffffffffffffffffff1673ffffffffffffffffffffffffffffffffffffffff16815260200190815260200160002060006101000a81548160ff0219169083151502179055508173ffffffffffffffffffffffffffffffffffffffff1661119e6115d2565b73ffffffffffffffffffffffffffffffffffffffff167f17307eab39ab6107e8899845ad3d59bd9653f200f220920489ca2b5937696c31836040516111e39190613b79565b60405180910390a35050565b6112006111fa6115d2565b83611693565b61123f576040517f08c379a000000000000000000000000000000000000000000000000000000000815260040161123690613e96565b60405180910390fd5b61124b848484846124f7565b50505050565b606061125c82611566565b61129b576040517f08c379a000000000000000000000000000000000000000000000000000000000815260040161129290613e36565b60405180910390fd5b60006112a5612553565b905060008151116112c557604051806020016040528060008152506112f0565b806112cf8461256a565b6040516020016112e0929190613aee565b6040516020818303038152906040525b915050919050565b6000600c60008473ffffffffffffffffffffffffffffffffffffffff1673ffffffffffffffffffffffffffffffffffffffff16815260200190815260200160002060008373ffffffffffffffffffffffffffffffffffffffff1673ffffffffffffffffffffffffffffffffffffffff16815260200190815260200160002060009054906101000a900460ff16905092915050565b6113946115d2565b73ffffffffffffffffffffffffffffffffffffffff166113b2610fb3565b73ffffffffffffffffffffffffffffffffffffffff1614611408576040517f08c379a00000000000000000000000000000000000000000000000000000000081526004016113ff90613db6565b60405180910390fd5b600073ffffffffffffffffffffffffffffffffffffffff168173ffffffffffffffffffffffffffffffffffffffff161415611478576040517f08c379a000000000000000000000000000000000000000000000000000000000815260040161146f90613bf6565b60405180910390fd5b61148181611e62565b50565b60007f80ac58cd000000000000000000000000000000000000000000000000000000007bffffffffffffffffffffffffffffffffffffffffffffffffffffffff1916827bffffffffffffffffffffffffffffffffffffffffffffffffffffffff1916148061154f57507f5b5e139f000000000000000000000000000000000000000000000000000000007bffffffffffffffffffffffffffffffffffffffffffffffffffffffff1916827bffffffffffffffffffffffffffffffffffffffffffffffffffffffff1916145b8061155f575061155e82612717565b5b9050919050565b60008073ffffffffffffffffffffffffffffffffffffffff166009600084815260200190815260200160002060009054906101000a900473ffffffffffffffffffffffffffffffffffffffff1673ffffffffffffffffffffffffffffffffffffffff1614159050919050565b600033905090565b81600b600083815260200190815260200160002060006101000a81548173ffffffffffffffffffffffffffffffffffffffff021916908373ffffffffffffffffffffffffffffffffffffffff160217905550808273ffffffffffffffffffffffffffffffffffffffff1661164d83610d37565b73ffffffffffffffffffffffffffffffffffffffff167f8c5be1e5ebec7d5bd14f71427d1e84f3dd0314c0f7b2291e5b200ac8c7c3b92560405160405180910390a45050565b600061169e82611566565b6116dd576040517f08c379a00000000000000000000000000000000000000000000000000000000081526004016116d490613c76565b60405180910390fd5b60006116e883610d37565b90508073ffffffffffffffffffffffffffffffffffffffff168473ffffffffffffffffffffffffffffffffffffffff16148061175757508373ffffffffffffffffffffffffffffffffffffffff1661173f846108e7565b73ffffffffffffffffffffffffffffffffffffffff16145b80611768575061176781856112f8565b5b91505092915050565b8273ffffffffffffffffffffffffffffffffffffffff1661179182610d37565b73ffffffffffffffffffffffffffffffffffffffff16146117e7576040517f08c379a00000000000000000000000000000000000000000000000000000000081526004016117de90613e16565b60405180910390fd5b600073ffffffffffffffffffffffffffffffffffffffff168273ffffffffffffffffffffffffffffffffffffffff161415611857576040517f08c379a000000000000000000000000000000000000000000000000000000000815260040161184e90613c36565b60405180910390fd5b611862838383612781565b61186d6000826115da565b6001600a60008573ffffffffffffffffffffffffffffffffffffffff1673ffffffffffffffffffffffffffffffffffffffff16815260200190815260200160002060008282546118bd919061426a565b925050819055506001600a60008473ffffffffffffffffffffffffffffffffffffffff1673ffffffffffffffffffffffffffffffffffffffff16815260200190815260200160002060008282546119149190614118565b92505081905550816009600083815260200190815260200160002060006101000a81548173ffffffffffffffffffffffffffffffffffffffff021916908373ffffffffffffffffffffffffffffffffffffffff160217905550808273ffffffffffffffffffffffffffffffffffffffff168473ffffffffffffffffffffffffffffffffffffffff167fddf252ad1be2c89b69c2b068fc378daa952ba7f163c4a11628f55a4df523b3ef60405160405180910390a4505050565b60006004548360000b131580156119f5575060045460006119ee91906141d6565b8360000b12155b611a34576040517f08c379a0000000000000000000000000000000000000000000000000000000008152600401611a2b90613dd6565b60405180910390fd5b6004548260000b13158015611a5a57506004546000611a5391906141d6565b8260000b12155b611a99576040517f08c379a0000000000000000000000000000000000000000000000000000000008152600401611a9090613f16565b60405180910390fd5b6000600360008560000b60000b815260200190815260200160002060008460000b60000b81526020019081526020016000205414611b0c576040517f08c379a0000000000000000000000000000000000000000000000000000000008152600401611b0390613cb6565b60405180910390fd5b60056000815480929190611b1f90614410565b9190505590506000600260008381526020019081526020016000209050818160010181905550838160000160006101000a81548160ff021916908360000b60ff160217905550828160000160016101000a81548160ff021916908360000b60ff16021790555060058160000160026101000a81548160ff021916908360ff16021790555060648160000160036101000a81548160ff021916908360ff160217905550428160000160046101000a81548163ffffffff021916908363ffffffff16021790555084816002019080519060200190611bfc929190612ec6565b5060018160040160006101000a81548160ff02191690831515021790555081600360008660000b60000b815260200190815260200160002060008560000b60000b8152602001908152602001600020819055507fb449d51a80a67072b11ef6826bc0a223593d54e719f7444cd86215a462c90bdb82868686604051611c849493929190613fb8565b60405180910390a1509392505050565b600073ffffffffffffffffffffffffffffffffffffffff168273ffffffffffffffffffffffffffffffffffffffff161415611d04576040517f08c379a0000000000000000000000000000000000000000000000000000000008152600401611cfb90613d36565b60405180910390fd5b611d0d81611566565b15611d4d576040517f08c379a0000000000000000000000000000000000000000000000000000000008152600401611d4490613c16565b60405180910390fd5b611d5960008383612781565b6001600a60008473ffffffffffffffffffffffffffffffffffffffff1673ffffffffffffffffffffffffffffffffffffffff1681526020019081526020016000206000828254611da99190614118565b92505081905550816009600083815260200190815260200160002060006101000a81548173ffffffffffffffffffffffffffffffffffffffff021916908373ffffffffffffffffffffffffffffffffffffffff160217905550808273ffffffffffffffffffffffffffffffffffffffff16600073ffffffffffffffffffffffffffffffffffffffff167fddf252ad1be2c89b69c2b068fc378daa952ba7f163c4a11628f55a4df523b3ef60405160405180910390a45050565b60008060009054906101000a900473ffffffffffffffffffffffffffffffffffffffff169050816000806101000a81548173ffffffffffffffffffffffffffffffffffffffff021916908373ffffffffffffffffffffffffffffffffffffffff1602179055508173ffffffffffffffffffffffffffffffffffffffff168173ffffffffffffffffffffffffffffffffffffffff167f8be0079c531659141344cd1fd0a4f28419497f9722a3daafe3b4186f6b6457e060405160405180910390a35050565b60006002600086815260200190815260200160002090506000611f498686612895565b60ff1614611f8c576040517f08c379a0000000000000000000000000000000000000000000000000000000008152600401611f8390613ef6565b60405180910390fd5b600060016000866006811115611fcb577f4e487b7100000000000000000000000000000000000000000000000000000000600052602160045260246000fd5b6006811115612003577f4e487b7100000000000000000000000000000000000000000000000000000000600052602160045260246000fd5b815260200190815260200160002060009054906101000a900460ff16905060008160ff1611612067576040517f08c379a000000000000000000000000000000000000000000000000000000000815260040161205e90613c96565b60405180910390fd5b8160000160029054906101000a900460ff1660ff168185612088919061416e565b60ff1611156120cc576040517f08c379a00000000000000000000000000000000000000000000000000000000081526004016120c390613d96565b60405180910390fd5b8160000160029054906101000a900460ff1660ff1681846120ed919061416e565b60ff161115612131576040517f08c379a000000000000000000000000000000000000000000000000000000000815260040161212890613d96565b60405180910390fd5b60008490505b8185612143919061416e565b60ff168160ff16101561230d5760008490505b8285612162919061416e565b60ff168160ff1610156122f95760005b84600301805490508160ff1610156122e5576000856003018260ff16815481106121c5577f4e487b7100000000000000000000000000000000000000000000000000000000600052603260045260246000fd5b90600052602060002001905060008160000160029054906101000a900460ff168260000160009054906101000a900460ff16612201919061416e565b905060008260000160029054906101000a900460ff168360000160019054906101000a900460ff16612233919061416e565b90508260000160009054906101000a900460ff1660ff168660ff16108061225f57508160ff168660ff16115b8061228057508260000160019054906101000a900460ff1660ff168560ff16105b8061229057508060ff168560ff16115b6122cf576040517f08c379a00000000000000000000000000000000000000000000000000000000081526004016122c690613ed6565b60405180910390fd5b50505080806122dd90614459565b915050612172565b5080806122f190614459565b915050612156565b50808061230590614459565b915050612137565b50816003016040518060c001604052808660ff1681526020018560ff1681526020018360ff168152602001600160ff1681526020014263ffffffff168152602001876006811115612387577f4e487b7100000000000000000000000000000000000000000000000000000000600052602160045260246000fd5b8152509080600181540180825580915050600190039060005260206000200160009091909190915060008201518160000160006101000a81548160ff021916908360ff16021790555060208201518160000160016101000a81548160ff021916908360ff16021790555060408201518160000160026101000a81548160ff021916908360ff16021790555060608201518160000160036101000a81548160ff021916908360ff16021790555060808201518160000160046101000a81548163ffffffff021916908363ffffffff16021790555060a08201518160000160086101000a81548160ff021916908360068111156124ab577f4e487b7100000000000000000000000000000000000000000000000000000000600052602160045260246000fd5b021790555050507f65ba7aa5381aa165bd92d38abccd807c7fb086876c94483c5648bdc0b0687bac868686866040516124e79493929190613f73565b60405180910390a1505050505050565b612502848484611771565b61250e84848484612941565b61254d576040517f08c379a000000000000000000000000000000000000000000000000000000000815260040161254490613bd6565b60405180910390fd5b50505050565b606060405180602001604052806000815250905090565b606060008214156125b2576040518060400160405280600181526020017f30000000000000000000000000000000000000000000000000000000000000008152509050612712565b600082905060005b600082146125e45780806125cd90614410565b915050600a826125dd91906141a5565b91506125ba565b60008167ffffffffffffffff811115612626577f4e487b7100000000000000000000000000000000000000000000000000000000600052604160045260246000fd5b6040519080825280601f01601f1916602001820160405280156126585781602001600182028036833780820191505090505b5090505b6000851461270b57600182612671919061426a565b9150600a856126809190614483565b603061268c9190614118565b60f81b8183815181106126c8577f4e487b7100000000000000000000000000000000000000000000000000000000600052603260045260246000fd5b60200101907effffffffffffffffffffffffffffffffffffffffffffffffffffffffffffff1916908160001a905350600a8561270491906141a5565b945061265c565b8093505050505b919050565b60007f01ffc9a7000000000000000000000000000000000000000000000000000000007bffffffffffffffffffffffffffffffffffffffffffffffffffffffff1916827bffffffffffffffffffffffffffffffffffffffffffffffffffffffff1916149050919050565b61278c838383612ad8565b600073ffffffffffffffffffffffffffffffffffffffff168373ffffffffffffffffffffffffffffffffffffffff1614156127cf576127ca81612add565b61280e565b8173ffffffffffffffffffffffffffffffffffffffff168373ffffffffffffffffffffffffffffffffffffffff161461280d5761280c8382612b26565b5b5b600073ffffffffffffffffffffffffffffffffffffffff168273ffffffffffffffffffffffffffffffffffffffff1614156128515761284c81612c93565b612890565b8273ffffffffffffffffffffffffffffffffffffffff168273ffffffffffffffffffffffffffffffffffffffff161461288f5761288e8282612dd6565b5b5b505050565b60006006600084815260200190815260200160002060008360068111156128e5577f4e487b7100000000000000000000000000000000000000000000000000000000600052602160045260246000fd5b600681111561291d577f4e487b7100000000000000000000000000000000000000000000000000000000600052602160045260246000fd5b815260200190815260200160002060009054906101000a900460ff16905092915050565b60006129628473ffffffffffffffffffffffffffffffffffffffff16612e55565b15612acb578373ffffffffffffffffffffffffffffffffffffffff1663150b7a0261298b6115d2565b8786866040518563ffffffff1660e01b81526004016129ad9493929190613b2d565b602060405180830381600087803b1580156129c757600080fd5b505af19250505080156129f857506040513d601f19601f820116820180604052508101906129f591906132b1565b60015b612a7b573d8060008114612a28576040519150601f19603f3d011682016040523d82523d6000602084013e612a2d565b606091505b50600081511415612a73576040517f08c379a0000000000000000000000000000000000000000000000000000000008152600401612a6a90613bd6565b60405180910390fd5b805181602001fd5b63150b7a0260e01b7bffffffffffffffffffffffffffffffffffffffffffffffffffffffff1916817bffffffffffffffffffffffffffffffffffffffffffffffffffffffff191614915050612ad0565b600190505b949350505050565b505050565b600f805490506010600083815260200190815260200160002081905550600f81908060018154018082558091505060019003906000526020600020016000909190919091505550565b60006001612b3384610de9565b612b3d919061426a565b90506000600e6000848152602001908152602001600020549050818114612c22576000600d60008673ffffffffffffffffffffffffffffffffffffffff1673ffffffffffffffffffffffffffffffffffffffff168152602001908152602001600020600084815260200190815260200160002054905080600d60008773ffffffffffffffffffffffffffffffffffffffff1673ffffffffffffffffffffffffffffffffffffffff16815260200190815260200160002060008481526020019081526020016000208190555081600e600083815260200190815260200160002081905550505b600e600084815260200190815260200160002060009055600d60008573ffffffffffffffffffffffffffffffffffffffff1673ffffffffffffffffffffffffffffffffffffffff16815260200190815260200160002060008381526020019081526020016000206000905550505050565b60006001600f80549050612ca7919061426a565b90506000601060008481526020019081526020016000205490506000600f8381548110612cfd577f4e487b7100000000000000000000000000000000000000000000000000000000600052603260045260246000fd5b9060005260206000200154905080600f8381548110612d45577f4e487b7100000000000000000000000000000000000000000000000000000000600052603260045260246000fd5b90600052602060002001819055508160106000838152602001908152602001600020819055506010600085815260200190815260200160002060009055600f805480612dba577f4e487b7100000000000000000000000000000000000000000000000000000000600052603160045260246000fd5b6001900381819060005260206000200160009055905550505050565b6000612de183610de9565b905081600d60008573ffffffffffffffffffffffffffffffffffffffff1673ffffffffffffffffffffffffffffffffffffffff16815260200190815260200160002060008381526020019081526020016000208190555080600e600084815260200190815260200160002081905550505050565b600080823b905060008111915050919050565b6040518061012001604052806000800b81526020016000800b8152602001600060ff168152602001600060ff168152602001600063ffffffff1681526020016000815260200160608152602001606081526020016000151581525090565b828054612ed2906143ad565b90600052602060002090601f016020900481019282612ef45760008555612f3b565b82601f10612f0d57805160ff1916838001178555612f3b565b82800160010185558215612f3b579182015b82811115612f3a578251825591602001919060010190612f1f565b5b509050612f489190612f4c565b5090565b5b80821115612f65576000816000905550600101612f4d565b5090565b6000612f7c612f7784614029565b614004565b905082815260208101848484011115612f9457600080fd5b612f9f84828561436b565b509392505050565b6000612fba612fb58461405a565b614004565b905082815260208101848484011115612fd257600080fd5b612fdd84828561436b565b509392505050565b600081359050612ff481614d12565b92915050565b60008135905061300981614d29565b92915050565b60008135905061301e81614d40565b92915050565b60008151905061303381614d40565b92915050565b600082601f83011261304a57600080fd5b813561305a848260208601612f69565b91505092915050565b60008135905061307281614d57565b92915050565b60008135905061308781614d67565b92915050565b600082601f83011261309e57600080fd5b81356130ae848260208601612fa7565b91505092915050565b6000813590506130c681614d7e565b92915050565b6000813590506130db81614d95565b92915050565b6000602082840312156130f357600080fd5b600061310184828501612fe5565b91505092915050565b6000806040838503121561311d57600080fd5b600061312b85828601612fe5565b925050602061313c85828601612fe5565b9150509250929050565b60008060006060848603121561315b57600080fd5b600061316986828701612fe5565b935050602061317a86828701612fe5565b925050604061318b868287016130b7565b9150509250925092565b600080600080608085870312156131ab57600080fd5b60006131b987828801612fe5565b94505060206131ca87828801612fe5565b93505060406131db878288016130b7565b925050606085013567ffffffffffffffff8111156131f857600080fd5b61320487828801613039565b91505092959194509250565b6000806040838503121561322357600080fd5b600061323185828601612fe5565b925050602061324285828601612ffa565b9150509250929050565b6000806040838503121561325f57600080fd5b600061326d85828601612fe5565b925050602061327e858286016130b7565b9150509250929050565b60006020828403121561329a57600080fd5b60006132a88482850161300f565b91505092915050565b6000602082840312156132c357600080fd5b60006132d184828501613024565b91505092915050565b6000806000606084860312156132ef57600080fd5b600084013567ffffffffffffffff81111561330957600080fd5b6133158682870161308d565b935050602061332686828701613078565b925050604061333786828701613078565b9150509250925092565b60006020828403121561335357600080fd5b6000613361848285016130b7565b91505092915050565b6000806000806080858703121561338057600080fd5b600061338e878288016130b7565b945050602061339f87828801613063565b93505060406133b0878288016130cc565b92505060606133c1878288016130cc565b91505092959194509250565b60006133d9838361395c565b60c08301905092915050565b6133ee8161429e565b82525050565b60006133ff8261409b565b61340981856140c9565b93506134148361408b565b8060005b8381101561344557815161342c88826133cd565b9750613437836140bc565b925050600181019050613418565b5085935050505092915050565b61345b816142b0565b82525050565b61346a816142b0565b82525050565b600061347b826140a6565b61348581856140da565b935061349581856020860161437a565b61349e8161459f565b840191505092915050565b6134b281614359565b82525050565b6134c181614359565b82525050565b6134d081614305565b82525050565b6134df81614305565b82525050565b60006134f0826140b1565b6134fa81856140eb565b935061350a81856020860161437a565b6135138161459f565b840191505092915050565b6000613529826140b1565b61353381856140fc565b935061354381856020860161437a565b61354c8161459f565b840191505092915050565b6000613562826140b1565b61356c818561410d565b935061357c81856020860161437a565b80840191505092915050565b6000613595602b836140fc565b91506135a0826145b0565b604082019050919050565b60006135b86032836140fc565b91506135c3826145ff565b604082019050919050565b60006135db6026836140fc565b91506135e68261464e565b604082019050919050565b60006135fe601c836140fc565b91506136098261469d565b602082019050919050565b60006136216024836140fc565b915061362c826146c6565b604082019050919050565b60006136446019836140fc565b915061364f82614715565b602082019050919050565b6000613667602c836140fc565b91506136728261473e565b604082019050919050565b600061368a603c836140fc565b91506136958261478d565b604082019050919050565b60006136ad602b836140fc565b91506136b8826147dc565b604082019050919050565b60006136d06038836140fc565b91506136db8261482b565b604082019050919050565b60006136f3602a836140fc565b91506136fe8261487a565b604082019050919050565b60006137166029836140fc565b9150613721826148c9565b604082019050919050565b60006137396020836140fc565b915061374482614918565b602082019050919050565b600061375c6019836140fc565b915061376782614941565b602082019050919050565b600061377f602c836140fc565b915061378a8261496a565b604082019050919050565b60006137a2602c836140fc565b91506137ad826149b9565b604082019050919050565b60006137c56020836140fc565b91506137d082614a08565b602082019050919050565b60006137e8601a836140fc565b91506137f382614a31565b602082019050919050565b600061380b601c836140fc565b915061381682614a5a565b602082019050919050565b600061382e6029836140fc565b915061383982614a83565b604082019050919050565b6000613851602f836140fc565b915061385c82614ad2565b604082019050919050565b60006138746021836140fc565b915061387f82614b21565b604082019050919050565b6000613897602d836140fc565b91506138a282614b70565b604082019050919050565b60006138ba6031836140fc565b91506138c582614bbf565b604082019050919050565b60006138dd602c836140fc565b91506138e882614c0e565b604082019050919050565b6000613900601e836140fc565b915061390b82614c5d565b602082019050919050565b6000613923602c836140fc565b915061392e82614c86565b604082019050919050565b6000613946601a836140fc565b915061395182614cd5565b602082019050919050565b60c0820160008201516139726000850182613ad0565b5060208201516139856020850182613ad0565b5060408201516139986040850182613ad0565b5060608201516139ab6060850182613ad0565b5060808201516139be6080850182613ac1565b5060a08201516139d160a08501826134a9565b50505050565b6000610120830160008301516139f060008601826134c7565b506020830151613a0360208601826134c7565b506040830151613a166040860182613ad0565b506060830151613a296060860182613ad0565b506080830151613a3c6080860182613ac1565b5060a0830151613a4f60a0860182613aa3565b5060c083015184820360c0860152613a6782826134e5565b91505060e083015184820360e0860152613a8182826133f4565b915050610100830151613a98610100860182613452565b508091505092915050565b613aac81614332565b82525050565b613abb81614332565b82525050565b613aca8161433c565b82525050565b613ad98161434c565b82525050565b613ae88161434c565b82525050565b6000613afa8285613557565b9150613b068284613557565b91508190509392505050565b6000602082019050613b2760008301846133e5565b92915050565b6000608082019050613b4260008301876133e5565b613b4f60208301866133e5565b613b5c6040830185613ab2565b8181036060830152613b6e8184613470565b905095945050505050565b6000602082019050613b8e6000830184613461565b92915050565b60006020820190508181036000830152613bae818461351e565b905092915050565b60006020820190508181036000830152613bcf81613588565b9050919050565b60006020820190508181036000830152613bef816135ab565b9050919050565b60006020820190508181036000830152613c0f816135ce565b9050919050565b60006020820190508181036000830152613c2f816135f1565b9050919050565b60006020820190508181036000830152613c4f81613614565b9050919050565b60006020820190508181036000830152613c6f81613637565b9050919050565b60006020820190508181036000830152613c8f8161365a565b9050919050565b60006020820190508181036000830152613caf8161367d565b9050919050565b60006020820190508181036000830152613ccf816136a0565b9050919050565b60006020820190508181036000830152613cef816136c3565b9050919050565b60006020820190508181036000830152613d0f816136e6565b9050919050565b60006020820190508181036000830152613d2f81613709565b9050919050565b60006020820190508181036000830152613d4f8161372c565b9050919050565b60006020820190508181036000830152613d6f8161374f565b9050919050565b60006020820190508181036000830152613d8f81613772565b9050919050565b60006020820190508181036000830152613daf81613795565b9050919050565b60006020820190508181036000830152613dcf816137b8565b9050919050565b60006020820190508181036000830152613def816137db565b9050919050565b60006020820190508181036000830152613e0f816137fe565b9050919050565b60006020820190508181036000830152613e2f81613821565b9050919050565b60006020820190508181036000830152613e4f81613844565b9050919050565b60006020820190508181036000830152613e6f81613867565b9050919050565b60006020820190508181036000830152613e8f8161388a565b9050919050565b60006020820190508181036000830152613eaf816138ad565b9050919050565b60006020820190508181036000830152613ecf816138d0565b9050919050565b60006020820190508181036000830152613eef816138f3565b9050919050565b60006020820190508181036000830152613f0f81613916565b9050919050565b60006020820190508181036000830152613f2f81613939565b9050919050565b60006020820190508181036000830152613f5081846139d7565b905092915050565b6000602082019050613f6d6000830184613ab2565b92915050565b6000608082019050613f886000830187613ab2565b613f9560208301866134b8565b613fa26040830185613adf565b613faf6060830184613adf565b95945050505050565b6000608082019050613fcd6000830187613ab2565b8181036020830152613fdf818661351e565b9050613fee60408301856134d6565b613ffb60608301846134d6565b95945050505050565b600061400e61401f565b905061401a82826143df565b919050565b6000604051905090565b600067ffffffffffffffff82111561404457614043614570565b5b61404d8261459f565b9050602081019050919050565b600067ffffffffffffffff82111561407557614074614570565b5b61407e8261459f565b9050602081019050919050565b6000819050602082019050919050565b600081519050919050565b600081519050919050565b600081519050919050565b6000602082019050919050565b600082825260208201905092915050565b600082825260208201905092915050565b600082825260208201905092915050565b600082825260208201905092915050565b600081905092915050565b600061412382614332565b915061412e83614332565b9250827fffffffffffffffffffffffffffffffffffffffffffffffffffffffffffffffff03821115614163576141626144b4565b5b828201905092915050565b60006141798261434c565b91506141848361434c565b92508260ff0382111561419a576141996144b4565b5b828201905092915050565b60006141b082614332565b91506141bb83614332565b9250826141cb576141ca6144e3565b5b828204905092915050565b60006141e1826142fb565b91506141ec836142fb565b9250827f800000000000000000000000000000000000000000000000000000000000000001821260008412151615614227576142266144b4565b5b827f7fffffffffffffffffffffffffffffffffffffffffffffffffffffffffffffff01821360008412161561425f5761425e6144b4565b5b828203905092915050565b600061427582614332565b915061428083614332565b925082821015614293576142926144b4565b5b828203905092915050565b60006142a982614312565b9050919050565b60008115159050919050565b60007fffffffff0000000000000000000000000000000000000000000000000000000082169050919050565b60008190506142f682614cfe565b919050565b6000819050919050565b60008160000b9050919050565b600073ffffffffffffffffffffffffffffffffffffffff82169050919050565b6000819050919050565b600063ffffffff82169050919050565b600060ff82169050919050565b6000614364826142e8565b9050919050565b82818337600083830152505050565b60005b8381101561439857808201518184015260208101905061437d565b838111156143a7576000848401525b50505050565b600060028204905060018216806143c557607f821691505b602082108114156143d9576143d8614541565b5b50919050565b6143e88261459f565b810181811067ffffffffffffffff8211171561440757614406614570565b5b80604052505050565b600061441b82614332565b91507fffffffffffffffffffffffffffffffffffffffffffffffffffffffffffffffff82141561444e5761444d6144b4565b5b600182019050919050565b60006144648261434c565b915060ff821415614478576144776144b4565b5b600182019050919050565b600061448e82614332565b915061449983614332565b9250826144a9576144a86144e3565b5b828206905092915050565b7f4e487b7100000000000000000000000000000000000000000000000000000000600052601160045260246000fd5b7f4e487b7100000000000000000000000000000000000000000000000000000000600052601260045260246000fd5b7f4e487b7100000000000000000000000000000000000000000000000000000000600052602160045260246000fd5b7f4e487b7100000000000000000000000000000000000000000000000000000000600052602260045260246000fd5b7f4e487b7100000000000000000000000000000000000000000000000000000000600052604160045260246000fd5b6000601f19601f8301169050919050565b7f455243373231456e756d657261626c653a206f776e657220696e646578206f7560008201527f74206f6620626f756e6473000000000000000000000000000000000000000000602082015250565b7f4552433732313a207472616e7366657220746f206e6f6e20455243373231526560008201527f63656976657220696d706c656d656e7465720000000000000000000000000000602082015250565b7f4f776e61626c653a206e6577206f776e657220697320746865207a65726f206160008201527f6464726573730000000000000000000000000000000000000000000000000000602082015250565b7f4552433732313a20746f6b656e20616c7265616479206d696e74656400000000600082015250565b7f4552433732313a207472616e7366657220746f20746865207a65726f2061646460008201527f7265737300000000000000000000000000000000000000000000000000000000602082015250565b7f4552433732313a20617070726f766520746f2063616c6c657200000000000000600082015250565b7f4552433732313a206f70657261746f7220717565727920666f72206e6f6e657860008201527f697374656e7420746f6b656e0000000000000000000000000000000000000000602082015250565b7f4572726f722c20696e76616c6964206275696c64696e672073697a652e20436860008201527f65636b206275696c64696e67207479706520706172616d657465722e00000000602082015250565b7f76696c6c61676520616c7265616479206578697374732061742074686573652060008201527f636f6f7264696e61746573000000000000000000000000000000000000000000602082015250565b7f4552433732313a20617070726f76652063616c6c6572206973206e6f74206f7760008201527f6e6572206e6f7220617070726f76656420666f7220616c6c0000000000000000602082015250565b7f4552433732313a2062616c616e636520717565727920666f7220746865207a6560008201527f726f206164647265737300000000000000000000000000000000000000000000602082015250565b7f4552433732313a206f776e657220717565727920666f72206e6f6e657869737460008201527f656e7420746f6b656e0000000000000000000000000000000000000000000000602082015250565b7f4552433732313a206d696e7420746f20746865207a65726f2061646472657373600082015250565b7f76696c6c61676520494420646f6573206e6f7420657869737400000000000000600082015250565b7f4552433732313a20617070726f76656420717565727920666f72206e6f6e657860008201527f697374656e7420746f6b656e0000000000000000000000000000000000000000602082015250565b7f4e657720706c6163656d656e74206f7574206f6620626f756e647320666f722060008201527f76696c6c6167652073697a650000000000000000000000000000000000000000602082015250565b7f4f776e61626c653a2063616c6c6572206973206e6f7420746865206f776e6572600082015250565b7f7820636f6f7264696e617465206f7574206f6620626f756e6473000000000000600082015250565b7f4e6f7420746865206f776e6572206f66207468652076696c6c61676500000000600082015250565b7f4552433732313a207472616e73666572206f6620746f6b656e2074686174206960008201527f73206e6f74206f776e0000000000000000000000000000000000000000000000602082015250565b7f4552433732314d657461646174613a2055524920717565727920666f72206e6f60008201527f6e6578697374656e7420746f6b656e0000000000000000000000000000000000602082015250565b7f4552433732313a20617070726f76616c20746f2063757272656e74206f776e6560008201527f7200000000000000000000000000000000000000000000000000000000000000602082015250565b7f4e6577206d61702073697a65206d75737420626520626967676572207468616e60008201527f206f6c64206d61702073697a6500000000000000000000000000000000000000602082015250565b7f4552433732313a207472616e736665722063616c6c6572206973206e6f74206f60008201527f776e6572206e6f7220617070726f766564000000000000000000000000000000602082015250565b7f455243373231456e756d657261626c653a20676c6f62616c20696e646578206f60008201527f7574206f6620626f756e64730000000000000000000000000000000000000000602082015250565b7f436c61736865732077697468206578697374696e67206275696c64696e670000600082015250565b7f546869732074797065206f66206275696c64696e672068617320616c7265616460008201527f79206265656e206275696c740000000000000000000000000000000000000000602082015250565b7f7920636f6f7264696e617465206f7574206f6620626f756e6473000000000000600082015250565b60078110614d0f57614d0e614512565b5b50565b614d1b8161429e565b8114614d2657600080fd5b50565b614d32816142b0565b8114614d3d57600080fd5b50565b614d49816142bc565b8114614d5457600080fd5b50565b60078110614d6457600080fd5b50565b614d7081614305565b8114614d7b57600080fd5b50565b614d8781614332565b8114614d9257600080fd5b50565b614d9e8161434c565b8114614da957600080fd5b5056fea26469706673582212201768af2967ca6d960f017609021f46d699f9b54bdba4423e576df4254a8e385664736f6c63430008040033",
  "linkReferences": {},
  "deployedLinkReferences": {}
}