{
  "_format": "hh-sol-artifact-1",
  "contractName": "VillageNft",
  "sourceName": "contracts/VillageNft.sol",
  "abi": [
    {
      "inputs": [],
      "stateMutability": "nonpayable",
      "type": "constructor"
    },
    {
      "anonymous": false,
      "inputs": [
        {
          "indexed": true,
          "internalType": "address",
          "name": "owner",
          "type": "address"
        },
        {
          "indexed": true,
          "internalType": "address",
          "name": "approved",
          "type": "address"
        },
        {
          "indexed": true,
          "internalType": "uint256",
          "name": "tokenId",
          "type": "uint256"
        }
      ],
      "name": "Approval",
      "type": "event"
    },
    {
      "anonymous": false,
      "inputs": [
        {
          "indexed": true,
          "internalType": "address",
          "name": "owner",
          "type": "address"
        },
        {
          "indexed": true,
          "internalType": "address",
          "name": "operator",
          "type": "address"
        },
        {
          "indexed": false,
          "internalType": "bool",
          "name": "approved",
          "type": "bool"
        }
      ],
      "name": "ApprovalForAll",
      "type": "event"
    },
    {
      "anonymous": false,
      "inputs": [
        {
          "indexed": false,
          "internalType": "uint256",
          "name": "villageId",
          "type": "uint256"
        },
        {
          "indexed": false,
          "internalType": "enum VillageGame.BuildingTypes",
          "name": "buildingType",
          "type": "uint8"
        },
        {
          "indexed": false,
          "internalType": "uint8",
          "name": "_x",
          "type": "uint8"
        },
        {
          "indexed": false,
          "internalType": "uint8",
          "name": "_y",
          "type": "uint8"
        }
      ],
      "name": "NewBuilding",
      "type": "event"
    },
    {
      "anonymous": false,
      "inputs": [
        {
          "indexed": false,
          "internalType": "uint256",
          "name": "villageId",
          "type": "uint256"
        },
        {
          "indexed": false,
          "internalType": "string",
          "name": "name",
          "type": "string"
        },
        {
          "indexed": false,
          "internalType": "int8",
          "name": "_x",
          "type": "int8"
        },
        {
          "indexed": false,
          "internalType": "int8",
          "name": "_y",
          "type": "int8"
        }
      ],
      "name": "NewVillage",
      "type": "event"
    },
    {
      "anonymous": false,
      "inputs": [
        {
          "indexed": true,
          "internalType": "address",
          "name": "previousOwner",
          "type": "address"
        },
        {
          "indexed": true,
          "internalType": "address",
          "name": "newOwner",
          "type": "address"
        }
      ],
      "name": "OwnershipTransferred",
      "type": "event"
    },
    {
      "anonymous": false,
      "inputs": [
        {
          "indexed": true,
          "internalType": "address",
          "name": "from",
          "type": "address"
        },
        {
          "indexed": true,
          "internalType": "address",
          "name": "to",
          "type": "address"
        },
        {
          "indexed": true,
          "internalType": "uint256",
          "name": "tokenId",
          "type": "uint256"
        }
      ],
      "name": "Transfer",
      "type": "event"
    },
    {
      "inputs": [
        {
          "internalType": "address",
          "name": "to",
          "type": "address"
        },
        {
          "internalType": "uint256",
          "name": "tokenId",
          "type": "uint256"
        }
      ],
      "name": "approve",
      "outputs": [],
      "stateMutability": "nonpayable",
      "type": "function"
    },
    {
      "inputs": [
        {
          "internalType": "address",
          "name": "owner",
          "type": "address"
        }
      ],
      "name": "balanceOf",
      "outputs": [
        {
          "internalType": "uint256",
          "name": "",
          "type": "uint256"
        }
      ],
      "stateMutability": "view",
      "type": "function"
    },
    {
      "inputs": [
        {
          "internalType": "enum VillageGame.BuildingTypes",
          "name": "",
          "type": "uint8"
        }
      ],
      "name": "buildingSizes",
      "outputs": [
        {
          "internalType": "uint8",
          "name": "",
          "type": "uint8"
        }
      ],
      "stateMutability": "view",
      "type": "function"
    },
    {
      "inputs": [
        {
          "internalType": "string",
          "name": "_name",
          "type": "string"
        },
        {
          "internalType": "int8",
          "name": "_x",
          "type": "int8"
        },
        {
          "internalType": "int8",
          "name": "_y",
          "type": "int8"
        }
      ],
      "name": "createVillage",
      "outputs": [
        {
          "internalType": "uint256",
          "name": "villageId",
          "type": "uint256"
        }
      ],
      "stateMutability": "nonpayable",
      "type": "function"
    },
    {
      "inputs": [
        {
          "internalType": "uint256",
          "name": "tokenId",
          "type": "uint256"
        }
      ],
      "name": "getApproved",
      "outputs": [
        {
          "internalType": "address",
          "name": "",
          "type": "address"
        }
      ],
      "stateMutability": "view",
      "type": "function"
    },
    {
      "inputs": [
        {
          "internalType": "uint256",
          "name": "_villageId",
          "type": "uint256"
        }
      ],
      "name": "getVillage",
      "outputs": [
        {
          "components": [
            {
              "internalType": "int8",
              "name": "x",
              "type": "int8"
            },
            {
              "internalType": "int8",
              "name": "y",
              "type": "int8"
            },
            {
              "internalType": "uint8",
              "name": "size",
              "type": "uint8"
            },
            {
              "internalType": "uint8",
              "name": "baseGoldRate",
              "type": "uint8"
            },
            {
              "internalType": "uint32",
              "name": "readyToMineTime",
              "type": "uint32"
            },
            {
              "internalType": "uint256",
              "name": "id",
              "type": "uint256"
            },
            {
              "internalType": "uint256",
              "name": "stats",
              "type": "uint256"
            },
            {
              "internalType": "string",
              "name": "name",
              "type": "string"
            },
            {
              "components": [
                {
                  "internalType": "uint8",
                  "name": "x",
                  "type": "uint8"
                },
                {
                  "internalType": "uint8",
                  "name": "y",
                  "type": "uint8"
                },
                {
                  "internalType": "uint8",
                  "name": "size",
                  "type": "uint8"
                },
                {
                  "internalType": "uint8",
                  "name": "level",
                  "type": "uint8"
                },
                {
                  "internalType": "uint32",
                  "name": "upgradeCompleteTime",
                  "type": "uint32"
                },
                {
                  "internalType": "enum VillageGame.BuildingTypes",
                  "name": "buildingType",
                  "type": "uint8"
                }
              ],
              "internalType": "struct VillageGame.BuildingPlacement[]",
              "name": "buildings",
              "type": "tuple[]"
            },
            {
              "internalType": "bool",
              "name": "exists",
              "type": "bool"
            }
          ],
          "internalType": "struct VillageGame.Village",
          "name": "village",
          "type": "tuple"
        }
      ],
      "stateMutability": "view",
      "type": "function"
    },
    {
      "inputs": [
        {
          "internalType": "address",
          "name": "owner",
          "type": "address"
        },
        {
          "internalType": "address",
          "name": "operator",
          "type": "address"
        }
      ],
      "name": "isApprovedForAll",
      "outputs": [
        {
          "internalType": "bool",
          "name": "",
          "type": "bool"
        }
      ],
      "stateMutability": "view",
      "type": "function"
    },
    {
      "inputs": [],
      "name": "name",
      "outputs": [
        {
          "internalType": "string",
          "name": "",
          "type": "string"
        }
      ],
      "stateMutability": "view",
      "type": "function"
    },
    {
      "inputs": [],
      "name": "owner",
      "outputs": [
        {
          "internalType": "address",
          "name": "",
          "type": "address"
        }
      ],
      "stateMutability": "view",
      "type": "function"
    },
    {
      "inputs": [
        {
          "internalType": "uint256",
          "name": "tokenId",
          "type": "uint256"
        }
      ],
      "name": "ownerOf",
      "outputs": [
        {
          "internalType": "address",
          "name": "",
          "type": "address"
        }
      ],
      "stateMutability": "view",
      "type": "function"
    },
    {
      "inputs": [
        {
          "internalType": "uint256",
          "name": "_villageId",
          "type": "uint256"
        },
        {
          "internalType": "enum VillageGame.BuildingTypes",
          "name": "_buildingType",
          "type": "uint8"
        },
        {
          "internalType": "uint8",
          "name": "_x",
          "type": "uint8"
        },
        {
          "internalType": "uint8",
          "name": "_y",
          "type": "uint8"
        }
      ],
      "name": "placeBuilding",
      "outputs": [],
      "stateMutability": "nonpayable",
      "type": "function"
    },
    {
      "inputs": [],
      "name": "renounceOwnership",
      "outputs": [],
      "stateMutability": "nonpayable",
      "type": "function"
    },
    {
      "inputs": [
        {
          "internalType": "address",
          "name": "from",
          "type": "address"
        },
        {
          "internalType": "address",
          "name": "to",
          "type": "address"
        },
        {
          "internalType": "uint256",
          "name": "tokenId",
          "type": "uint256"
        }
      ],
      "name": "safeTransferFrom",
      "outputs": [],
      "stateMutability": "nonpayable",
      "type": "function"
    },
    {
      "inputs": [
        {
          "internalType": "address",
          "name": "from",
          "type": "address"
        },
        {
          "internalType": "address",
          "name": "to",
          "type": "address"
        },
        {
          "internalType": "uint256",
          "name": "tokenId",
          "type": "uint256"
        },
        {
          "internalType": "bytes",
          "name": "_data",
          "type": "bytes"
        }
      ],
      "name": "safeTransferFrom",
      "outputs": [],
      "stateMutability": "nonpayable",
      "type": "function"
    },
    {
      "inputs": [
        {
          "internalType": "address",
          "name": "operator",
          "type": "address"
        },
        {
          "internalType": "bool",
          "name": "approved",
          "type": "bool"
        }
      ],
      "name": "setApprovalForAll",
      "outputs": [],
      "stateMutability": "nonpayable",
      "type": "function"
    },
    {
      "inputs": [
        {
          "internalType": "uint256",
          "name": "_mapSize",
          "type": "uint256"
        }
      ],
      "name": "setMapSize",
      "outputs": [],
      "stateMutability": "nonpayable",
      "type": "function"
    },
    {
      "inputs": [
        {
          "internalType": "bytes4",
          "name": "interfaceId",
          "type": "bytes4"
        }
      ],
      "name": "supportsInterface",
      "outputs": [
        {
          "internalType": "bool",
          "name": "",
          "type": "bool"
        }
      ],
      "stateMutability": "view",
      "type": "function"
    },
    {
      "inputs": [],
      "name": "symbol",
      "outputs": [
        {
          "internalType": "string",
          "name": "",
          "type": "string"
        }
      ],
      "stateMutability": "view",
      "type": "function"
    },
    {
      "inputs": [
        {
          "internalType": "uint256",
          "name": "index",
          "type": "uint256"
        }
      ],
      "name": "tokenByIndex",
      "outputs": [
        {
          "internalType": "uint256",
          "name": "",
          "type": "uint256"
        }
      ],
      "stateMutability": "view",
      "type": "function"
    },
    {
      "inputs": [
        {
          "internalType": "address",
          "name": "owner",
          "type": "address"
        },
        {
          "internalType": "uint256",
          "name": "index",
          "type": "uint256"
        }
      ],
      "name": "tokenOfOwnerByIndex",
      "outputs": [
        {
          "internalType": "uint256",
          "name": "",
          "type": "uint256"
        }
      ],
      "stateMutability": "view",
      "type": "function"
    },
    {
      "inputs": [
        {
          "internalType": "uint256",
          "name": "tokenId",
          "type": "uint256"
        }
      ],
      "name": "tokenURI",
      "outputs": [
        {
          "internalType": "string",
          "name": "",
          "type": "string"
        }
      ],
      "stateMutability": "view",
      "type": "function"
    },
    {
      "inputs": [],
      "name": "totalSupply",
      "outputs": [
        {
          "internalType": "uint256",
          "name": "",
          "type": "uint256"
        }
      ],
      "stateMutability": "view",
      "type": "function"
    },
    {
      "inputs": [
        {
          "internalType": "address",
          "name": "from",
          "type": "address"
        },
        {
          "internalType": "address",
          "name": "to",
          "type": "address"
        },
        {
          "internalType": "uint256",
          "name": "tokenId",
          "type": "uint256"
        }
      ],
      "name": "transferFrom",
      "outputs": [],
      "stateMutability": "nonpayable",
      "type": "function"
    },
    {
      "inputs": [
        {
          "internalType": "address",
          "name": "newOwner",
          "type": "address"
        }
      ],
      "name": "transferOwnership",
      "outputs": [],
      "stateMutability": "nonpayable",
      "type": "function"
    }
  ],
  "bytecode": "0x60806040526010600255600254600a6200001a91906200072b565b600355606460065560016007553480156200003457600080fd5b506040518060400160405280600881526020017f47616d654c616e640000000000000000000000000000000000000000000000008152506040518060400160405280600381526020017f4c4e440000000000000000000000000000000000000000000000000000000000815250620000c1620000b56200055460201b60201c565b6200055c60201b60201c565b60036001600080600681111562000101577f4e487b7100000000000000000000000000000000000000000000000000000000600052602160045260246000fd5b60068111156200013a577f4e487b7100000000000000000000000000000000000000000000000000000000600052602160045260246000fd5b815260200190815260200160002060006101000a81548160ff021916908360ff160217905550600180600060016006811115620001a0577f4e487b7100000000000000000000000000000000000000000000000000000000600052602160045260246000fd5b6006811115620001d9577f4e487b7100000000000000000000000000000000000000000000000000000000600052602160045260246000fd5b815260200190815260200160002060006101000a81548160ff021916908360ff1602179055506000600160006002600681111562000240577f4e487b7100000000000000000000000000000000000000000000000000000000600052602160045260246000fd5b600681111562000279577f4e487b7100000000000000000000000000000000000000000000000000000000600052602160045260246000fd5b815260200190815260200160002060006101000a81548160ff021916908360ff160217905550600180600060036006811115620002df577f4e487b7100000000000000000000000000000000000000000000000000000000600052602160045260246000fd5b600681111562000318577f4e487b7100000000000000000000000000000000000000000000000000000000600052602160045260246000fd5b815260200190815260200160002060006101000a81548160ff021916908360ff1602179055506001806000600460068111156200037e577f4e487b7100000000000000000000000000000000000000000000000000000000600052602160045260246000fd5b6006811115620003b7577f4e487b7100000000000000000000000000000000000000000000000000000000600052602160045260246000fd5b815260200190815260200160002060006101000a81548160ff021916908360ff1602179055506001806000600560068111156200041d577f4e487b7100000000000000000000000000000000000000000000000000000000600052602160045260246000fd5b600681111562000456577f4e487b7100000000000000000000000000000000000000000000000000000000600052602160045260246000fd5b815260200190815260200160002060006101000a81548160ff021916908360ff1602179055506001806000600680811115620004bb577f4e487b7100000000000000000000000000000000000000000000000000000000600052602160045260246000fd5b6006811115620004f4577f4e487b7100000000000000000000000000000000000000000000000000000000600052602160045260246000fd5b815260200190815260200160002060006101000a81548160ff021916908360ff16021790555081600990805190602001906200053292919062000620565b5080600a90805190602001906200054b92919062000620565b50505062000913565b600033905090565b60008060009054906101000a900473ffffffffffffffffffffffffffffffffffffffff169050816000806101000a81548173ffffffffffffffffffffffffffffffffffffffff021916908373ffffffffffffffffffffffffffffffffffffffff1602179055508173ffffffffffffffffffffffffffffffffffffffff168173ffffffffffffffffffffffffffffffffffffffff167f8be0079c531659141344cd1fd0a4f28419497f9722a3daafe3b4186f6b6457e060405160405180910390a35050565b8280546200062e9062000872565b90600052602060002090601f0160209004810192826200065257600085556200069e565b82601f106200066d57805160ff19168380011785556200069e565b828001600101855582156200069e579182015b828111156200069d57825182559160200191906001019062000680565b5b509050620006ad9190620006b1565b5090565b5b80821115620006cc576000816000905550600101620006b2565b5090565b6000808291508390505b60018511156200072257808604811115620006fa57620006f9620008a8565b5b60018516156200070a5780820291505b80810290506200071a8562000906565b9450620006da565b94509492505050565b6000620007388262000868565b9150620007458362000868565b9250620007747fffffffffffffffffffffffffffffffffffffffffffffffffffffffffffffffff84846200077c565b905092915050565b6000826200078e576001905062000861565b816200079e576000905062000861565b8160018114620007b75760028114620007c257620007f8565b600191505062000861565b60ff841115620007d757620007d6620008a8565b5b8360020a915084821115620007f157620007f0620008a8565b5b5062000861565b5060208310610133831016604e8410600b8410161715620008325782820a9050838111156200082c576200082b620008a8565b5b62000861565b620008418484846001620006d0565b925090508184048111156200085b576200085a620008a8565b5b81810290505b9392505050565b6000819050919050565b600060028204905060018216806200088b57607f821691505b60208210811415620008a257620008a1620008d7565b5b50919050565b7f4e487b7100000000000000000000000000000000000000000000000000000000600052601160045260246000fd5b7f4e487b7100000000000000000000000000000000000000000000000000000000600052602260045260246000fd5b60008160011c9050919050565b61500380620009236000396000f3fe608060405234801561001057600080fd5b50600436106101585760003560e01c80636352211e116100c3578063a22cb4651161007c578063a22cb465146103eb578063b88d4fde14610407578063c87b56dd14610423578063e5e59e4314610453578063e985e9c514610483578063f2fde38b146104b357610158565b80636352211e1461032957806370a0823114610359578063715018a6146103895780637dabb1f3146103935780638da5cb5b146103af57806395d89b41146103cd57610158565b806318160ddd1161011557806318160ddd1461024357806323b872dd146102615780632f745c591461027d5780634213edf2146102ad57806342842e0e146102dd5780634f6ccce7146102f957610158565b806301ffc9a71461015d5780630234f9161461018d57806306fdde03146101bd578063081812fc146101db5780630838409a1461020b578063095ea7b314610227575b600080fd5b61017760048036038101906101729190613377565b6104cf565b6040516101849190613d22565b60405180910390f35b6101a760048036038101906101a29190613459565b610549565b6040516101b491906140df565b60405180910390f35b6101c561089a565b6040516101d29190613d3d565b60405180910390f35b6101f560048036038101906101f09190613459565b61092c565b6040516102029190613cbb565b60405180910390f35b61022560048036038101906102209190613459565b6109b1565b005b610241600480360381019061023c919061333b565b610a7b565b005b61024b610b93565b6040516102589190614101565b60405180910390f35b61027b60048036038101906102769190613235565b610ba0565b005b6102976004803603810190610292919061333b565b610c00565b6040516102a49190614101565b60405180910390f35b6102c760048036038101906102c291906133f2565b610ca5565b6040516102d49190614101565b60405180910390f35b6102f760048036038101906102f29190613235565b610cc5565b005b610313600480360381019061030e9190613459565b610ce5565b6040516103209190614101565b60405180910390f35b610343600480360381019061033e9190613459565b610d7c565b6040516103509190613cbb565b60405180910390f35b610373600480360381019061036e91906131d0565b610e2e565b6040516103809190614101565b60405180910390f35b610391610ee6565b005b6103ad60048036038101906103a89190613482565b610f6e565b005b6103b7610ff8565b6040516103c49190613cbb565b60405180910390f35b6103d5611021565b6040516103e29190613d3d565b60405180910390f35b610405600480360381019061040091906132ff565b6110b3565b005b610421600480360381019061041c9190613284565b611234565b005b61043d60048036038101906104389190613459565b611296565b60405161044a9190613d3d565b60405180910390f35b61046d600480360381019061046891906133c9565b61133d565b60405161047a91906141ad565b60405180910390f35b61049d600480360381019061049891906131f9565b61135d565b6040516104aa9190613d22565b60405180910390f35b6104cd60048036038101906104c891906131d0565b6113f1565b005b60007f780e9d63000000000000000000000000000000000000000000000000000000007bffffffffffffffffffffffffffffffffffffffffffffffffffffffff1916827bffffffffffffffffffffffffffffffffffffffffffffffffffffffff191614806105425750610541826114e9565b5b9050919050565b610551612f50565b60046000838152602001908152602001600020604051806101400160405290816000820160009054906101000a900460000b60000b60000b81526020016000820160019054906101000a900460000b60000b60000b81526020016000820160029054906101000a900460ff1660ff1660ff1681526020016000820160039054906101000a900460ff1660ff1660ff1681526020016000820160049054906101000a900463ffffffff1663ffffffff1663ffffffff168152602001600182015481526020016002820154815260200160038201805461062e906145a5565b80601f016020809104026020016040519081016040528092919081815260200182805461065a906145a5565b80156106a75780601f1061067c576101008083540402835291602001916106a7565b820191906000526020600020905b81548152906001019060200180831161068a57829003601f168201915b5050505050815260200160048201805480602002602001604051908101604052809291908181526020016000905b82821015610824578382906000526020600020016040518060c00160405290816000820160009054906101000a900460ff1660ff1660ff1681526020016000820160019054906101000a900460ff1660ff1660ff1681526020016000820160029054906101000a900460ff1660ff1660ff1681526020016000820160039054906101000a900460ff1660ff1660ff1681526020016000820160049054906101000a900463ffffffff1663ffffffff1663ffffffff1681526020016000820160089054906101000a900460ff1660068111156107d9577f4e487b7100000000000000000000000000000000000000000000000000000000600052602160045260246000fd5b6006811115610811577f4e487b7100000000000000000000000000000000000000000000000000000000600052602160045260246000fd5b81525050815260200190600101906106d5565b5050505081526020016005820160009054906101000a900460ff161515151581525050905060011515816101200151151514610895576040517f08c379a000000000000000000000000000000000000000000000000000000000815260040161088c90613eff565b60405180910390fd5b919050565b6060600980546108a9906145a5565b80601f01602080910402602001604051908101604052809291908181526020018280546108d5906145a5565b80156109225780601f106108f757610100808354040283529160200191610922565b820191906000526020600020905b81548152906001019060200180831161090557829003601f168201915b5050505050905090565b6000610937826115cb565b610976576040517f08c379a000000000000000000000000000000000000000000000000000000000815260040161096d90613f1f565b60405180910390fd5b600d600083815260200190815260200160002060009054906101000a900473ffffffffffffffffffffffffffffffffffffffff169050919050565b6109b9611637565b73ffffffffffffffffffffffffffffffffffffffff166109d7610ff8565b73ffffffffffffffffffffffffffffffffffffffff1614610a2d576040517f08c379a0000000000000000000000000000000000000000000000000000000008152600401610a2490613f5f565b60405180910390fd5b6006548111610a71576040517f08c379a0000000000000000000000000000000000000000000000000000000008152600401610a689061401f565b60405180910390fd5b8060068190555050565b6000610a8682610d7c565b90508073ffffffffffffffffffffffffffffffffffffffff168373ffffffffffffffffffffffffffffffffffffffff161415610af7576040517f08c379a0000000000000000000000000000000000000000000000000000000008152600401610aee90613fff565b60405180910390fd5b8073ffffffffffffffffffffffffffffffffffffffff16610b16611637565b73ffffffffffffffffffffffffffffffffffffffff161480610b455750610b4481610b3f611637565b61135d565b5b610b84576040517f08c379a0000000000000000000000000000000000000000000000000000000008152600401610b7b90613e7f565b60405180910390fd5b610b8e838361163f565b505050565b6000601180549050905090565b610bb1610bab611637565b826116f8565b610bf0576040517f08c379a0000000000000000000000000000000000000000000000000000000008152600401610be79061403f565b60405180910390fd5b610bfb8383836117d6565b505050565b6000610c0b83610e2e565b8210610c4c576040517f08c379a0000000000000000000000000000000000000000000000000000000008152600401610c4390613d5f565b60405180910390fd5b600f60008473ffffffffffffffffffffffffffffffffffffffff1673ffffffffffffffffffffffffffffffffffffffff168152602001908152602001600020600083815260200190815260200160002054905092915050565b6000610cb2848484611a32565b9050610cbe3382611d0b565b9392505050565b610ce083838360405180602001604052806000815250611234565b505050565b6000610cef610b93565b8210610d30576040517f08c379a0000000000000000000000000000000000000000000000000000000008152600401610d279061405f565b60405180910390fd5b60118281548110610d6a577f4e487b7100000000000000000000000000000000000000000000000000000000600052603260045260246000fd5b90600052602060002001549050919050565b600080600b600084815260200190815260200160002060009054906101000a900473ffffffffffffffffffffffffffffffffffffffff169050600073ffffffffffffffffffffffffffffffffffffffff168173ffffffffffffffffffffffffffffffffffffffff161415610e25576040517f08c379a0000000000000000000000000000000000000000000000000000000008152600401610e1c90613ebf565b60405180910390fd5b80915050919050565b60008073ffffffffffffffffffffffffffffffffffffffff168273ffffffffffffffffffffffffffffffffffffffff161415610e9f576040517f08c379a0000000000000000000000000000000000000000000000000000000008152600401610e9690613e9f565b60405180910390fd5b600c60008373ffffffffffffffffffffffffffffffffffffffff1673ffffffffffffffffffffffffffffffffffffffff168152602001908152602001600020549050919050565b610eee611637565b73ffffffffffffffffffffffffffffffffffffffff16610f0c610ff8565b73ffffffffffffffffffffffffffffffffffffffff1614610f62576040517f08c379a0000000000000000000000000000000000000000000000000000000008152600401610f5990613f5f565b60405180910390fd5b610f6c6000611ed9565b565b833373ffffffffffffffffffffffffffffffffffffffff16610f8f82610d7c565b73ffffffffffffffffffffffffffffffffffffffff1614610fe5576040517f08c379a0000000000000000000000000000000000000000000000000000000008152600401610fdc90613f9f565b60405180910390fd5b610ff185858585611f9d565b5050505050565b60008060009054906101000a900473ffffffffffffffffffffffffffffffffffffffff16905090565b6060600a8054611030906145a5565b80601f016020809104026020016040519081016040528092919081815260200182805461105c906145a5565b80156110a95780601f1061107e576101008083540402835291602001916110a9565b820191906000526020600020905b81548152906001019060200180831161108c57829003601f168201915b5050505050905090565b6110bb611637565b73ffffffffffffffffffffffffffffffffffffffff168273ffffffffffffffffffffffffffffffffffffffff161415611129576040517f08c379a000000000000000000000000000000000000000000000000000000000815260040161112090613dff565b60405180910390fd5b80600e6000611136611637565b73ffffffffffffffffffffffffffffffffffffffff1673ffffffffffffffffffffffffffffffffffffffff16815260200190815260200160002060008473ffffffffffffffffffffffffffffffffffffffff1673ffffffffffffffffffffffffffffffffffffffff16815260200190815260200160002060006101000a81548160ff0219169083151502179055508173ffffffffffffffffffffffffffffffffffffffff166111e3611637565b73ffffffffffffffffffffffffffffffffffffffff167f17307eab39ab6107e8899845ad3d59bd9653f200f220920489ca2b5937696c31836040516112289190613d22565b60405180910390a35050565b61124561123f611637565b836116f8565b611284576040517f08c379a000000000000000000000000000000000000000000000000000000000815260040161127b9061403f565b60405180910390fd5b61129084848484612405565b50505050565b60606112a1826115cb565b6112e0576040517f08c379a00000000000000000000000000000000000000000000000000000000081526004016112d790613fdf565b60405180910390fd5b60006112ea612461565b9050600081511161130a5760405180602001604052806000815250611335565b8061131484612478565b604051602001611325929190613c49565b6040516020818303038152906040525b915050919050565b60016020528060005260406000206000915054906101000a900460ff1681565b6000600e60008473ffffffffffffffffffffffffffffffffffffffff1673ffffffffffffffffffffffffffffffffffffffff16815260200190815260200160002060008373ffffffffffffffffffffffffffffffffffffffff1673ffffffffffffffffffffffffffffffffffffffff16815260200190815260200160002060009054906101000a900460ff16905092915050565b6113f9611637565b73ffffffffffffffffffffffffffffffffffffffff16611417610ff8565b73ffffffffffffffffffffffffffffffffffffffff161461146d576040517f08c379a000000000000000000000000000000000000000000000000000000000815260040161146490613f5f565b60405180910390fd5b600073ffffffffffffffffffffffffffffffffffffffff168173ffffffffffffffffffffffffffffffffffffffff1614156114dd576040517f08c379a00000000000000000000000000000000000000000000000000000000081526004016114d490613d9f565b60405180910390fd5b6114e681611ed9565b50565b60007f80ac58cd000000000000000000000000000000000000000000000000000000007bffffffffffffffffffffffffffffffffffffffffffffffffffffffff1916827bffffffffffffffffffffffffffffffffffffffffffffffffffffffff191614806115b457507f5b5e139f000000000000000000000000000000000000000000000000000000007bffffffffffffffffffffffffffffffffffffffffffffffffffffffff1916827bffffffffffffffffffffffffffffffffffffffffffffffffffffffff1916145b806115c457506115c382612625565b5b9050919050565b60008073ffffffffffffffffffffffffffffffffffffffff16600b600084815260200190815260200160002060009054906101000a900473ffffffffffffffffffffffffffffffffffffffff1673ffffffffffffffffffffffffffffffffffffffff1614159050919050565b600033905090565b81600d600083815260200190815260200160002060006101000a81548173ffffffffffffffffffffffffffffffffffffffff021916908373ffffffffffffffffffffffffffffffffffffffff160217905550808273ffffffffffffffffffffffffffffffffffffffff166116b283610d7c565b73ffffffffffffffffffffffffffffffffffffffff167f8c5be1e5ebec7d5bd14f71427d1e84f3dd0314c0f7b2291e5b200ac8c7c3b92560405160405180910390a45050565b6000611703826115cb565b611742576040517f08c379a000000000000000000000000000000000000000000000000000000000815260040161173990613e1f565b60405180910390fd5b600061174d83610d7c565b90508073ffffffffffffffffffffffffffffffffffffffff168473ffffffffffffffffffffffffffffffffffffffff1614806117bc57508373ffffffffffffffffffffffffffffffffffffffff166117a48461092c565b73ffffffffffffffffffffffffffffffffffffffff16145b806117cd57506117cc818561135d565b5b91505092915050565b8273ffffffffffffffffffffffffffffffffffffffff166117f682610d7c565b73ffffffffffffffffffffffffffffffffffffffff161461184c576040517f08c379a000000000000000000000000000000000000000000000000000000000815260040161184390613fbf565b60405180910390fd5b600073ffffffffffffffffffffffffffffffffffffffff168273ffffffffffffffffffffffffffffffffffffffff1614156118bc576040517f08c379a00000000000000000000000000000000000000000000000000000000081526004016118b390613ddf565b60405180910390fd5b6118c783838361268f565b6118d260008261163f565b6001600c60008573ffffffffffffffffffffffffffffffffffffffff1673ffffffffffffffffffffffffffffffffffffffff1681526020019081526020016000206000828254611922919061442e565b925050819055506001600c60008473ffffffffffffffffffffffffffffffffffffffff1673ffffffffffffffffffffffffffffffffffffffff168152602001908152602001600020600082825461197991906142dc565b9250508190555081600b600083815260200190815260200160002060006101000a81548173ffffffffffffffffffffffffffffffffffffffff021916908373ffffffffffffffffffffffffffffffffffffffff160217905550808273ffffffffffffffffffffffffffffffffffffffff168473ffffffffffffffffffffffffffffffffffffffff167fddf252ad1be2c89b69c2b068fc378daa952ba7f163c4a11628f55a4df523b3ef60405160405180910390a4505050565b60006006548360000b13158015611a5a57506006546000611a53919061439a565b8360000b12155b611a99576040517f08c379a0000000000000000000000000000000000000000000000000000000008152600401611a9090613f7f565b60405180910390fd5b6006548260000b13158015611abf57506006546000611ab8919061439a565b8260000b12155b611afe576040517f08c379a0000000000000000000000000000000000000000000000000000000008152600401611af5906140bf565b60405180910390fd5b6000600560008560000b60000b815260200190815260200160002060008460000b60000b81526020019081526020016000205414611b71576040517f08c379a0000000000000000000000000000000000000000000000000000000008152600401611b6890613e5f565b60405180910390fd5b60076000815480929190611b8490614608565b9190505590506000600460008381526020019081526020016000209050818160010181905550838160000160006101000a81548160ff021916908360000b60ff160217905550828160000160016101000a81548160ff021916908360000b60ff16021790555060058160000160026101000a81548160ff021916908360ff16021790555060648160000160036101000a81548160ff021916908360ff160217905550428160000160046101000a81548163ffffffff021916908363ffffffff16021790555084816003019080519060200190611c61929190612fb5565b50611c6c84846127a3565b816002018190555060018160050160006101000a81548160ff02191690831515021790555081600560008660000b60000b815260200190815260200160002060008560000b60000b8152602001908152602001600020819055507fb449d51a80a67072b11ef6826bc0a223593d54e719f7444cd86215a462c90bdb82868686604051611cfb9493929190614161565b60405180910390a1509392505050565b600073ffffffffffffffffffffffffffffffffffffffff168273ffffffffffffffffffffffffffffffffffffffff161415611d7b576040517f08c379a0000000000000000000000000000000000000000000000000000000008152600401611d7290613edf565b60405180910390fd5b611d84816115cb565b15611dc4576040517f08c379a0000000000000000000000000000000000000000000000000000000008152600401611dbb90613dbf565b60405180910390fd5b611dd06000838361268f565b6001600c60008473ffffffffffffffffffffffffffffffffffffffff1673ffffffffffffffffffffffffffffffffffffffff1681526020019081526020016000206000828254611e2091906142dc565b9250508190555081600b600083815260200190815260200160002060006101000a81548173ffffffffffffffffffffffffffffffffffffffff021916908373ffffffffffffffffffffffffffffffffffffffff160217905550808273ffffffffffffffffffffffffffffffffffffffff16600073ffffffffffffffffffffffffffffffffffffffff167fddf252ad1be2c89b69c2b068fc378daa952ba7f163c4a11628f55a4df523b3ef60405160405180910390a45050565b60008060009054906101000a900473ffffffffffffffffffffffffffffffffffffffff169050816000806101000a81548173ffffffffffffffffffffffffffffffffffffffff021916908373ffffffffffffffffffffffffffffffffffffffff1602179055508173ffffffffffffffffffffffffffffffffffffffff168173ffffffffffffffffffffffffffffffffffffffff167f8be0079c531659141344cd1fd0a4f28419497f9722a3daafe3b4186f6b6457e060405160405180910390a35050565b60006004600086815260200190815260200160002090506000611fc086866127ef565b60ff1614612003576040517f08c379a0000000000000000000000000000000000000000000000000000000008152600401611ffa9061409f565b60405180910390fd5b600060016000866006811115612042577f4e487b7100000000000000000000000000000000000000000000000000000000600052602160045260246000fd5b600681111561207a577f4e487b7100000000000000000000000000000000000000000000000000000000600052602160045260246000fd5b815260200190815260200160002060009054906101000a900460ff16905060008160ff16116120de576040517f08c379a00000000000000000000000000000000000000000000000000000000081526004016120d590613e3f565b60405180910390fd5b8160000160029054906101000a900460ff1660ff1681856120ff9190614332565b60ff161115612143576040517f08c379a000000000000000000000000000000000000000000000000000000000815260040161213a90613f3f565b60405180910390fd5b8160000160029054906101000a900460ff1660ff1681846121649190614332565b60ff1611156121a8576040517f08c379a000000000000000000000000000000000000000000000000000000000815260040161219f90613f3f565b60405180910390fd5b60008490505b81856121ba9190614332565b60ff168160ff16101561221b5760008490505b82856121d99190614332565b60ff168160ff161015612207576121f486868660040161289b565b80806121ff90614651565b9150506121cd565b50808061221390614651565b9150506121ae565b50816004016040518060c001604052808660ff1681526020018560ff1681526020018360ff168152602001600160ff1681526020014263ffffffff168152602001876006811115612295577f4e487b7100000000000000000000000000000000000000000000000000000000600052602160045260246000fd5b8152509080600181540180825580915050600190039060005260206000200160009091909190915060008201518160000160006101000a81548160ff021916908360ff16021790555060208201518160000160016101000a81548160ff021916908360ff16021790555060408201518160000160026101000a81548160ff021916908360ff16021790555060608201518160000160036101000a81548160ff021916908360ff16021790555060808201518160000160046101000a81548163ffffffff021916908363ffffffff16021790555060a08201518160000160086101000a81548160ff021916908360068111156123b9577f4e487b7100000000000000000000000000000000000000000000000000000000600052602160045260246000fd5b021790555050507f65ba7aa5381aa165bd92d38abccd807c7fb086876c94483c5648bdc0b0687bac868686866040516123f5949392919061411c565b60405180910390a1505050505050565b6124108484846117d6565b61241c84848484612a29565b61245b576040517f08c379a000000000000000000000000000000000000000000000000000000000815260040161245290613d7f565b60405180910390fd5b50505050565b606060405180602001604052806000815250905090565b606060008214156124c0576040518060400160405280600181526020017f30000000000000000000000000000000000000000000000000000000000000008152509050612620565b600082905060005b600082146124f25780806124db90614608565b915050600a826124eb9190614369565b91506124c8565b60008167ffffffffffffffff811115612534577f4e487b7100000000000000000000000000000000000000000000000000000000600052604160045260246000fd5b6040519080825280601f01601f1916602001820160405280156125665781602001600182028036833780820191505090505b5090505b600085146126195760018261257f919061442e565b9150600a8561258e9190614697565b603061259a91906142dc565b60f81b8183815181106125d6577f4e487b7100000000000000000000000000000000000000000000000000000000600052603260045260246000fd5b60200101907effffffffffffffffffffffffffffffffffffffffffffffffffffffffffffff1916908160001a905350600a856126129190614369565b945061256a565b8093505050505b919050565b60007f01ffc9a7000000000000000000000000000000000000000000000000000000007bffffffffffffffffffffffffffffffffffffffffffffffffffffffff1916827bffffffffffffffffffffffffffffffffffffffffffffffffffffffff1916149050919050565b61269a838383612bc0565b600073ffffffffffffffffffffffffffffffffffffffff168373ffffffffffffffffffffffffffffffffffffffff1614156126dd576126d881612bc5565b61271c565b8173ffffffffffffffffffffffffffffffffffffffff168373ffffffffffffffffffffffffffffffffffffffff161461271b5761271a8382612c0e565b5b5b600073ffffffffffffffffffffffffffffffffffffffff168273ffffffffffffffffffffffffffffffffffffffff16141561275f5761275a81612d7b565b61279e565b8273ffffffffffffffffffffffffffffffffffffffff168273ffffffffffffffffffffffffffffffffffffffff161461279d5761279c8282612ebe565b5b5b505050565b600080424485856040516020016127bd9493929190613c6d565b6040516020818303038152906040528051906020012060001c9050600354816127e69190614697565b91505092915050565b600060086000848152602001908152602001600020600083600681111561283f577f4e487b7100000000000000000000000000000000000000000000000000000000600052602160045260246000fd5b6006811115612877577f4e487b7100000000000000000000000000000000000000000000000000000000600052602160045260246000fd5b815260200190815260200160002060009054906101000a900460ff16905092915050565b60005b81805490508160ff161015612a23576000828260ff16815481106128eb577f4e487b7100000000000000000000000000000000000000000000000000000000600052603260045260246000fd5b906000526020600020019050600060018260000160029054906101000a900460ff168360000160009054906101000a900460ff166129299190614332565b6129339190614462565b9050600060018360000160029054906101000a900460ff168460000160019054906101000a900460ff166129679190614332565b6129719190614462565b90508260000160009054906101000a900460ff1660ff168760ff16108061299d57508160ff168760ff16115b806129be57508260000160019054906101000a900460ff1660ff168660ff16105b806129ce57508060ff168660ff16115b612a0d576040517f08c379a0000000000000000000000000000000000000000000000000000000008152600401612a049061407f565b60405180910390fd5b5050508080612a1b90614651565b91505061289e565b50505050565b6000612a4a8473ffffffffffffffffffffffffffffffffffffffff16612f3d565b15612bb3578373ffffffffffffffffffffffffffffffffffffffff1663150b7a02612a73611637565b8786866040518563ffffffff1660e01b8152600401612a959493929190613cd6565b602060405180830381600087803b158015612aaf57600080fd5b505af1925050508015612ae057506040513d601f19601f82011682018060405250810190612add91906133a0565b60015b612b63573d8060008114612b10576040519150601f19603f3d011682016040523d82523d6000602084013e612b15565b606091505b50600081511415612b5b576040517f08c379a0000000000000000000000000000000000000000000000000000000008152600401612b5290613d7f565b60405180910390fd5b805181602001fd5b63150b7a0260e01b7bffffffffffffffffffffffffffffffffffffffffffffffffffffffff1916817bffffffffffffffffffffffffffffffffffffffffffffffffffffffff191614915050612bb8565b600190505b949350505050565b505050565b6011805490506012600083815260200190815260200160002081905550601181908060018154018082558091505060019003906000526020600020016000909190919091505550565b60006001612c1b84610e2e565b612c25919061442e565b9050600060106000848152602001908152602001600020549050818114612d0a576000600f60008673ffffffffffffffffffffffffffffffffffffffff1673ffffffffffffffffffffffffffffffffffffffff168152602001908152602001600020600084815260200190815260200160002054905080600f60008773ffffffffffffffffffffffffffffffffffffffff1673ffffffffffffffffffffffffffffffffffffffff168152602001908152602001600020600084815260200190815260200160002081905550816010600083815260200190815260200160002081905550505b6010600084815260200190815260200160002060009055600f60008573ffffffffffffffffffffffffffffffffffffffff1673ffffffffffffffffffffffffffffffffffffffff16815260200190815260200160002060008381526020019081526020016000206000905550505050565b60006001601180549050612d8f919061442e565b9050600060126000848152602001908152602001600020549050600060118381548110612de5577f4e487b7100000000000000000000000000000000000000000000000000000000600052603260045260246000fd5b906000526020600020015490508060118381548110612e2d577f4e487b7100000000000000000000000000000000000000000000000000000000600052603260045260246000fd5b906000526020600020018190555081601260008381526020019081526020016000208190555060126000858152602001908152602001600020600090556011805480612ea2577f4e487b7100000000000000000000000000000000000000000000000000000000600052603160045260246000fd5b6001900381819060005260206000200160009055905550505050565b6000612ec983610e2e565b905081600f60008573ffffffffffffffffffffffffffffffffffffffff1673ffffffffffffffffffffffffffffffffffffffff168152602001908152602001600020600083815260200190815260200160002081905550806010600084815260200190815260200160002081905550505050565b600080823b905060008111915050919050565b6040518061014001604052806000800b81526020016000800b8152602001600060ff168152602001600060ff168152602001600063ffffffff168152602001600081526020016000815260200160608152602001606081526020016000151581525090565b828054612fc1906145a5565b90600052602060002090601f016020900481019282612fe3576000855561302a565b82601f10612ffc57805160ff191683800117855561302a565b8280016001018555821561302a579182015b8281111561302957825182559160200191906001019061300e565b5b509050613037919061303b565b5090565b5b8082111561305457600081600090555060010161303c565b5090565b600061306b613066846141ed565b6141c8565b90508281526020810184848401111561308357600080fd5b61308e848285614563565b509392505050565b60006130a96130a48461421e565b6141c8565b9050828152602081018484840111156130c157600080fd5b6130cc848285614563565b509392505050565b6000813590506130e381614f33565b92915050565b6000813590506130f881614f4a565b92915050565b60008135905061310d81614f61565b92915050565b60008151905061312281614f61565b92915050565b600082601f83011261313957600080fd5b8135613149848260208601613058565b91505092915050565b60008135905061316181614f78565b92915050565b60008135905061317681614f88565b92915050565b600082601f83011261318d57600080fd5b813561319d848260208601613096565b91505092915050565b6000813590506131b581614f9f565b92915050565b6000813590506131ca81614fb6565b92915050565b6000602082840312156131e257600080fd5b60006131f0848285016130d4565b91505092915050565b6000806040838503121561320c57600080fd5b600061321a858286016130d4565b925050602061322b858286016130d4565b9150509250929050565b60008060006060848603121561324a57600080fd5b6000613258868287016130d4565b9350506020613269868287016130d4565b925050604061327a868287016131a6565b9150509250925092565b6000806000806080858703121561329a57600080fd5b60006132a8878288016130d4565b94505060206132b9878288016130d4565b93505060406132ca878288016131a6565b925050606085013567ffffffffffffffff8111156132e757600080fd5b6132f387828801613128565b91505092959194509250565b6000806040838503121561331257600080fd5b6000613320858286016130d4565b9250506020613331858286016130e9565b9150509250929050565b6000806040838503121561334e57600080fd5b600061335c858286016130d4565b925050602061336d858286016131a6565b9150509250929050565b60006020828403121561338957600080fd5b6000613397848285016130fe565b91505092915050565b6000602082840312156133b257600080fd5b60006133c084828501613113565b91505092915050565b6000602082840312156133db57600080fd5b60006133e984828501613152565b91505092915050565b60008060006060848603121561340757600080fd5b600084013567ffffffffffffffff81111561342157600080fd5b61342d8682870161317c565b935050602061343e86828701613167565b925050604061344f86828701613167565b9150509250925092565b60006020828403121561346b57600080fd5b6000613479848285016131a6565b91505092915050565b6000806000806080858703121561349857600080fd5b60006134a6878288016131a6565b94505060206134b787828801613152565b93505060406134c8878288016131bb565b92505060606134d9878288016131bb565b91505092959194509250565b60006134f18383613a8b565b60c08301905092915050565b61350681614496565b82525050565b60006135178261425f565b613521818561428d565b935061352c8361424f565b8060005b8381101561355d57815161354488826134e5565b975061354f83614280565b925050600181019050613530565b5085935050505092915050565b613573816144a8565b82525050565b613582816144a8565b82525050565b60006135938261426a565b61359d818561429e565b93506135ad818560208601614572565b6135b6816147b3565b840191505092915050565b6135ca81614551565b82525050565b6135d981614551565b82525050565b6135e8816144fd565b82525050565b6135f7816144fd565b82525050565b61360e613609826144fd565b61467b565b82525050565b600061361f82614275565b61362981856142af565b9350613639818560208601614572565b613642816147b3565b840191505092915050565b600061365882614275565b61366281856142c0565b9350613672818560208601614572565b61367b816147b3565b840191505092915050565b600061369182614275565b61369b81856142d1565b93506136ab818560208601614572565b80840191505092915050565b60006136c4602b836142c0565b91506136cf826147d1565b604082019050919050565b60006136e76032836142c0565b91506136f282614820565b604082019050919050565b600061370a6026836142c0565b91506137158261486f565b604082019050919050565b600061372d601c836142c0565b9150613738826148be565b602082019050919050565b60006137506024836142c0565b915061375b826148e7565b604082019050919050565b60006137736019836142c0565b915061377e82614936565b602082019050919050565b6000613796602c836142c0565b91506137a18261495f565b604082019050919050565b60006137b9603c836142c0565b91506137c4826149ae565b604082019050919050565b60006137dc602b836142c0565b91506137e7826149fd565b604082019050919050565b60006137ff6038836142c0565b915061380a82614a4c565b604082019050919050565b6000613822602a836142c0565b915061382d82614a9b565b604082019050919050565b60006138456029836142c0565b915061385082614aea565b604082019050919050565b60006138686020836142c0565b915061387382614b39565b602082019050919050565b600061388b6019836142c0565b915061389682614b62565b602082019050919050565b60006138ae602c836142c0565b91506138b982614b8b565b604082019050919050565b60006138d1602c836142c0565b91506138dc82614bda565b604082019050919050565b60006138f46020836142c0565b91506138ff82614c29565b602082019050919050565b6000613917601a836142c0565b915061392282614c52565b602082019050919050565b600061393a601c836142c0565b915061394582614c7b565b602082019050919050565b600061395d6029836142c0565b915061396882614ca4565b604082019050919050565b6000613980602f836142c0565b915061398b82614cf3565b604082019050919050565b60006139a36021836142c0565b91506139ae82614d42565b604082019050919050565b60006139c6602d836142c0565b91506139d182614d91565b604082019050919050565b60006139e96031836142c0565b91506139f482614de0565b604082019050919050565b6000613a0c602c836142c0565b9150613a1782614e2f565b604082019050919050565b6000613a2f601e836142c0565b9150613a3a82614e7e565b602082019050919050565b6000613a52602c836142c0565b9150613a5d82614ea7565b604082019050919050565b6000613a75601a836142c0565b9150613a8082614ef6565b602082019050919050565b60c082016000820151613aa16000850182613c2b565b506020820151613ab46020850182613c2b565b506040820151613ac76040850182613c2b565b506060820151613ada6060850182613c2b565b506080820151613aed6080850182613c1c565b5060a0820151613b0060a08501826135c1565b50505050565b600061014083016000830151613b1f60008601826135df565b506020830151613b3260208601826135df565b506040830151613b456040860182613c2b565b506060830151613b586060860182613c2b565b506080830151613b6b6080860182613c1c565b5060a0830151613b7e60a0860182613be7565b5060c0830151613b9160c0860182613be7565b5060e083015184820360e0860152613ba98282613614565b915050610100830151848203610100860152613bc5828261350c565b915050610120830151613bdc61012086018261356a565b508091505092915050565b613bf08161452a565b82525050565b613bff8161452a565b82525050565b613c16613c118261452a565b61468d565b82525050565b613c2581614534565b82525050565b613c3481614544565b82525050565b613c4381614544565b82525050565b6000613c558285613686565b9150613c618284613686565b91508190509392505050565b6000613c798287613c05565b602082019150613c898286613c05565b602082019150613c9982856135fd565b600182019150613ca982846135fd565b60018201915081905095945050505050565b6000602082019050613cd060008301846134fd565b92915050565b6000608082019050613ceb60008301876134fd565b613cf860208301866134fd565b613d056040830185613bf6565b8181036060830152613d178184613588565b905095945050505050565b6000602082019050613d376000830184613579565b92915050565b60006020820190508181036000830152613d57818461364d565b905092915050565b60006020820190508181036000830152613d78816136b7565b9050919050565b60006020820190508181036000830152613d98816136da565b9050919050565b60006020820190508181036000830152613db8816136fd565b9050919050565b60006020820190508181036000830152613dd881613720565b9050919050565b60006020820190508181036000830152613df881613743565b9050919050565b60006020820190508181036000830152613e1881613766565b9050919050565b60006020820190508181036000830152613e3881613789565b9050919050565b60006020820190508181036000830152613e58816137ac565b9050919050565b60006020820190508181036000830152613e78816137cf565b9050919050565b60006020820190508181036000830152613e98816137f2565b9050919050565b60006020820190508181036000830152613eb881613815565b9050919050565b60006020820190508181036000830152613ed881613838565b9050919050565b60006020820190508181036000830152613ef88161385b565b9050919050565b60006020820190508181036000830152613f188161387e565b9050919050565b60006020820190508181036000830152613f38816138a1565b9050919050565b60006020820190508181036000830152613f58816138c4565b9050919050565b60006020820190508181036000830152613f78816138e7565b9050919050565b60006020820190508181036000830152613f988161390a565b9050919050565b60006020820190508181036000830152613fb88161392d565b9050919050565b60006020820190508181036000830152613fd881613950565b9050919050565b60006020820190508181036000830152613ff881613973565b9050919050565b6000602082019050818103600083015261401881613996565b9050919050565b60006020820190508181036000830152614038816139b9565b9050919050565b60006020820190508181036000830152614058816139dc565b9050919050565b60006020820190508181036000830152614078816139ff565b9050919050565b6000602082019050818103600083015261409881613a22565b9050919050565b600060208201905081810360008301526140b881613a45565b9050919050565b600060208201905081810360008301526140d881613a68565b9050919050565b600060208201905081810360008301526140f98184613b06565b905092915050565b60006020820190506141166000830184613bf6565b92915050565b60006080820190506141316000830187613bf6565b61413e60208301866135d0565b61414b6040830185613c3a565b6141586060830184613c3a565b95945050505050565b60006080820190506141766000830187613bf6565b8181036020830152614188818661364d565b905061419760408301856135ee565b6141a460608301846135ee565b95945050505050565b60006020820190506141c26000830184613c3a565b92915050565b60006141d26141e3565b90506141de82826145d7565b919050565b6000604051905090565b600067ffffffffffffffff82111561420857614207614784565b5b614211826147b3565b9050602081019050919050565b600067ffffffffffffffff82111561423957614238614784565b5b614242826147b3565b9050602081019050919050565b6000819050602082019050919050565b600081519050919050565b600081519050919050565b600081519050919050565b6000602082019050919050565b600082825260208201905092915050565b600082825260208201905092915050565b600082825260208201905092915050565b600082825260208201905092915050565b600081905092915050565b60006142e78261452a565b91506142f28361452a565b9250827fffffffffffffffffffffffffffffffffffffffffffffffffffffffffffffffff03821115614327576143266146c8565b5b828201905092915050565b600061433d82614544565b915061434883614544565b92508260ff0382111561435e5761435d6146c8565b5b828201905092915050565b60006143748261452a565b915061437f8361452a565b92508261438f5761438e6146f7565b5b828204905092915050565b60006143a5826144f3565b91506143b0836144f3565b9250827f8000000000000000000000000000000000000000000000000000000000000000018212600084121516156143eb576143ea6146c8565b5b827f7fffffffffffffffffffffffffffffffffffffffffffffffffffffffffffffff018213600084121615614423576144226146c8565b5b828203905092915050565b60006144398261452a565b91506144448361452a565b925082821015614457576144566146c8565b5b828203905092915050565b600061446d82614544565b915061447883614544565b92508282101561448b5761448a6146c8565b5b828203905092915050565b60006144a18261450a565b9050919050565b60008115159050919050565b60007fffffffff0000000000000000000000000000000000000000000000000000000082169050919050565b60008190506144ee82614f1f565b919050565b6000819050919050565b60008160000b9050919050565b600073ffffffffffffffffffffffffffffffffffffffff82169050919050565b6000819050919050565b600063ffffffff82169050919050565b600060ff82169050919050565b600061455c826144e0565b9050919050565b82818337600083830152505050565b60005b83811015614590578082015181840152602081019050614575565b8381111561459f576000848401525b50505050565b600060028204905060018216806145bd57607f821691505b602082108114156145d1576145d0614755565b5b50919050565b6145e0826147b3565b810181811067ffffffffffffffff821117156145ff576145fe614784565b5b80604052505050565b60006146138261452a565b91507fffffffffffffffffffffffffffffffffffffffffffffffffffffffffffffffff821415614646576146456146c8565b5b600182019050919050565b600061465c82614544565b915060ff8214156146705761466f6146c8565b5b600182019050919050565b6000614686826147c4565b9050919050565b6000819050919050565b60006146a28261452a565b91506146ad8361452a565b9250826146bd576146bc6146f7565b5b828206905092915050565b7f4e487b7100000000000000000000000000000000000000000000000000000000600052601160045260246000fd5b7f4e487b7100000000000000000000000000000000000000000000000000000000600052601260045260246000fd5b7f4e487b7100000000000000000000000000000000000000000000000000000000600052602160045260246000fd5b7f4e487b7100000000000000000000000000000000000000000000000000000000600052602260045260246000fd5b7f4e487b7100000000000000000000000000000000000000000000000000000000600052604160045260246000fd5b6000601f19601f8301169050919050565b60008160f81b9050919050565b7f455243373231456e756d657261626c653a206f776e657220696e646578206f7560008201527f74206f6620626f756e6473000000000000000000000000000000000000000000602082015250565b7f4552433732313a207472616e7366657220746f206e6f6e20455243373231526560008201527f63656976657220696d706c656d656e7465720000000000000000000000000000602082015250565b7f4f776e61626c653a206e6577206f776e657220697320746865207a65726f206160008201527f6464726573730000000000000000000000000000000000000000000000000000602082015250565b7f4552433732313a20746f6b656e20616c7265616479206d696e74656400000000600082015250565b7f4552433732313a207472616e7366657220746f20746865207a65726f2061646460008201527f7265737300000000000000000000000000000000000000000000000000000000602082015250565b7f4552433732313a20617070726f766520746f2063616c6c657200000000000000600082015250565b7f4552433732313a206f70657261746f7220717565727920666f72206e6f6e657860008201527f697374656e7420746f6b656e0000000000000000000000000000000000000000602082015250565b7f4572726f722c20696e76616c6964206275696c64696e672073697a652e20436860008201527f65636b206275696c64696e67207479706520706172616d657465722e00000000602082015250565b7f76696c6c61676520616c7265616479206578697374732061742074686573652060008201527f636f6f7264696e61746573000000000000000000000000000000000000000000602082015250565b7f4552433732313a20617070726f76652063616c6c6572206973206e6f74206f7760008201527f6e6572206e6f7220617070726f76656420666f7220616c6c0000000000000000602082015250565b7f4552433732313a2062616c616e636520717565727920666f7220746865207a6560008201527f726f206164647265737300000000000000000000000000000000000000000000602082015250565b7f4552433732313a206f776e657220717565727920666f72206e6f6e657869737460008201527f656e7420746f6b656e0000000000000000000000000000000000000000000000602082015250565b7f4552433732313a206d696e7420746f20746865207a65726f2061646472657373600082015250565b7f76696c6c61676520494420646f6573206e6f7420657869737400000000000000600082015250565b7f4552433732313a20617070726f76656420717565727920666f72206e6f6e657860008201527f697374656e7420746f6b656e0000000000000000000000000000000000000000602082015250565b7f4e657720706c6163656d656e74206f7574206f6620626f756e647320666f722060008201527f76696c6c6167652073697a650000000000000000000000000000000000000000602082015250565b7f4f776e61626c653a2063616c6c6572206973206e6f7420746865206f776e6572600082015250565b7f7820636f6f7264696e617465206f7574206f6620626f756e6473000000000000600082015250565b7f4e6f7420746865206f776e6572206f66207468652076696c6c61676500000000600082015250565b7f4552433732313a207472616e73666572206f6620746f6b656e2074686174206960008201527f73206e6f74206f776e0000000000000000000000000000000000000000000000602082015250565b7f4552433732314d657461646174613a2055524920717565727920666f72206e6f60008201527f6e6578697374656e7420746f6b656e0000000000000000000000000000000000602082015250565b7f4552433732313a20617070726f76616c20746f2063757272656e74206f776e6560008201527f7200000000000000000000000000000000000000000000000000000000000000602082015250565b7f4e6577206d61702073697a65206d75737420626520626967676572207468616e60008201527f206f6c64206d61702073697a6500000000000000000000000000000000000000602082015250565b7f4552433732313a207472616e736665722063616c6c6572206973206e6f74206f60008201527f776e6572206e6f7220617070726f766564000000000000000000000000000000602082015250565b7f455243373231456e756d657261626c653a20676c6f62616c20696e646578206f60008201527f7574206f6620626f756e64730000000000000000000000000000000000000000602082015250565b7f436c61736865732077697468206578697374696e67206275696c64696e670000600082015250565b7f546869732074797065206f66206275696c64696e672068617320616c7265616460008201527f79206265656e206275696c740000000000000000000000000000000000000000602082015250565b7f7920636f6f7264696e617465206f7574206f6620626f756e6473000000000000600082015250565b60078110614f3057614f2f614726565b5b50565b614f3c81614496565b8114614f4757600080fd5b50565b614f53816144a8565b8114614f5e57600080fd5b50565b614f6a816144b4565b8114614f7557600080fd5b50565b60078110614f8557600080fd5b50565b614f91816144fd565b8114614f9c57600080fd5b50565b614fa88161452a565b8114614fb357600080fd5b50565b614fbf81614544565b8114614fca57600080fd5b5056fea264697066735822122082fd6428fa1a09fa6d9a51b23b0a773e52d2c5efeadc0c86ec8b1b1022befd5964736f6c63430008040033",
  "linkReferences": {},
  "deployedLinkReferences": {}
}