{
  "_format": "hh-sol-artifact-1",
  "contractName": "VillageNft",
  "sourceName": "contracts/VillageNft.sol",
  "abi": [
    {
      "inputs": [],
      "stateMutability": "nonpayable",
      "type": "constructor"
    },
    {
      "anonymous": false,
      "inputs": [
        {
          "indexed": true,
          "internalType": "address",
          "name": "owner",
          "type": "address"
        },
        {
          "indexed": true,
          "internalType": "address",
          "name": "approved",
          "type": "address"
        },
        {
          "indexed": true,
          "internalType": "uint256",
          "name": "tokenId",
          "type": "uint256"
        }
      ],
      "name": "Approval",
      "type": "event"
    },
    {
      "anonymous": false,
      "inputs": [
        {
          "indexed": true,
          "internalType": "address",
          "name": "owner",
          "type": "address"
        },
        {
          "indexed": true,
          "internalType": "address",
          "name": "operator",
          "type": "address"
        },
        {
          "indexed": false,
          "internalType": "bool",
          "name": "approved",
          "type": "bool"
        }
      ],
      "name": "ApprovalForAll",
      "type": "event"
    },
    {
      "anonymous": false,
      "inputs": [
        {
          "indexed": false,
          "internalType": "uint256",
          "name": "villageId",
          "type": "uint256"
        },
        {
          "indexed": false,
          "internalType": "enum VillageGame.BuildingTypes",
          "name": "buildingType",
          "type": "uint8"
        },
        {
          "indexed": false,
          "internalType": "uint8",
          "name": "_x",
          "type": "uint8"
        },
        {
          "indexed": false,
          "internalType": "uint8",
          "name": "_y",
          "type": "uint8"
        }
      ],
      "name": "NewBuilding",
      "type": "event"
    },
    {
      "anonymous": false,
      "inputs": [
        {
          "indexed": false,
          "internalType": "uint256",
          "name": "villageId",
          "type": "uint256"
        },
        {
          "indexed": false,
          "internalType": "string",
          "name": "name",
          "type": "string"
        },
        {
          "indexed": false,
          "internalType": "int8",
          "name": "_x",
          "type": "int8"
        },
        {
          "indexed": false,
          "internalType": "int8",
          "name": "_y",
          "type": "int8"
        }
      ],
      "name": "NewVillage",
      "type": "event"
    },
    {
      "anonymous": false,
      "inputs": [
        {
          "indexed": true,
          "internalType": "address",
          "name": "previousOwner",
          "type": "address"
        },
        {
          "indexed": true,
          "internalType": "address",
          "name": "newOwner",
          "type": "address"
        }
      ],
      "name": "OwnershipTransferred",
      "type": "event"
    },
    {
      "anonymous": false,
      "inputs": [
        {
          "indexed": true,
          "internalType": "address",
          "name": "from",
          "type": "address"
        },
        {
          "indexed": true,
          "internalType": "address",
          "name": "to",
          "type": "address"
        },
        {
          "indexed": true,
          "internalType": "uint256",
          "name": "tokenId",
          "type": "uint256"
        }
      ],
      "name": "Transfer",
      "type": "event"
    },
    {
      "inputs": [
        {
          "internalType": "address",
          "name": "to",
          "type": "address"
        },
        {
          "internalType": "uint256",
          "name": "tokenId",
          "type": "uint256"
        }
      ],
      "name": "approve",
      "outputs": [],
      "stateMutability": "nonpayable",
      "type": "function"
    },
    {
      "inputs": [
        {
          "internalType": "address",
          "name": "owner",
          "type": "address"
        }
      ],
      "name": "balanceOf",
      "outputs": [
        {
          "internalType": "uint256",
          "name": "",
          "type": "uint256"
        }
      ],
      "stateMutability": "view",
      "type": "function"
    },
    {
      "inputs": [
        {
          "internalType": "enum VillageGame.BuildingTypes",
          "name": "",
          "type": "uint8"
        }
      ],
      "name": "buildingSizes",
      "outputs": [
        {
          "internalType": "uint8",
          "name": "",
          "type": "uint8"
        }
      ],
      "stateMutability": "view",
      "type": "function"
    },
    {
      "inputs": [
        {
          "internalType": "string",
          "name": "_name",
          "type": "string"
        },
        {
          "internalType": "int8",
          "name": "_x",
          "type": "int8"
        },
        {
          "internalType": "int8",
          "name": "_y",
          "type": "int8"
        }
      ],
      "name": "createVillage",
      "outputs": [
        {
          "internalType": "uint256",
          "name": "villageId",
          "type": "uint256"
        }
      ],
      "stateMutability": "nonpayable",
      "type": "function"
    },
    {
      "inputs": [
        {
          "internalType": "uint256",
          "name": "tokenId",
          "type": "uint256"
        }
      ],
      "name": "getApproved",
      "outputs": [
        {
          "internalType": "address",
          "name": "",
          "type": "address"
        }
      ],
      "stateMutability": "view",
      "type": "function"
    },
    {
      "inputs": [
        {
          "internalType": "uint256",
          "name": "_villageId",
          "type": "uint256"
        }
      ],
      "name": "getVillage",
      "outputs": [
        {
          "components": [
            {
              "internalType": "int8",
              "name": "x",
              "type": "int8"
            },
            {
              "internalType": "int8",
              "name": "y",
              "type": "int8"
            },
            {
              "internalType": "uint8",
              "name": "size",
              "type": "uint8"
            },
            {
              "internalType": "uint8",
              "name": "baseGoldRate",
              "type": "uint8"
            },
            {
              "internalType": "uint32",
              "name": "readyToMineTime",
              "type": "uint32"
            },
            {
              "internalType": "uint256",
              "name": "id",
              "type": "uint256"
            },
            {
              "internalType": "uint256",
              "name": "stats",
              "type": "uint256"
            },
            {
              "internalType": "string",
              "name": "name",
              "type": "string"
            },
            {
              "components": [
                {
                  "internalType": "uint8",
                  "name": "x",
                  "type": "uint8"
                },
                {
                  "internalType": "uint8",
                  "name": "y",
                  "type": "uint8"
                },
                {
                  "internalType": "uint8",
                  "name": "size",
                  "type": "uint8"
                },
                {
                  "internalType": "uint8",
                  "name": "level",
                  "type": "uint8"
                },
                {
                  "internalType": "uint32",
                  "name": "upgradeCompleteTime",
                  "type": "uint32"
                },
                {
                  "internalType": "enum VillageGame.BuildingTypes",
                  "name": "buildingType",
                  "type": "uint8"
                }
              ],
              "internalType": "struct VillageGame.BuildingPlacement[]",
              "name": "buildings",
              "type": "tuple[]"
            },
            {
              "internalType": "bool",
              "name": "exists",
              "type": "bool"
            }
          ],
          "internalType": "struct VillageGame.Village",
          "name": "village",
          "type": "tuple"
        }
      ],
      "stateMutability": "view",
      "type": "function"
    },
    {
      "inputs": [
        {
          "internalType": "address",
          "name": "owner",
          "type": "address"
        },
        {
          "internalType": "address",
          "name": "operator",
          "type": "address"
        }
      ],
      "name": "isApprovedForAll",
      "outputs": [
        {
          "internalType": "bool",
          "name": "",
          "type": "bool"
        }
      ],
      "stateMutability": "view",
      "type": "function"
    },
    {
      "inputs": [],
      "name": "name",
      "outputs": [
        {
          "internalType": "string",
          "name": "",
          "type": "string"
        }
      ],
      "stateMutability": "view",
      "type": "function"
    },
    {
      "inputs": [],
      "name": "owner",
      "outputs": [
        {
          "internalType": "address",
          "name": "",
          "type": "address"
        }
      ],
      "stateMutability": "view",
      "type": "function"
    },
    {
      "inputs": [
        {
          "internalType": "uint256",
          "name": "tokenId",
          "type": "uint256"
        }
      ],
      "name": "ownerOf",
      "outputs": [
        {
          "internalType": "address",
          "name": "",
          "type": "address"
        }
      ],
      "stateMutability": "view",
      "type": "function"
    },
    {
      "inputs": [
        {
          "internalType": "uint256",
          "name": "_villageId",
          "type": "uint256"
        },
        {
          "internalType": "enum VillageGame.BuildingTypes",
          "name": "_buildingType",
          "type": "uint8"
        },
        {
          "internalType": "uint8",
          "name": "_x",
          "type": "uint8"
        },
        {
          "internalType": "uint8",
          "name": "_y",
          "type": "uint8"
        }
      ],
      "name": "placeBuilding",
      "outputs": [],
      "stateMutability": "nonpayable",
      "type": "function"
    },
    {
      "inputs": [],
      "name": "renounceOwnership",
      "outputs": [],
      "stateMutability": "nonpayable",
      "type": "function"
    },
    {
      "inputs": [
        {
          "internalType": "address",
          "name": "from",
          "type": "address"
        },
        {
          "internalType": "address",
          "name": "to",
          "type": "address"
        },
        {
          "internalType": "uint256",
          "name": "tokenId",
          "type": "uint256"
        }
      ],
      "name": "safeTransferFrom",
      "outputs": [],
      "stateMutability": "nonpayable",
      "type": "function"
    },
    {
      "inputs": [
        {
          "internalType": "address",
          "name": "from",
          "type": "address"
        },
        {
          "internalType": "address",
          "name": "to",
          "type": "address"
        },
        {
          "internalType": "uint256",
          "name": "tokenId",
          "type": "uint256"
        },
        {
          "internalType": "bytes",
          "name": "_data",
          "type": "bytes"
        }
      ],
      "name": "safeTransferFrom",
      "outputs": [],
      "stateMutability": "nonpayable",
      "type": "function"
    },
    {
      "inputs": [
        {
          "internalType": "address",
          "name": "operator",
          "type": "address"
        },
        {
          "internalType": "bool",
          "name": "approved",
          "type": "bool"
        }
      ],
      "name": "setApprovalForAll",
      "outputs": [],
      "stateMutability": "nonpayable",
      "type": "function"
    },
    {
      "inputs": [
        {
          "internalType": "uint256",
          "name": "_mapSize",
          "type": "uint256"
        }
      ],
      "name": "setMapSize",
      "outputs": [],
      "stateMutability": "nonpayable",
      "type": "function"
    },
    {
      "inputs": [
        {
          "internalType": "bytes4",
          "name": "interfaceId",
          "type": "bytes4"
        }
      ],
      "name": "supportsInterface",
      "outputs": [
        {
          "internalType": "bool",
          "name": "",
          "type": "bool"
        }
      ],
      "stateMutability": "view",
      "type": "function"
    },
    {
      "inputs": [],
      "name": "symbol",
      "outputs": [
        {
          "internalType": "string",
          "name": "",
          "type": "string"
        }
      ],
      "stateMutability": "view",
      "type": "function"
    },
    {
      "inputs": [
        {
          "internalType": "uint256",
          "name": "index",
          "type": "uint256"
        }
      ],
      "name": "tokenByIndex",
      "outputs": [
        {
          "internalType": "uint256",
          "name": "",
          "type": "uint256"
        }
      ],
      "stateMutability": "view",
      "type": "function"
    },
    {
      "inputs": [
        {
          "internalType": "address",
          "name": "owner",
          "type": "address"
        },
        {
          "internalType": "uint256",
          "name": "index",
          "type": "uint256"
        }
      ],
      "name": "tokenOfOwnerByIndex",
      "outputs": [
        {
          "internalType": "uint256",
          "name": "",
          "type": "uint256"
        }
      ],
      "stateMutability": "view",
      "type": "function"
    },
    {
      "inputs": [
        {
          "internalType": "uint256",
          "name": "tokenId",
          "type": "uint256"
        }
      ],
      "name": "tokenURI",
      "outputs": [
        {
          "internalType": "string",
          "name": "",
          "type": "string"
        }
      ],
      "stateMutability": "view",
      "type": "function"
    },
    {
      "inputs": [],
      "name": "totalSupply",
      "outputs": [
        {
          "internalType": "uint256",
          "name": "",
          "type": "uint256"
        }
      ],
      "stateMutability": "view",
      "type": "function"
    },
    {
      "inputs": [
        {
          "internalType": "address",
          "name": "from",
          "type": "address"
        },
        {
          "internalType": "address",
          "name": "to",
          "type": "address"
        },
        {
          "internalType": "uint256",
          "name": "tokenId",
          "type": "uint256"
        }
      ],
      "name": "transferFrom",
      "outputs": [],
      "stateMutability": "nonpayable",
      "type": "function"
    },
    {
      "inputs": [
        {
          "internalType": "address",
          "name": "newOwner",
          "type": "address"
        }
      ],
      "name": "transferOwnership",
      "outputs": [],
      "stateMutability": "nonpayable",
      "type": "function"
    },
    {
      "inputs": [
        {
          "internalType": "int8",
          "name": "",
          "type": "int8"
        },
        {
          "internalType": "int8",
          "name": "",
          "type": "int8"
        }
      ],
      "name": "villageMap",
      "outputs": [
        {
          "internalType": "uint256",
          "name": "",
          "type": "uint256"
        }
      ],
      "stateMutability": "view",
      "type": "function"
    }
  ],
  "bytecode": "0x60806040526010600255600254600a6200001a91906200072b565b600355606460065560016007553480156200003457600080fd5b506040518060400160405280600881526020017f47616d654c616e640000000000000000000000000000000000000000000000008152506040518060400160405280600381526020017f4c4e440000000000000000000000000000000000000000000000000000000000815250620000c1620000b56200055460201b60201c565b6200055c60201b60201c565b60036001600080600681111562000101577f4e487b7100000000000000000000000000000000000000000000000000000000600052602160045260246000fd5b60068111156200013a577f4e487b7100000000000000000000000000000000000000000000000000000000600052602160045260246000fd5b815260200190815260200160002060006101000a81548160ff021916908360ff160217905550600180600060016006811115620001a0577f4e487b7100000000000000000000000000000000000000000000000000000000600052602160045260246000fd5b6006811115620001d9577f4e487b7100000000000000000000000000000000000000000000000000000000600052602160045260246000fd5b815260200190815260200160002060006101000a81548160ff021916908360ff1602179055506000600160006002600681111562000240577f4e487b7100000000000000000000000000000000000000000000000000000000600052602160045260246000fd5b600681111562000279577f4e487b7100000000000000000000000000000000000000000000000000000000600052602160045260246000fd5b815260200190815260200160002060006101000a81548160ff021916908360ff160217905550600180600060036006811115620002df577f4e487b7100000000000000000000000000000000000000000000000000000000600052602160045260246000fd5b600681111562000318577f4e487b7100000000000000000000000000000000000000000000000000000000600052602160045260246000fd5b815260200190815260200160002060006101000a81548160ff021916908360ff1602179055506001806000600460068111156200037e577f4e487b7100000000000000000000000000000000000000000000000000000000600052602160045260246000fd5b6006811115620003b7577f4e487b7100000000000000000000000000000000000000000000000000000000600052602160045260246000fd5b815260200190815260200160002060006101000a81548160ff021916908360ff1602179055506001806000600560068111156200041d577f4e487b7100000000000000000000000000000000000000000000000000000000600052602160045260246000fd5b600681111562000456577f4e487b7100000000000000000000000000000000000000000000000000000000600052602160045260246000fd5b815260200190815260200160002060006101000a81548160ff021916908360ff1602179055506001806000600680811115620004bb577f4e487b7100000000000000000000000000000000000000000000000000000000600052602160045260246000fd5b6006811115620004f4577f4e487b7100000000000000000000000000000000000000000000000000000000600052602160045260246000fd5b815260200190815260200160002060006101000a81548160ff021916908360ff16021790555081600990805190602001906200053292919062000620565b5080600a90805190602001906200054b92919062000620565b50505062000913565b600033905090565b60008060009054906101000a900473ffffffffffffffffffffffffffffffffffffffff169050816000806101000a81548173ffffffffffffffffffffffffffffffffffffffff021916908373ffffffffffffffffffffffffffffffffffffffff1602179055508173ffffffffffffffffffffffffffffffffffffffff168173ffffffffffffffffffffffffffffffffffffffff167f8be0079c531659141344cd1fd0a4f28419497f9722a3daafe3b4186f6b6457e060405160405180910390a35050565b8280546200062e9062000872565b90600052602060002090601f0160209004810192826200065257600085556200069e565b82601f106200066d57805160ff19168380011785556200069e565b828001600101855582156200069e579182015b828111156200069d57825182559160200191906001019062000680565b5b509050620006ad9190620006b1565b5090565b5b80821115620006cc576000816000905550600101620006b2565b5090565b6000808291508390505b60018511156200072257808604811115620006fa57620006f9620008a8565b5b60018516156200070a5780820291505b80810290506200071a8562000906565b9450620006da565b94509492505050565b6000620007388262000868565b9150620007458362000868565b9250620007747fffffffffffffffffffffffffffffffffffffffffffffffffffffffffffffffff84846200077c565b905092915050565b6000826200078e576001905062000861565b816200079e576000905062000861565b8160018114620007b75760028114620007c257620007f8565b600191505062000861565b60ff841115620007d757620007d6620008a8565b5b8360020a915084821115620007f157620007f0620008a8565b5b5062000861565b5060208310610133831016604e8410600b8410161715620008325782820a9050838111156200082c576200082b620008a8565b5b62000861565b620008418484846001620006d0565b925090508184048111156200085b576200085a620008a8565b5b81810290505b9392505050565b6000819050919050565b600060028204905060018216806200088b57607f821691505b60208210811415620008a257620008a1620008d7565b5b50919050565b7f4e487b7100000000000000000000000000000000000000000000000000000000600052601160045260246000fd5b7f4e487b7100000000000000000000000000000000000000000000000000000000600052602260045260246000fd5b60008160011c9050919050565b6150af80620009236000396000f3fe608060405234801561001057600080fd5b50600436106101735760003560e01c80636352211e116100de57806395d89b4111610097578063c87b56dd11610071578063c87b56dd1461046e578063e5e59e431461049e578063e985e9c5146104ce578063f2fde38b146104fe57610173565b806395d89b4114610418578063a22cb46514610436578063b88d4fde1461045257610173565b80636352211e1461034457806370a0823114610374578063715018a6146103a45780637d14a047146103ae5780637dabb1f3146103de5780638da5cb5b146103fa57610173565b806318160ddd1161013057806318160ddd1461025e57806323b872dd1461027c5780632f745c59146102985780634213edf2146102c857806342842e0e146102f85780634f6ccce71461031457610173565b806301ffc9a7146101785780630234f916146101a857806306fdde03146101d8578063081812fc146101f65780630838409a14610226578063095ea7b314610242575b600080fd5b610192600480360381019061018d91906133e7565b61051a565b60405161019f9190613dce565b60405180910390f35b6101c260048036038101906101bd9190613505565b610594565b6040516101cf919061418b565b60405180910390f35b6101e06108e5565b6040516101ed9190613de9565b60405180910390f35b610210600480360381019061020b9190613505565b610977565b60405161021d9190613d67565b60405180910390f35b610240600480360381019061023b9190613505565b6109fc565b005b61025c600480360381019061025791906133ab565b610ac6565b005b610266610bde565b60405161027391906141ad565b60405180910390f35b610296600480360381019061029191906132a5565b610beb565b005b6102b260048036038101906102ad91906133ab565b610c4b565b6040516102bf91906141ad565b60405180910390f35b6102e260048036038101906102dd919061349e565b610cf0565b6040516102ef91906141ad565b60405180910390f35b610312600480360381019061030d91906132a5565b610d10565b005b61032e60048036038101906103299190613505565b610d30565b60405161033b91906141ad565b60405180910390f35b61035e60048036038101906103599190613505565b610dc7565b60405161036b9190613d67565b60405180910390f35b61038e60048036038101906103899190613240565b610e79565b60405161039b91906141ad565b60405180910390f35b6103ac610f31565b005b6103c860048036038101906103c39190613462565b610fb9565b6040516103d591906141ad565b60405180910390f35b6103f860048036038101906103f3919061352e565b610fde565b005b610402611068565b60405161040f9190613d67565b60405180910390f35b610420611091565b60405161042d9190613de9565b60405180910390f35b610450600480360381019061044b919061336f565b611123565b005b61046c600480360381019061046791906132f4565b6112a4565b005b61048860048036038101906104839190613505565b611306565b6040516104959190613de9565b60405180910390f35b6104b860048036038101906104b39190613439565b6113ad565b6040516104c59190614259565b60405180910390f35b6104e860048036038101906104e39190613269565b6113cd565b6040516104f59190613dce565b60405180910390f35b61051860048036038101906105139190613240565b611461565b005b60007f780e9d63000000000000000000000000000000000000000000000000000000007bffffffffffffffffffffffffffffffffffffffffffffffffffffffff1916827bffffffffffffffffffffffffffffffffffffffffffffffffffffffff1916148061058d575061058c82611559565b5b9050919050565b61059c612fc0565b60046000838152602001908152602001600020604051806101400160405290816000820160009054906101000a900460000b60000b60000b81526020016000820160019054906101000a900460000b60000b60000b81526020016000820160029054906101000a900460ff1660ff1660ff1681526020016000820160039054906101000a900460ff1660ff1660ff1681526020016000820160049054906101000a900463ffffffff1663ffffffff1663ffffffff168152602001600182015481526020016002820154815260200160038201805461067990614651565b80601f01602080910402602001604051908101604052809291908181526020018280546106a590614651565b80156106f25780601f106106c7576101008083540402835291602001916106f2565b820191906000526020600020905b8154815290600101906020018083116106d557829003601f168201915b5050505050815260200160048201805480602002602001604051908101604052809291908181526020016000905b8282101561086f578382906000526020600020016040518060c00160405290816000820160009054906101000a900460ff1660ff1660ff1681526020016000820160019054906101000a900460ff1660ff1660ff1681526020016000820160029054906101000a900460ff1660ff1660ff1681526020016000820160039054906101000a900460ff1660ff1660ff1681526020016000820160049054906101000a900463ffffffff1663ffffffff1663ffffffff1681526020016000820160089054906101000a900460ff166006811115610824577f4e487b7100000000000000000000000000000000000000000000000000000000600052602160045260246000fd5b600681111561085c577f4e487b7100000000000000000000000000000000000000000000000000000000600052602160045260246000fd5b8152505081526020019060010190610720565b5050505081526020016005820160009054906101000a900460ff1615151515815250509050600115158161012001511515146108e0576040517f08c379a00000000000000000000000000000000000000000000000000000000081526004016108d790613fab565b60405180910390fd5b919050565b6060600980546108f490614651565b80601f016020809104026020016040519081016040528092919081815260200182805461092090614651565b801561096d5780601f106109425761010080835404028352916020019161096d565b820191906000526020600020905b81548152906001019060200180831161095057829003601f168201915b5050505050905090565b60006109828261163b565b6109c1576040517f08c379a00000000000000000000000000000000000000000000000000000000081526004016109b890613fcb565b60405180910390fd5b600d600083815260200190815260200160002060009054906101000a900473ffffffffffffffffffffffffffffffffffffffff169050919050565b610a046116a7565b73ffffffffffffffffffffffffffffffffffffffff16610a22611068565b73ffffffffffffffffffffffffffffffffffffffff1614610a78576040517f08c379a0000000000000000000000000000000000000000000000000000000008152600401610a6f9061400b565b60405180910390fd5b6006548111610abc576040517f08c379a0000000000000000000000000000000000000000000000000000000008152600401610ab3906140cb565b60405180910390fd5b8060068190555050565b6000610ad182610dc7565b90508073ffffffffffffffffffffffffffffffffffffffff168373ffffffffffffffffffffffffffffffffffffffff161415610b42576040517f08c379a0000000000000000000000000000000000000000000000000000000008152600401610b39906140ab565b60405180910390fd5b8073ffffffffffffffffffffffffffffffffffffffff16610b616116a7565b73ffffffffffffffffffffffffffffffffffffffff161480610b905750610b8f81610b8a6116a7565b6113cd565b5b610bcf576040517f08c379a0000000000000000000000000000000000000000000000000000000008152600401610bc690613f2b565b60405180910390fd5b610bd983836116af565b505050565b6000601180549050905090565b610bfc610bf66116a7565b82611768565b610c3b576040517f08c379a0000000000000000000000000000000000000000000000000000000008152600401610c32906140eb565b60405180910390fd5b610c46838383611846565b505050565b6000610c5683610e79565b8210610c97576040517f08c379a0000000000000000000000000000000000000000000000000000000008152600401610c8e90613e0b565b60405180910390fd5b600f60008473ffffffffffffffffffffffffffffffffffffffff1673ffffffffffffffffffffffffffffffffffffffff168152602001908152602001600020600083815260200190815260200160002054905092915050565b6000610cfd848484611aa2565b9050610d093382611d7b565b9392505050565b610d2b838383604051806020016040528060008152506112a4565b505050565b6000610d3a610bde565b8210610d7b576040517f08c379a0000000000000000000000000000000000000000000000000000000008152600401610d729061410b565b60405180910390fd5b60118281548110610db5577f4e487b7100000000000000000000000000000000000000000000000000000000600052603260045260246000fd5b90600052602060002001549050919050565b600080600b600084815260200190815260200160002060009054906101000a900473ffffffffffffffffffffffffffffffffffffffff169050600073ffffffffffffffffffffffffffffffffffffffff168173ffffffffffffffffffffffffffffffffffffffff161415610e70576040517f08c379a0000000000000000000000000000000000000000000000000000000008152600401610e6790613f6b565b60405180910390fd5b80915050919050565b60008073ffffffffffffffffffffffffffffffffffffffff168273ffffffffffffffffffffffffffffffffffffffff161415610eea576040517f08c379a0000000000000000000000000000000000000000000000000000000008152600401610ee190613f4b565b60405180910390fd5b600c60008373ffffffffffffffffffffffffffffffffffffffff1673ffffffffffffffffffffffffffffffffffffffff168152602001908152602001600020549050919050565b610f396116a7565b73ffffffffffffffffffffffffffffffffffffffff16610f57611068565b73ffffffffffffffffffffffffffffffffffffffff1614610fad576040517f08c379a0000000000000000000000000000000000000000000000000000000008152600401610fa49061400b565b60405180910390fd5b610fb76000611f49565b565b6005602052816000526040600020602052806000526040600020600091509150505481565b833373ffffffffffffffffffffffffffffffffffffffff16610fff82610dc7565b73ffffffffffffffffffffffffffffffffffffffff1614611055576040517f08c379a000000000000000000000000000000000000000000000000000000000815260040161104c9061404b565b60405180910390fd5b6110618585858561200d565b5050505050565b60008060009054906101000a900473ffffffffffffffffffffffffffffffffffffffff16905090565b6060600a80546110a090614651565b80601f01602080910402602001604051908101604052809291908181526020018280546110cc90614651565b80156111195780601f106110ee57610100808354040283529160200191611119565b820191906000526020600020905b8154815290600101906020018083116110fc57829003601f168201915b5050505050905090565b61112b6116a7565b73ffffffffffffffffffffffffffffffffffffffff168273ffffffffffffffffffffffffffffffffffffffff161415611199576040517f08c379a000000000000000000000000000000000000000000000000000000000815260040161119090613eab565b60405180910390fd5b80600e60006111a66116a7565b73ffffffffffffffffffffffffffffffffffffffff1673ffffffffffffffffffffffffffffffffffffffff16815260200190815260200160002060008473ffffffffffffffffffffffffffffffffffffffff1673ffffffffffffffffffffffffffffffffffffffff16815260200190815260200160002060006101000a81548160ff0219169083151502179055508173ffffffffffffffffffffffffffffffffffffffff166112536116a7565b73ffffffffffffffffffffffffffffffffffffffff167f17307eab39ab6107e8899845ad3d59bd9653f200f220920489ca2b5937696c31836040516112989190613dce565b60405180910390a35050565b6112b56112af6116a7565b83611768565b6112f4576040517f08c379a00000000000000000000000000000000000000000000000000000000081526004016112eb906140eb565b60405180910390fd5b61130084848484612475565b50505050565b60606113118261163b565b611350576040517f08c379a00000000000000000000000000000000000000000000000000000000081526004016113479061408b565b60405180910390fd5b600061135a6124d1565b9050600081511161137a57604051806020016040528060008152506113a5565b80611384846124e8565b604051602001611395929190613cf5565b6040516020818303038152906040525b915050919050565b60016020528060005260406000206000915054906101000a900460ff1681565b6000600e60008473ffffffffffffffffffffffffffffffffffffffff1673ffffffffffffffffffffffffffffffffffffffff16815260200190815260200160002060008373ffffffffffffffffffffffffffffffffffffffff1673ffffffffffffffffffffffffffffffffffffffff16815260200190815260200160002060009054906101000a900460ff16905092915050565b6114696116a7565b73ffffffffffffffffffffffffffffffffffffffff16611487611068565b73ffffffffffffffffffffffffffffffffffffffff16146114dd576040517f08c379a00000000000000000000000000000000000000000000000000000000081526004016114d49061400b565b60405180910390fd5b600073ffffffffffffffffffffffffffffffffffffffff168173ffffffffffffffffffffffffffffffffffffffff16141561154d576040517f08c379a000000000000000000000000000000000000000000000000000000000815260040161154490613e4b565b60405180910390fd5b61155681611f49565b50565b60007f80ac58cd000000000000000000000000000000000000000000000000000000007bffffffffffffffffffffffffffffffffffffffffffffffffffffffff1916827bffffffffffffffffffffffffffffffffffffffffffffffffffffffff1916148061162457507f5b5e139f000000000000000000000000000000000000000000000000000000007bffffffffffffffffffffffffffffffffffffffffffffffffffffffff1916827bffffffffffffffffffffffffffffffffffffffffffffffffffffffff1916145b80611634575061163382612695565b5b9050919050565b60008073ffffffffffffffffffffffffffffffffffffffff16600b600084815260200190815260200160002060009054906101000a900473ffffffffffffffffffffffffffffffffffffffff1673ffffffffffffffffffffffffffffffffffffffff1614159050919050565b600033905090565b81600d600083815260200190815260200160002060006101000a81548173ffffffffffffffffffffffffffffffffffffffff021916908373ffffffffffffffffffffffffffffffffffffffff160217905550808273ffffffffffffffffffffffffffffffffffffffff1661172283610dc7565b73ffffffffffffffffffffffffffffffffffffffff167f8c5be1e5ebec7d5bd14f71427d1e84f3dd0314c0f7b2291e5b200ac8c7c3b92560405160405180910390a45050565b60006117738261163b565b6117b2576040517f08c379a00000000000000000000000000000000000000000000000000000000081526004016117a990613ecb565b60405180910390fd5b60006117bd83610dc7565b90508073ffffffffffffffffffffffffffffffffffffffff168473ffffffffffffffffffffffffffffffffffffffff16148061182c57508373ffffffffffffffffffffffffffffffffffffffff1661181484610977565b73ffffffffffffffffffffffffffffffffffffffff16145b8061183d575061183c81856113cd565b5b91505092915050565b8273ffffffffffffffffffffffffffffffffffffffff1661186682610dc7565b73ffffffffffffffffffffffffffffffffffffffff16146118bc576040517f08c379a00000000000000000000000000000000000000000000000000000000081526004016118b39061406b565b60405180910390fd5b600073ffffffffffffffffffffffffffffffffffffffff168273ffffffffffffffffffffffffffffffffffffffff16141561192c576040517f08c379a000000000000000000000000000000000000000000000000000000000815260040161192390613e8b565b60405180910390fd5b6119378383836126ff565b6119426000826116af565b6001600c60008573ffffffffffffffffffffffffffffffffffffffff1673ffffffffffffffffffffffffffffffffffffffff168152602001908152602001600020600082825461199291906144da565b925050819055506001600c60008473ffffffffffffffffffffffffffffffffffffffff1673ffffffffffffffffffffffffffffffffffffffff16815260200190815260200160002060008282546119e99190614388565b9250508190555081600b600083815260200190815260200160002060006101000a81548173ffffffffffffffffffffffffffffffffffffffff021916908373ffffffffffffffffffffffffffffffffffffffff160217905550808273ffffffffffffffffffffffffffffffffffffffff168473ffffffffffffffffffffffffffffffffffffffff167fddf252ad1be2c89b69c2b068fc378daa952ba7f163c4a11628f55a4df523b3ef60405160405180910390a4505050565b60006006548360000b13158015611aca57506006546000611ac39190614446565b8360000b12155b611b09576040517f08c379a0000000000000000000000000000000000000000000000000000000008152600401611b009061402b565b60405180910390fd5b6006548260000b13158015611b2f57506006546000611b289190614446565b8260000b12155b611b6e576040517f08c379a0000000000000000000000000000000000000000000000000000000008152600401611b659061416b565b60405180910390fd5b6000600560008560000b60000b815260200190815260200160002060008460000b60000b81526020019081526020016000205414611be1576040517f08c379a0000000000000000000000000000000000000000000000000000000008152600401611bd890613f0b565b60405180910390fd5b60076000815480929190611bf4906146b4565b9190505590506000600460008381526020019081526020016000209050818160010181905550838160000160006101000a81548160ff021916908360000b60ff160217905550828160000160016101000a81548160ff021916908360000b60ff16021790555060058160000160026101000a81548160ff021916908360ff16021790555060648160000160036101000a81548160ff021916908360ff160217905550428160000160046101000a81548163ffffffff021916908363ffffffff16021790555084816003019080519060200190611cd1929190613025565b50611cdc8484612813565b816002018190555060018160050160006101000a81548160ff02191690831515021790555081600560008660000b60000b815260200190815260200160002060008560000b60000b8152602001908152602001600020819055507fb449d51a80a67072b11ef6826bc0a223593d54e719f7444cd86215a462c90bdb82868686604051611d6b949392919061420d565b60405180910390a1509392505050565b600073ffffffffffffffffffffffffffffffffffffffff168273ffffffffffffffffffffffffffffffffffffffff161415611deb576040517f08c379a0000000000000000000000000000000000000000000000000000000008152600401611de290613f8b565b60405180910390fd5b611df48161163b565b15611e34576040517f08c379a0000000000000000000000000000000000000000000000000000000008152600401611e2b90613e6b565b60405180910390fd5b611e40600083836126ff565b6001600c60008473ffffffffffffffffffffffffffffffffffffffff1673ffffffffffffffffffffffffffffffffffffffff1681526020019081526020016000206000828254611e909190614388565b9250508190555081600b600083815260200190815260200160002060006101000a81548173ffffffffffffffffffffffffffffffffffffffff021916908373ffffffffffffffffffffffffffffffffffffffff160217905550808273ffffffffffffffffffffffffffffffffffffffff16600073ffffffffffffffffffffffffffffffffffffffff167fddf252ad1be2c89b69c2b068fc378daa952ba7f163c4a11628f55a4df523b3ef60405160405180910390a45050565b60008060009054906101000a900473ffffffffffffffffffffffffffffffffffffffff169050816000806101000a81548173ffffffffffffffffffffffffffffffffffffffff021916908373ffffffffffffffffffffffffffffffffffffffff1602179055508173ffffffffffffffffffffffffffffffffffffffff168173ffffffffffffffffffffffffffffffffffffffff167f8be0079c531659141344cd1fd0a4f28419497f9722a3daafe3b4186f6b6457e060405160405180910390a35050565b60006004600086815260200190815260200160002090506000612030868661285f565b60ff1614612073576040517f08c379a000000000000000000000000000000000000000000000000000000000815260040161206a9061414b565b60405180910390fd5b6000600160008660068111156120b2577f4e487b7100000000000000000000000000000000000000000000000000000000600052602160045260246000fd5b60068111156120ea577f4e487b7100000000000000000000000000000000000000000000000000000000600052602160045260246000fd5b815260200190815260200160002060009054906101000a900460ff16905060008160ff161161214e576040517f08c379a000000000000000000000000000000000000000000000000000000000815260040161214590613eeb565b60405180910390fd5b8160000160029054906101000a900460ff1660ff16818561216f91906143de565b60ff1611156121b3576040517f08c379a00000000000000000000000000000000000000000000000000000000081526004016121aa90613feb565b60405180910390fd5b8160000160029054906101000a900460ff1660ff1681846121d491906143de565b60ff161115612218576040517f08c379a000000000000000000000000000000000000000000000000000000000815260040161220f90613feb565b60405180910390fd5b60008490505b818561222a91906143de565b60ff168160ff16101561228b5760008490505b828561224991906143de565b60ff168160ff1610156122775761226486868660040161290b565b808061226f906146fd565b91505061223d565b508080612283906146fd565b91505061221e565b50816004016040518060c001604052808660ff1681526020018560ff1681526020018360ff168152602001600160ff1681526020014263ffffffff168152602001876006811115612305577f4e487b7100000000000000000000000000000000000000000000000000000000600052602160045260246000fd5b8152509080600181540180825580915050600190039060005260206000200160009091909190915060008201518160000160006101000a81548160ff021916908360ff16021790555060208201518160000160016101000a81548160ff021916908360ff16021790555060408201518160000160026101000a81548160ff021916908360ff16021790555060608201518160000160036101000a81548160ff021916908360ff16021790555060808201518160000160046101000a81548163ffffffff021916908363ffffffff16021790555060a08201518160000160086101000a81548160ff02191690836006811115612429577f4e487b7100000000000000000000000000000000000000000000000000000000600052602160045260246000fd5b021790555050507f65ba7aa5381aa165bd92d38abccd807c7fb086876c94483c5648bdc0b0687bac8686868660405161246594939291906141c8565b60405180910390a1505050505050565b612480848484611846565b61248c84848484612a99565b6124cb576040517f08c379a00000000000000000000000000000000000000000000000000000000081526004016124c290613e2b565b60405180910390fd5b50505050565b606060405180602001604052806000815250905090565b60606000821415612530576040518060400160405280600181526020017f30000000000000000000000000000000000000000000000000000000000000008152509050612690565b600082905060005b6000821461256257808061254b906146b4565b915050600a8261255b9190614415565b9150612538565b60008167ffffffffffffffff8111156125a4577f4e487b7100000000000000000000000000000000000000000000000000000000600052604160045260246000fd5b6040519080825280601f01601f1916602001820160405280156125d65781602001600182028036833780820191505090505b5090505b60008514612689576001826125ef91906144da565b9150600a856125fe9190614743565b603061260a9190614388565b60f81b818381518110612646577f4e487b7100000000000000000000000000000000000000000000000000000000600052603260045260246000fd5b60200101907effffffffffffffffffffffffffffffffffffffffffffffffffffffffffffff1916908160001a905350600a856126829190614415565b94506125da565b8093505050505b919050565b60007f01ffc9a7000000000000000000000000000000000000000000000000000000007bffffffffffffffffffffffffffffffffffffffffffffffffffffffff1916827bffffffffffffffffffffffffffffffffffffffffffffffffffffffff1916149050919050565b61270a838383612c30565b600073ffffffffffffffffffffffffffffffffffffffff168373ffffffffffffffffffffffffffffffffffffffff16141561274d5761274881612c35565b61278c565b8173ffffffffffffffffffffffffffffffffffffffff168373ffffffffffffffffffffffffffffffffffffffff161461278b5761278a8382612c7e565b5b5b600073ffffffffffffffffffffffffffffffffffffffff168273ffffffffffffffffffffffffffffffffffffffff1614156127cf576127ca81612deb565b61280e565b8273ffffffffffffffffffffffffffffffffffffffff168273ffffffffffffffffffffffffffffffffffffffff161461280d5761280c8282612f2e565b5b5b505050565b6000804244858560405160200161282d9493929190613d19565b6040516020818303038152906040528051906020012060001c9050600354816128569190614743565b91505092915050565b60006008600084815260200190815260200160002060008360068111156128af577f4e487b7100000000000000000000000000000000000000000000000000000000600052602160045260246000fd5b60068111156128e7577f4e487b7100000000000000000000000000000000000000000000000000000000600052602160045260246000fd5b815260200190815260200160002060009054906101000a900460ff16905092915050565b60005b81805490508160ff161015612a93576000828260ff168154811061295b577f4e487b7100000000000000000000000000000000000000000000000000000000600052603260045260246000fd5b906000526020600020019050600060018260000160029054906101000a900460ff168360000160009054906101000a900460ff1661299991906143de565b6129a3919061450e565b9050600060018360000160029054906101000a900460ff168460000160019054906101000a900460ff166129d791906143de565b6129e1919061450e565b90508260000160009054906101000a900460ff1660ff168760ff161080612a0d57508160ff168760ff16115b80612a2e57508260000160019054906101000a900460ff1660ff168660ff16105b80612a3e57508060ff168660ff16115b612a7d576040517f08c379a0000000000000000000000000000000000000000000000000000000008152600401612a749061412b565b60405180910390fd5b5050508080612a8b906146fd565b91505061290e565b50505050565b6000612aba8473ffffffffffffffffffffffffffffffffffffffff16612fad565b15612c23578373ffffffffffffffffffffffffffffffffffffffff1663150b7a02612ae36116a7565b8786866040518563ffffffff1660e01b8152600401612b059493929190613d82565b602060405180830381600087803b158015612b1f57600080fd5b505af1925050508015612b5057506040513d601f19601f82011682018060405250810190612b4d9190613410565b60015b612bd3573d8060008114612b80576040519150601f19603f3d011682016040523d82523d6000602084013e612b85565b606091505b50600081511415612bcb576040517f08c379a0000000000000000000000000000000000000000000000000000000008152600401612bc290613e2b565b60405180910390fd5b805181602001fd5b63150b7a0260e01b7bffffffffffffffffffffffffffffffffffffffffffffffffffffffff1916817bffffffffffffffffffffffffffffffffffffffffffffffffffffffff191614915050612c28565b600190505b949350505050565b505050565b6011805490506012600083815260200190815260200160002081905550601181908060018154018082558091505060019003906000526020600020016000909190919091505550565b60006001612c8b84610e79565b612c9591906144da565b9050600060106000848152602001908152602001600020549050818114612d7a576000600f60008673ffffffffffffffffffffffffffffffffffffffff1673ffffffffffffffffffffffffffffffffffffffff168152602001908152602001600020600084815260200190815260200160002054905080600f60008773ffffffffffffffffffffffffffffffffffffffff1673ffffffffffffffffffffffffffffffffffffffff168152602001908152602001600020600084815260200190815260200160002081905550816010600083815260200190815260200160002081905550505b6010600084815260200190815260200160002060009055600f60008573ffffffffffffffffffffffffffffffffffffffff1673ffffffffffffffffffffffffffffffffffffffff16815260200190815260200160002060008381526020019081526020016000206000905550505050565b60006001601180549050612dff91906144da565b9050600060126000848152602001908152602001600020549050600060118381548110612e55577f4e487b7100000000000000000000000000000000000000000000000000000000600052603260045260246000fd5b906000526020600020015490508060118381548110612e9d577f4e487b7100000000000000000000000000000000000000000000000000000000600052603260045260246000fd5b906000526020600020018190555081601260008381526020019081526020016000208190555060126000858152602001908152602001600020600090556011805480612f12577f4e487b7100000000000000000000000000000000000000000000000000000000600052603160045260246000fd5b6001900381819060005260206000200160009055905550505050565b6000612f3983610e79565b905081600f60008573ffffffffffffffffffffffffffffffffffffffff1673ffffffffffffffffffffffffffffffffffffffff168152602001908152602001600020600083815260200190815260200160002081905550806010600084815260200190815260200160002081905550505050565b600080823b905060008111915050919050565b6040518061014001604052806000800b81526020016000800b8152602001600060ff168152602001600060ff168152602001600063ffffffff168152602001600081526020016000815260200160608152602001606081526020016000151581525090565b82805461303190614651565b90600052602060002090601f016020900481019282613053576000855561309a565b82601f1061306c57805160ff191683800117855561309a565b8280016001018555821561309a579182015b8281111561309957825182559160200191906001019061307e565b5b5090506130a791906130ab565b5090565b5b808211156130c45760008160009055506001016130ac565b5090565b60006130db6130d684614299565b614274565b9050828152602081018484840111156130f357600080fd5b6130fe84828561460f565b509392505050565b6000613119613114846142ca565b614274565b90508281526020810184848401111561313157600080fd5b61313c84828561460f565b509392505050565b60008135905061315381614fdf565b92915050565b60008135905061316881614ff6565b92915050565b60008135905061317d8161500d565b92915050565b6000815190506131928161500d565b92915050565b600082601f8301126131a957600080fd5b81356131b98482602086016130c8565b91505092915050565b6000813590506131d181615024565b92915050565b6000813590506131e681615034565b92915050565b600082601f8301126131fd57600080fd5b813561320d848260208601613106565b91505092915050565b6000813590506132258161504b565b92915050565b60008135905061323a81615062565b92915050565b60006020828403121561325257600080fd5b600061326084828501613144565b91505092915050565b6000806040838503121561327c57600080fd5b600061328a85828601613144565b925050602061329b85828601613144565b9150509250929050565b6000806000606084860312156132ba57600080fd5b60006132c886828701613144565b93505060206132d986828701613144565b92505060406132ea86828701613216565b9150509250925092565b6000806000806080858703121561330a57600080fd5b600061331887828801613144565b945050602061332987828801613144565b935050604061333a87828801613216565b925050606085013567ffffffffffffffff81111561335757600080fd5b61336387828801613198565b91505092959194509250565b6000806040838503121561338257600080fd5b600061339085828601613144565b92505060206133a185828601613159565b9150509250929050565b600080604083850312156133be57600080fd5b60006133cc85828601613144565b92505060206133dd85828601613216565b9150509250929050565b6000602082840312156133f957600080fd5b60006134078482850161316e565b91505092915050565b60006020828403121561342257600080fd5b600061343084828501613183565b91505092915050565b60006020828403121561344b57600080fd5b6000613459848285016131c2565b91505092915050565b6000806040838503121561347557600080fd5b6000613483858286016131d7565b9250506020613494858286016131d7565b9150509250929050565b6000806000606084860312156134b357600080fd5b600084013567ffffffffffffffff8111156134cd57600080fd5b6134d9868287016131ec565b93505060206134ea868287016131d7565b92505060406134fb868287016131d7565b9150509250925092565b60006020828403121561351757600080fd5b600061352584828501613216565b91505092915050565b6000806000806080858703121561354457600080fd5b600061355287828801613216565b9450506020613563878288016131c2565b93505060406135748782880161322b565b92505060606135858782880161322b565b91505092959194509250565b600061359d8383613b37565b60c08301905092915050565b6135b281614542565b82525050565b60006135c38261430b565b6135cd8185614339565b93506135d8836142fb565b8060005b838110156136095781516135f08882613591565b97506135fb8361432c565b9250506001810190506135dc565b5085935050505092915050565b61361f81614554565b82525050565b61362e81614554565b82525050565b600061363f82614316565b613649818561434a565b935061365981856020860161461e565b6136628161485f565b840191505092915050565b613676816145fd565b82525050565b613685816145fd565b82525050565b613694816145a9565b82525050565b6136a3816145a9565b82525050565b6136ba6136b5826145a9565b614727565b82525050565b60006136cb82614321565b6136d5818561435b565b93506136e581856020860161461e565b6136ee8161485f565b840191505092915050565b600061370482614321565b61370e818561436c565b935061371e81856020860161461e565b6137278161485f565b840191505092915050565b600061373d82614321565b613747818561437d565b935061375781856020860161461e565b80840191505092915050565b6000613770602b8361436c565b915061377b8261487d565b604082019050919050565b600061379360328361436c565b915061379e826148cc565b604082019050919050565b60006137b660268361436c565b91506137c18261491b565b604082019050919050565b60006137d9601c8361436c565b91506137e48261496a565b602082019050919050565b60006137fc60248361436c565b915061380782614993565b604082019050919050565b600061381f60198361436c565b915061382a826149e2565b602082019050919050565b6000613842602c8361436c565b915061384d82614a0b565b604082019050919050565b6000613865603c8361436c565b915061387082614a5a565b604082019050919050565b6000613888602b8361436c565b915061389382614aa9565b604082019050919050565b60006138ab60388361436c565b91506138b682614af8565b604082019050919050565b60006138ce602a8361436c565b91506138d982614b47565b604082019050919050565b60006138f160298361436c565b91506138fc82614b96565b604082019050919050565b600061391460208361436c565b915061391f82614be5565b602082019050919050565b600061393760198361436c565b915061394282614c0e565b602082019050919050565b600061395a602c8361436c565b915061396582614c37565b604082019050919050565b600061397d602c8361436c565b915061398882614c86565b604082019050919050565b60006139a060208361436c565b91506139ab82614cd5565b602082019050919050565b60006139c3601a8361436c565b91506139ce82614cfe565b602082019050919050565b60006139e6601c8361436c565b91506139f182614d27565b602082019050919050565b6000613a0960298361436c565b9150613a1482614d50565b604082019050919050565b6000613a2c602f8361436c565b9150613a3782614d9f565b604082019050919050565b6000613a4f60218361436c565b9150613a5a82614dee565b604082019050919050565b6000613a72602d8361436c565b9150613a7d82614e3d565b604082019050919050565b6000613a9560318361436c565b9150613aa082614e8c565b604082019050919050565b6000613ab8602c8361436c565b9150613ac382614edb565b604082019050919050565b6000613adb601e8361436c565b9150613ae682614f2a565b602082019050919050565b6000613afe602c8361436c565b9150613b0982614f53565b604082019050919050565b6000613b21601a8361436c565b9150613b2c82614fa2565b602082019050919050565b60c082016000820151613b4d6000850182613cd7565b506020820151613b606020850182613cd7565b506040820151613b736040850182613cd7565b506060820151613b866060850182613cd7565b506080820151613b996080850182613cc8565b5060a0820151613bac60a085018261366d565b50505050565b600061014083016000830151613bcb600086018261368b565b506020830151613bde602086018261368b565b506040830151613bf16040860182613cd7565b506060830151613c046060860182613cd7565b506080830151613c176080860182613cc8565b5060a0830151613c2a60a0860182613c93565b5060c0830151613c3d60c0860182613c93565b5060e083015184820360e0860152613c5582826136c0565b915050610100830151848203610100860152613c7182826135b8565b915050610120830151613c88610120860182613616565b508091505092915050565b613c9c816145d6565b82525050565b613cab816145d6565b82525050565b613cc2613cbd826145d6565b614739565b82525050565b613cd1816145e0565b82525050565b613ce0816145f0565b82525050565b613cef816145f0565b82525050565b6000613d018285613732565b9150613d0d8284613732565b91508190509392505050565b6000613d258287613cb1565b602082019150613d358286613cb1565b602082019150613d4582856136a9565b600182019150613d5582846136a9565b60018201915081905095945050505050565b6000602082019050613d7c60008301846135a9565b92915050565b6000608082019050613d9760008301876135a9565b613da460208301866135a9565b613db16040830185613ca2565b8181036060830152613dc38184613634565b905095945050505050565b6000602082019050613de36000830184613625565b92915050565b60006020820190508181036000830152613e0381846136f9565b905092915050565b60006020820190508181036000830152613e2481613763565b9050919050565b60006020820190508181036000830152613e4481613786565b9050919050565b60006020820190508181036000830152613e64816137a9565b9050919050565b60006020820190508181036000830152613e84816137cc565b9050919050565b60006020820190508181036000830152613ea4816137ef565b9050919050565b60006020820190508181036000830152613ec481613812565b9050919050565b60006020820190508181036000830152613ee481613835565b9050919050565b60006020820190508181036000830152613f0481613858565b9050919050565b60006020820190508181036000830152613f248161387b565b9050919050565b60006020820190508181036000830152613f448161389e565b9050919050565b60006020820190508181036000830152613f64816138c1565b9050919050565b60006020820190508181036000830152613f84816138e4565b9050919050565b60006020820190508181036000830152613fa481613907565b9050919050565b60006020820190508181036000830152613fc48161392a565b9050919050565b60006020820190508181036000830152613fe48161394d565b9050919050565b6000602082019050818103600083015261400481613970565b9050919050565b6000602082019050818103600083015261402481613993565b9050919050565b60006020820190508181036000830152614044816139b6565b9050919050565b60006020820190508181036000830152614064816139d9565b9050919050565b60006020820190508181036000830152614084816139fc565b9050919050565b600060208201905081810360008301526140a481613a1f565b9050919050565b600060208201905081810360008301526140c481613a42565b9050919050565b600060208201905081810360008301526140e481613a65565b9050919050565b6000602082019050818103600083015261410481613a88565b9050919050565b6000602082019050818103600083015261412481613aab565b9050919050565b6000602082019050818103600083015261414481613ace565b9050919050565b6000602082019050818103600083015261416481613af1565b9050919050565b6000602082019050818103600083015261418481613b14565b9050919050565b600060208201905081810360008301526141a58184613bb2565b905092915050565b60006020820190506141c26000830184613ca2565b92915050565b60006080820190506141dd6000830187613ca2565b6141ea602083018661367c565b6141f76040830185613ce6565b6142046060830184613ce6565b95945050505050565b60006080820190506142226000830187613ca2565b818103602083015261423481866136f9565b9050614243604083018561369a565b614250606083018461369a565b95945050505050565b600060208201905061426e6000830184613ce6565b92915050565b600061427e61428f565b905061428a8282614683565b919050565b6000604051905090565b600067ffffffffffffffff8211156142b4576142b3614830565b5b6142bd8261485f565b9050602081019050919050565b600067ffffffffffffffff8211156142e5576142e4614830565b5b6142ee8261485f565b9050602081019050919050565b6000819050602082019050919050565b600081519050919050565b600081519050919050565b600081519050919050565b6000602082019050919050565b600082825260208201905092915050565b600082825260208201905092915050565b600082825260208201905092915050565b600082825260208201905092915050565b600081905092915050565b6000614393826145d6565b915061439e836145d6565b9250827fffffffffffffffffffffffffffffffffffffffffffffffffffffffffffffffff038211156143d3576143d2614774565b5b828201905092915050565b60006143e9826145f0565b91506143f4836145f0565b92508260ff0382111561440a57614409614774565b5b828201905092915050565b6000614420826145d6565b915061442b836145d6565b92508261443b5761443a6147a3565b5b828204905092915050565b60006144518261459f565b915061445c8361459f565b9250827f80000000000000000000000000000000000000000000000000000000000000000182126000841215161561449757614496614774565b5b827f7fffffffffffffffffffffffffffffffffffffffffffffffffffffffffffffff0182136000841216156144cf576144ce614774565b5b828203905092915050565b60006144e5826145d6565b91506144f0836145d6565b92508282101561450357614502614774565b5b828203905092915050565b6000614519826145f0565b9150614524836145f0565b92508282101561453757614536614774565b5b828203905092915050565b600061454d826145b6565b9050919050565b60008115159050919050565b60007fffffffff0000000000000000000000000000000000000000000000000000000082169050919050565b600081905061459a82614fcb565b919050565b6000819050919050565b60008160000b9050919050565b600073ffffffffffffffffffffffffffffffffffffffff82169050919050565b6000819050919050565b600063ffffffff82169050919050565b600060ff82169050919050565b60006146088261458c565b9050919050565b82818337600083830152505050565b60005b8381101561463c578082015181840152602081019050614621565b8381111561464b576000848401525b50505050565b6000600282049050600182168061466957607f821691505b6020821081141561467d5761467c614801565b5b50919050565b61468c8261485f565b810181811067ffffffffffffffff821117156146ab576146aa614830565b5b80604052505050565b60006146bf826145d6565b91507fffffffffffffffffffffffffffffffffffffffffffffffffffffffffffffffff8214156146f2576146f1614774565b5b600182019050919050565b6000614708826145f0565b915060ff82141561471c5761471b614774565b5b600182019050919050565b600061473282614870565b9050919050565b6000819050919050565b600061474e826145d6565b9150614759836145d6565b925082614769576147686147a3565b5b828206905092915050565b7f4e487b7100000000000000000000000000000000000000000000000000000000600052601160045260246000fd5b7f4e487b7100000000000000000000000000000000000000000000000000000000600052601260045260246000fd5b7f4e487b7100000000000000000000000000000000000000000000000000000000600052602160045260246000fd5b7f4e487b7100000000000000000000000000000000000000000000000000000000600052602260045260246000fd5b7f4e487b7100000000000000000000000000000000000000000000000000000000600052604160045260246000fd5b6000601f19601f8301169050919050565b60008160f81b9050919050565b7f455243373231456e756d657261626c653a206f776e657220696e646578206f7560008201527f74206f6620626f756e6473000000000000000000000000000000000000000000602082015250565b7f4552433732313a207472616e7366657220746f206e6f6e20455243373231526560008201527f63656976657220696d706c656d656e7465720000000000000000000000000000602082015250565b7f4f776e61626c653a206e6577206f776e657220697320746865207a65726f206160008201527f6464726573730000000000000000000000000000000000000000000000000000602082015250565b7f4552433732313a20746f6b656e20616c7265616479206d696e74656400000000600082015250565b7f4552433732313a207472616e7366657220746f20746865207a65726f2061646460008201527f7265737300000000000000000000000000000000000000000000000000000000602082015250565b7f4552433732313a20617070726f766520746f2063616c6c657200000000000000600082015250565b7f4552433732313a206f70657261746f7220717565727920666f72206e6f6e657860008201527f697374656e7420746f6b656e0000000000000000000000000000000000000000602082015250565b7f4572726f722c20696e76616c6964206275696c64696e672073697a652e20436860008201527f65636b206275696c64696e67207479706520706172616d657465722e00000000602082015250565b7f76696c6c61676520616c7265616479206578697374732061742074686573652060008201527f636f6f7264696e61746573000000000000000000000000000000000000000000602082015250565b7f4552433732313a20617070726f76652063616c6c6572206973206e6f74206f7760008201527f6e6572206e6f7220617070726f76656420666f7220616c6c0000000000000000602082015250565b7f4552433732313a2062616c616e636520717565727920666f7220746865207a6560008201527f726f206164647265737300000000000000000000000000000000000000000000602082015250565b7f4552433732313a206f776e657220717565727920666f72206e6f6e657869737460008201527f656e7420746f6b656e0000000000000000000000000000000000000000000000602082015250565b7f4552433732313a206d696e7420746f20746865207a65726f2061646472657373600082015250565b7f76696c6c61676520494420646f6573206e6f7420657869737400000000000000600082015250565b7f4552433732313a20617070726f76656420717565727920666f72206e6f6e657860008201527f697374656e7420746f6b656e0000000000000000000000000000000000000000602082015250565b7f4e657720706c6163656d656e74206f7574206f6620626f756e647320666f722060008201527f76696c6c6167652073697a650000000000000000000000000000000000000000602082015250565b7f4f776e61626c653a2063616c6c6572206973206e6f7420746865206f776e6572600082015250565b7f7820636f6f7264696e617465206f7574206f6620626f756e6473000000000000600082015250565b7f4e6f7420746865206f776e6572206f66207468652076696c6c61676500000000600082015250565b7f4552433732313a207472616e73666572206f6620746f6b656e2074686174206960008201527f73206e6f74206f776e0000000000000000000000000000000000000000000000602082015250565b7f4552433732314d657461646174613a2055524920717565727920666f72206e6f60008201527f6e6578697374656e7420746f6b656e0000000000000000000000000000000000602082015250565b7f4552433732313a20617070726f76616c20746f2063757272656e74206f776e6560008201527f7200000000000000000000000000000000000000000000000000000000000000602082015250565b7f4e6577206d61702073697a65206d75737420626520626967676572207468616e60008201527f206f6c64206d61702073697a6500000000000000000000000000000000000000602082015250565b7f4552433732313a207472616e736665722063616c6c6572206973206e6f74206f60008201527f776e6572206e6f7220617070726f766564000000000000000000000000000000602082015250565b7f455243373231456e756d657261626c653a20676c6f62616c20696e646578206f60008201527f7574206f6620626f756e64730000000000000000000000000000000000000000602082015250565b7f436c61736865732077697468206578697374696e67206275696c64696e670000600082015250565b7f546869732074797065206f66206275696c64696e672068617320616c7265616460008201527f79206265656e206275696c740000000000000000000000000000000000000000602082015250565b7f7920636f6f7264696e617465206f7574206f6620626f756e6473000000000000600082015250565b60078110614fdc57614fdb6147d2565b5b50565b614fe881614542565b8114614ff357600080fd5b50565b614fff81614554565b811461500a57600080fd5b50565b61501681614560565b811461502157600080fd5b50565b6007811061503157600080fd5b50565b61503d816145a9565b811461504857600080fd5b50565b615054816145d6565b811461505f57600080fd5b50565b61506b816145f0565b811461507657600080fd5b5056fea264697066735822122043f08460387d9b62e4acc7706e1285d08fade3e1bc90f0d7749728b9715a6bf664736f6c63430008040033",
  "linkReferences": {},
  "deployedLinkReferences": {}
}