{
  "_format": "hh-sol-artifact-1",
  "contractName": "VillageNft",
  "sourceName": "contracts/VillageNft.sol",
  "abi": [
    {
      "inputs": [],
      "stateMutability": "nonpayable",
      "type": "constructor"
    },
    {
      "anonymous": false,
      "inputs": [
        {
          "indexed": true,
          "internalType": "address",
          "name": "owner",
          "type": "address"
        },
        {
          "indexed": true,
          "internalType": "address",
          "name": "approved",
          "type": "address"
        },
        {
          "indexed": true,
          "internalType": "uint256",
          "name": "tokenId",
          "type": "uint256"
        }
      ],
      "name": "Approval",
      "type": "event"
    },
    {
      "anonymous": false,
      "inputs": [
        {
          "indexed": true,
          "internalType": "address",
          "name": "owner",
          "type": "address"
        },
        {
          "indexed": true,
          "internalType": "address",
          "name": "operator",
          "type": "address"
        },
        {
          "indexed": false,
          "internalType": "bool",
          "name": "approved",
          "type": "bool"
        }
      ],
      "name": "ApprovalForAll",
      "type": "event"
    },
    {
      "anonymous": false,
      "inputs": [
        {
          "indexed": false,
          "internalType": "uint256",
          "name": "villageId",
          "type": "uint256"
        },
        {
          "indexed": false,
          "internalType": "enum VillageGame.BuildingTypes",
          "name": "buildingType",
          "type": "uint8"
        },
        {
          "indexed": false,
          "internalType": "uint8",
          "name": "_x",
          "type": "uint8"
        },
        {
          "indexed": false,
          "internalType": "uint8",
          "name": "_y",
          "type": "uint8"
        }
      ],
      "name": "NewBuilding",
      "type": "event"
    },
    {
      "anonymous": false,
      "inputs": [
        {
          "indexed": false,
          "internalType": "uint256",
          "name": "villageId",
          "type": "uint256"
        },
        {
          "indexed": false,
          "internalType": "string",
          "name": "name",
          "type": "string"
        },
        {
          "indexed": false,
          "internalType": "int8",
          "name": "_x",
          "type": "int8"
        },
        {
          "indexed": false,
          "internalType": "int8",
          "name": "_y",
          "type": "int8"
        }
      ],
      "name": "NewVillage",
      "type": "event"
    },
    {
      "anonymous": false,
      "inputs": [
        {
          "indexed": true,
          "internalType": "address",
          "name": "previousOwner",
          "type": "address"
        },
        {
          "indexed": true,
          "internalType": "address",
          "name": "newOwner",
          "type": "address"
        }
      ],
      "name": "OwnershipTransferred",
      "type": "event"
    },
    {
      "anonymous": false,
      "inputs": [
        {
          "indexed": true,
          "internalType": "address",
          "name": "from",
          "type": "address"
        },
        {
          "indexed": true,
          "internalType": "address",
          "name": "to",
          "type": "address"
        },
        {
          "indexed": true,
          "internalType": "uint256",
          "name": "tokenId",
          "type": "uint256"
        }
      ],
      "name": "Transfer",
      "type": "event"
    },
    {
      "inputs": [
        {
          "internalType": "address",
          "name": "to",
          "type": "address"
        },
        {
          "internalType": "uint256",
          "name": "tokenId",
          "type": "uint256"
        }
      ],
      "name": "approve",
      "outputs": [],
      "stateMutability": "nonpayable",
      "type": "function"
    },
    {
      "inputs": [
        {
          "internalType": "address",
          "name": "owner",
          "type": "address"
        }
      ],
      "name": "balanceOf",
      "outputs": [
        {
          "internalType": "uint256",
          "name": "",
          "type": "uint256"
        }
      ],
      "stateMutability": "view",
      "type": "function"
    },
    {
      "inputs": [
        {
          "internalType": "enum VillageGame.BuildingTypes",
          "name": "",
          "type": "uint8"
        }
      ],
      "name": "buildingSizes",
      "outputs": [
        {
          "internalType": "uint8",
          "name": "",
          "type": "uint8"
        }
      ],
      "stateMutability": "view",
      "type": "function"
    },
    {
      "inputs": [
        {
          "internalType": "string",
          "name": "_name",
          "type": "string"
        },
        {
          "internalType": "int8",
          "name": "_x",
          "type": "int8"
        },
        {
          "internalType": "int8",
          "name": "_y",
          "type": "int8"
        }
      ],
      "name": "createVillage",
      "outputs": [
        {
          "internalType": "uint256",
          "name": "villageId",
          "type": "uint256"
        }
      ],
      "stateMutability": "payable",
      "type": "function"
    },
    {
      "inputs": [
        {
          "internalType": "uint256",
          "name": "tokenId",
          "type": "uint256"
        }
      ],
      "name": "getApproved",
      "outputs": [
        {
          "internalType": "address",
          "name": "",
          "type": "address"
        }
      ],
      "stateMutability": "view",
      "type": "function"
    },
    {
      "inputs": [
        {
          "internalType": "uint256",
          "name": "_villageId",
          "type": "uint256"
        }
      ],
      "name": "getGoldMaxStorageAmount",
      "outputs": [
        {
          "internalType": "uint256",
          "name": "",
          "type": "uint256"
        }
      ],
      "stateMutability": "view",
      "type": "function"
    },
    {
      "inputs": [
        {
          "internalType": "uint256",
          "name": "_villageId",
          "type": "uint256"
        }
      ],
      "name": "getGoldMineableAmount",
      "outputs": [
        {
          "internalType": "uint256",
          "name": "",
          "type": "uint256"
        }
      ],
      "stateMutability": "view",
      "type": "function"
    },
    {
      "inputs": [],
      "name": "getNextVillageCost",
      "outputs": [
        {
          "internalType": "uint256",
          "name": "",
          "type": "uint256"
        }
      ],
      "stateMutability": "view",
      "type": "function"
    },
    {
      "inputs": [
        {
          "internalType": "uint256",
          "name": "_villageId",
          "type": "uint256"
        }
      ],
      "name": "getVillage",
      "outputs": [
        {
          "components": [
            {
              "internalType": "int8",
              "name": "x",
              "type": "int8"
            },
            {
              "internalType": "int8",
              "name": "y",
              "type": "int8"
            },
            {
              "internalType": "uint8",
              "name": "size",
              "type": "uint8"
            },
            {
              "internalType": "uint8",
              "name": "baseGoldRate",
              "type": "uint8"
            },
            {
              "internalType": "uint256",
              "name": "lastMined",
              "type": "uint256"
            },
            {
              "internalType": "uint256",
              "name": "id",
              "type": "uint256"
            },
            {
              "internalType": "uint256",
              "name": "stats",
              "type": "uint256"
            },
            {
              "internalType": "string",
              "name": "name",
              "type": "string"
            },
            {
              "components": [
                {
                  "internalType": "uint8",
                  "name": "x",
                  "type": "uint8"
                },
                {
                  "internalType": "uint8",
                  "name": "y",
                  "type": "uint8"
                },
                {
                  "internalType": "uint8",
                  "name": "size",
                  "type": "uint8"
                },
                {
                  "internalType": "uint8",
                  "name": "level",
                  "type": "uint8"
                },
                {
                  "internalType": "uint32",
                  "name": "upgradeCompleteTime",
                  "type": "uint32"
                },
                {
                  "internalType": "enum VillageGame.BuildingTypes",
                  "name": "buildingType",
                  "type": "uint8"
                },
                {
                  "internalType": "bool",
                  "name": "exists",
                  "type": "bool"
                }
              ],
              "internalType": "struct VillageGame.BuildingPlacement[]",
              "name": "buildings",
              "type": "tuple[]"
            },
            {
              "internalType": "bool",
              "name": "exists",
              "type": "bool"
            }
          ],
          "internalType": "struct VillageGame.Village",
          "name": "village",
          "type": "tuple"
        }
      ],
      "stateMutability": "view",
      "type": "function"
    },
    {
      "inputs": [
        {
          "internalType": "uint256",
          "name": "_villageId",
          "type": "uint256"
        }
      ],
      "name": "getVillageCost",
      "outputs": [
        {
          "internalType": "uint256",
          "name": "",
          "type": "uint256"
        }
      ],
      "stateMutability": "pure",
      "type": "function"
    },
    {
      "inputs": [
        {
          "internalType": "address",
          "name": "owner",
          "type": "address"
        },
        {
          "internalType": "address",
          "name": "operator",
          "type": "address"
        }
      ],
      "name": "isApprovedForAll",
      "outputs": [
        {
          "internalType": "bool",
          "name": "",
          "type": "bool"
        }
      ],
      "stateMutability": "view",
      "type": "function"
    },
    {
      "inputs": [
        {
          "internalType": "uint256",
          "name": "_villageId",
          "type": "uint256"
        }
      ],
      "name": "mineGold",
      "outputs": [],
      "stateMutability": "nonpayable",
      "type": "function"
    },
    {
      "inputs": [],
      "name": "name",
      "outputs": [
        {
          "internalType": "string",
          "name": "",
          "type": "string"
        }
      ],
      "stateMutability": "view",
      "type": "function"
    },
    {
      "inputs": [],
      "name": "owner",
      "outputs": [
        {
          "internalType": "address",
          "name": "",
          "type": "address"
        }
      ],
      "stateMutability": "view",
      "type": "function"
    },
    {
      "inputs": [
        {
          "internalType": "uint256",
          "name": "tokenId",
          "type": "uint256"
        }
      ],
      "name": "ownerOf",
      "outputs": [
        {
          "internalType": "address",
          "name": "",
          "type": "address"
        }
      ],
      "stateMutability": "view",
      "type": "function"
    },
    {
      "inputs": [
        {
          "internalType": "uint256",
          "name": "_villageId",
          "type": "uint256"
        },
        {
          "internalType": "enum VillageGame.BuildingTypes",
          "name": "_buildingType",
          "type": "uint8"
        },
        {
          "internalType": "uint8",
          "name": "_x",
          "type": "uint8"
        },
        {
          "internalType": "uint8",
          "name": "_y",
          "type": "uint8"
        }
      ],
      "name": "placeBuilding",
      "outputs": [],
      "stateMutability": "nonpayable",
      "type": "function"
    },
    {
      "inputs": [],
      "name": "renounceOwnership",
      "outputs": [],
      "stateMutability": "nonpayable",
      "type": "function"
    },
    {
      "inputs": [
        {
          "internalType": "address",
          "name": "from",
          "type": "address"
        },
        {
          "internalType": "address",
          "name": "to",
          "type": "address"
        },
        {
          "internalType": "uint256",
          "name": "tokenId",
          "type": "uint256"
        }
      ],
      "name": "safeTransferFrom",
      "outputs": [],
      "stateMutability": "nonpayable",
      "type": "function"
    },
    {
      "inputs": [
        {
          "internalType": "address",
          "name": "from",
          "type": "address"
        },
        {
          "internalType": "address",
          "name": "to",
          "type": "address"
        },
        {
          "internalType": "uint256",
          "name": "tokenId",
          "type": "uint256"
        },
        {
          "internalType": "bytes",
          "name": "_data",
          "type": "bytes"
        }
      ],
      "name": "safeTransferFrom",
      "outputs": [],
      "stateMutability": "nonpayable",
      "type": "function"
    },
    {
      "inputs": [
        {
          "internalType": "address",
          "name": "operator",
          "type": "address"
        },
        {
          "internalType": "bool",
          "name": "approved",
          "type": "bool"
        }
      ],
      "name": "setApprovalForAll",
      "outputs": [],
      "stateMutability": "nonpayable",
      "type": "function"
    },
    {
      "inputs": [
        {
          "internalType": "uint256",
          "name": "_mapSize",
          "type": "uint256"
        }
      ],
      "name": "setMapSize",
      "outputs": [],
      "stateMutability": "nonpayable",
      "type": "function"
    },
    {
      "inputs": [
        {
          "internalType": "address",
          "name": "_contractAddress",
          "type": "address"
        }
      ],
      "name": "setVillageGoldContract",
      "outputs": [],
      "stateMutability": "nonpayable",
      "type": "function"
    },
    {
      "inputs": [
        {
          "internalType": "bytes4",
          "name": "interfaceId",
          "type": "bytes4"
        }
      ],
      "name": "supportsInterface",
      "outputs": [
        {
          "internalType": "bool",
          "name": "",
          "type": "bool"
        }
      ],
      "stateMutability": "view",
      "type": "function"
    },
    {
      "inputs": [],
      "name": "symbol",
      "outputs": [
        {
          "internalType": "string",
          "name": "",
          "type": "string"
        }
      ],
      "stateMutability": "view",
      "type": "function"
    },
    {
      "inputs": [
        {
          "internalType": "uint256",
          "name": "index",
          "type": "uint256"
        }
      ],
      "name": "tokenByIndex",
      "outputs": [
        {
          "internalType": "uint256",
          "name": "",
          "type": "uint256"
        }
      ],
      "stateMutability": "view",
      "type": "function"
    },
    {
      "inputs": [
        {
          "internalType": "address",
          "name": "owner",
          "type": "address"
        },
        {
          "internalType": "uint256",
          "name": "index",
          "type": "uint256"
        }
      ],
      "name": "tokenOfOwnerByIndex",
      "outputs": [
        {
          "internalType": "uint256",
          "name": "",
          "type": "uint256"
        }
      ],
      "stateMutability": "view",
      "type": "function"
    },
    {
      "inputs": [
        {
          "internalType": "uint256",
          "name": "tokenId",
          "type": "uint256"
        }
      ],
      "name": "tokenURI",
      "outputs": [
        {
          "internalType": "string",
          "name": "",
          "type": "string"
        }
      ],
      "stateMutability": "view",
      "type": "function"
    },
    {
      "inputs": [],
      "name": "totalSupply",
      "outputs": [
        {
          "internalType": "uint256",
          "name": "",
          "type": "uint256"
        }
      ],
      "stateMutability": "view",
      "type": "function"
    },
    {
      "inputs": [
        {
          "internalType": "address",
          "name": "from",
          "type": "address"
        },
        {
          "internalType": "address",
          "name": "to",
          "type": "address"
        },
        {
          "internalType": "uint256",
          "name": "tokenId",
          "type": "uint256"
        }
      ],
      "name": "transferFrom",
      "outputs": [],
      "stateMutability": "nonpayable",
      "type": "function"
    },
    {
      "inputs": [
        {
          "internalType": "address",
          "name": "newOwner",
          "type": "address"
        }
      ],
      "name": "transferOwnership",
      "outputs": [],
      "stateMutability": "nonpayable",
      "type": "function"
    },
    {
      "inputs": [
        {
          "internalType": "int8",
          "name": "",
          "type": "int8"
        },
        {
          "internalType": "int8",
          "name": "",
          "type": "int8"
        }
      ],
      "name": "villageMap",
      "outputs": [
        {
          "internalType": "uint256",
          "name": "",
          "type": "uint256"
        }
      ],
      "stateMutability": "view",
      "type": "function"
    }
  ],
  "bytecode": "0x60806040526010600455600454600a6200001a9190620006bd565b600555606460085560016009553480156200003457600080fd5b506040518060400160405280600c81526020017f56696c6c616765546f6b656e00000000000000000000000000000000000000008152506040518060400160405280600381526020017f564c470000000000000000000000000000000000000000000000000000000000815250620000c1620000b5620003b460201b60201c565b620003bc60201b60201c565b600360016000806007811115620000dd57620000dc6200070e565b5b6007811115620000f257620000f16200070e565b5b815260200190815260200160002060006101000a81548160ff021916908360ff1602179055506001806000600160078111156200013457620001336200070e565b5b60078111156200014957620001486200070e565b5b815260200190815260200160002060006101000a81548160ff021916908360ff160217905550600060016000600260078111156200018c576200018b6200070e565b5b6007811115620001a157620001a06200070e565b5b815260200190815260200160002060006101000a81548160ff021916908360ff160217905550600180600060036007811115620001e357620001e26200070e565b5b6007811115620001f857620001f76200070e565b5b815260200190815260200160002060006101000a81548160ff021916908360ff1602179055506001806000600460078111156200023a57620002396200070e565b5b60078111156200024f576200024e6200070e565b5b815260200190815260200160002060006101000a81548160ff021916908360ff1602179055506001806000600560078111156200029157620002906200070e565b5b6007811115620002a657620002a56200070e565b5b815260200190815260200160002060006101000a81548160ff021916908360ff160217905550600180600060066007811115620002e857620002e76200070e565b5b6007811115620002fd57620002fc6200070e565b5b815260200190815260200160002060006101000a81548160ff021916908360ff1602179055506002600160006007808111156200033f576200033e6200070e565b5b60078111156200035457620003536200070e565b5b815260200190815260200160002060006101000a81548160ff021916908360ff16021790555081600b90805190602001906200039292919062000480565b5080600c9080519060200190620003ab92919062000480565b505050620007a2565b600033905090565b60008060009054906101000a900473ffffffffffffffffffffffffffffffffffffffff169050816000806101000a81548173ffffffffffffffffffffffffffffffffffffffff021916908373ffffffffffffffffffffffffffffffffffffffff1602179055508173ffffffffffffffffffffffffffffffffffffffff168173ffffffffffffffffffffffffffffffffffffffff167f8be0079c531659141344cd1fd0a4f28419497f9722a3daafe3b4186f6b6457e060405160405180910390a35050565b8280546200048e906200076c565b90600052602060002090601f016020900481019282620004b25760008555620004fe565b82601f10620004cd57805160ff1916838001178555620004fe565b82800160010185558215620004fe579182015b82811115620004fd578251825591602001919060010190620004e0565b5b5090506200050d919062000511565b5090565b5b808211156200052c57600081600090555060010162000512565b5090565b7f4e487b7100000000000000000000000000000000000000000000000000000000600052601160045260246000fd5b60008160011c9050919050565b6000808291508390505b6001851115620005be5780860481111562000596576200059562000530565b5b6001851615620005a65780820291505b8081029050620005b6856200055f565b945062000576565b94509492505050565b600082620005d95760019050620006ac565b81620005e95760009050620006ac565b81600181146200060257600281146200060d5762000643565b6001915050620006ac565b60ff84111562000622576200062162000530565b5b8360020a9150848211156200063c576200063b62000530565b5b50620006ac565b5060208310610133831016604e8410600b84101617156200067d5782820a90508381111562000677576200067662000530565b5b620006ac565b6200068c84848460016200056c565b92509050818404811115620006a657620006a562000530565b5b81810290505b9392505050565b6000819050919050565b6000620006ca82620006b3565b9150620006d783620006b3565b9250620007067fffffffffffffffffffffffffffffffffffffffffffffffffffffffffffffffff8484620005c7565b905092915050565b7f4e487b7100000000000000000000000000000000000000000000000000000000600052602160045260246000fd5b7f4e487b7100000000000000000000000000000000000000000000000000000000600052602260045260246000fd5b600060028204905060018216806200078557607f821691505b602082108114156200079c576200079b6200073d565b5b50919050565b615f2580620007b26000396000f3fe6080604052600436106101d85760003560e01c8063715018a611610102578063981e148a11610095578063c87b56dd11610064578063c87b56dd1461070b578063e5e59e4314610748578063e985e9c514610785578063f2fde38b146107c2576101d8565b8063981e148a14610667578063a22cb46514610690578063accb793d146106b9578063b88d4fde146106e2576101d8565b806382aef042116100d157806382aef042146105a95780638a0e59f3146105e65780638da5cb5b1461061157806395d89b411461063c576101d8565b8063715018a6146104ef578063780378d2146105065780637d14a047146105435780637dabb1f314610580576101d8565b806323b872dd1161017a5780634f6ccce7116101495780634f6ccce7146103fb5780636352211e14610438578063691990811461047557806370a08231146104b2576101d8565b806323b872dd1461033c5780632f745c59146103655780634213edf2146103a257806342842e0e146103d2576101d8565b8063081812fc116101b6578063081812fc146102825780630838409a146102bf578063095ea7b3146102e857806318160ddd14610311576101d8565b806301ffc9a7146101dd5780630234f9161461021a57806306fdde0314610257575b600080fd5b3480156101e957600080fd5b5061020460048036038101906101ff9190613b94565b6107eb565b6040516102119190613bdc565b60405180910390f35b34801561022657600080fd5b50610241600480360381019061023c9190613c2d565b610865565b60405161024e9190613ffd565b60405180910390f35b34801561026357600080fd5b5061026c610b69565b6040516102799190614069565b60405180910390f35b34801561028e57600080fd5b506102a960048036038101906102a49190613c2d565b610bfb565b6040516102b691906140cc565b60405180910390f35b3480156102cb57600080fd5b506102e660048036038101906102e19190613c2d565b610c80565b005b3480156102f457600080fd5b5061030f600480360381019061030a9190614113565b610d4a565b005b34801561031d57600080fd5b50610326610e62565b6040516103339190614162565b60405180910390f35b34801561034857600080fd5b50610363600480360381019061035e919061417d565b610e6f565b005b34801561037157600080fd5b5061038c60048036038101906103879190614113565b610ecf565b6040516103999190614162565b60405180910390f35b6103bc60048036038101906103b79190614331565b610f74565b6040516103c99190614162565b60405180910390f35b3480156103de57600080fd5b506103f960048036038101906103f4919061417d565b610fed565b005b34801561040757600080fd5b50610422600480360381019061041d9190613c2d565b61100d565b60405161042f9190614162565b60405180910390f35b34801561044457600080fd5b5061045f600480360381019061045a9190613c2d565b61107e565b60405161046c91906140cc565b60405180910390f35b34801561048157600080fd5b5061049c60048036038101906104979190613c2d565b611130565b6040516104a99190614162565b60405180910390f35b3480156104be57600080fd5b506104d960048036038101906104d491906143a0565b611142565b6040516104e69190614162565b60405180910390f35b3480156104fb57600080fd5b506105046111fa565b005b34801561051257600080fd5b5061052d60048036038101906105289190613c2d565b611282565b60405161053a9190614162565b60405180910390f35b34801561054f57600080fd5b5061056a600480360381019061056591906143cd565b611294565b6040516105779190614162565b60405180910390f35b34801561058c57600080fd5b506105a760048036038101906105a2919061445e565b6112b9565b005b3480156105b557600080fd5b506105d060048036038101906105cb9190613c2d565b611343565b6040516105dd9190614162565b60405180910390f35b3480156105f257600080fd5b506105fb611355565b6040516106089190614162565b60405180910390f35b34801561061d57600080fd5b50610626611373565b60405161063391906140cc565b60405180910390f35b34801561064857600080fd5b5061065161139c565b60405161065e9190614069565b60405180910390f35b34801561067357600080fd5b5061068e60048036038101906106899190613c2d565b61142e565b005b34801561069c57600080fd5b506106b760048036038101906106b291906144f1565b6114b2565b005b3480156106c557600080fd5b506106e060048036038101906106db91906143a0565b611633565b005b3480156106ee57600080fd5b50610709600480360381019061070491906145d2565b611734565b005b34801561071757600080fd5b50610732600480360381019061072d9190613c2d565b611796565b60405161073f9190614069565b60405180910390f35b34801561075457600080fd5b5061076f600480360381019061076a9190614655565b61183d565b60405161077c9190614691565b60405180910390f35b34801561079157600080fd5b506107ac60048036038101906107a791906146ac565b61185d565b6040516107b99190613bdc565b60405180910390f35b3480156107ce57600080fd5b506107e960048036038101906107e491906143a0565b6118f1565b005b60007f780e9d63000000000000000000000000000000000000000000000000000000007bffffffffffffffffffffffffffffffffffffffffffffffffffffffff1916827bffffffffffffffffffffffffffffffffffffffffffffffffffffffff1916148061085e575061085d826119e9565b5b9050919050565b61086d613a26565b60066000838152602001908152602001600020604051806101400160405290816000820160009054906101000a900460000b60000b60000b81526020016000820160019054906101000a900460000b60000b60000b81526020016000820160029054906101000a900460ff1660ff1660ff1681526020016000820160039054906101000a900460ff1660ff1660ff16815260200160018201548152602001600282015481526020016003820154815260200160048201805461092e9061471b565b80601f016020809104026020016040519081016040528092919081815260200182805461095a9061471b565b80156109a75780601f1061097c576101008083540402835291602001916109a7565b820191906000526020600020905b81548152906001019060200180831161098a57829003601f168201915b5050505050815260200160058201805480602002602001604051908101604052809291908181526020016000905b82821015610af3578382906000526020600020016040518060e00160405290816000820160009054906101000a900460ff1660ff1660ff1681526020016000820160019054906101000a900460ff1660ff1660ff1681526020016000820160029054906101000a900460ff1660ff1660ff1681526020016000820160039054906101000a900460ff1660ff1660ff1681526020016000820160049054906101000a900463ffffffff1663ffffffff1663ffffffff1681526020016000820160089054906101000a900460ff166007811115610ab357610ab2613d85565b5b6007811115610ac557610ac4613d85565b5b81526020016000820160099054906101000a900460ff161515151581525050815260200190600101906109d5565b5050505081526020016006820160009054906101000a900460ff161515151581525050905060011515816101200151151514610b64576040517f08c379a0000000000000000000000000000000000000000000000000000000008152600401610b5b90614799565b60405180910390fd5b919050565b6060600b8054610b789061471b565b80601f0160208091040260200160405190810160405280929190818152602001828054610ba49061471b565b8015610bf15780601f10610bc657610100808354040283529160200191610bf1565b820191906000526020600020905b815481529060010190602001808311610bd457829003601f168201915b5050505050905090565b6000610c0682611acb565b610c45576040517f08c379a0000000000000000000000000000000000000000000000000000000008152600401610c3c9061482b565b60405180910390fd5b600f600083815260200190815260200160002060009054906101000a900473ffffffffffffffffffffffffffffffffffffffff169050919050565b610c88611b37565b73ffffffffffffffffffffffffffffffffffffffff16610ca6611373565b73ffffffffffffffffffffffffffffffffffffffff1614610cfc576040517f08c379a0000000000000000000000000000000000000000000000000000000008152600401610cf390614897565b60405180910390fd5b6008548111610d40576040517f08c379a0000000000000000000000000000000000000000000000000000000008152600401610d3790614929565b60405180910390fd5b8060088190555050565b6000610d558261107e565b90508073ffffffffffffffffffffffffffffffffffffffff168373ffffffffffffffffffffffffffffffffffffffff161415610dc6576040517f08c379a0000000000000000000000000000000000000000000000000000000008152600401610dbd906149bb565b60405180910390fd5b8073ffffffffffffffffffffffffffffffffffffffff16610de5611b37565b73ffffffffffffffffffffffffffffffffffffffff161480610e145750610e1381610e0e611b37565b61185d565b5b610e53576040517f08c379a0000000000000000000000000000000000000000000000000000000008152600401610e4a90614a4d565b60405180910390fd5b610e5d8383611b3f565b505050565b6000601380549050905090565b610e80610e7a611b37565b82611bf8565b610ebf576040517f08c379a0000000000000000000000000000000000000000000000000000000008152600401610eb690614adf565b60405180910390fd5b610eca838383611cd6565b505050565b6000610eda83611142565b8210610f1b576040517f08c379a0000000000000000000000000000000000000000000000000000000008152600401610f1290614b71565b60405180910390fd5b601160008473ffffffffffffffffffffffffffffffffffffffff1673ffffffffffffffffffffffffffffffffffffffff168152602001908152602001600020600083815260200190815260200160002054905092915050565b6000610f8d6001600954610f889190614bc0565b611f32565b341015610fcf576040517f08c379a0000000000000000000000000000000000000000000000000000000008152600401610fc690614c62565b60405180910390fd5b610fda848484611f71565b9050610fe63382612230565b9392505050565b61100883838360405180602001604052806000815250611734565b505050565b6000611017610e62565b8210611058576040517f08c379a000000000000000000000000000000000000000000000000000000000815260040161104f90614cf4565b60405180910390fd5b6013828154811061106c5761106b614d14565b5b90600052602060002001549050919050565b600080600d600084815260200190815260200160002060009054906101000a900473ffffffffffffffffffffffffffffffffffffffff169050600073ffffffffffffffffffffffffffffffffffffffff168173ffffffffffffffffffffffffffffffffffffffff161415611127576040517f08c379a000000000000000000000000000000000000000000000000000000000815260040161111e90614db5565b60405180910390fd5b80915050919050565b600061113b826123fe565b9050919050565b60008073ffffffffffffffffffffffffffffffffffffffff168273ffffffffffffffffffffffffffffffffffffffff1614156111b3576040517f08c379a00000000000000000000000000000000000000000000000000000000081526004016111aa90614e47565b60405180910390fd5b600e60008373ffffffffffffffffffffffffffffffffffffffff1673ffffffffffffffffffffffffffffffffffffffff168152602001908152602001600020549050919050565b611202611b37565b73ffffffffffffffffffffffffffffffffffffffff16611220611373565b73ffffffffffffffffffffffffffffffffffffffff1614611276576040517f08c379a000000000000000000000000000000000000000000000000000000000815260040161126d90614897565b60405180910390fd5b61128060006124f8565b565b600061128d82611f32565b9050919050565b6007602052816000526040600020602052806000526040600020600091509150505481565b833373ffffffffffffffffffffffffffffffffffffffff166112da8261107e565b73ffffffffffffffffffffffffffffffffffffffff1614611330576040517f08c379a000000000000000000000000000000000000000000000000000000000815260040161132790614eb3565b60405180910390fd5b61133c858585856125bc565b5050505050565b600061134e82612a56565b9050919050565b600061136e60016009546113699190614bc0565b611f32565b905090565b60008060009054906101000a900473ffffffffffffffffffffffffffffffffffffffff16905090565b6060600c80546113ab9061471b565b80601f01602080910402602001604051908101604052809291908181526020018280546113d79061471b565b80156114245780601f106113f957610100808354040283529160200191611424565b820191906000526020600020905b81548152906001019060200180831161140757829003601f168201915b5050505050905090565b803373ffffffffffffffffffffffffffffffffffffffff1661144f8261107e565b73ffffffffffffffffffffffffffffffffffffffff16146114a5576040517f08c379a000000000000000000000000000000000000000000000000000000000815260040161149c90614eb3565b60405180910390fd5b6114ae82612ddc565b5050565b6114ba611b37565b73ffffffffffffffffffffffffffffffffffffffff168273ffffffffffffffffffffffffffffffffffffffff161415611528576040517f08c379a000000000000000000000000000000000000000000000000000000000815260040161151f90614f1f565b60405180910390fd5b8060106000611535611b37565b73ffffffffffffffffffffffffffffffffffffffff1673ffffffffffffffffffffffffffffffffffffffff16815260200190815260200160002060008473ffffffffffffffffffffffffffffffffffffffff1673ffffffffffffffffffffffffffffffffffffffff16815260200190815260200160002060006101000a81548160ff0219169083151502179055508173ffffffffffffffffffffffffffffffffffffffff166115e2611b37565b73ffffffffffffffffffffffffffffffffffffffff167f17307eab39ab6107e8899845ad3d59bd9653f200f220920489ca2b5937696c31836040516116279190613bdc565b60405180910390a35050565b61163b611b37565b73ffffffffffffffffffffffffffffffffffffffff16611659611373565b73ffffffffffffffffffffffffffffffffffffffff16146116af576040517f08c379a00000000000000000000000000000000000000000000000000000000081526004016116a690614897565b60405180910390fd5b80600260006101000a81548173ffffffffffffffffffffffffffffffffffffffff021916908373ffffffffffffffffffffffffffffffffffffffff16021790555080600360006101000a81548173ffffffffffffffffffffffffffffffffffffffff021916908373ffffffffffffffffffffffffffffffffffffffff16021790555050565b61174561173f611b37565b83611bf8565b611784576040517f08c379a000000000000000000000000000000000000000000000000000000000815260040161177b90614adf565b60405180910390fd5b61179084848484612ee7565b50505050565b60606117a182611acb565b6117e0576040517f08c379a00000000000000000000000000000000000000000000000000000000081526004016117d790614fb1565b60405180910390fd5b60006117ea612f43565b9050600081511161180a5760405180602001604052806000815250611835565b8061181484612f5a565b60405160200161182592919061500d565b6040516020818303038152906040525b915050919050565b60016020528060005260406000206000915054906101000a900460ff1681565b6000601060008473ffffffffffffffffffffffffffffffffffffffff1673ffffffffffffffffffffffffffffffffffffffff16815260200190815260200160002060008373ffffffffffffffffffffffffffffffffffffffff1673ffffffffffffffffffffffffffffffffffffffff16815260200190815260200160002060009054906101000a900460ff16905092915050565b6118f9611b37565b73ffffffffffffffffffffffffffffffffffffffff16611917611373565b73ffffffffffffffffffffffffffffffffffffffff161461196d576040517f08c379a000000000000000000000000000000000000000000000000000000000815260040161196490614897565b60405180910390fd5b600073ffffffffffffffffffffffffffffffffffffffff168173ffffffffffffffffffffffffffffffffffffffff1614156119dd576040517f08c379a00000000000000000000000000000000000000000000000000000000081526004016119d4906150a3565b60405180910390fd5b6119e6816124f8565b50565b60007f80ac58cd000000000000000000000000000000000000000000000000000000007bffffffffffffffffffffffffffffffffffffffffffffffffffffffff1916827bffffffffffffffffffffffffffffffffffffffffffffffffffffffff19161480611ab457507f5b5e139f000000000000000000000000000000000000000000000000000000007bffffffffffffffffffffffffffffffffffffffffffffffffffffffff1916827bffffffffffffffffffffffffffffffffffffffffffffffffffffffff1916145b80611ac45750611ac3826130bb565b5b9050919050565b60008073ffffffffffffffffffffffffffffffffffffffff16600d600084815260200190815260200160002060009054906101000a900473ffffffffffffffffffffffffffffffffffffffff1673ffffffffffffffffffffffffffffffffffffffff1614159050919050565b600033905090565b81600f600083815260200190815260200160002060006101000a81548173ffffffffffffffffffffffffffffffffffffffff021916908373ffffffffffffffffffffffffffffffffffffffff160217905550808273ffffffffffffffffffffffffffffffffffffffff16611bb28361107e565b73ffffffffffffffffffffffffffffffffffffffff167f8c5be1e5ebec7d5bd14f71427d1e84f3dd0314c0f7b2291e5b200ac8c7c3b92560405160405180910390a45050565b6000611c0382611acb565b611c42576040517f08c379a0000000000000000000000000000000000000000000000000000000008152600401611c3990615135565b60405180910390fd5b6000611c4d8361107e565b90508073ffffffffffffffffffffffffffffffffffffffff168473ffffffffffffffffffffffffffffffffffffffff161480611cbc57508373ffffffffffffffffffffffffffffffffffffffff16611ca484610bfb565b73ffffffffffffffffffffffffffffffffffffffff16145b80611ccd5750611ccc818561185d565b5b91505092915050565b8273ffffffffffffffffffffffffffffffffffffffff16611cf68261107e565b73ffffffffffffffffffffffffffffffffffffffff1614611d4c576040517f08c379a0000000000000000000000000000000000000000000000000000000008152600401611d43906151c7565b60405180910390fd5b600073ffffffffffffffffffffffffffffffffffffffff168273ffffffffffffffffffffffffffffffffffffffff161415611dbc576040517f08c379a0000000000000000000000000000000000000000000000000000000008152600401611db390615259565b60405180910390fd5b611dc7838383613125565b611dd2600082611b3f565b6001600e60008573ffffffffffffffffffffffffffffffffffffffff1673ffffffffffffffffffffffffffffffffffffffff1681526020019081526020016000206000828254611e229190615279565b925050819055506001600e60008473ffffffffffffffffffffffffffffffffffffffff1673ffffffffffffffffffffffffffffffffffffffff1681526020019081526020016000206000828254611e799190614bc0565b9250508190555081600d600083815260200190815260200160002060006101000a81548173ffffffffffffffffffffffffffffffffffffffff021916908373ffffffffffffffffffffffffffffffffffffffff160217905550808273ffffffffffffffffffffffffffffffffffffffff168473ffffffffffffffffffffffffffffffffffffffff167fddf252ad1be2c89b69c2b068fc378daa952ba7f163c4a11628f55a4df523b3ef60405160405180910390a4505050565b600060026001606484611f4591906152dc565b611f4f9190614bc0565b611f599190615440565b655af3107a4000611f6a919061548b565b9050919050565b60006008548360000b13158015611f9957506008546000611f9291906154ef565b8360000b12155b611fd8576040517f08c379a0000000000000000000000000000000000000000000000000000000008152600401611fcf906155cf565b60405180910390fd5b6008548260000b13158015611ffe57506008546000611ff791906154ef565b8260000b12155b61203d576040517f08c379a00000000000000000000000000000000000000000000000000000000081526004016120349061563b565b60405180910390fd5b6000600760008560000b60000b815260200190815260200160002060008460000b60000b815260200190815260200160002054146120b0576040517f08c379a00000000000000000000000000000000000000000000000000000000081526004016120a7906156cd565b60405180910390fd5b600960008154809291906120c3906156ed565b9190505590506000600660008381526020019081526020016000209050818160020181905550838160000160006101000a81548160ff021916908360000b60ff160217905550828160000160016101000a81548160ff021916908360000b60ff16021790555060058160000160026101000a81548160ff021916908360ff16021790555060648160000160036101000a81548160ff021916908360ff16021790555043816001018190555084816004019080519060200190612186929190613a85565b506121918484613239565b816003018190555060018160060160006101000a81548160ff02191690831515021790555081600760008660000b60000b815260200190815260200160002060008560000b60000b8152602001908152602001600020819055507fb449d51a80a67072b11ef6826bc0a223593d54e719f7444cd86215a462c90bdb828686866040516122209493929190615745565b60405180910390a1509392505050565b600073ffffffffffffffffffffffffffffffffffffffff168273ffffffffffffffffffffffffffffffffffffffff1614156122a0576040517f08c379a0000000000000000000000000000000000000000000000000000000008152600401612297906157dd565b60405180910390fd5b6122a981611acb565b156122e9576040517f08c379a00000000000000000000000000000000000000000000000000000000081526004016122e090615849565b60405180910390fd5b6122f560008383613125565b6001600e60008473ffffffffffffffffffffffffffffffffffffffff1673ffffffffffffffffffffffffffffffffffffffff16815260200190815260200160002060008282546123459190614bc0565b9250508190555081600d600083815260200190815260200160002060006101000a81548173ffffffffffffffffffffffffffffffffffffffff021916908373ffffffffffffffffffffffffffffffffffffffff160217905550808273ffffffffffffffffffffffffffffffffffffffff16600073ffffffffffffffffffffffffffffffffffffffff167fddf252ad1be2c89b69c2b068fc378daa952ba7f163c4a11628f55a4df523b3ef60405160405180910390a45050565b600080600a6000848152602001908152602001600020600060078081111561242957612428613d85565b5b600781111561243b5761243a613d85565b5b8152602001908152602001600020905060008160010160009054906101000a900460ff1661246a5760006124b2565b6006600085815260200190815260200160002060050182600001548154811061249657612495614d14565b5b9060005260206000200160000160039054906101000a900460ff165b60ff1690506002816124c49190615440565b601e6124d0919061548b565b60646124dc9190614bc0565b670de0b6b3a76400006124ef919061548b565b92505050919050565b60008060009054906101000a900473ffffffffffffffffffffffffffffffffffffffff169050816000806101000a81548173ffffffffffffffffffffffffffffffffffffffff021916908373ffffffffffffffffffffffffffffffffffffffff1602179055508173ffffffffffffffffffffffffffffffffffffffff168173ffffffffffffffffffffffffffffffffffffffff167f8be0079c531659141344cd1fd0a4f28419497f9722a3daafe3b4186f6b6457e060405160405180910390a35050565b60006006600086815260200190815260200160002090506125dd8585613285565b1561261d576040517f08c379a0000000000000000000000000000000000000000000000000000000008152600401612614906158db565b60405180910390fd5b60006001600086600781111561263657612635613d85565b5b600781111561264857612647613d85565b5b815260200190815260200160002060009054906101000a900460ff16905060008160ff16116126ac576040517f08c379a00000000000000000000000000000000000000000000000000000000081526004016126a39061596d565b60405180910390fd5b8160000160029054906101000a900460ff1660ff1681856126cd919061598d565b60ff161115612711576040517f08c379a000000000000000000000000000000000000000000000000000000000815260040161270890615a36565b60405180910390fd5b8160000160029054906101000a900460ff1660ff168184612732919061598d565b60ff161115612776576040517f08c379a000000000000000000000000000000000000000000000000000000000815260040161276d90615a36565b60405180910390fd5b60008490505b8185612788919061598d565b60ff168160ff1610156127e95760008490505b82856127a7919061598d565b60ff168160ff1610156127d5576127c28686866005016132ed565b80806127cd90615a56565b91505061279b565b5080806127e190615a56565b91505061277c565b50816005016040518060e001604052808660ff1681526020018560ff1681526020018360ff168152602001600160ff1681526020014263ffffffff16815260200187600781111561283d5761283c613d85565b5b8152602001600115158152509080600181540180825580915050600190039060005260206000200160009091909190915060008201518160000160006101000a81548160ff021916908360ff16021790555060208201518160000160016101000a81548160ff021916908360ff16021790555060408201518160000160026101000a81548160ff021916908360ff16021790555060608201518160000160036101000a81548160ff021916908360ff16021790555060808201518160000160046101000a81548163ffffffff021916908363ffffffff16021790555060a08201518160000160086101000a81548160ff0219169083600781111561294457612943613d85565b5b021790555060c08201518160000160096101000a81548160ff02191690831515021790555050506000600183600501805490506129819190615279565b9050604051806040016040528082815260200160011515815250600a600089815260200190815260200160002060008860078111156129c3576129c2613d85565b5b60078111156129d5576129d4613d85565b5b81526020019081526020016000206000820151816000015560208201518160010160006101000a81548160ff0219169083151502179055509050507f65ba7aa5381aa165bd92d38abccd807c7fb086876c94483c5648bdc0b0687bac87878787604051612a459493929190615a8f565b60405180910390a150505050505050565b60008060066000848152602001908152602001600020604051806101400160405290816000820160009054906101000a900460000b60000b60000b81526020016000820160019054906101000a900460000b60000b60000b81526020016000820160029054906101000a900460ff1660ff1660ff1681526020016000820160039054906101000a900460ff1660ff1660ff168152602001600182015481526020016002820154815260200160038201548152602001600482018054612b1a9061471b565b80601f0160208091040260200160405190810160405280929190818152602001828054612b469061471b565b8015612b935780601f10612b6857610100808354040283529160200191612b93565b820191906000526020600020905b815481529060010190602001808311612b7657829003601f168201915b5050505050815260200160058201805480602002602001604051908101604052809291908181526020016000905b82821015612cdf578382906000526020600020016040518060e00160405290816000820160009054906101000a900460ff1660ff1660ff1681526020016000820160019054906101000a900460ff1660ff1660ff1681526020016000820160029054906101000a900460ff1660ff1660ff1681526020016000820160039054906101000a900460ff1660ff1660ff1681526020016000820160049054906101000a900463ffffffff1663ffffffff1663ffffffff1681526020016000820160089054906101000a900460ff166007811115612c9f57612c9e613d85565b5b6007811115612cb157612cb0613d85565b5b81526020016000820160099054906101000a900460ff16151515158152505081526020019060010190612bc1565b5050505081526020016006820160009054906101000a900460ff161515151581525050905060011515816101200151151514612d50576040517f08c379a0000000000000000000000000000000000000000000000000000000008152600401612d4790614799565b60405180910390fd5b612d5b836001613285565b612d69576000915050612dd7565b6000612d7484613455565b90506000600660008681526020019081526020016000206001015443612d9a9190615279565b905060008183612daa919061548b565b90506000612db7876123fe565b905080821115612dce578095505050505050612dd7565b81955050505050505b919050565b612de7816001613285565b612e26576040517f08c379a0000000000000000000000000000000000000000000000000000000008152600401612e1d90615b20565b60405180910390fd5b6000612e3182612a56565b90506000600660008481526020019081526020016000209050600360009054906101000a900473ffffffffffffffffffffffffffffffffffffffff1673ffffffffffffffffffffffffffffffffffffffff1663aa691d0c33846040518363ffffffff1660e01b8152600401612ea7929190615b40565b600060405180830381600087803b158015612ec157600080fd5b505af1158015612ed5573d6000803e3d6000fd5b50505050438160010181905550505050565b612ef2848484611cd6565b612efe84848484613494565b612f3d576040517f08c379a0000000000000000000000000000000000000000000000000000000008152600401612f3490615bdb565b60405180910390fd5b50505050565b606060405180602001604052806000815250905090565b60606000821415612fa2576040518060400160405280600181526020017f300000000000000000000000000000000000000000000000000000000000000081525090506130b6565b600082905060005b60008214612fd4578080612fbd906156ed565b915050600a82612fcd91906152dc565b9150612faa565b60008167ffffffffffffffff811115612ff057612fef6141da565b5b6040519080825280601f01601f1916602001820160405280156130225781602001600182028036833780820191505090505b5090505b600085146130af5760018261303b9190615279565b9150600a8561304a9190615bfb565b60306130569190614bc0565b60f81b81838151811061306c5761306b614d14565b5b60200101907effffffffffffffffffffffffffffffffffffffffffffffffffffffffffffff1916908160001a905350600a856130a891906152dc565b9450613026565b8093505050505b919050565b60007f01ffc9a7000000000000000000000000000000000000000000000000000000007bffffffffffffffffffffffffffffffffffffffffffffffffffffffff1916827bffffffffffffffffffffffffffffffffffffffffffffffffffffffff1916149050919050565b61313083838361362b565b600073ffffffffffffffffffffffffffffffffffffffff168373ffffffffffffffffffffffffffffffffffffffff1614156131735761316e81613630565b6131b2565b8173ffffffffffffffffffffffffffffffffffffffff168373ffffffffffffffffffffffffffffffffffffffff16146131b1576131b08382613679565b5b5b600073ffffffffffffffffffffffffffffffffffffffff168273ffffffffffffffffffffffffffffffffffffffff1614156131f5576131f0816137e6565b613234565b8273ffffffffffffffffffffffffffffffffffffffff168273ffffffffffffffffffffffffffffffffffffffff16146132335761323282826138b7565b5b5b505050565b600080424485856040516020016132539493929190615c83565b6040516020818303038152906040528051906020012060001c90506005548161327c9190615bfb565b91505092915050565b600080600a600085815260200190815260200160002060008460078111156132b0576132af613d85565b5b60078111156132c2576132c1613d85565b5b815260200190815260200160002090508060010160009054906101000a900460ff1691505092915050565b60005b81805490508160ff16101561344f576000828260ff168154811061331757613316614d14565b5b906000526020600020019050600060018260000160029054906101000a900460ff168360000160009054906101000a900460ff16613355919061598d565b61335f9190615cd1565b9050600060018360000160029054906101000a900460ff168460000160019054906101000a900460ff16613393919061598d565b61339d9190615cd1565b90508260000160009054906101000a900460ff1660ff168760ff1610806133c957508160ff168760ff16115b806133ea57508260000160019054906101000a900460ff1660ff168660ff16105b806133fa57508060ff168660ff16115b613439576040517f08c379a000000000000000000000000000000000000000000000000000000000815260040161343090615d51565b60405180910390fd5b505050808061344790615a56565b9150506132f0565b50505050565b600080613463836001613936565b60000160039054906101000a900460ff1660ff16905080666a94d74f43000061348c919061548b565b915050919050565b60006134b58473ffffffffffffffffffffffffffffffffffffffff16613a13565b1561361e578373ffffffffffffffffffffffffffffffffffffffff1663150b7a026134de611b37565b8786866040518563ffffffff1660e01b81526004016135009493929190615dc6565b602060405180830381600087803b15801561351a57600080fd5b505af192505050801561354b57506040513d601f19601f820116820180604052508101906135489190615e27565b60015b6135ce573d806000811461357b576040519150601f19603f3d011682016040523d82523d6000602084013e613580565b606091505b506000815114156135c6576040517f08c379a00000000000000000000000000000000000000000000000000000000081526004016135bd90615bdb565b60405180910390fd5b805181602001fd5b63150b7a0260e01b7bffffffffffffffffffffffffffffffffffffffffffffffffffffffff1916817bffffffffffffffffffffffffffffffffffffffffffffffffffffffff191614915050613623565b600190505b949350505050565b505050565b6013805490506014600083815260200190815260200160002081905550601381908060018154018082558091505060019003906000526020600020016000909190919091505550565b6000600161368684611142565b6136909190615279565b9050600060126000848152602001908152602001600020549050818114613775576000601160008673ffffffffffffffffffffffffffffffffffffffff1673ffffffffffffffffffffffffffffffffffffffff168152602001908152602001600020600084815260200190815260200160002054905080601160008773ffffffffffffffffffffffffffffffffffffffff1673ffffffffffffffffffffffffffffffffffffffff168152602001908152602001600020600084815260200190815260200160002081905550816012600083815260200190815260200160002081905550505b6012600084815260200190815260200160002060009055601160008573ffffffffffffffffffffffffffffffffffffffff1673ffffffffffffffffffffffffffffffffffffffff16815260200190815260200160002060008381526020019081526020016000206000905550505050565b600060016013805490506137fa9190615279565b905060006014600084815260200190815260200160002054905060006013838154811061382a57613829614d14565b5b90600052602060002001549050806013838154811061384c5761384b614d14565b5b90600052602060002001819055508160146000838152602001908152602001600020819055506014600085815260200190815260200160002060009055601380548061389b5761389a615e54565b5b6001900381819060005260206000200160009055905550505050565b60006138c283611142565b905081601160008573ffffffffffffffffffffffffffffffffffffffff1673ffffffffffffffffffffffffffffffffffffffff168152602001908152602001600020600083815260200190815260200160002081905550806012600084815260200190815260200160002081905550505050565b600080600a6000858152602001908152602001600020600084600781111561396157613960613d85565b5b600781111561397357613972613d85565b5b815260200190815260200160002090508060010160009054906101000a900460ff166139d4576040517f08c379a00000000000000000000000000000000000000000000000000000000081526004016139cb90615ecf565b60405180910390fd5b60066000858152602001908152602001600020600501816000015481548110613a00576139ff614d14565b5b9060005260206000200191505092915050565b600080823b905060008111915050919050565b6040518061014001604052806000800b81526020016000800b8152602001600060ff168152602001600060ff16815260200160008152602001600081526020016000815260200160608152602001606081526020016000151581525090565b828054613a919061471b565b90600052602060002090601f016020900481019282613ab35760008555613afa565b82601f10613acc57805160ff1916838001178555613afa565b82800160010185558215613afa579182015b82811115613af9578251825591602001919060010190613ade565b5b509050613b079190613b0b565b5090565b5b80821115613b24576000816000905550600101613b0c565b5090565b6000604051905090565b600080fd5b600080fd5b60007fffffffff0000000000000000000000000000000000000000000000000000000082169050919050565b613b7181613b3c565b8114613b7c57600080fd5b50565b600081359050613b8e81613b68565b92915050565b600060208284031215613baa57613ba9613b32565b5b6000613bb884828501613b7f565b91505092915050565b60008115159050919050565b613bd681613bc1565b82525050565b6000602082019050613bf16000830184613bcd565b92915050565b6000819050919050565b613c0a81613bf7565b8114613c1557600080fd5b50565b600081359050613c2781613c01565b92915050565b600060208284031215613c4357613c42613b32565b5b6000613c5184828501613c18565b91505092915050565b60008160000b9050919050565b613c7081613c5a565b82525050565b600060ff82169050919050565b613c8c81613c76565b82525050565b613c9b81613bf7565b82525050565b600081519050919050565b600082825260208201905092915050565b60005b83811015613cdb578082015181840152602081019050613cc0565b83811115613cea576000848401525b50505050565b6000601f19601f8301169050919050565b6000613d0c82613ca1565b613d168185613cac565b9350613d26818560208601613cbd565b613d2f81613cf0565b840191505092915050565b600081519050919050565b600082825260208201905092915050565b6000819050602082019050919050565b600063ffffffff82169050919050565b613d7f81613d66565b82525050565b7f4e487b7100000000000000000000000000000000000000000000000000000000600052602160045260246000fd5b60088110613dc557613dc4613d85565b5b50565b6000819050613dd682613db4565b919050565b6000613de682613dc8565b9050919050565b613df681613ddb565b82525050565b613e0581613bc1565b82525050565b60e082016000820151613e216000850182613c83565b506020820151613e346020850182613c83565b506040820151613e476040850182613c83565b506060820151613e5a6060850182613c83565b506080820151613e6d6080850182613d76565b5060a0820151613e8060a0850182613ded565b5060c0820151613e9360c0850182613dfc565b50505050565b6000613ea58383613e0b565b60e08301905092915050565b6000602082019050919050565b6000613ec982613d3a565b613ed38185613d45565b9350613ede83613d56565b8060005b83811015613f0f578151613ef68882613e99565b9750613f0183613eb1565b925050600181019050613ee2565b5085935050505092915050565b600061014083016000830151613f356000860182613c67565b506020830151613f486020860182613c67565b506040830151613f5b6040860182613c83565b506060830151613f6e6060860182613c83565b506080830151613f816080860182613c92565b5060a0830151613f9460a0860182613c92565b5060c0830151613fa760c0860182613c92565b5060e083015184820360e0860152613fbf8282613d01565b915050610100830151848203610100860152613fdb8282613ebe565b915050610120830151613ff2610120860182613dfc565b508091505092915050565b600060208201905081810360008301526140178184613f1c565b905092915050565b600082825260208201905092915050565b600061403b82613ca1565b614045818561401f565b9350614055818560208601613cbd565b61405e81613cf0565b840191505092915050565b600060208201905081810360008301526140838184614030565b905092915050565b600073ffffffffffffffffffffffffffffffffffffffff82169050919050565b60006140b68261408b565b9050919050565b6140c6816140ab565b82525050565b60006020820190506140e160008301846140bd565b92915050565b6140f0816140ab565b81146140fb57600080fd5b50565b60008135905061410d816140e7565b92915050565b6000806040838503121561412a57614129613b32565b5b6000614138858286016140fe565b925050602061414985828601613c18565b9150509250929050565b61415c81613bf7565b82525050565b60006020820190506141776000830184614153565b92915050565b60008060006060848603121561419657614195613b32565b5b60006141a4868287016140fe565b93505060206141b5868287016140fe565b92505060406141c686828701613c18565b9150509250925092565b600080fd5b600080fd5b7f4e487b7100000000000000000000000000000000000000000000000000000000600052604160045260246000fd5b61421282613cf0565b810181811067ffffffffffffffff82111715614231576142306141da565b5b80604052505050565b6000614244613b28565b90506142508282614209565b919050565b600067ffffffffffffffff8211156142705761426f6141da565b5b61427982613cf0565b9050602081019050919050565b82818337600083830152505050565b60006142a86142a384614255565b61423a565b9050828152602081018484840111156142c4576142c36141d5565b5b6142cf848285614286565b509392505050565b600082601f8301126142ec576142eb6141d0565b5b81356142fc848260208601614295565b91505092915050565b61430e81613c5a565b811461431957600080fd5b50565b60008135905061432b81614305565b92915050565b60008060006060848603121561434a57614349613b32565b5b600084013567ffffffffffffffff81111561436857614367613b37565b5b614374868287016142d7565b93505060206143858682870161431c565b92505060406143968682870161431c565b9150509250925092565b6000602082840312156143b6576143b5613b32565b5b60006143c4848285016140fe565b91505092915050565b600080604083850312156143e4576143e3613b32565b5b60006143f28582860161431c565b92505060206144038582860161431c565b9150509250929050565b6008811061441a57600080fd5b50565b60008135905061442c8161440d565b92915050565b61443b81613c76565b811461444657600080fd5b50565b60008135905061445881614432565b92915050565b6000806000806080858703121561447857614477613b32565b5b600061448687828801613c18565b94505060206144978782880161441d565b93505060406144a887828801614449565b92505060606144b987828801614449565b91505092959194509250565b6144ce81613bc1565b81146144d957600080fd5b50565b6000813590506144eb816144c5565b92915050565b6000806040838503121561450857614507613b32565b5b6000614516858286016140fe565b9250506020614527858286016144dc565b9150509250929050565b600067ffffffffffffffff82111561454c5761454b6141da565b5b61455582613cf0565b9050602081019050919050565b600061457561457084614531565b61423a565b905082815260208101848484011115614591576145906141d5565b5b61459c848285614286565b509392505050565b600082601f8301126145b9576145b86141d0565b5b81356145c9848260208601614562565b91505092915050565b600080600080608085870312156145ec576145eb613b32565b5b60006145fa878288016140fe565b945050602061460b878288016140fe565b935050604061461c87828801613c18565b925050606085013567ffffffffffffffff81111561463d5761463c613b37565b5b614649878288016145a4565b91505092959194509250565b60006020828403121561466b5761466a613b32565b5b60006146798482850161441d565b91505092915050565b61468b81613c76565b82525050565b60006020820190506146a66000830184614682565b92915050565b600080604083850312156146c3576146c2613b32565b5b60006146d1858286016140fe565b92505060206146e2858286016140fe565b9150509250929050565b7f4e487b7100000000000000000000000000000000000000000000000000000000600052602260045260246000fd5b6000600282049050600182168061473357607f821691505b60208210811415614747576147466146ec565b5b50919050565b7f76696c6c61676520494420646f6573206e6f7420657869737400000000000000600082015250565b600061478360198361401f565b915061478e8261474d565b602082019050919050565b600060208201905081810360008301526147b281614776565b9050919050565b7f4552433732313a20617070726f76656420717565727920666f72206e6f6e657860008201527f697374656e7420746f6b656e0000000000000000000000000000000000000000602082015250565b6000614815602c8361401f565b9150614820826147b9565b604082019050919050565b6000602082019050818103600083015261484481614808565b9050919050565b7f4f776e61626c653a2063616c6c6572206973206e6f7420746865206f776e6572600082015250565b600061488160208361401f565b915061488c8261484b565b602082019050919050565b600060208201905081810360008301526148b081614874565b9050919050565b7f4e6577206d61702073697a65206d75737420626520626967676572207468616e60008201527f206f6c64206d61702073697a6500000000000000000000000000000000000000602082015250565b6000614913602d8361401f565b915061491e826148b7565b604082019050919050565b6000602082019050818103600083015261494281614906565b9050919050565b7f4552433732313a20617070726f76616c20746f2063757272656e74206f776e6560008201527f7200000000000000000000000000000000000000000000000000000000000000602082015250565b60006149a560218361401f565b91506149b082614949565b604082019050919050565b600060208201905081810360008301526149d481614998565b9050919050565b7f4552433732313a20617070726f76652063616c6c6572206973206e6f74206f7760008201527f6e6572206e6f7220617070726f76656420666f7220616c6c0000000000000000602082015250565b6000614a3760388361401f565b9150614a42826149db565b604082019050919050565b60006020820190508181036000830152614a6681614a2a565b9050919050565b7f4552433732313a207472616e736665722063616c6c6572206973206e6f74206f60008201527f776e6572206e6f7220617070726f766564000000000000000000000000000000602082015250565b6000614ac960318361401f565b9150614ad482614a6d565b604082019050919050565b60006020820190508181036000830152614af881614abc565b9050919050565b7f455243373231456e756d657261626c653a206f776e657220696e646578206f7560008201527f74206f6620626f756e6473000000000000000000000000000000000000000000602082015250565b6000614b5b602b8361401f565b9150614b6682614aff565b604082019050919050565b60006020820190508181036000830152614b8a81614b4e565b9050919050565b7f4e487b7100000000000000000000000000000000000000000000000000000000600052601160045260246000fd5b6000614bcb82613bf7565b9150614bd683613bf7565b9250827fffffffffffffffffffffffffffffffffffffffffffffffffffffffffffffffff03821115614c0b57614c0a614b91565b5b828201905092915050565b7f5061796d656e7420746f6f206c6f770000000000000000000000000000000000600082015250565b6000614c4c600f8361401f565b9150614c5782614c16565b602082019050919050565b60006020820190508181036000830152614c7b81614c3f565b9050919050565b7f455243373231456e756d657261626c653a20676c6f62616c20696e646578206f60008201527f7574206f6620626f756e64730000000000000000000000000000000000000000602082015250565b6000614cde602c8361401f565b9150614ce982614c82565b604082019050919050565b60006020820190508181036000830152614d0d81614cd1565b9050919050565b7f4e487b7100000000000000000000000000000000000000000000000000000000600052603260045260246000fd5b7f4552433732313a206f776e657220717565727920666f72206e6f6e657869737460008201527f656e7420746f6b656e0000000000000000000000000000000000000000000000602082015250565b6000614d9f60298361401f565b9150614daa82614d43565b604082019050919050565b60006020820190508181036000830152614dce81614d92565b9050919050565b7f4552433732313a2062616c616e636520717565727920666f7220746865207a6560008201527f726f206164647265737300000000000000000000000000000000000000000000602082015250565b6000614e31602a8361401f565b9150614e3c82614dd5565b604082019050919050565b60006020820190508181036000830152614e6081614e24565b9050919050565b7f4e6f7420746865206f776e6572206f66207468652076696c6c61676500000000600082015250565b6000614e9d601c8361401f565b9150614ea882614e67565b602082019050919050565b60006020820190508181036000830152614ecc81614e90565b9050919050565b7f4552433732313a20617070726f766520746f2063616c6c657200000000000000600082015250565b6000614f0960198361401f565b9150614f1482614ed3565b602082019050919050565b60006020820190508181036000830152614f3881614efc565b9050919050565b7f4552433732314d657461646174613a2055524920717565727920666f72206e6f60008201527f6e6578697374656e7420746f6b656e0000000000000000000000000000000000602082015250565b6000614f9b602f8361401f565b9150614fa682614f3f565b604082019050919050565b60006020820190508181036000830152614fca81614f8e565b9050919050565b600081905092915050565b6000614fe782613ca1565b614ff18185614fd1565b9350615001818560208601613cbd565b80840191505092915050565b60006150198285614fdc565b91506150258284614fdc565b91508190509392505050565b7f4f776e61626c653a206e6577206f776e657220697320746865207a65726f206160008201527f6464726573730000000000000000000000000000000000000000000000000000602082015250565b600061508d60268361401f565b915061509882615031565b604082019050919050565b600060208201905081810360008301526150bc81615080565b9050919050565b7f4552433732313a206f70657261746f7220717565727920666f72206e6f6e657860008201527f697374656e7420746f6b656e0000000000000000000000000000000000000000602082015250565b600061511f602c8361401f565b915061512a826150c3565b604082019050919050565b6000602082019050818103600083015261514e81615112565b9050919050565b7f4552433732313a207472616e73666572206f6620746f6b656e2074686174206960008201527f73206e6f74206f776e0000000000000000000000000000000000000000000000602082015250565b60006151b160298361401f565b91506151bc82615155565b604082019050919050565b600060208201905081810360008301526151e0816151a4565b9050919050565b7f4552433732313a207472616e7366657220746f20746865207a65726f2061646460008201527f7265737300000000000000000000000000000000000000000000000000000000602082015250565b600061524360248361401f565b915061524e826151e7565b604082019050919050565b6000602082019050818103600083015261527281615236565b9050919050565b600061528482613bf7565b915061528f83613bf7565b9250828210156152a2576152a1614b91565b5b828203905092915050565b7f4e487b7100000000000000000000000000000000000000000000000000000000600052601260045260246000fd5b60006152e782613bf7565b91506152f283613bf7565b925082615302576153016152ad565b5b828204905092915050565b60008160011c9050919050565b6000808291508390505b6001851115615364578086048111156153405761533f614b91565b5b600185161561534f5780820291505b808102905061535d8561530d565b9450615324565b94509492505050565b60008261537d5760019050615439565b8161538b5760009050615439565b81600181146153a157600281146153ab576153da565b6001915050615439565b60ff8411156153bd576153bc614b91565b5b8360020a9150848211156153d4576153d3614b91565b5b50615439565b5060208310610133831016604e8410600b841016171561540f5782820a90508381111561540a57615409614b91565b5b615439565b61541c848484600161531a565b9250905081840481111561543357615432614b91565b5b81810290505b9392505050565b600061544b82613bf7565b915061545683613c76565b92506154837fffffffffffffffffffffffffffffffffffffffffffffffffffffffffffffffff848461536d565b905092915050565b600061549682613bf7565b91506154a183613bf7565b9250817fffffffffffffffffffffffffffffffffffffffffffffffffffffffffffffffff04831182151516156154da576154d9614b91565b5b828202905092915050565b6000819050919050565b60006154fa826154e5565b9150615505836154e5565b9250827f8000000000000000000000000000000000000000000000000000000000000000018212600084121516156155405761553f614b91565b5b827f7fffffffffffffffffffffffffffffffffffffffffffffffffffffffffffffff01821360008412161561557857615577614b91565b5b828203905092915050565b7f7820636f6f7264696e617465206f7574206f6620626f756e6473000000000000600082015250565b60006155b9601a8361401f565b91506155c482615583565b602082019050919050565b600060208201905081810360008301526155e8816155ac565b9050919050565b7f7920636f6f7264696e617465206f7574206f6620626f756e6473000000000000600082015250565b6000615625601a8361401f565b9150615630826155ef565b602082019050919050565b6000602082019050818103600083015261565481615618565b9050919050565b7f76696c6c61676520616c7265616479206578697374732061742074686573652060008201527f636f6f7264696e61746573000000000000000000000000000000000000000000602082015250565b60006156b7602b8361401f565b91506156c28261565b565b604082019050919050565b600060208201905081810360008301526156e6816156aa565b9050919050565b60006156f882613bf7565b91507fffffffffffffffffffffffffffffffffffffffffffffffffffffffffffffffff82141561572b5761572a614b91565b5b600182019050919050565b61573f81613c5a565b82525050565b600060808201905061575a6000830187614153565b818103602083015261576c8186614030565b905061577b6040830185615736565b6157886060830184615736565b95945050505050565b7f4552433732313a206d696e7420746f20746865207a65726f2061646472657373600082015250565b60006157c760208361401f565b91506157d282615791565b602082019050919050565b600060208201905081810360008301526157f6816157ba565b9050919050565b7f4552433732313a20746f6b656e20616c7265616479206d696e74656400000000600082015250565b6000615833601c8361401f565b915061583e826157fd565b602082019050919050565b6000602082019050818103600083015261586281615826565b9050919050565b7f546869732074797065206f66206275696c64696e672068617320616c7265616460008201527f79206265656e206275696c740000000000000000000000000000000000000000602082015250565b60006158c5602c8361401f565b91506158d082615869565b604082019050919050565b600060208201905081810360008301526158f4816158b8565b9050919050565b7f4572726f722c20696e76616c6964206275696c64696e672073697a652e20436860008201527f65636b206275696c64696e67207479706520706172616d657465722e00000000602082015250565b6000615957603c8361401f565b9150615962826158fb565b604082019050919050565b600060208201905081810360008301526159868161594a565b9050919050565b600061599882613c76565b91506159a383613c76565b92508260ff038211156159b9576159b8614b91565b5b828201905092915050565b7f4e657720706c6163656d656e74206f7574206f6620626f756e647320666f722060008201527f76696c6c6167652073697a650000000000000000000000000000000000000000602082015250565b6000615a20602c8361401f565b9150615a2b826159c4565b604082019050919050565b60006020820190508181036000830152615a4f81615a13565b9050919050565b6000615a6182613c76565b915060ff821415615a7557615a74614b91565b5b600182019050919050565b615a8981613ddb565b82525050565b6000608082019050615aa46000830187614153565b615ab16020830186615a80565b615abe6040830185614682565b615acb6060830184614682565b95945050505050565b7f4d696e65206e6f7420796574206275696c740000000000000000000000000000600082015250565b6000615b0a60128361401f565b9150615b1582615ad4565b602082019050919050565b60006020820190508181036000830152615b3981615afd565b9050919050565b6000604082019050615b5560008301856140bd565b615b626020830184614153565b9392505050565b7f4552433732313a207472616e7366657220746f206e6f6e20455243373231526560008201527f63656976657220696d706c656d656e7465720000000000000000000000000000602082015250565b6000615bc560328361401f565b9150615bd082615b69565b604082019050919050565b60006020820190508181036000830152615bf481615bb8565b9050919050565b6000615c0682613bf7565b9150615c1183613bf7565b925082615c2157615c206152ad565b5b828206905092915050565b6000819050919050565b615c47615c4282613bf7565b615c2c565b82525050565b60008160f81b9050919050565b6000615c6582615c4d565b9050919050565b615c7d615c7882613c5a565b615c5a565b82525050565b6000615c8f8287615c36565b602082019150615c9f8286615c36565b602082019150615caf8285615c6c565b600182019150615cbf8284615c6c565b60018201915081905095945050505050565b6000615cdc82613c76565b9150615ce783613c76565b925082821015615cfa57615cf9614b91565b5b828203905092915050565b7f436c61736865732077697468206578697374696e67206275696c64696e670000600082015250565b6000615d3b601e8361401f565b9150615d4682615d05565b602082019050919050565b60006020820190508181036000830152615d6a81615d2e565b9050919050565b600081519050919050565b600082825260208201905092915050565b6000615d9882615d71565b615da28185615d7c565b9350615db2818560208601613cbd565b615dbb81613cf0565b840191505092915050565b6000608082019050615ddb60008301876140bd565b615de860208301866140bd565b615df56040830185614153565b8181036060830152615e078184615d8d565b905095945050505050565b600081519050615e2181613b68565b92915050565b600060208284031215615e3d57615e3c613b32565b5b6000615e4b84828501615e12565b91505092915050565b7f4e487b7100000000000000000000000000000000000000000000000000000000600052603160045260246000fd5b7f4275696c64696e67206e6f7420796574206275696c7421000000000000000000600082015250565b6000615eb960178361401f565b9150615ec482615e83565b602082019050919050565b60006020820190508181036000830152615ee881615eac565b905091905056fea264697066735822122016fe4853e1ca8ac144f4834d11dae813a3652225657e128138e1638f2db0af4e64736f6c63430008090033",
  "linkReferences": {},
  "deployedLinkReferences": {}
}