{
  "_format": "hh-sol-artifact-1",
  "contractName": "VillageNft",
  "sourceName": "contracts/VillageNft.sol",
  "abi": [
    {
      "inputs": [],
      "stateMutability": "nonpayable",
      "type": "constructor"
    },
    {
      "anonymous": false,
      "inputs": [
        {
          "indexed": true,
          "internalType": "address",
          "name": "owner",
          "type": "address"
        },
        {
          "indexed": true,
          "internalType": "address",
          "name": "approved",
          "type": "address"
        },
        {
          "indexed": true,
          "internalType": "uint256",
          "name": "tokenId",
          "type": "uint256"
        }
      ],
      "name": "Approval",
      "type": "event"
    },
    {
      "anonymous": false,
      "inputs": [
        {
          "indexed": true,
          "internalType": "address",
          "name": "owner",
          "type": "address"
        },
        {
          "indexed": true,
          "internalType": "address",
          "name": "operator",
          "type": "address"
        },
        {
          "indexed": false,
          "internalType": "bool",
          "name": "approved",
          "type": "bool"
        }
      ],
      "name": "ApprovalForAll",
      "type": "event"
    },
    {
      "anonymous": false,
      "inputs": [
        {
          "indexed": false,
          "internalType": "uint256",
          "name": "villageId",
          "type": "uint256"
        },
        {
          "indexed": false,
          "internalType": "enum VillageGame.BuildingTypes",
          "name": "buildingType",
          "type": "uint8"
        },
        {
          "indexed": false,
          "internalType": "uint8",
          "name": "_x",
          "type": "uint8"
        },
        {
          "indexed": false,
          "internalType": "uint8",
          "name": "_y",
          "type": "uint8"
        }
      ],
      "name": "NewBuilding",
      "type": "event"
    },
    {
      "anonymous": false,
      "inputs": [
        {
          "indexed": false,
          "internalType": "uint256",
          "name": "villageId",
          "type": "uint256"
        },
        {
          "indexed": false,
          "internalType": "string",
          "name": "name",
          "type": "string"
        },
        {
          "indexed": false,
          "internalType": "int8",
          "name": "_x",
          "type": "int8"
        },
        {
          "indexed": false,
          "internalType": "int8",
          "name": "_y",
          "type": "int8"
        }
      ],
      "name": "NewVillage",
      "type": "event"
    },
    {
      "anonymous": false,
      "inputs": [
        {
          "indexed": true,
          "internalType": "address",
          "name": "previousOwner",
          "type": "address"
        },
        {
          "indexed": true,
          "internalType": "address",
          "name": "newOwner",
          "type": "address"
        }
      ],
      "name": "OwnershipTransferred",
      "type": "event"
    },
    {
      "anonymous": false,
      "inputs": [
        {
          "indexed": true,
          "internalType": "address",
          "name": "from",
          "type": "address"
        },
        {
          "indexed": true,
          "internalType": "address",
          "name": "to",
          "type": "address"
        },
        {
          "indexed": true,
          "internalType": "uint256",
          "name": "tokenId",
          "type": "uint256"
        }
      ],
      "name": "Transfer",
      "type": "event"
    },
    {
      "inputs": [
        {
          "internalType": "address",
          "name": "to",
          "type": "address"
        },
        {
          "internalType": "uint256",
          "name": "tokenId",
          "type": "uint256"
        }
      ],
      "name": "approve",
      "outputs": [],
      "stateMutability": "nonpayable",
      "type": "function"
    },
    {
      "inputs": [
        {
          "internalType": "address",
          "name": "owner",
          "type": "address"
        }
      ],
      "name": "balanceOf",
      "outputs": [
        {
          "internalType": "uint256",
          "name": "",
          "type": "uint256"
        }
      ],
      "stateMutability": "view",
      "type": "function"
    },
    {
      "inputs": [
        {
          "internalType": "enum VillageGame.BuildingTypes",
          "name": "",
          "type": "uint8"
        }
      ],
      "name": "buildingSizes",
      "outputs": [
        {
          "internalType": "uint8",
          "name": "",
          "type": "uint8"
        }
      ],
      "stateMutability": "view",
      "type": "function"
    },
    {
      "inputs": [
        {
          "internalType": "string",
          "name": "_name",
          "type": "string"
        },
        {
          "internalType": "int8",
          "name": "_x",
          "type": "int8"
        },
        {
          "internalType": "int8",
          "name": "_y",
          "type": "int8"
        }
      ],
      "name": "createVillage",
      "outputs": [
        {
          "internalType": "uint256",
          "name": "villageId",
          "type": "uint256"
        }
      ],
      "stateMutability": "nonpayable",
      "type": "function"
    },
    {
      "inputs": [
        {
          "internalType": "uint256",
          "name": "tokenId",
          "type": "uint256"
        }
      ],
      "name": "getApproved",
      "outputs": [
        {
          "internalType": "address",
          "name": "",
          "type": "address"
        }
      ],
      "stateMutability": "view",
      "type": "function"
    },
    {
      "inputs": [
        {
          "internalType": "uint256",
          "name": "_villageId",
          "type": "uint256"
        }
      ],
      "name": "getVillage",
      "outputs": [
        {
          "components": [
            {
              "internalType": "int8",
              "name": "x",
              "type": "int8"
            },
            {
              "internalType": "int8",
              "name": "y",
              "type": "int8"
            },
            {
              "internalType": "uint8",
              "name": "size",
              "type": "uint8"
            },
            {
              "internalType": "uint8",
              "name": "baseGoldRate",
              "type": "uint8"
            },
            {
              "internalType": "uint32",
              "name": "readyToMineTime",
              "type": "uint32"
            },
            {
              "internalType": "uint256",
              "name": "id",
              "type": "uint256"
            },
            {
              "internalType": "uint256",
              "name": "stats",
              "type": "uint256"
            },
            {
              "internalType": "string",
              "name": "name",
              "type": "string"
            },
            {
              "components": [
                {
                  "internalType": "uint8",
                  "name": "x",
                  "type": "uint8"
                },
                {
                  "internalType": "uint8",
                  "name": "y",
                  "type": "uint8"
                },
                {
                  "internalType": "uint8",
                  "name": "size",
                  "type": "uint8"
                },
                {
                  "internalType": "uint8",
                  "name": "level",
                  "type": "uint8"
                },
                {
                  "internalType": "uint32",
                  "name": "upgradeCompleteTime",
                  "type": "uint32"
                },
                {
                  "internalType": "enum VillageGame.BuildingTypes",
                  "name": "buildingType",
                  "type": "uint8"
                }
              ],
              "internalType": "struct VillageGame.BuildingPlacement[]",
              "name": "buildings",
              "type": "tuple[]"
            },
            {
              "internalType": "bool",
              "name": "exists",
              "type": "bool"
            }
          ],
          "internalType": "struct VillageGame.Village",
          "name": "village",
          "type": "tuple"
        }
      ],
      "stateMutability": "view",
      "type": "function"
    },
    {
      "inputs": [
        {
          "internalType": "address",
          "name": "owner",
          "type": "address"
        },
        {
          "internalType": "address",
          "name": "operator",
          "type": "address"
        }
      ],
      "name": "isApprovedForAll",
      "outputs": [
        {
          "internalType": "bool",
          "name": "",
          "type": "bool"
        }
      ],
      "stateMutability": "view",
      "type": "function"
    },
    {
      "inputs": [
        {
          "internalType": "uint256",
          "name": "_villageId",
          "type": "uint256"
        }
      ],
      "name": "mineGold",
      "outputs": [],
      "stateMutability": "nonpayable",
      "type": "function"
    },
    {
      "inputs": [],
      "name": "name",
      "outputs": [
        {
          "internalType": "string",
          "name": "",
          "type": "string"
        }
      ],
      "stateMutability": "view",
      "type": "function"
    },
    {
      "inputs": [],
      "name": "owner",
      "outputs": [
        {
          "internalType": "address",
          "name": "",
          "type": "address"
        }
      ],
      "stateMutability": "view",
      "type": "function"
    },
    {
      "inputs": [
        {
          "internalType": "uint256",
          "name": "tokenId",
          "type": "uint256"
        }
      ],
      "name": "ownerOf",
      "outputs": [
        {
          "internalType": "address",
          "name": "",
          "type": "address"
        }
      ],
      "stateMutability": "view",
      "type": "function"
    },
    {
      "inputs": [
        {
          "internalType": "uint256",
          "name": "_villageId",
          "type": "uint256"
        },
        {
          "internalType": "enum VillageGame.BuildingTypes",
          "name": "_buildingType",
          "type": "uint8"
        },
        {
          "internalType": "uint8",
          "name": "_x",
          "type": "uint8"
        },
        {
          "internalType": "uint8",
          "name": "_y",
          "type": "uint8"
        }
      ],
      "name": "placeBuilding",
      "outputs": [],
      "stateMutability": "nonpayable",
      "type": "function"
    },
    {
      "inputs": [],
      "name": "renounceOwnership",
      "outputs": [],
      "stateMutability": "nonpayable",
      "type": "function"
    },
    {
      "inputs": [
        {
          "internalType": "address",
          "name": "from",
          "type": "address"
        },
        {
          "internalType": "address",
          "name": "to",
          "type": "address"
        },
        {
          "internalType": "uint256",
          "name": "tokenId",
          "type": "uint256"
        }
      ],
      "name": "safeTransferFrom",
      "outputs": [],
      "stateMutability": "nonpayable",
      "type": "function"
    },
    {
      "inputs": [
        {
          "internalType": "address",
          "name": "from",
          "type": "address"
        },
        {
          "internalType": "address",
          "name": "to",
          "type": "address"
        },
        {
          "internalType": "uint256",
          "name": "tokenId",
          "type": "uint256"
        },
        {
          "internalType": "bytes",
          "name": "_data",
          "type": "bytes"
        }
      ],
      "name": "safeTransferFrom",
      "outputs": [],
      "stateMutability": "nonpayable",
      "type": "function"
    },
    {
      "inputs": [
        {
          "internalType": "address",
          "name": "operator",
          "type": "address"
        },
        {
          "internalType": "bool",
          "name": "approved",
          "type": "bool"
        }
      ],
      "name": "setApprovalForAll",
      "outputs": [],
      "stateMutability": "nonpayable",
      "type": "function"
    },
    {
      "inputs": [
        {
          "internalType": "uint256",
          "name": "_mapSize",
          "type": "uint256"
        }
      ],
      "name": "setMapSize",
      "outputs": [],
      "stateMutability": "nonpayable",
      "type": "function"
    },
    {
      "inputs": [
        {
          "internalType": "address",
          "name": "_contractAddress",
          "type": "address"
        }
      ],
      "name": "setVillageGoldContract",
      "outputs": [],
      "stateMutability": "nonpayable",
      "type": "function"
    },
    {
      "inputs": [
        {
          "internalType": "bytes4",
          "name": "interfaceId",
          "type": "bytes4"
        }
      ],
      "name": "supportsInterface",
      "outputs": [
        {
          "internalType": "bool",
          "name": "",
          "type": "bool"
        }
      ],
      "stateMutability": "view",
      "type": "function"
    },
    {
      "inputs": [],
      "name": "symbol",
      "outputs": [
        {
          "internalType": "string",
          "name": "",
          "type": "string"
        }
      ],
      "stateMutability": "view",
      "type": "function"
    },
    {
      "inputs": [
        {
          "internalType": "uint256",
          "name": "index",
          "type": "uint256"
        }
      ],
      "name": "tokenByIndex",
      "outputs": [
        {
          "internalType": "uint256",
          "name": "",
          "type": "uint256"
        }
      ],
      "stateMutability": "view",
      "type": "function"
    },
    {
      "inputs": [
        {
          "internalType": "address",
          "name": "owner",
          "type": "address"
        },
        {
          "internalType": "uint256",
          "name": "index",
          "type": "uint256"
        }
      ],
      "name": "tokenOfOwnerByIndex",
      "outputs": [
        {
          "internalType": "uint256",
          "name": "",
          "type": "uint256"
        }
      ],
      "stateMutability": "view",
      "type": "function"
    },
    {
      "inputs": [
        {
          "internalType": "uint256",
          "name": "tokenId",
          "type": "uint256"
        }
      ],
      "name": "tokenURI",
      "outputs": [
        {
          "internalType": "string",
          "name": "",
          "type": "string"
        }
      ],
      "stateMutability": "view",
      "type": "function"
    },
    {
      "inputs": [],
      "name": "totalSupply",
      "outputs": [
        {
          "internalType": "uint256",
          "name": "",
          "type": "uint256"
        }
      ],
      "stateMutability": "view",
      "type": "function"
    },
    {
      "inputs": [
        {
          "internalType": "address",
          "name": "from",
          "type": "address"
        },
        {
          "internalType": "address",
          "name": "to",
          "type": "address"
        },
        {
          "internalType": "uint256",
          "name": "tokenId",
          "type": "uint256"
        }
      ],
      "name": "transferFrom",
      "outputs": [],
      "stateMutability": "nonpayable",
      "type": "function"
    },
    {
      "inputs": [
        {
          "internalType": "address",
          "name": "newOwner",
          "type": "address"
        }
      ],
      "name": "transferOwnership",
      "outputs": [],
      "stateMutability": "nonpayable",
      "type": "function"
    },
    {
      "inputs": [
        {
          "internalType": "int8",
          "name": "",
          "type": "int8"
        },
        {
          "internalType": "int8",
          "name": "",
          "type": "int8"
        }
      ],
      "name": "villageMap",
      "outputs": [
        {
          "internalType": "uint256",
          "name": "",
          "type": "uint256"
        }
      ],
      "stateMutability": "view",
      "type": "function"
    }
  ],
  "bytecode": "0x60806040526010600355600354600a6200001a91906200072b565b600455606460075560016008553480156200003457600080fd5b506040518060400160405280600881526020017f47616d654c616e640000000000000000000000000000000000000000000000008152506040518060400160405280600381526020017f4c4e440000000000000000000000000000000000000000000000000000000000815250620000c1620000b56200055460201b60201c565b6200055c60201b60201c565b60036001600080600681111562000101577f4e487b7100000000000000000000000000000000000000000000000000000000600052602160045260246000fd5b60068111156200013a577f4e487b7100000000000000000000000000000000000000000000000000000000600052602160045260246000fd5b815260200190815260200160002060006101000a81548160ff021916908360ff160217905550600180600060016006811115620001a0577f4e487b7100000000000000000000000000000000000000000000000000000000600052602160045260246000fd5b6006811115620001d9577f4e487b7100000000000000000000000000000000000000000000000000000000600052602160045260246000fd5b815260200190815260200160002060006101000a81548160ff021916908360ff1602179055506000600160006002600681111562000240577f4e487b7100000000000000000000000000000000000000000000000000000000600052602160045260246000fd5b600681111562000279577f4e487b7100000000000000000000000000000000000000000000000000000000600052602160045260246000fd5b815260200190815260200160002060006101000a81548160ff021916908360ff160217905550600180600060036006811115620002df577f4e487b7100000000000000000000000000000000000000000000000000000000600052602160045260246000fd5b600681111562000318577f4e487b7100000000000000000000000000000000000000000000000000000000600052602160045260246000fd5b815260200190815260200160002060006101000a81548160ff021916908360ff1602179055506001806000600460068111156200037e577f4e487b7100000000000000000000000000000000000000000000000000000000600052602160045260246000fd5b6006811115620003b7577f4e487b7100000000000000000000000000000000000000000000000000000000600052602160045260246000fd5b815260200190815260200160002060006101000a81548160ff021916908360ff1602179055506001806000600560068111156200041d577f4e487b7100000000000000000000000000000000000000000000000000000000600052602160045260246000fd5b600681111562000456577f4e487b7100000000000000000000000000000000000000000000000000000000600052602160045260246000fd5b815260200190815260200160002060006101000a81548160ff021916908360ff1602179055506001806000600680811115620004bb577f4e487b7100000000000000000000000000000000000000000000000000000000600052602160045260246000fd5b6006811115620004f4577f4e487b7100000000000000000000000000000000000000000000000000000000600052602160045260246000fd5b815260200190815260200160002060006101000a81548160ff021916908360ff16021790555081600a90805190602001906200053292919062000620565b5080600b90805190602001906200054b92919062000620565b50505062000913565b600033905090565b60008060009054906101000a900473ffffffffffffffffffffffffffffffffffffffff169050816000806101000a81548173ffffffffffffffffffffffffffffffffffffffff021916908373ffffffffffffffffffffffffffffffffffffffff1602179055508173ffffffffffffffffffffffffffffffffffffffff168173ffffffffffffffffffffffffffffffffffffffff167f8be0079c531659141344cd1fd0a4f28419497f9722a3daafe3b4186f6b6457e060405160405180910390a35050565b8280546200062e9062000872565b90600052602060002090601f0160209004810192826200065257600085556200069e565b82601f106200066d57805160ff19168380011785556200069e565b828001600101855582156200069e579182015b828111156200069d57825182559160200191906001019062000680565b5b509050620006ad9190620006b1565b5090565b5b80821115620006cc576000816000905550600101620006b2565b5090565b6000808291508390505b60018511156200072257808604811115620006fa57620006f9620008a8565b5b60018516156200070a5780820291505b80810290506200071a8562000906565b9450620006da565b94509492505050565b6000620007388262000868565b9150620007458362000868565b9250620007747fffffffffffffffffffffffffffffffffffffffffffffffffffffffffffffffff84846200077c565b905092915050565b6000826200078e576001905062000861565b816200079e576000905062000861565b8160018114620007b75760028114620007c257620007f8565b600191505062000861565b60ff841115620007d757620007d6620008a8565b5b8360020a915084821115620007f157620007f0620008a8565b5b5062000861565b5060208310610133831016604e8410600b8410161715620008325782820a9050838111156200082c576200082b620008a8565b5b62000861565b620008418484846001620006d0565b925090508184048111156200085b576200085a620008a8565b5b81810290505b9392505050565b6000819050919050565b600060028204905060018216806200088b57607f821691505b60208210811415620008a257620008a1620008d7565b5b50919050565b7f4e487b7100000000000000000000000000000000000000000000000000000000600052601160045260246000fd5b7f4e487b7100000000000000000000000000000000000000000000000000000000600052602260045260246000fd5b60008160011c9050919050565b61537680620009236000396000f3fe608060405234801561001057600080fd5b50600436106101a95760003560e01c806370a08231116100f9578063a22cb46511610097578063c87b56dd11610071578063c87b56dd146104dc578063e5e59e431461050c578063e985e9c51461053c578063f2fde38b1461056c576101a9565b8063a22cb46514610488578063accb793d146104a4578063b88d4fde146104c0576101a9565b80637dabb1f3116100d35780637dabb1f3146104145780638da5cb5b1461043057806395d89b411461044e578063981e148a1461046c576101a9565b806370a08231146103aa578063715018a6146103da5780637d14a047146103e4576101a9565b806318160ddd116101665780634213edf2116101405780634213edf2146102fe57806342842e0e1461032e5780634f6ccce71461034a5780636352211e1461037a576101a9565b806318160ddd1461029457806323b872dd146102b25780632f745c59146102ce576101a9565b806301ffc9a7146101ae5780630234f916146101de57806306fdde031461020e578063081812fc1461022c5780630838409a1461025c578063095ea7b314610278575b600080fd5b6101c860048036038101906101c391906136ae565b610588565b6040516101d59190614095565b60405180910390f35b6101f860048036038101906101f391906137cc565b610602565b6040516102059190614452565b60405180910390f35b610216610953565b60405161022391906140b0565b60405180910390f35b610246600480360381019061024191906137cc565b6109e5565b604051610253919061402e565b60405180910390f35b610276600480360381019061027191906137cc565b610a6a565b005b610292600480360381019061028d9190613672565b610b34565b005b61029c610c4c565b6040516102a99190614474565b60405180910390f35b6102cc60048036038101906102c7919061356c565b610c59565b005b6102e860048036038101906102e39190613672565b610cb9565b6040516102f59190614474565b60405180910390f35b61031860048036038101906103139190613765565b610d5e565b6040516103259190614474565b60405180910390f35b6103486004803603810190610343919061356c565b610d7e565b005b610364600480360381019061035f91906137cc565b610d9e565b6040516103719190614474565b60405180910390f35b610394600480360381019061038f91906137cc565b610e35565b6040516103a1919061402e565b60405180910390f35b6103c460048036038101906103bf9190613507565b610ee7565b6040516103d19190614474565b60405180910390f35b6103e2610f9f565b005b6103fe60048036038101906103f99190613729565b611027565b60405161040b9190614474565b60405180910390f35b61042e600480360381019061042991906137f5565b61104c565b005b6104386110d6565b604051610445919061402e565b60405180910390f35b6104566110ff565b60405161046391906140b0565b60405180910390f35b610486600480360381019061048191906137cc565b611191565b005b6104a2600480360381019061049d9190613636565b611215565b005b6104be60048036038101906104b99190613507565b611396565b005b6104da60048036038101906104d591906135bb565b611456565b005b6104f660048036038101906104f191906137cc565b6114b8565b60405161050391906140b0565b60405180910390f35b61052660048036038101906105219190613700565b61155f565b6040516105339190614520565b60405180910390f35b61055660048036038101906105519190613530565b61157f565b6040516105639190614095565b60405180910390f35b61058660048036038101906105819190613507565b611613565b005b60007f780e9d63000000000000000000000000000000000000000000000000000000007bffffffffffffffffffffffffffffffffffffffffffffffffffffffff1916827bffffffffffffffffffffffffffffffffffffffffffffffffffffffff191614806105fb57506105fa8261170b565b5b9050919050565b61060a613287565b60056000838152602001908152602001600020604051806101400160405290816000820160009054906101000a900460000b60000b60000b81526020016000820160019054906101000a900460000b60000b60000b81526020016000820160029054906101000a900460ff1660ff1660ff1681526020016000820160039054906101000a900460ff1660ff1660ff1681526020016000820160049054906101000a900463ffffffff1663ffffffff1663ffffffff16815260200160018201548152602001600282015481526020016003820180546106e790614918565b80601f016020809104026020016040519081016040528092919081815260200182805461071390614918565b80156107605780601f1061073557610100808354040283529160200191610760565b820191906000526020600020905b81548152906001019060200180831161074357829003601f168201915b5050505050815260200160048201805480602002602001604051908101604052809291908181526020016000905b828210156108dd578382906000526020600020016040518060c00160405290816000820160009054906101000a900460ff1660ff1660ff1681526020016000820160019054906101000a900460ff1660ff1660ff1681526020016000820160029054906101000a900460ff1660ff1660ff1681526020016000820160039054906101000a900460ff1660ff1660ff1681526020016000820160049054906101000a900463ffffffff1663ffffffff1663ffffffff1681526020016000820160089054906101000a900460ff166006811115610892577f4e487b7100000000000000000000000000000000000000000000000000000000600052602160045260246000fd5b60068111156108ca577f4e487b7100000000000000000000000000000000000000000000000000000000600052602160045260246000fd5b815250508152602001906001019061078e565b5050505081526020016005820160009054906101000a900460ff16151515158152505090506001151581610120015115151461094e576040517f08c379a000000000000000000000000000000000000000000000000000000000815260040161094590614272565b60405180910390fd5b919050565b6060600a805461096290614918565b80601f016020809104026020016040519081016040528092919081815260200182805461098e90614918565b80156109db5780601f106109b0576101008083540402835291602001916109db565b820191906000526020600020905b8154815290600101906020018083116109be57829003601f168201915b5050505050905090565b60006109f0826117ed565b610a2f576040517f08c379a0000000000000000000000000000000000000000000000000000000008152600401610a2690614292565b60405180910390fd5b600e600083815260200190815260200160002060009054906101000a900473ffffffffffffffffffffffffffffffffffffffff169050919050565b610a72611859565b73ffffffffffffffffffffffffffffffffffffffff16610a906110d6565b73ffffffffffffffffffffffffffffffffffffffff1614610ae6576040517f08c379a0000000000000000000000000000000000000000000000000000000008152600401610add906142d2565b60405180910390fd5b6007548111610b2a576040517f08c379a0000000000000000000000000000000000000000000000000000000008152600401610b2190614392565b60405180910390fd5b8060078190555050565b6000610b3f82610e35565b90508073ffffffffffffffffffffffffffffffffffffffff168373ffffffffffffffffffffffffffffffffffffffff161415610bb0576040517f08c379a0000000000000000000000000000000000000000000000000000000008152600401610ba790614372565b60405180910390fd5b8073ffffffffffffffffffffffffffffffffffffffff16610bcf611859565b73ffffffffffffffffffffffffffffffffffffffff161480610bfe5750610bfd81610bf8611859565b61157f565b5b610c3d576040517f08c379a0000000000000000000000000000000000000000000000000000000008152600401610c34906141f2565b60405180910390fd5b610c478383611861565b505050565b6000601280549050905090565b610c6a610c64611859565b8261191a565b610ca9576040517f08c379a0000000000000000000000000000000000000000000000000000000008152600401610ca0906143b2565b60405180910390fd5b610cb48383836119f8565b505050565b6000610cc483610ee7565b8210610d05576040517f08c379a0000000000000000000000000000000000000000000000000000000008152600401610cfc906140d2565b60405180910390fd5b601060008473ffffffffffffffffffffffffffffffffffffffff1673ffffffffffffffffffffffffffffffffffffffff168152602001908152602001600020600083815260200190815260200160002054905092915050565b6000610d6b848484611c54565b9050610d773382611f2d565b9392505050565b610d9983838360405180602001604052806000815250611456565b505050565b6000610da8610c4c565b8210610de9576040517f08c379a0000000000000000000000000000000000000000000000000000000008152600401610de0906143d2565b60405180910390fd5b60128281548110610e23577f4e487b7100000000000000000000000000000000000000000000000000000000600052603260045260246000fd5b90600052602060002001549050919050565b600080600c600084815260200190815260200160002060009054906101000a900473ffffffffffffffffffffffffffffffffffffffff169050600073ffffffffffffffffffffffffffffffffffffffff168173ffffffffffffffffffffffffffffffffffffffff161415610ede576040517f08c379a0000000000000000000000000000000000000000000000000000000008152600401610ed590614232565b60405180910390fd5b80915050919050565b60008073ffffffffffffffffffffffffffffffffffffffff168273ffffffffffffffffffffffffffffffffffffffff161415610f58576040517f08c379a0000000000000000000000000000000000000000000000000000000008152600401610f4f90614212565b60405180910390fd5b600d60008373ffffffffffffffffffffffffffffffffffffffff1673ffffffffffffffffffffffffffffffffffffffff168152602001908152602001600020549050919050565b610fa7611859565b73ffffffffffffffffffffffffffffffffffffffff16610fc56110d6565b73ffffffffffffffffffffffffffffffffffffffff161461101b576040517f08c379a0000000000000000000000000000000000000000000000000000000008152600401611012906142d2565b60405180910390fd5b61102560006120fb565b565b6006602052816000526040600020602052806000526040600020600091509150505481565b833373ffffffffffffffffffffffffffffffffffffffff1661106d82610e35565b73ffffffffffffffffffffffffffffffffffffffff16146110c3576040517f08c379a00000000000000000000000000000000000000000000000000000000081526004016110ba90614312565b60405180910390fd5b6110cf858585856121bf565b5050505050565b60008060009054906101000a900473ffffffffffffffffffffffffffffffffffffffff16905090565b6060600b805461110e90614918565b80601f016020809104026020016040519081016040528092919081815260200182805461113a90614918565b80156111875780601f1061115c57610100808354040283529160200191611187565b820191906000526020600020905b81548152906001019060200180831161116a57829003601f168201915b5050505050905090565b803373ffffffffffffffffffffffffffffffffffffffff166111b282610e35565b73ffffffffffffffffffffffffffffffffffffffff1614611208576040517f08c379a00000000000000000000000000000000000000000000000000000000081526004016111ff90614312565b60405180910390fd5b611211826126d9565b5050565b61121d611859565b73ffffffffffffffffffffffffffffffffffffffff168273ffffffffffffffffffffffffffffffffffffffff16141561128b576040517f08c379a000000000000000000000000000000000000000000000000000000000815260040161128290614172565b60405180910390fd5b80600f6000611298611859565b73ffffffffffffffffffffffffffffffffffffffff1673ffffffffffffffffffffffffffffffffffffffff16815260200190815260200160002060008473ffffffffffffffffffffffffffffffffffffffff1673ffffffffffffffffffffffffffffffffffffffff16815260200190815260200160002060006101000a81548160ff0219169083151502179055508173ffffffffffffffffffffffffffffffffffffffff16611345611859565b73ffffffffffffffffffffffffffffffffffffffff167f17307eab39ab6107e8899845ad3d59bd9653f200f220920489ca2b5937696c318360405161138a9190614095565b60405180910390a35050565b61139e611859565b73ffffffffffffffffffffffffffffffffffffffff166113bc6110d6565b73ffffffffffffffffffffffffffffffffffffffff1614611412576040517f08c379a0000000000000000000000000000000000000000000000000000000008152600401611409906142d2565b60405180910390fd5b80600260006101000a81548173ffffffffffffffffffffffffffffffffffffffff021916908373ffffffffffffffffffffffffffffffffffffffff16021790555050565b611467611461611859565b8361191a565b6114a6576040517f08c379a000000000000000000000000000000000000000000000000000000000815260040161149d906143b2565b60405180910390fd5b6114b2848484846126dc565b50505050565b60606114c3826117ed565b611502576040517f08c379a00000000000000000000000000000000000000000000000000000000081526004016114f990614352565b60405180910390fd5b600061150c612738565b9050600081511161152c5760405180602001604052806000815250611557565b806115368461274f565b604051602001611547929190613fbc565b6040516020818303038152906040525b915050919050565b60016020528060005260406000206000915054906101000a900460ff1681565b6000600f60008473ffffffffffffffffffffffffffffffffffffffff1673ffffffffffffffffffffffffffffffffffffffff16815260200190815260200160002060008373ffffffffffffffffffffffffffffffffffffffff1673ffffffffffffffffffffffffffffffffffffffff16815260200190815260200160002060009054906101000a900460ff16905092915050565b61161b611859565b73ffffffffffffffffffffffffffffffffffffffff166116396110d6565b73ffffffffffffffffffffffffffffffffffffffff161461168f576040517f08c379a0000000000000000000000000000000000000000000000000000000008152600401611686906142d2565b60405180910390fd5b600073ffffffffffffffffffffffffffffffffffffffff168173ffffffffffffffffffffffffffffffffffffffff1614156116ff576040517f08c379a00000000000000000000000000000000000000000000000000000000081526004016116f690614112565b60405180910390fd5b611708816120fb565b50565b60007f80ac58cd000000000000000000000000000000000000000000000000000000007bffffffffffffffffffffffffffffffffffffffffffffffffffffffff1916827bffffffffffffffffffffffffffffffffffffffffffffffffffffffff191614806117d657507f5b5e139f000000000000000000000000000000000000000000000000000000007bffffffffffffffffffffffffffffffffffffffffffffffffffffffff1916827bffffffffffffffffffffffffffffffffffffffffffffffffffffffff1916145b806117e657506117e5826128fc565b5b9050919050565b60008073ffffffffffffffffffffffffffffffffffffffff16600c600084815260200190815260200160002060009054906101000a900473ffffffffffffffffffffffffffffffffffffffff1673ffffffffffffffffffffffffffffffffffffffff1614159050919050565b600033905090565b81600e600083815260200190815260200160002060006101000a81548173ffffffffffffffffffffffffffffffffffffffff021916908373ffffffffffffffffffffffffffffffffffffffff160217905550808273ffffffffffffffffffffffffffffffffffffffff166118d483610e35565b73ffffffffffffffffffffffffffffffffffffffff167f8c5be1e5ebec7d5bd14f71427d1e84f3dd0314c0f7b2291e5b200ac8c7c3b92560405160405180910390a45050565b6000611925826117ed565b611964576040517f08c379a000000000000000000000000000000000000000000000000000000000815260040161195b90614192565b60405180910390fd5b600061196f83610e35565b90508073ffffffffffffffffffffffffffffffffffffffff168473ffffffffffffffffffffffffffffffffffffffff1614806119de57508373ffffffffffffffffffffffffffffffffffffffff166119c6846109e5565b73ffffffffffffffffffffffffffffffffffffffff16145b806119ef57506119ee818561157f565b5b91505092915050565b8273ffffffffffffffffffffffffffffffffffffffff16611a1882610e35565b73ffffffffffffffffffffffffffffffffffffffff1614611a6e576040517f08c379a0000000000000000000000000000000000000000000000000000000008152600401611a6590614332565b60405180910390fd5b600073ffffffffffffffffffffffffffffffffffffffff168273ffffffffffffffffffffffffffffffffffffffff161415611ade576040517f08c379a0000000000000000000000000000000000000000000000000000000008152600401611ad590614152565b60405180910390fd5b611ae9838383612966565b611af4600082611861565b6001600d60008573ffffffffffffffffffffffffffffffffffffffff1673ffffffffffffffffffffffffffffffffffffffff1681526020019081526020016000206000828254611b4491906147a1565b925050819055506001600d60008473ffffffffffffffffffffffffffffffffffffffff1673ffffffffffffffffffffffffffffffffffffffff1681526020019081526020016000206000828254611b9b919061464f565b9250508190555081600c600083815260200190815260200160002060006101000a81548173ffffffffffffffffffffffffffffffffffffffff021916908373ffffffffffffffffffffffffffffffffffffffff160217905550808273ffffffffffffffffffffffffffffffffffffffff168473ffffffffffffffffffffffffffffffffffffffff167fddf252ad1be2c89b69c2b068fc378daa952ba7f163c4a11628f55a4df523b3ef60405160405180910390a4505050565b60006007548360000b13158015611c7c57506007546000611c75919061470d565b8360000b12155b611cbb576040517f08c379a0000000000000000000000000000000000000000000000000000000008152600401611cb2906142f2565b60405180910390fd5b6007548260000b13158015611ce157506007546000611cda919061470d565b8260000b12155b611d20576040517f08c379a0000000000000000000000000000000000000000000000000000000008152600401611d1790614432565b60405180910390fd5b6000600660008560000b60000b815260200190815260200160002060008460000b60000b81526020019081526020016000205414611d93576040517f08c379a0000000000000000000000000000000000000000000000000000000008152600401611d8a906141d2565b60405180910390fd5b60086000815480929190611da69061497b565b9190505590506000600560008381526020019081526020016000209050818160010181905550838160000160006101000a81548160ff021916908360000b60ff160217905550828160000160016101000a81548160ff021916908360000b60ff16021790555060058160000160026101000a81548160ff021916908360ff16021790555060648160000160036101000a81548160ff021916908360ff160217905550428160000160046101000a81548163ffffffff021916908363ffffffff16021790555084816003019080519060200190611e839291906132ec565b50611e8e8484612a7a565b816002018190555060018160050160006101000a81548160ff02191690831515021790555081600660008660000b60000b815260200190815260200160002060008560000b60000b8152602001908152602001600020819055507fb449d51a80a67072b11ef6826bc0a223593d54e719f7444cd86215a462c90bdb82868686604051611f1d94939291906144d4565b60405180910390a1509392505050565b600073ffffffffffffffffffffffffffffffffffffffff168273ffffffffffffffffffffffffffffffffffffffff161415611f9d576040517f08c379a0000000000000000000000000000000000000000000000000000000008152600401611f9490614252565b60405180910390fd5b611fa6816117ed565b15611fe6576040517f08c379a0000000000000000000000000000000000000000000000000000000008152600401611fdd90614132565b60405180910390fd5b611ff260008383612966565b6001600d60008473ffffffffffffffffffffffffffffffffffffffff1673ffffffffffffffffffffffffffffffffffffffff1681526020019081526020016000206000828254612042919061464f565b9250508190555081600c600083815260200190815260200160002060006101000a81548173ffffffffffffffffffffffffffffffffffffffff021916908373ffffffffffffffffffffffffffffffffffffffff160217905550808273ffffffffffffffffffffffffffffffffffffffff16600073ffffffffffffffffffffffffffffffffffffffff167fddf252ad1be2c89b69c2b068fc378daa952ba7f163c4a11628f55a4df523b3ef60405160405180910390a45050565b60008060009054906101000a900473ffffffffffffffffffffffffffffffffffffffff169050816000806101000a81548173ffffffffffffffffffffffffffffffffffffffff021916908373ffffffffffffffffffffffffffffffffffffffff1602179055508173ffffffffffffffffffffffffffffffffffffffff168173ffffffffffffffffffffffffffffffffffffffff167f8be0079c531659141344cd1fd0a4f28419497f9722a3daafe3b4186f6b6457e060405160405180910390a35050565b600060056000868152602001908152602001600020905060006121e28686612ac6565b60ff1614612225576040517f08c379a000000000000000000000000000000000000000000000000000000000815260040161221c90614412565b60405180910390fd5b600060016000866006811115612264577f4e487b7100000000000000000000000000000000000000000000000000000000600052602160045260246000fd5b600681111561229c577f4e487b7100000000000000000000000000000000000000000000000000000000600052602160045260246000fd5b815260200190815260200160002060009054906101000a900460ff16905060008160ff1611612300576040517f08c379a00000000000000000000000000000000000000000000000000000000081526004016122f7906141b2565b60405180910390fd5b8160000160029054906101000a900460ff1660ff16818561232191906146a5565b60ff161115612365576040517f08c379a000000000000000000000000000000000000000000000000000000000815260040161235c906142b2565b60405180910390fd5b8160000160029054906101000a900460ff1660ff16818461238691906146a5565b60ff1611156123ca576040517f08c379a00000000000000000000000000000000000000000000000000000000081526004016123c1906142b2565b60405180910390fd5b60008490505b81856123dc91906146a5565b60ff168160ff16101561243d5760008490505b82856123fb91906146a5565b60ff168160ff16101561242957612416868686600401612bd2565b8080612421906149c4565b9150506123ef565b508080612435906149c4565b9150506123d0565b50816004016040518060c001604052808660ff1681526020018560ff1681526020018360ff168152602001600160ff1681526020014263ffffffff1681526020018760068111156124b7577f4e487b7100000000000000000000000000000000000000000000000000000000600052602160045260246000fd5b8152509080600181540180825580915050600190039060005260206000200160009091909190915060008201518160000160006101000a81548160ff021916908360ff16021790555060208201518160000160016101000a81548160ff021916908360ff16021790555060408201518160000160026101000a81548160ff021916908360ff16021790555060608201518160000160036101000a81548160ff021916908360ff16021790555060808201518160000160046101000a81548163ffffffff021916908363ffffffff16021790555060a08201518160000160086101000a81548160ff021916908360068111156125db577f4e487b7100000000000000000000000000000000000000000000000000000000600052602160045260246000fd5b021790555050506000600183600401805490506125f891906147a1565b905080600960008981526020019081526020016000206000886006811115612649577f4e487b7100000000000000000000000000000000000000000000000000000000600052602160045260246000fd5b6006811115612681577f4e487b7100000000000000000000000000000000000000000000000000000000600052602160045260246000fd5b8152602001908152602001600020819055507f65ba7aa5381aa165bd92d38abccd807c7fb086876c94483c5648bdc0b0687bac878787876040516126c8949392919061448f565b60405180910390a150505050505050565b50565b6126e78484846119f8565b6126f384848484612d60565b612732576040517f08c379a0000000000000000000000000000000000000000000000000000000008152600401612729906140f2565b60405180910390fd5b50505050565b606060405180602001604052806000815250905090565b60606000821415612797576040518060400160405280600181526020017f300000000000000000000000000000000000000000000000000000000000000081525090506128f7565b600082905060005b600082146127c95780806127b29061497b565b915050600a826127c291906146dc565b915061279f565b60008167ffffffffffffffff81111561280b577f4e487b7100000000000000000000000000000000000000000000000000000000600052604160045260246000fd5b6040519080825280601f01601f19166020018201604052801561283d5781602001600182028036833780820191505090505b5090505b600085146128f05760018261285691906147a1565b9150600a856128659190614a0a565b6030612871919061464f565b60f81b8183815181106128ad577f4e487b7100000000000000000000000000000000000000000000000000000000600052603260045260246000fd5b60200101907effffffffffffffffffffffffffffffffffffffffffffffffffffffffffffff1916908160001a905350600a856128e991906146dc565b9450612841565b8093505050505b919050565b60007f01ffc9a7000000000000000000000000000000000000000000000000000000007bffffffffffffffffffffffffffffffffffffffffffffffffffffffff1916827bffffffffffffffffffffffffffffffffffffffffffffffffffffffff1916149050919050565b612971838383612ef7565b600073ffffffffffffffffffffffffffffffffffffffff168373ffffffffffffffffffffffffffffffffffffffff1614156129b4576129af81612efc565b6129f3565b8173ffffffffffffffffffffffffffffffffffffffff168373ffffffffffffffffffffffffffffffffffffffff16146129f2576129f18382612f45565b5b5b600073ffffffffffffffffffffffffffffffffffffffff168273ffffffffffffffffffffffffffffffffffffffff161415612a3657612a31816130b2565b612a75565b8273ffffffffffffffffffffffffffffffffffffffff168273ffffffffffffffffffffffffffffffffffffffff1614612a7457612a7382826131f5565b5b5b505050565b60008042448585604051602001612a949493929190613fe0565b6040516020818303038152906040528051906020012060001c905060045481612abd9190614a0a565b91505092915050565b600080600960008581526020019081526020016000206000846006811115612b17577f4e487b7100000000000000000000000000000000000000000000000000000000600052602160045260246000fd5b6006811115612b4f577f4e487b7100000000000000000000000000000000000000000000000000000000600052602160045260246000fd5b8152602001908152602001600020549050600560008581526020019081526020016000206004018181548110612bae577f4e487b7100000000000000000000000000000000000000000000000000000000600052603260045260246000fd5b9060005260206000200160000160039054906101000a900460ff1691505092915050565b60005b81805490508160ff161015612d5a576000828260ff1681548110612c22577f4e487b7100000000000000000000000000000000000000000000000000000000600052603260045260246000fd5b906000526020600020019050600060018260000160029054906101000a900460ff168360000160009054906101000a900460ff16612c6091906146a5565b612c6a91906147d5565b9050600060018360000160029054906101000a900460ff168460000160019054906101000a900460ff16612c9e91906146a5565b612ca891906147d5565b90508260000160009054906101000a900460ff1660ff168760ff161080612cd457508160ff168760ff16115b80612cf557508260000160019054906101000a900460ff1660ff168660ff16105b80612d0557508060ff168660ff16115b612d44576040517f08c379a0000000000000000000000000000000000000000000000000000000008152600401612d3b906143f2565b60405180910390fd5b5050508080612d52906149c4565b915050612bd5565b50505050565b6000612d818473ffffffffffffffffffffffffffffffffffffffff16613274565b15612eea578373ffffffffffffffffffffffffffffffffffffffff1663150b7a02612daa611859565b8786866040518563ffffffff1660e01b8152600401612dcc9493929190614049565b602060405180830381600087803b158015612de657600080fd5b505af1925050508015612e1757506040513d601f19601f82011682018060405250810190612e1491906136d7565b60015b612e9a573d8060008114612e47576040519150601f19603f3d011682016040523d82523d6000602084013e612e4c565b606091505b50600081511415612e92576040517f08c379a0000000000000000000000000000000000000000000000000000000008152600401612e89906140f2565b60405180910390fd5b805181602001fd5b63150b7a0260e01b7bffffffffffffffffffffffffffffffffffffffffffffffffffffffff1916817bffffffffffffffffffffffffffffffffffffffffffffffffffffffff191614915050612eef565b600190505b949350505050565b505050565b6012805490506013600083815260200190815260200160002081905550601281908060018154018082558091505060019003906000526020600020016000909190919091505550565b60006001612f5284610ee7565b612f5c91906147a1565b9050600060116000848152602001908152602001600020549050818114613041576000601060008673ffffffffffffffffffffffffffffffffffffffff1673ffffffffffffffffffffffffffffffffffffffff168152602001908152602001600020600084815260200190815260200160002054905080601060008773ffffffffffffffffffffffffffffffffffffffff1673ffffffffffffffffffffffffffffffffffffffff168152602001908152602001600020600084815260200190815260200160002081905550816011600083815260200190815260200160002081905550505b6011600084815260200190815260200160002060009055601060008573ffffffffffffffffffffffffffffffffffffffff1673ffffffffffffffffffffffffffffffffffffffff16815260200190815260200160002060008381526020019081526020016000206000905550505050565b600060016012805490506130c691906147a1565b905060006013600084815260200190815260200160002054905060006012838154811061311c577f4e487b7100000000000000000000000000000000000000000000000000000000600052603260045260246000fd5b906000526020600020015490508060128381548110613164577f4e487b7100000000000000000000000000000000000000000000000000000000600052603260045260246000fd5b9060005260206000200181905550816013600083815260200190815260200160002081905550601360008581526020019081526020016000206000905560128054806131d9577f4e487b7100000000000000000000000000000000000000000000000000000000600052603160045260246000fd5b6001900381819060005260206000200160009055905550505050565b600061320083610ee7565b905081601060008573ffffffffffffffffffffffffffffffffffffffff1673ffffffffffffffffffffffffffffffffffffffff168152602001908152602001600020600083815260200190815260200160002081905550806011600084815260200190815260200160002081905550505050565b600080823b905060008111915050919050565b6040518061014001604052806000800b81526020016000800b8152602001600060ff168152602001600060ff168152602001600063ffffffff168152602001600081526020016000815260200160608152602001606081526020016000151581525090565b8280546132f890614918565b90600052602060002090601f01602090048101928261331a5760008555613361565b82601f1061333357805160ff1916838001178555613361565b82800160010185558215613361579182015b82811115613360578251825591602001919060010190613345565b5b50905061336e9190613372565b5090565b5b8082111561338b576000816000905550600101613373565b5090565b60006133a261339d84614560565b61453b565b9050828152602081018484840111156133ba57600080fd5b6133c58482856148d6565b509392505050565b60006133e06133db84614591565b61453b565b9050828152602081018484840111156133f857600080fd5b6134038482856148d6565b509392505050565b60008135905061341a816152a6565b92915050565b60008135905061342f816152bd565b92915050565b600081359050613444816152d4565b92915050565b600081519050613459816152d4565b92915050565b600082601f83011261347057600080fd5b813561348084826020860161338f565b91505092915050565b600081359050613498816152eb565b92915050565b6000813590506134ad816152fb565b92915050565b600082601f8301126134c457600080fd5b81356134d48482602086016133cd565b91505092915050565b6000813590506134ec81615312565b92915050565b60008135905061350181615329565b92915050565b60006020828403121561351957600080fd5b60006135278482850161340b565b91505092915050565b6000806040838503121561354357600080fd5b60006135518582860161340b565b92505060206135628582860161340b565b9150509250929050565b60008060006060848603121561358157600080fd5b600061358f8682870161340b565b93505060206135a08682870161340b565b92505060406135b1868287016134dd565b9150509250925092565b600080600080608085870312156135d157600080fd5b60006135df8782880161340b565b94505060206135f08782880161340b565b9350506040613601878288016134dd565b925050606085013567ffffffffffffffff81111561361e57600080fd5b61362a8782880161345f565b91505092959194509250565b6000806040838503121561364957600080fd5b60006136578582860161340b565b925050602061366885828601613420565b9150509250929050565b6000806040838503121561368557600080fd5b60006136938582860161340b565b92505060206136a4858286016134dd565b9150509250929050565b6000602082840312156136c057600080fd5b60006136ce84828501613435565b91505092915050565b6000602082840312156136e957600080fd5b60006136f78482850161344a565b91505092915050565b60006020828403121561371257600080fd5b600061372084828501613489565b91505092915050565b6000806040838503121561373c57600080fd5b600061374a8582860161349e565b925050602061375b8582860161349e565b9150509250929050565b60008060006060848603121561377a57600080fd5b600084013567ffffffffffffffff81111561379457600080fd5b6137a0868287016134b3565b93505060206137b18682870161349e565b92505060406137c28682870161349e565b9150509250925092565b6000602082840312156137de57600080fd5b60006137ec848285016134dd565b91505092915050565b6000806000806080858703121561380b57600080fd5b6000613819878288016134dd565b945050602061382a87828801613489565b935050604061383b878288016134f2565b925050606061384c878288016134f2565b91505092959194509250565b60006138648383613dfe565b60c08301905092915050565b61387981614809565b82525050565b600061388a826145d2565b6138948185614600565b935061389f836145c2565b8060005b838110156138d05781516138b78882613858565b97506138c2836145f3565b9250506001810190506138a3565b5085935050505092915050565b6138e68161481b565b82525050565b6138f58161481b565b82525050565b6000613906826145dd565b6139108185614611565b93506139208185602086016148e5565b61392981614b26565b840191505092915050565b61393d816148c4565b82525050565b61394c816148c4565b82525050565b61395b81614870565b82525050565b61396a81614870565b82525050565b61398161397c82614870565b6149ee565b82525050565b6000613992826145e8565b61399c8185614622565b93506139ac8185602086016148e5565b6139b581614b26565b840191505092915050565b60006139cb826145e8565b6139d58185614633565b93506139e58185602086016148e5565b6139ee81614b26565b840191505092915050565b6000613a04826145e8565b613a0e8185614644565b9350613a1e8185602086016148e5565b80840191505092915050565b6000613a37602b83614633565b9150613a4282614b44565b604082019050919050565b6000613a5a603283614633565b9150613a6582614b93565b604082019050919050565b6000613a7d602683614633565b9150613a8882614be2565b604082019050919050565b6000613aa0601c83614633565b9150613aab82614c31565b602082019050919050565b6000613ac3602483614633565b9150613ace82614c5a565b604082019050919050565b6000613ae6601983614633565b9150613af182614ca9565b602082019050919050565b6000613b09602c83614633565b9150613b1482614cd2565b604082019050919050565b6000613b2c603c83614633565b9150613b3782614d21565b604082019050919050565b6000613b4f602b83614633565b9150613b5a82614d70565b604082019050919050565b6000613b72603883614633565b9150613b7d82614dbf565b604082019050919050565b6000613b95602a83614633565b9150613ba082614e0e565b604082019050919050565b6000613bb8602983614633565b9150613bc382614e5d565b604082019050919050565b6000613bdb602083614633565b9150613be682614eac565b602082019050919050565b6000613bfe601983614633565b9150613c0982614ed5565b602082019050919050565b6000613c21602c83614633565b9150613c2c82614efe565b604082019050919050565b6000613c44602c83614633565b9150613c4f82614f4d565b604082019050919050565b6000613c67602083614633565b9150613c7282614f9c565b602082019050919050565b6000613c8a601a83614633565b9150613c9582614fc5565b602082019050919050565b6000613cad601c83614633565b9150613cb882614fee565b602082019050919050565b6000613cd0602983614633565b9150613cdb82615017565b604082019050919050565b6000613cf3602f83614633565b9150613cfe82615066565b604082019050919050565b6000613d16602183614633565b9150613d21826150b5565b604082019050919050565b6000613d39602d83614633565b9150613d4482615104565b604082019050919050565b6000613d5c603183614633565b9150613d6782615153565b604082019050919050565b6000613d7f602c83614633565b9150613d8a826151a2565b604082019050919050565b6000613da2601e83614633565b9150613dad826151f1565b602082019050919050565b6000613dc5602c83614633565b9150613dd08261521a565b604082019050919050565b6000613de8601a83614633565b9150613df382615269565b602082019050919050565b60c082016000820151613e146000850182613f9e565b506020820151613e276020850182613f9e565b506040820151613e3a6040850182613f9e565b506060820151613e4d6060850182613f9e565b506080820151613e606080850182613f8f565b5060a0820151613e7360a0850182613934565b50505050565b600061014083016000830151613e926000860182613952565b506020830151613ea56020860182613952565b506040830151613eb86040860182613f9e565b506060830151613ecb6060860182613f9e565b506080830151613ede6080860182613f8f565b5060a0830151613ef160a0860182613f5a565b5060c0830151613f0460c0860182613f5a565b5060e083015184820360e0860152613f1c8282613987565b915050610100830151848203610100860152613f38828261387f565b915050610120830151613f4f6101208601826138dd565b508091505092915050565b613f638161489d565b82525050565b613f728161489d565b82525050565b613f89613f848261489d565b614a00565b82525050565b613f98816148a7565b82525050565b613fa7816148b7565b82525050565b613fb6816148b7565b82525050565b6000613fc882856139f9565b9150613fd482846139f9565b91508190509392505050565b6000613fec8287613f78565b602082019150613ffc8286613f78565b60208201915061400c8285613970565b60018201915061401c8284613970565b60018201915081905095945050505050565b60006020820190506140436000830184613870565b92915050565b600060808201905061405e6000830187613870565b61406b6020830186613870565b6140786040830185613f69565b818103606083015261408a81846138fb565b905095945050505050565b60006020820190506140aa60008301846138ec565b92915050565b600060208201905081810360008301526140ca81846139c0565b905092915050565b600060208201905081810360008301526140eb81613a2a565b9050919050565b6000602082019050818103600083015261410b81613a4d565b9050919050565b6000602082019050818103600083015261412b81613a70565b9050919050565b6000602082019050818103600083015261414b81613a93565b9050919050565b6000602082019050818103600083015261416b81613ab6565b9050919050565b6000602082019050818103600083015261418b81613ad9565b9050919050565b600060208201905081810360008301526141ab81613afc565b9050919050565b600060208201905081810360008301526141cb81613b1f565b9050919050565b600060208201905081810360008301526141eb81613b42565b9050919050565b6000602082019050818103600083015261420b81613b65565b9050919050565b6000602082019050818103600083015261422b81613b88565b9050919050565b6000602082019050818103600083015261424b81613bab565b9050919050565b6000602082019050818103600083015261426b81613bce565b9050919050565b6000602082019050818103600083015261428b81613bf1565b9050919050565b600060208201905081810360008301526142ab81613c14565b9050919050565b600060208201905081810360008301526142cb81613c37565b9050919050565b600060208201905081810360008301526142eb81613c5a565b9050919050565b6000602082019050818103600083015261430b81613c7d565b9050919050565b6000602082019050818103600083015261432b81613ca0565b9050919050565b6000602082019050818103600083015261434b81613cc3565b9050919050565b6000602082019050818103600083015261436b81613ce6565b9050919050565b6000602082019050818103600083015261438b81613d09565b9050919050565b600060208201905081810360008301526143ab81613d2c565b9050919050565b600060208201905081810360008301526143cb81613d4f565b9050919050565b600060208201905081810360008301526143eb81613d72565b9050919050565b6000602082019050818103600083015261440b81613d95565b9050919050565b6000602082019050818103600083015261442b81613db8565b9050919050565b6000602082019050818103600083015261444b81613ddb565b9050919050565b6000602082019050818103600083015261446c8184613e79565b905092915050565b60006020820190506144896000830184613f69565b92915050565b60006080820190506144a46000830187613f69565b6144b16020830186613943565b6144be6040830185613fad565b6144cb6060830184613fad565b95945050505050565b60006080820190506144e96000830187613f69565b81810360208301526144fb81866139c0565b905061450a6040830185613961565b6145176060830184613961565b95945050505050565b60006020820190506145356000830184613fad565b92915050565b6000614545614556565b9050614551828261494a565b919050565b6000604051905090565b600067ffffffffffffffff82111561457b5761457a614af7565b5b61458482614b26565b9050602081019050919050565b600067ffffffffffffffff8211156145ac576145ab614af7565b5b6145b582614b26565b9050602081019050919050565b6000819050602082019050919050565b600081519050919050565b600081519050919050565b600081519050919050565b6000602082019050919050565b600082825260208201905092915050565b600082825260208201905092915050565b600082825260208201905092915050565b600082825260208201905092915050565b600081905092915050565b600061465a8261489d565b91506146658361489d565b9250827fffffffffffffffffffffffffffffffffffffffffffffffffffffffffffffffff0382111561469a57614699614a3b565b5b828201905092915050565b60006146b0826148b7565b91506146bb836148b7565b92508260ff038211156146d1576146d0614a3b565b5b828201905092915050565b60006146e78261489d565b91506146f28361489d565b92508261470257614701614a6a565b5b828204905092915050565b600061471882614866565b915061472383614866565b9250827f80000000000000000000000000000000000000000000000000000000000000000182126000841215161561475e5761475d614a3b565b5b827f7fffffffffffffffffffffffffffffffffffffffffffffffffffffffffffffff01821360008412161561479657614795614a3b565b5b828203905092915050565b60006147ac8261489d565b91506147b78361489d565b9250828210156147ca576147c9614a3b565b5b828203905092915050565b60006147e0826148b7565b91506147eb836148b7565b9250828210156147fe576147fd614a3b565b5b828203905092915050565b60006148148261487d565b9050919050565b60008115159050919050565b60007fffffffff0000000000000000000000000000000000000000000000000000000082169050919050565b600081905061486182615292565b919050565b6000819050919050565b60008160000b9050919050565b600073ffffffffffffffffffffffffffffffffffffffff82169050919050565b6000819050919050565b600063ffffffff82169050919050565b600060ff82169050919050565b60006148cf82614853565b9050919050565b82818337600083830152505050565b60005b838110156149035780820151818401526020810190506148e8565b83811115614912576000848401525b50505050565b6000600282049050600182168061493057607f821691505b6020821081141561494457614943614ac8565b5b50919050565b61495382614b26565b810181811067ffffffffffffffff8211171561497257614971614af7565b5b80604052505050565b60006149868261489d565b91507fffffffffffffffffffffffffffffffffffffffffffffffffffffffffffffffff8214156149b9576149b8614a3b565b5b600182019050919050565b60006149cf826148b7565b915060ff8214156149e3576149e2614a3b565b5b600182019050919050565b60006149f982614b37565b9050919050565b6000819050919050565b6000614a158261489d565b9150614a208361489d565b925082614a3057614a2f614a6a565b5b828206905092915050565b7f4e487b7100000000000000000000000000000000000000000000000000000000600052601160045260246000fd5b7f4e487b7100000000000000000000000000000000000000000000000000000000600052601260045260246000fd5b7f4e487b7100000000000000000000000000000000000000000000000000000000600052602160045260246000fd5b7f4e487b7100000000000000000000000000000000000000000000000000000000600052602260045260246000fd5b7f4e487b7100000000000000000000000000000000000000000000000000000000600052604160045260246000fd5b6000601f19601f8301169050919050565b60008160f81b9050919050565b7f455243373231456e756d657261626c653a206f776e657220696e646578206f7560008201527f74206f6620626f756e6473000000000000000000000000000000000000000000602082015250565b7f4552433732313a207472616e7366657220746f206e6f6e20455243373231526560008201527f63656976657220696d706c656d656e7465720000000000000000000000000000602082015250565b7f4f776e61626c653a206e6577206f776e657220697320746865207a65726f206160008201527f6464726573730000000000000000000000000000000000000000000000000000602082015250565b7f4552433732313a20746f6b656e20616c7265616479206d696e74656400000000600082015250565b7f4552433732313a207472616e7366657220746f20746865207a65726f2061646460008201527f7265737300000000000000000000000000000000000000000000000000000000602082015250565b7f4552433732313a20617070726f766520746f2063616c6c657200000000000000600082015250565b7f4552433732313a206f70657261746f7220717565727920666f72206e6f6e657860008201527f697374656e7420746f6b656e0000000000000000000000000000000000000000602082015250565b7f4572726f722c20696e76616c6964206275696c64696e672073697a652e20436860008201527f65636b206275696c64696e67207479706520706172616d657465722e00000000602082015250565b7f76696c6c61676520616c7265616479206578697374732061742074686573652060008201527f636f6f7264696e61746573000000000000000000000000000000000000000000602082015250565b7f4552433732313a20617070726f76652063616c6c6572206973206e6f74206f7760008201527f6e6572206e6f7220617070726f76656420666f7220616c6c0000000000000000602082015250565b7f4552433732313a2062616c616e636520717565727920666f7220746865207a6560008201527f726f206164647265737300000000000000000000000000000000000000000000602082015250565b7f4552433732313a206f776e657220717565727920666f72206e6f6e657869737460008201527f656e7420746f6b656e0000000000000000000000000000000000000000000000602082015250565b7f4552433732313a206d696e7420746f20746865207a65726f2061646472657373600082015250565b7f76696c6c61676520494420646f6573206e6f7420657869737400000000000000600082015250565b7f4552433732313a20617070726f76656420717565727920666f72206e6f6e657860008201527f697374656e7420746f6b656e0000000000000000000000000000000000000000602082015250565b7f4e657720706c6163656d656e74206f7574206f6620626f756e647320666f722060008201527f76696c6c6167652073697a650000000000000000000000000000000000000000602082015250565b7f4f776e61626c653a2063616c6c6572206973206e6f7420746865206f776e6572600082015250565b7f7820636f6f7264696e617465206f7574206f6620626f756e6473000000000000600082015250565b7f4e6f7420746865206f776e6572206f66207468652076696c6c61676500000000600082015250565b7f4552433732313a207472616e73666572206f6620746f6b656e2074686174206960008201527f73206e6f74206f776e0000000000000000000000000000000000000000000000602082015250565b7f4552433732314d657461646174613a2055524920717565727920666f72206e6f60008201527f6e6578697374656e7420746f6b656e0000000000000000000000000000000000602082015250565b7f4552433732313a20617070726f76616c20746f2063757272656e74206f776e6560008201527f7200000000000000000000000000000000000000000000000000000000000000602082015250565b7f4e6577206d61702073697a65206d75737420626520626967676572207468616e60008201527f206f6c64206d61702073697a6500000000000000000000000000000000000000602082015250565b7f4552433732313a207472616e736665722063616c6c6572206973206e6f74206f60008201527f776e6572206e6f7220617070726f766564000000000000000000000000000000602082015250565b7f455243373231456e756d657261626c653a20676c6f62616c20696e646578206f60008201527f7574206f6620626f756e64730000000000000000000000000000000000000000602082015250565b7f436c61736865732077697468206578697374696e67206275696c64696e670000600082015250565b7f546869732074797065206f66206275696c64696e672068617320616c7265616460008201527f79206265656e206275696c740000000000000000000000000000000000000000602082015250565b7f7920636f6f7264696e617465206f7574206f6620626f756e6473000000000000600082015250565b600781106152a3576152a2614a99565b5b50565b6152af81614809565b81146152ba57600080fd5b50565b6152c68161481b565b81146152d157600080fd5b50565b6152dd81614827565b81146152e857600080fd5b50565b600781106152f857600080fd5b50565b61530481614870565b811461530f57600080fd5b50565b61531b8161489d565b811461532657600080fd5b50565b615332816148b7565b811461533d57600080fd5b5056fea2646970667358221220dea5fecb2805e0f9cd63c5ea94626b332375002a6247db0e246e39b8ddfbe19a64736f6c63430008040033",
  "linkReferences": {},
  "deployedLinkReferences": {}
}