{
  "_format": "hh-sol-artifact-1",
  "contractName": "VillageNft",
  "sourceName": "contracts/VillageNft.sol",
  "abi": [
    {
      "inputs": [],
      "stateMutability": "nonpayable",
      "type": "constructor"
    },
    {
      "anonymous": false,
      "inputs": [
        {
          "indexed": true,
          "internalType": "address",
          "name": "owner",
          "type": "address"
        },
        {
          "indexed": true,
          "internalType": "address",
          "name": "approved",
          "type": "address"
        },
        {
          "indexed": true,
          "internalType": "uint256",
          "name": "tokenId",
          "type": "uint256"
        }
      ],
      "name": "Approval",
      "type": "event"
    },
    {
      "anonymous": false,
      "inputs": [
        {
          "indexed": true,
          "internalType": "address",
          "name": "owner",
          "type": "address"
        },
        {
          "indexed": true,
          "internalType": "address",
          "name": "operator",
          "type": "address"
        },
        {
          "indexed": false,
          "internalType": "bool",
          "name": "approved",
          "type": "bool"
        }
      ],
      "name": "ApprovalForAll",
      "type": "event"
    },
    {
      "anonymous": false,
      "inputs": [
        {
          "indexed": false,
          "internalType": "uint256",
          "name": "villageId",
          "type": "uint256"
        },
        {
          "indexed": false,
          "internalType": "enum VillageGame.BuildingTypes",
          "name": "buildingType",
          "type": "uint8"
        },
        {
          "indexed": false,
          "internalType": "uint8",
          "name": "_x",
          "type": "uint8"
        },
        {
          "indexed": false,
          "internalType": "uint8",
          "name": "_y",
          "type": "uint8"
        }
      ],
      "name": "NewBuilding",
      "type": "event"
    },
    {
      "anonymous": false,
      "inputs": [
        {
          "indexed": false,
          "internalType": "uint256",
          "name": "villageId",
          "type": "uint256"
        },
        {
          "indexed": false,
          "internalType": "string",
          "name": "name",
          "type": "string"
        },
        {
          "indexed": false,
          "internalType": "int8",
          "name": "_x",
          "type": "int8"
        },
        {
          "indexed": false,
          "internalType": "int8",
          "name": "_y",
          "type": "int8"
        }
      ],
      "name": "NewVillage",
      "type": "event"
    },
    {
      "anonymous": false,
      "inputs": [
        {
          "indexed": true,
          "internalType": "address",
          "name": "previousOwner",
          "type": "address"
        },
        {
          "indexed": true,
          "internalType": "address",
          "name": "newOwner",
          "type": "address"
        }
      ],
      "name": "OwnershipTransferred",
      "type": "event"
    },
    {
      "anonymous": false,
      "inputs": [
        {
          "indexed": true,
          "internalType": "address",
          "name": "from",
          "type": "address"
        },
        {
          "indexed": true,
          "internalType": "address",
          "name": "to",
          "type": "address"
        },
        {
          "indexed": true,
          "internalType": "uint256",
          "name": "tokenId",
          "type": "uint256"
        }
      ],
      "name": "Transfer",
      "type": "event"
    },
    {
      "inputs": [
        {
          "internalType": "address",
          "name": "to",
          "type": "address"
        },
        {
          "internalType": "uint256",
          "name": "tokenId",
          "type": "uint256"
        }
      ],
      "name": "approve",
      "outputs": [],
      "stateMutability": "nonpayable",
      "type": "function"
    },
    {
      "inputs": [
        {
          "internalType": "address",
          "name": "owner",
          "type": "address"
        }
      ],
      "name": "balanceOf",
      "outputs": [
        {
          "internalType": "uint256",
          "name": "",
          "type": "uint256"
        }
      ],
      "stateMutability": "view",
      "type": "function"
    },
    {
      "inputs": [
        {
          "internalType": "string",
          "name": "_name",
          "type": "string"
        },
        {
          "internalType": "int8",
          "name": "_x",
          "type": "int8"
        },
        {
          "internalType": "int8",
          "name": "_y",
          "type": "int8"
        }
      ],
      "name": "createVillage",
      "outputs": [
        {
          "internalType": "uint256",
          "name": "villageId",
          "type": "uint256"
        }
      ],
      "stateMutability": "nonpayable",
      "type": "function"
    },
    {
      "inputs": [
        {
          "internalType": "uint256",
          "name": "tokenId",
          "type": "uint256"
        }
      ],
      "name": "getApproved",
      "outputs": [
        {
          "internalType": "address",
          "name": "",
          "type": "address"
        }
      ],
      "stateMutability": "view",
      "type": "function"
    },
    {
      "inputs": [
        {
          "internalType": "uint256",
          "name": "_villageId",
          "type": "uint256"
        }
      ],
      "name": "getVillage",
      "outputs": [
        {
          "components": [
            {
              "internalType": "int8",
              "name": "x",
              "type": "int8"
            },
            {
              "internalType": "int8",
              "name": "y",
              "type": "int8"
            },
            {
              "internalType": "uint8",
              "name": "size",
              "type": "uint8"
            },
            {
              "internalType": "uint8",
              "name": "baseGoldRate",
              "type": "uint8"
            },
            {
              "internalType": "uint32",
              "name": "readyToMineTime",
              "type": "uint32"
            },
            {
              "internalType": "string",
              "name": "name",
              "type": "string"
            },
            {
              "components": [
                {
                  "internalType": "uint8",
                  "name": "x",
                  "type": "uint8"
                },
                {
                  "internalType": "uint8",
                  "name": "y",
                  "type": "uint8"
                },
                {
                  "internalType": "uint8",
                  "name": "size",
                  "type": "uint8"
                },
                {
                  "internalType": "uint8",
                  "name": "level",
                  "type": "uint8"
                },
                {
                  "internalType": "uint32",
                  "name": "upgradeCompleteTime",
                  "type": "uint32"
                },
                {
                  "internalType": "enum VillageGame.BuildingTypes",
                  "name": "buildingType",
                  "type": "uint8"
                }
              ],
              "internalType": "struct VillageGame.BuildingPlacement[]",
              "name": "buildings",
              "type": "tuple[]"
            }
          ],
          "internalType": "struct VillageGame.Village",
          "name": "",
          "type": "tuple"
        }
      ],
      "stateMutability": "view",
      "type": "function"
    },
    {
      "inputs": [
        {
          "internalType": "address",
          "name": "owner",
          "type": "address"
        },
        {
          "internalType": "address",
          "name": "operator",
          "type": "address"
        }
      ],
      "name": "isApprovedForAll",
      "outputs": [
        {
          "internalType": "bool",
          "name": "",
          "type": "bool"
        }
      ],
      "stateMutability": "view",
      "type": "function"
    },
    {
      "inputs": [],
      "name": "name",
      "outputs": [
        {
          "internalType": "string",
          "name": "",
          "type": "string"
        }
      ],
      "stateMutability": "view",
      "type": "function"
    },
    {
      "inputs": [],
      "name": "owner",
      "outputs": [
        {
          "internalType": "address",
          "name": "",
          "type": "address"
        }
      ],
      "stateMutability": "view",
      "type": "function"
    },
    {
      "inputs": [
        {
          "internalType": "uint256",
          "name": "tokenId",
          "type": "uint256"
        }
      ],
      "name": "ownerOf",
      "outputs": [
        {
          "internalType": "address",
          "name": "",
          "type": "address"
        }
      ],
      "stateMutability": "view",
      "type": "function"
    },
    {
      "inputs": [
        {
          "internalType": "uint256",
          "name": "_villageId",
          "type": "uint256"
        },
        {
          "internalType": "enum VillageGame.BuildingTypes",
          "name": "_buildingType",
          "type": "uint8"
        },
        {
          "internalType": "uint8",
          "name": "_x",
          "type": "uint8"
        },
        {
          "internalType": "uint8",
          "name": "_y",
          "type": "uint8"
        }
      ],
      "name": "placeBuilding",
      "outputs": [],
      "stateMutability": "nonpayable",
      "type": "function"
    },
    {
      "inputs": [],
      "name": "renounceOwnership",
      "outputs": [],
      "stateMutability": "nonpayable",
      "type": "function"
    },
    {
      "inputs": [
        {
          "internalType": "address",
          "name": "from",
          "type": "address"
        },
        {
          "internalType": "address",
          "name": "to",
          "type": "address"
        },
        {
          "internalType": "uint256",
          "name": "tokenId",
          "type": "uint256"
        }
      ],
      "name": "safeTransferFrom",
      "outputs": [],
      "stateMutability": "nonpayable",
      "type": "function"
    },
    {
      "inputs": [
        {
          "internalType": "address",
          "name": "from",
          "type": "address"
        },
        {
          "internalType": "address",
          "name": "to",
          "type": "address"
        },
        {
          "internalType": "uint256",
          "name": "tokenId",
          "type": "uint256"
        },
        {
          "internalType": "bytes",
          "name": "_data",
          "type": "bytes"
        }
      ],
      "name": "safeTransferFrom",
      "outputs": [],
      "stateMutability": "nonpayable",
      "type": "function"
    },
    {
      "inputs": [
        {
          "internalType": "address",
          "name": "operator",
          "type": "address"
        },
        {
          "internalType": "bool",
          "name": "approved",
          "type": "bool"
        }
      ],
      "name": "setApprovalForAll",
      "outputs": [],
      "stateMutability": "nonpayable",
      "type": "function"
    },
    {
      "inputs": [
        {
          "internalType": "uint256",
          "name": "_mapSize",
          "type": "uint256"
        }
      ],
      "name": "setMapSize",
      "outputs": [],
      "stateMutability": "nonpayable",
      "type": "function"
    },
    {
      "inputs": [
        {
          "internalType": "bytes4",
          "name": "interfaceId",
          "type": "bytes4"
        }
      ],
      "name": "supportsInterface",
      "outputs": [
        {
          "internalType": "bool",
          "name": "",
          "type": "bool"
        }
      ],
      "stateMutability": "view",
      "type": "function"
    },
    {
      "inputs": [],
      "name": "symbol",
      "outputs": [
        {
          "internalType": "string",
          "name": "",
          "type": "string"
        }
      ],
      "stateMutability": "view",
      "type": "function"
    },
    {
      "inputs": [
        {
          "internalType": "uint256",
          "name": "tokenId",
          "type": "uint256"
        }
      ],
      "name": "tokenURI",
      "outputs": [
        {
          "internalType": "string",
          "name": "",
          "type": "string"
        }
      ],
      "stateMutability": "view",
      "type": "function"
    },
    {
      "inputs": [
        {
          "internalType": "address",
          "name": "from",
          "type": "address"
        },
        {
          "internalType": "address",
          "name": "to",
          "type": "address"
        },
        {
          "internalType": "uint256",
          "name": "tokenId",
          "type": "uint256"
        }
      ],
      "name": "transferFrom",
      "outputs": [],
      "stateMutability": "nonpayable",
      "type": "function"
    },
    {
      "inputs": [
        {
          "internalType": "address",
          "name": "newOwner",
          "type": "address"
        }
      ],
      "name": "transferOwnership",
      "outputs": [],
      "stateMutability": "nonpayable",
      "type": "function"
    }
  ],
  "bytecode": "0x6080604052606460045560016005553480156200001b57600080fd5b506040518060400160405280600881526020017f47616d654c616e640000000000000000000000000000000000000000000000008152506040518060400160405280600381526020017f4c4e440000000000000000000000000000000000000000000000000000000000815250620000a86200009c6200053b60201b60201c565b6200054360201b60201c565b600360016000806006811115620000e8577f4e487b7100000000000000000000000000000000000000000000000000000000600052602160045260246000fd5b600681111562000121577f4e487b7100000000000000000000000000000000000000000000000000000000600052602160045260246000fd5b815260200190815260200160002060006101000a81548160ff021916908360ff16021790555060018060006001600681111562000187577f4e487b7100000000000000000000000000000000000000000000000000000000600052602160045260246000fd5b6006811115620001c0577f4e487b7100000000000000000000000000000000000000000000000000000000600052602160045260246000fd5b815260200190815260200160002060006101000a81548160ff021916908360ff1602179055506000600160006002600681111562000227577f4e487b7100000000000000000000000000000000000000000000000000000000600052602160045260246000fd5b600681111562000260577f4e487b7100000000000000000000000000000000000000000000000000000000600052602160045260246000fd5b815260200190815260200160002060006101000a81548160ff021916908360ff160217905550600180600060036006811115620002c6577f4e487b7100000000000000000000000000000000000000000000000000000000600052602160045260246000fd5b6006811115620002ff577f4e487b7100000000000000000000000000000000000000000000000000000000600052602160045260246000fd5b815260200190815260200160002060006101000a81548160ff021916908360ff16021790555060018060006004600681111562000365577f4e487b7100000000000000000000000000000000000000000000000000000000600052602160045260246000fd5b60068111156200039e577f4e487b7100000000000000000000000000000000000000000000000000000000600052602160045260246000fd5b815260200190815260200160002060006101000a81548160ff021916908360ff16021790555060018060006005600681111562000404577f4e487b7100000000000000000000000000000000000000000000000000000000600052602160045260246000fd5b60068111156200043d577f4e487b7100000000000000000000000000000000000000000000000000000000600052602160045260246000fd5b815260200190815260200160002060006101000a81548160ff021916908360ff1602179055506001806000600680811115620004a2577f4e487b7100000000000000000000000000000000000000000000000000000000600052602160045260246000fd5b6006811115620004db577f4e487b7100000000000000000000000000000000000000000000000000000000600052602160045260246000fd5b815260200190815260200160002060006101000a81548160ff021916908360ff16021790555081600790805190602001906200051992919062000607565b5080600890805190602001906200053292919062000607565b5050506200071c565b600033905090565b60008060009054906101000a900473ffffffffffffffffffffffffffffffffffffffff169050816000806101000a81548173ffffffffffffffffffffffffffffffffffffffff021916908373ffffffffffffffffffffffffffffffffffffffff1602179055508173ffffffffffffffffffffffffffffffffffffffff168173ffffffffffffffffffffffffffffffffffffffff167f8be0079c531659141344cd1fd0a4f28419497f9722a3daafe3b4186f6b6457e060405160405180910390a35050565b8280546200061590620006b7565b90600052602060002090601f01602090048101928262000639576000855562000685565b82601f106200065457805160ff191683800117855562000685565b8280016001018555821562000685579182015b828111156200068457825182559160200191906001019062000667565b5b50905062000694919062000698565b5090565b5b80821115620006b357600081600090555060010162000699565b5090565b60006002820490506001821680620006d057607f821691505b60208210811415620006e757620006e6620006ed565b5b50919050565b7f4e487b7100000000000000000000000000000000000000000000000000000000600052602260045260246000fd5b614474806200072c6000396000f3fe608060405234801561001057600080fd5b506004361061012c5760003560e01c806370a08231116100ad578063a22cb46511610071578063a22cb46514610341578063b88d4fde1461035d578063c87b56dd14610379578063e985e9c5146103a9578063f2fde38b146103d95761012c565b806370a08231146102af578063715018a6146102df5780637dabb1f3146102e95780638da5cb5b1461030557806395d89b41146103235761012c565b8063095ea7b3116100f4578063095ea7b3146101fb57806323b872dd146102175780634213edf21461023357806342842e0e146102635780636352211e1461027f5761012c565b806301ffc9a7146101315780630234f9161461016157806306fdde0314610191578063081812fc146101af5780630838409a146101df575b600080fd5b61014b60048036038101906101469190612af1565b6103f5565b6040516101589190613332565b60405180910390f35b61017b60048036038101906101769190612baa565b6104d7565b604051610188919061368f565b60405180910390f35b6101996107ac565b6040516101a6919061334d565b60405180910390f35b6101c960048036038101906101c49190612baa565b61083e565b6040516101d691906132cb565b60405180910390f35b6101f960048036038101906101f49190612baa565b6108c3565b005b61021560048036038101906102109190612ab5565b61098d565b005b610231600480360381019061022c91906129af565b610aa5565b005b61024d60048036038101906102489190612b43565b610b05565b60405161025a91906136b1565b60405180910390f35b61027d600480360381019061027891906129af565b610b25565b005b61029960048036038101906102949190612baa565b610b45565b6040516102a691906132cb565b60405180910390f35b6102c960048036038101906102c4919061294a565b610bf7565b6040516102d691906136b1565b60405180910390f35b6102e7610caf565b005b61030360048036038101906102fe9190612bd3565b610d37565b005b61030d610dc1565b60405161031a91906132cb565b60405180910390f35b61032b610dea565b604051610338919061334d565b60405180910390f35b61035b60048036038101906103569190612a79565b610e7c565b005b610377600480360381019061037291906129fe565b610ffd565b005b610393600480360381019061038e9190612baa565b61105f565b6040516103a0919061334d565b60405180910390f35b6103c360048036038101906103be9190612973565b611106565b6040516103d09190613332565b60405180910390f35b6103f360048036038101906103ee919061294a565b61119a565b005b60007f80ac58cd000000000000000000000000000000000000000000000000000000007bffffffffffffffffffffffffffffffffffffffffffffffffffffffff1916827bffffffffffffffffffffffffffffffffffffffffffffffffffffffff191614806104c057507f5b5e139f000000000000000000000000000000000000000000000000000000007bffffffffffffffffffffffffffffffffffffffffffffffffffffffff1916827bffffffffffffffffffffffffffffffffffffffffffffffffffffffff1916145b806104d057506104cf82611292565b5b9050919050565b6104df6126e2565b600260008381526020019081526020016000206040518060e00160405290816000820160009054906101000a900460000b60000b60000b81526020016000820160019054906101000a900460000b60000b60000b81526020016000820160029054906101000a900460ff1660ff1660ff1681526020016000820160039054906101000a900460ff1660ff1660ff1681526020016000820160049054906101000a900463ffffffff1663ffffffff1663ffffffff1681526020016001820180546105a790613b06565b80601f01602080910402602001604051908101604052809291908181526020018280546105d390613b06565b80156106205780601f106105f557610100808354040283529160200191610620565b820191906000526020600020905b81548152906001019060200180831161060357829003601f168201915b5050505050815260200160028201805480602002602001604051908101604052809291908181526020016000905b8282101561079d578382906000526020600020016040518060c00160405290816000820160009054906101000a900460ff1660ff1660ff1681526020016000820160019054906101000a900460ff1660ff1660ff1681526020016000820160029054906101000a900460ff1660ff1660ff1681526020016000820160039054906101000a900460ff1660ff1660ff1681526020016000820160049054906101000a900463ffffffff1663ffffffff1663ffffffff1681526020016000820160089054906101000a900460ff166006811115610752577f4e487b7100000000000000000000000000000000000000000000000000000000600052602160045260246000fd5b600681111561078a577f4e487b7100000000000000000000000000000000000000000000000000000000600052602160045260246000fd5b815250508152602001906001019061064e565b50505050815250509050919050565b6060600780546107bb90613b06565b80601f01602080910402602001604051908101604052809291908181526020018280546107e790613b06565b80156108345780601f1061080957610100808354040283529160200191610834565b820191906000526020600020905b81548152906001019060200180831161081757829003601f168201915b5050505050905090565b6000610849826112fc565b610888576040517f08c379a000000000000000000000000000000000000000000000000000000000815260040161087f906134ef565b60405180910390fd5b600b600083815260200190815260200160002060009054906101000a900473ffffffffffffffffffffffffffffffffffffffff169050919050565b6108cb611368565b73ffffffffffffffffffffffffffffffffffffffff166108e9610dc1565b73ffffffffffffffffffffffffffffffffffffffff161461093f576040517f08c379a00000000000000000000000000000000000000000000000000000000081526004016109369061352f565b60405180910390fd5b6004548111610983576040517f08c379a000000000000000000000000000000000000000000000000000000000815260040161097a906135ef565b60405180910390fd5b8060048190555050565b600061099882610b45565b90508073ffffffffffffffffffffffffffffffffffffffff168373ffffffffffffffffffffffffffffffffffffffff161415610a09576040517f08c379a0000000000000000000000000000000000000000000000000000000008152600401610a00906135cf565b60405180910390fd5b8073ffffffffffffffffffffffffffffffffffffffff16610a28611368565b73ffffffffffffffffffffffffffffffffffffffff161480610a575750610a5681610a51611368565b611106565b5b610a96576040517f08c379a0000000000000000000000000000000000000000000000000000000008152600401610a8d9061346f565b60405180910390fd5b610aa08383611370565b505050565b610ab6610ab0611368565b82611429565b610af5576040517f08c379a0000000000000000000000000000000000000000000000000000000008152600401610aec9061360f565b60405180910390fd5b610b00838383611507565b505050565b6000610b12848484611763565b9050610b1e3382611a04565b9392505050565b610b4083838360405180602001604052806000815250610ffd565b505050565b6000806009600084815260200190815260200160002060009054906101000a900473ffffffffffffffffffffffffffffffffffffffff169050600073ffffffffffffffffffffffffffffffffffffffff168173ffffffffffffffffffffffffffffffffffffffff161415610bee576040517f08c379a0000000000000000000000000000000000000000000000000000000008152600401610be5906134af565b60405180910390fd5b80915050919050565b60008073ffffffffffffffffffffffffffffffffffffffff168273ffffffffffffffffffffffffffffffffffffffff161415610c68576040517f08c379a0000000000000000000000000000000000000000000000000000000008152600401610c5f9061348f565b60405180910390fd5b600a60008373ffffffffffffffffffffffffffffffffffffffff1673ffffffffffffffffffffffffffffffffffffffff168152602001908152602001600020549050919050565b610cb7611368565b73ffffffffffffffffffffffffffffffffffffffff16610cd5610dc1565b73ffffffffffffffffffffffffffffffffffffffff1614610d2b576040517f08c379a0000000000000000000000000000000000000000000000000000000008152600401610d229061352f565b60405180910390fd5b610d356000611bd2565b565b833373ffffffffffffffffffffffffffffffffffffffff16610d5882610b45565b73ffffffffffffffffffffffffffffffffffffffff1614610dae576040517f08c379a0000000000000000000000000000000000000000000000000000000008152600401610da59061356f565b60405180910390fd5b610dba85858585611c96565b5050505050565b60008060009054906101000a900473ffffffffffffffffffffffffffffffffffffffff16905090565b606060088054610df990613b06565b80601f0160208091040260200160405190810160405280929190818152602001828054610e2590613b06565b8015610e725780601f10610e4757610100808354040283529160200191610e72565b820191906000526020600020905b815481529060010190602001808311610e5557829003601f168201915b5050505050905090565b610e84611368565b73ffffffffffffffffffffffffffffffffffffffff168273ffffffffffffffffffffffffffffffffffffffff161415610ef2576040517f08c379a0000000000000000000000000000000000000000000000000000000008152600401610ee9906133ef565b60405180910390fd5b80600c6000610eff611368565b73ffffffffffffffffffffffffffffffffffffffff1673ffffffffffffffffffffffffffffffffffffffff16815260200190815260200160002060008473ffffffffffffffffffffffffffffffffffffffff1673ffffffffffffffffffffffffffffffffffffffff16815260200190815260200160002060006101000a81548160ff0219169083151502179055508173ffffffffffffffffffffffffffffffffffffffff16610fac611368565b73ffffffffffffffffffffffffffffffffffffffff167f17307eab39ab6107e8899845ad3d59bd9653f200f220920489ca2b5937696c3183604051610ff19190613332565b60405180910390a35050565b61100e611008611368565b83611429565b61104d576040517f08c379a00000000000000000000000000000000000000000000000000000000081526004016110449061360f565b60405180910390fd5b61105984848484612267565b50505050565b606061106a826112fc565b6110a9576040517f08c379a00000000000000000000000000000000000000000000000000000000081526004016110a0906135af565b60405180910390fd5b60006110b36122c3565b905060008151116110d357604051806020016040528060008152506110fe565b806110dd846122da565b6040516020016110ee9291906132a7565b6040516020818303038152906040525b915050919050565b6000600c60008473ffffffffffffffffffffffffffffffffffffffff1673ffffffffffffffffffffffffffffffffffffffff16815260200190815260200160002060008373ffffffffffffffffffffffffffffffffffffffff1673ffffffffffffffffffffffffffffffffffffffff16815260200190815260200160002060009054906101000a900460ff16905092915050565b6111a2611368565b73ffffffffffffffffffffffffffffffffffffffff166111c0610dc1565b73ffffffffffffffffffffffffffffffffffffffff1614611216576040517f08c379a000000000000000000000000000000000000000000000000000000000815260040161120d9061352f565b60405180910390fd5b600073ffffffffffffffffffffffffffffffffffffffff168173ffffffffffffffffffffffffffffffffffffffff161415611286576040517f08c379a000000000000000000000000000000000000000000000000000000000815260040161127d9061338f565b60405180910390fd5b61128f81611bd2565b50565b60007f01ffc9a7000000000000000000000000000000000000000000000000000000007bffffffffffffffffffffffffffffffffffffffffffffffffffffffff1916827bffffffffffffffffffffffffffffffffffffffffffffffffffffffff1916149050919050565b60008073ffffffffffffffffffffffffffffffffffffffff166009600084815260200190815260200160002060009054906101000a900473ffffffffffffffffffffffffffffffffffffffff1673ffffffffffffffffffffffffffffffffffffffff1614159050919050565b600033905090565b81600b600083815260200190815260200160002060006101000a81548173ffffffffffffffffffffffffffffffffffffffff021916908373ffffffffffffffffffffffffffffffffffffffff160217905550808273ffffffffffffffffffffffffffffffffffffffff166113e383610b45565b73ffffffffffffffffffffffffffffffffffffffff167f8c5be1e5ebec7d5bd14f71427d1e84f3dd0314c0f7b2291e5b200ac8c7c3b92560405160405180910390a45050565b6000611434826112fc565b611473576040517f08c379a000000000000000000000000000000000000000000000000000000000815260040161146a9061340f565b60405180910390fd5b600061147e83610b45565b90508073ffffffffffffffffffffffffffffffffffffffff168473ffffffffffffffffffffffffffffffffffffffff1614806114ed57508373ffffffffffffffffffffffffffffffffffffffff166114d58461083e565b73ffffffffffffffffffffffffffffffffffffffff16145b806114fe57506114fd8185611106565b5b91505092915050565b8273ffffffffffffffffffffffffffffffffffffffff1661152782610b45565b73ffffffffffffffffffffffffffffffffffffffff161461157d576040517f08c379a00000000000000000000000000000000000000000000000000000000081526004016115749061358f565b60405180910390fd5b600073ffffffffffffffffffffffffffffffffffffffff168273ffffffffffffffffffffffffffffffffffffffff1614156115ed576040517f08c379a00000000000000000000000000000000000000000000000000000000081526004016115e4906133cf565b60405180910390fd5b6115f8838383612487565b611603600082611370565b6001600a60008573ffffffffffffffffffffffffffffffffffffffff1673ffffffffffffffffffffffffffffffffffffffff168152602001908152602001600020600082825461165391906139c3565b925050819055506001600a60008473ffffffffffffffffffffffffffffffffffffffff1673ffffffffffffffffffffffffffffffffffffffff16815260200190815260200160002060008282546116aa9190613871565b92505081905550816009600083815260200190815260200160002060006101000a81548173ffffffffffffffffffffffffffffffffffffffff021916908373ffffffffffffffffffffffffffffffffffffffff160217905550808273ffffffffffffffffffffffffffffffffffffffff168473ffffffffffffffffffffffffffffffffffffffff167fddf252ad1be2c89b69c2b068fc378daa952ba7f163c4a11628f55a4df523b3ef60405160405180910390a4505050565b60006004548360000b1315801561178b57506004546000611784919061392f565b8360000b12155b6117ca576040517f08c379a00000000000000000000000000000000000000000000000000000000081526004016117c19061354f565b60405180910390fd5b6004548260000b131580156117f0575060045460006117e9919061392f565b8260000b12155b61182f576040517f08c379a00000000000000000000000000000000000000000000000000000000081526004016118269061366f565b60405180910390fd5b6000600360008560000b60000b815260200190815260200160002060008460000b60000b815260200190815260200160002054146118a2576040517f08c379a00000000000000000000000000000000000000000000000000000000081526004016118999061344f565b60405180910390fd5b600560008154809291906118b590613b69565b9190505590506000600260008381526020019081526020016000209050838160000160006101000a81548160ff021916908360000b60ff160217905550828160000160016101000a81548160ff021916908360000b60ff16021790555060058160000160026101000a81548160ff021916908360ff16021790555060648160000160036101000a81548160ff021916908360ff160217905550428160000160046101000a81548163ffffffff021916908363ffffffff1602179055508481600101908051906020019061198992919061272f565b5081600360008660000b60000b815260200190815260200160002060008560000b60000b8152602001908152602001600020819055507fb449d51a80a67072b11ef6826bc0a223593d54e719f7444cd86215a462c90bdb828686866040516119f49493929190613711565b60405180910390a1509392505050565b600073ffffffffffffffffffffffffffffffffffffffff168273ffffffffffffffffffffffffffffffffffffffff161415611a74576040517f08c379a0000000000000000000000000000000000000000000000000000000008152600401611a6b906134cf565b60405180910390fd5b611a7d816112fc565b15611abd576040517f08c379a0000000000000000000000000000000000000000000000000000000008152600401611ab4906133af565b60405180910390fd5b611ac960008383612487565b6001600a60008473ffffffffffffffffffffffffffffffffffffffff1673ffffffffffffffffffffffffffffffffffffffff1681526020019081526020016000206000828254611b199190613871565b92505081905550816009600083815260200190815260200160002060006101000a81548173ffffffffffffffffffffffffffffffffffffffff021916908373ffffffffffffffffffffffffffffffffffffffff160217905550808273ffffffffffffffffffffffffffffffffffffffff16600073ffffffffffffffffffffffffffffffffffffffff167fddf252ad1be2c89b69c2b068fc378daa952ba7f163c4a11628f55a4df523b3ef60405160405180910390a45050565b60008060009054906101000a900473ffffffffffffffffffffffffffffffffffffffff169050816000806101000a81548173ffffffffffffffffffffffffffffffffffffffff021916908373ffffffffffffffffffffffffffffffffffffffff1602179055508173ffffffffffffffffffffffffffffffffffffffff168173ffffffffffffffffffffffffffffffffffffffff167f8be0079c531659141344cd1fd0a4f28419497f9722a3daafe3b4186f6b6457e060405160405180910390a35050565b60006002600086815260200190815260200160002090506000611cb9868661248c565b60ff1614611cfc576040517f08c379a0000000000000000000000000000000000000000000000000000000008152600401611cf39061364f565b60405180910390fd5b600060016000866006811115611d3b577f4e487b7100000000000000000000000000000000000000000000000000000000600052602160045260246000fd5b6006811115611d73577f4e487b7100000000000000000000000000000000000000000000000000000000600052602160045260246000fd5b815260200190815260200160002060009054906101000a900460ff16905060008160ff1611611dd7576040517f08c379a0000000000000000000000000000000000000000000000000000000008152600401611dce9061342f565b60405180910390fd5b8160000160029054906101000a900460ff1660ff168185611df891906138c7565b60ff161115611e3c576040517f08c379a0000000000000000000000000000000000000000000000000000000008152600401611e339061350f565b60405180910390fd5b8160000160029054906101000a900460ff1660ff168184611e5d91906138c7565b60ff161115611ea1576040517f08c379a0000000000000000000000000000000000000000000000000000000008152600401611e989061350f565b60405180910390fd5b60008490505b8185611eb391906138c7565b60ff168160ff16101561207d5760008490505b8285611ed291906138c7565b60ff168160ff1610156120695760005b84600201805490508160ff161015612055576000856002018260ff1681548110611f35577f4e487b7100000000000000000000000000000000000000000000000000000000600052603260045260246000fd5b90600052602060002001905060008160000160029054906101000a900460ff168260000160009054906101000a900460ff16611f7191906138c7565b905060008260000160029054906101000a900460ff168360000160019054906101000a900460ff16611fa391906138c7565b90508260000160009054906101000a900460ff1660ff168660ff161080611fcf57508160ff168660ff16115b80611ff057508260000160019054906101000a900460ff1660ff168560ff16105b8061200057508060ff168560ff16115b61203f576040517f08c379a00000000000000000000000000000000000000000000000000000000081526004016120369061362f565b60405180910390fd5b505050808061204d90613bb2565b915050611ee2565b50808061206190613bb2565b915050611ec6565b50808061207590613bb2565b915050611ea7565b50816002016040518060c001604052808660ff1681526020018560ff1681526020018360ff168152602001600160ff1681526020014263ffffffff1681526020018760068111156120f7577f4e487b7100000000000000000000000000000000000000000000000000000000600052602160045260246000fd5b8152509080600181540180825580915050600190039060005260206000200160009091909190915060008201518160000160006101000a81548160ff021916908360ff16021790555060208201518160000160016101000a81548160ff021916908360ff16021790555060408201518160000160026101000a81548160ff021916908360ff16021790555060608201518160000160036101000a81548160ff021916908360ff16021790555060808201518160000160046101000a81548163ffffffff021916908363ffffffff16021790555060a08201518160000160086101000a81548160ff0219169083600681111561221b577f4e487b7100000000000000000000000000000000000000000000000000000000600052602160045260246000fd5b021790555050507f65ba7aa5381aa165bd92d38abccd807c7fb086876c94483c5648bdc0b0687bac8686868660405161225794939291906136cc565b60405180910390a1505050505050565b612272848484611507565b61227e84848484612538565b6122bd576040517f08c379a00000000000000000000000000000000000000000000000000000000081526004016122b49061336f565b60405180910390fd5b50505050565b606060405180602001604052806000815250905090565b60606000821415612322576040518060400160405280600181526020017f30000000000000000000000000000000000000000000000000000000000000008152509050612482565b600082905060005b6000821461235457808061233d90613b69565b915050600a8261234d91906138fe565b915061232a565b60008167ffffffffffffffff811115612396577f4e487b7100000000000000000000000000000000000000000000000000000000600052604160045260246000fd5b6040519080825280601f01601f1916602001820160405280156123c85781602001600182028036833780820191505090505b5090505b6000851461247b576001826123e191906139c3565b9150600a856123f09190613bdc565b60306123fc9190613871565b60f81b818381518110612438577f4e487b7100000000000000000000000000000000000000000000000000000000600052603260045260246000fd5b60200101907effffffffffffffffffffffffffffffffffffffffffffffffffffffffffffff1916908160001a905350600a8561247491906138fe565b94506123cc565b8093505050505b919050565b505050565b60006006600084815260200190815260200160002060008360068111156124dc577f4e487b7100000000000000000000000000000000000000000000000000000000600052602160045260246000fd5b6006811115612514577f4e487b7100000000000000000000000000000000000000000000000000000000600052602160045260246000fd5b815260200190815260200160002060009054906101000a900460ff16905092915050565b60006125598473ffffffffffffffffffffffffffffffffffffffff166126cf565b156126c2578373ffffffffffffffffffffffffffffffffffffffff1663150b7a02612582611368565b8786866040518563ffffffff1660e01b81526004016125a494939291906132e6565b602060405180830381600087803b1580156125be57600080fd5b505af19250505080156125ef57506040513d601f19601f820116820180604052508101906125ec9190612b1a565b60015b612672573d806000811461261f576040519150601f19603f3d011682016040523d82523d6000602084013e612624565b606091505b5060008151141561266a576040517f08c379a00000000000000000000000000000000000000000000000000000000081526004016126619061336f565b60405180910390fd5b805181602001fd5b63150b7a0260e01b7bffffffffffffffffffffffffffffffffffffffffffffffffffffffff1916817bffffffffffffffffffffffffffffffffffffffffffffffffffffffff1916149150506126c7565b600190505b949350505050565b600080823b905060008111915050919050565b6040518060e001604052806000800b81526020016000800b8152602001600060ff168152602001600060ff168152602001600063ffffffff16815260200160608152602001606081525090565b82805461273b90613b06565b90600052602060002090601f01602090048101928261275d57600085556127a4565b82601f1061277657805160ff19168380011785556127a4565b828001600101855582156127a4579182015b828111156127a3578251825591602001919060010190612788565b5b5090506127b191906127b5565b5090565b5b808211156127ce5760008160009055506001016127b6565b5090565b60006127e56127e084613782565b61375d565b9050828152602081018484840111156127fd57600080fd5b612808848285613ac4565b509392505050565b600061282361281e846137b3565b61375d565b90508281526020810184848401111561283b57600080fd5b612846848285613ac4565b509392505050565b60008135905061285d816143a4565b92915050565b600081359050612872816143bb565b92915050565b600081359050612887816143d2565b92915050565b60008151905061289c816143d2565b92915050565b600082601f8301126128b357600080fd5b81356128c38482602086016127d2565b91505092915050565b6000813590506128db816143e9565b92915050565b6000813590506128f0816143f9565b92915050565b600082601f83011261290757600080fd5b8135612917848260208601612810565b91505092915050565b60008135905061292f81614410565b92915050565b60008135905061294481614427565b92915050565b60006020828403121561295c57600080fd5b600061296a8482850161284e565b91505092915050565b6000806040838503121561298657600080fd5b60006129948582860161284e565b92505060206129a58582860161284e565b9150509250929050565b6000806000606084860312156129c457600080fd5b60006129d28682870161284e565b93505060206129e38682870161284e565b92505060406129f486828701612920565b9150509250925092565b60008060008060808587031215612a1457600080fd5b6000612a228782880161284e565b9450506020612a338782880161284e565b9350506040612a4487828801612920565b925050606085013567ffffffffffffffff811115612a6157600080fd5b612a6d878288016128a2565b91505092959194509250565b60008060408385031215612a8c57600080fd5b6000612a9a8582860161284e565b9250506020612aab85828601612863565b9150509250929050565b60008060408385031215612ac857600080fd5b6000612ad68582860161284e565b9250506020612ae785828601612920565b9150509250929050565b600060208284031215612b0357600080fd5b6000612b1184828501612878565b91505092915050565b600060208284031215612b2c57600080fd5b6000612b3a8482850161288d565b91505092915050565b600080600060608486031215612b5857600080fd5b600084013567ffffffffffffffff811115612b7257600080fd5b612b7e868287016128f6565b9350506020612b8f868287016128e1565b9250506040612ba0868287016128e1565b9150509250925092565b600060208284031215612bbc57600080fd5b6000612bca84828501612920565b91505092915050565b60008060008060808587031215612be957600080fd5b6000612bf787828801612920565b9450506020612c08878288016128cc565b9350506040612c1987828801612935565b9250506060612c2a87828801612935565b91505092959194509250565b6000612c42838361314d565b60c08301905092915050565b612c57816139f7565b82525050565b6000612c68826137f4565b612c728185613822565b9350612c7d836137e4565b8060005b83811015612cae578151612c958882612c36565b9750612ca083613815565b925050600181019050612c81565b5085935050505092915050565b612cc481613a09565b82525050565b6000612cd5826137ff565b612cdf8185613833565b9350612cef818560208601613ad3565b612cf881613cf8565b840191505092915050565b612d0c81613ab2565b82525050565b612d1b81613ab2565b82525050565b612d2a81613a5e565b82525050565b612d3981613a5e565b82525050565b6000612d4a8261380a565b612d548185613844565b9350612d64818560208601613ad3565b612d6d81613cf8565b840191505092915050565b6000612d838261380a565b612d8d8185613855565b9350612d9d818560208601613ad3565b612da681613cf8565b840191505092915050565b6000612dbc8261380a565b612dc68185613866565b9350612dd6818560208601613ad3565b80840191505092915050565b6000612def603283613855565b9150612dfa82613d09565b604082019050919050565b6000612e12602683613855565b9150612e1d82613d58565b604082019050919050565b6000612e35601c83613855565b9150612e4082613da7565b602082019050919050565b6000612e58602483613855565b9150612e6382613dd0565b604082019050919050565b6000612e7b601983613855565b9150612e8682613e1f565b602082019050919050565b6000612e9e602c83613855565b9150612ea982613e48565b604082019050919050565b6000612ec1603c83613855565b9150612ecc82613e97565b604082019050919050565b6000612ee4602b83613855565b9150612eef82613ee6565b604082019050919050565b6000612f07603883613855565b9150612f1282613f35565b604082019050919050565b6000612f2a602a83613855565b9150612f3582613f84565b604082019050919050565b6000612f4d602983613855565b9150612f5882613fd3565b604082019050919050565b6000612f70602083613855565b9150612f7b82614022565b602082019050919050565b6000612f93602c83613855565b9150612f9e8261404b565b604082019050919050565b6000612fb6602c83613855565b9150612fc18261409a565b604082019050919050565b6000612fd9602083613855565b9150612fe4826140e9565b602082019050919050565b6000612ffc601a83613855565b915061300782614112565b602082019050919050565b600061301f601c83613855565b915061302a8261413b565b602082019050919050565b6000613042602983613855565b915061304d82614164565b604082019050919050565b6000613065602f83613855565b9150613070826141b3565b604082019050919050565b6000613088602183613855565b915061309382614202565b604082019050919050565b60006130ab602d83613855565b91506130b682614251565b604082019050919050565b60006130ce603183613855565b91506130d9826142a0565b604082019050919050565b60006130f1601e83613855565b91506130fc826142ef565b602082019050919050565b6000613114602c83613855565b915061311f82614318565b604082019050919050565b6000613137601a83613855565b915061314282614367565b602082019050919050565b60c0820160008201516131636000850182613289565b5060208201516131766020850182613289565b5060408201516131896040850182613289565b50606082015161319c6060850182613289565b5060808201516131af608085018261327a565b5060a08201516131c260a0850182612d03565b50505050565b600060e0830160008301516131e06000860182612d21565b5060208301516131f36020860182612d21565b5060408301516132066040860182613289565b5060608301516132196060860182613289565b50608083015161322c608086018261327a565b5060a083015184820360a08601526132448282612d3f565b91505060c083015184820360c086015261325e8282612c5d565b9150508091505092915050565b61327481613a8b565b82525050565b61328381613a95565b82525050565b61329281613aa5565b82525050565b6132a181613aa5565b82525050565b60006132b38285612db1565b91506132bf8284612db1565b91508190509392505050565b60006020820190506132e06000830184612c4e565b92915050565b60006080820190506132fb6000830187612c4e565b6133086020830186612c4e565b613315604083018561326b565b81810360608301526133278184612cca565b905095945050505050565b60006020820190506133476000830184612cbb565b92915050565b600060208201905081810360008301526133678184612d78565b905092915050565b6000602082019050818103600083015261338881612de2565b9050919050565b600060208201905081810360008301526133a881612e05565b9050919050565b600060208201905081810360008301526133c881612e28565b9050919050565b600060208201905081810360008301526133e881612e4b565b9050919050565b6000602082019050818103600083015261340881612e6e565b9050919050565b6000602082019050818103600083015261342881612e91565b9050919050565b6000602082019050818103600083015261344881612eb4565b9050919050565b6000602082019050818103600083015261346881612ed7565b9050919050565b6000602082019050818103600083015261348881612efa565b9050919050565b600060208201905081810360008301526134a881612f1d565b9050919050565b600060208201905081810360008301526134c881612f40565b9050919050565b600060208201905081810360008301526134e881612f63565b9050919050565b6000602082019050818103600083015261350881612f86565b9050919050565b6000602082019050818103600083015261352881612fa9565b9050919050565b6000602082019050818103600083015261354881612fcc565b9050919050565b6000602082019050818103600083015261356881612fef565b9050919050565b6000602082019050818103600083015261358881613012565b9050919050565b600060208201905081810360008301526135a881613035565b9050919050565b600060208201905081810360008301526135c881613058565b9050919050565b600060208201905081810360008301526135e88161307b565b9050919050565b600060208201905081810360008301526136088161309e565b9050919050565b60006020820190508181036000830152613628816130c1565b9050919050565b60006020820190508181036000830152613648816130e4565b9050919050565b6000602082019050818103600083015261366881613107565b9050919050565b600060208201905081810360008301526136888161312a565b9050919050565b600060208201905081810360008301526136a981846131c8565b905092915050565b60006020820190506136c6600083018461326b565b92915050565b60006080820190506136e1600083018761326b565b6136ee6020830186612d12565b6136fb6040830185613298565b6137086060830184613298565b95945050505050565b6000608082019050613726600083018761326b565b81810360208301526137388186612d78565b90506137476040830185612d30565b6137546060830184612d30565b95945050505050565b6000613767613778565b90506137738282613b38565b919050565b6000604051905090565b600067ffffffffffffffff82111561379d5761379c613cc9565b5b6137a682613cf8565b9050602081019050919050565b600067ffffffffffffffff8211156137ce576137cd613cc9565b5b6137d782613cf8565b9050602081019050919050565b6000819050602082019050919050565b600081519050919050565b600081519050919050565b600081519050919050565b6000602082019050919050565b600082825260208201905092915050565b600082825260208201905092915050565b600082825260208201905092915050565b600082825260208201905092915050565b600081905092915050565b600061387c82613a8b565b915061388783613a8b565b9250827fffffffffffffffffffffffffffffffffffffffffffffffffffffffffffffffff038211156138bc576138bb613c0d565b5b828201905092915050565b60006138d282613aa5565b91506138dd83613aa5565b92508260ff038211156138f3576138f2613c0d565b5b828201905092915050565b600061390982613a8b565b915061391483613a8b565b92508261392457613923613c3c565b5b828204905092915050565b600061393a82613a54565b915061394583613a54565b9250827f8000000000000000000000000000000000000000000000000000000000000000018212600084121516156139805761397f613c0d565b5b827f7fffffffffffffffffffffffffffffffffffffffffffffffffffffffffffffff0182136000841216156139b8576139b7613c0d565b5b828203905092915050565b60006139ce82613a8b565b91506139d983613a8b565b9250828210156139ec576139eb613c0d565b5b828203905092915050565b6000613a0282613a6b565b9050919050565b60008115159050919050565b60007fffffffff0000000000000000000000000000000000000000000000000000000082169050919050565b6000819050613a4f82614390565b919050565b6000819050919050565b60008160000b9050919050565b600073ffffffffffffffffffffffffffffffffffffffff82169050919050565b6000819050919050565b600063ffffffff82169050919050565b600060ff82169050919050565b6000613abd82613a41565b9050919050565b82818337600083830152505050565b60005b83811015613af1578082015181840152602081019050613ad6565b83811115613b00576000848401525b50505050565b60006002820490506001821680613b1e57607f821691505b60208210811415613b3257613b31613c9a565b5b50919050565b613b4182613cf8565b810181811067ffffffffffffffff82111715613b6057613b5f613cc9565b5b80604052505050565b6000613b7482613a8b565b91507fffffffffffffffffffffffffffffffffffffffffffffffffffffffffffffffff821415613ba757613ba6613c0d565b5b600182019050919050565b6000613bbd82613aa5565b915060ff821415613bd157613bd0613c0d565b5b600182019050919050565b6000613be782613a8b565b9150613bf283613a8b565b925082613c0257613c01613c3c565b5b828206905092915050565b7f4e487b7100000000000000000000000000000000000000000000000000000000600052601160045260246000fd5b7f4e487b7100000000000000000000000000000000000000000000000000000000600052601260045260246000fd5b7f4e487b7100000000000000000000000000000000000000000000000000000000600052602160045260246000fd5b7f4e487b7100000000000000000000000000000000000000000000000000000000600052602260045260246000fd5b7f4e487b7100000000000000000000000000000000000000000000000000000000600052604160045260246000fd5b6000601f19601f8301169050919050565b7f4552433732313a207472616e7366657220746f206e6f6e20455243373231526560008201527f63656976657220696d706c656d656e7465720000000000000000000000000000602082015250565b7f4f776e61626c653a206e6577206f776e657220697320746865207a65726f206160008201527f6464726573730000000000000000000000000000000000000000000000000000602082015250565b7f4552433732313a20746f6b656e20616c7265616479206d696e74656400000000600082015250565b7f4552433732313a207472616e7366657220746f20746865207a65726f2061646460008201527f7265737300000000000000000000000000000000000000000000000000000000602082015250565b7f4552433732313a20617070726f766520746f2063616c6c657200000000000000600082015250565b7f4552433732313a206f70657261746f7220717565727920666f72206e6f6e657860008201527f697374656e7420746f6b656e0000000000000000000000000000000000000000602082015250565b7f4572726f722c20696e76616c6964206275696c64696e672073697a652e20436860008201527f65636b206275696c64696e67207479706520706172616d657465722e00000000602082015250565b7f76696c6c61676520616c7265616479206578697374732061742074686573652060008201527f636f6f7264696e61746573000000000000000000000000000000000000000000602082015250565b7f4552433732313a20617070726f76652063616c6c6572206973206e6f74206f7760008201527f6e6572206e6f7220617070726f76656420666f7220616c6c0000000000000000602082015250565b7f4552433732313a2062616c616e636520717565727920666f7220746865207a6560008201527f726f206164647265737300000000000000000000000000000000000000000000602082015250565b7f4552433732313a206f776e657220717565727920666f72206e6f6e657869737460008201527f656e7420746f6b656e0000000000000000000000000000000000000000000000602082015250565b7f4552433732313a206d696e7420746f20746865207a65726f2061646472657373600082015250565b7f4552433732313a20617070726f76656420717565727920666f72206e6f6e657860008201527f697374656e7420746f6b656e0000000000000000000000000000000000000000602082015250565b7f4e657720706c6163656d656e74206f7574206f6620626f756e647320666f722060008201527f76696c6c6167652073697a650000000000000000000000000000000000000000602082015250565b7f4f776e61626c653a2063616c6c6572206973206e6f7420746865206f776e6572600082015250565b7f7820636f6f7264696e617465206f7574206f6620626f756e6473000000000000600082015250565b7f4e6f7420746865206f776e6572206f66207468652076696c6c61676500000000600082015250565b7f4552433732313a207472616e73666572206f6620746f6b656e2074686174206960008201527f73206e6f74206f776e0000000000000000000000000000000000000000000000602082015250565b7f4552433732314d657461646174613a2055524920717565727920666f72206e6f60008201527f6e6578697374656e7420746f6b656e0000000000000000000000000000000000602082015250565b7f4552433732313a20617070726f76616c20746f2063757272656e74206f776e6560008201527f7200000000000000000000000000000000000000000000000000000000000000602082015250565b7f4e6577206d61702073697a65206d75737420626520626967676572207468616e60008201527f206f6c64206d61702073697a6500000000000000000000000000000000000000602082015250565b7f4552433732313a207472616e736665722063616c6c6572206973206e6f74206f60008201527f776e6572206e6f7220617070726f766564000000000000000000000000000000602082015250565b7f436c61736865732077697468206578697374696e67206275696c64696e670000600082015250565b7f546869732074797065206f66206275696c64696e672068617320616c7265616460008201527f79206265656e206275696c740000000000000000000000000000000000000000602082015250565b7f7920636f6f7264696e617465206f7574206f6620626f756e6473000000000000600082015250565b600781106143a1576143a0613c6b565b5b50565b6143ad816139f7565b81146143b857600080fd5b50565b6143c481613a09565b81146143cf57600080fd5b50565b6143db81613a15565b81146143e657600080fd5b50565b600781106143f657600080fd5b50565b61440281613a5e565b811461440d57600080fd5b50565b61441981613a8b565b811461442457600080fd5b50565b61443081613aa5565b811461443b57600080fd5b5056fea26469706673582212209204ccf07c757eb8f0f04628fcc2f3c3487b32615a10a0c114b4039a354c471a64736f6c63430008040033",
  "linkReferences": {},
  "deployedLinkReferences": {}
}