{
  "_format": "hh-sol-artifact-1",
  "contractName": "VillageNft",
  "sourceName": "contracts/VillageNft.sol",
  "abi": [
    {
      "inputs": [],
      "stateMutability": "nonpayable",
      "type": "constructor"
    },
    {
      "anonymous": false,
      "inputs": [
        {
          "indexed": true,
          "internalType": "address",
          "name": "owner",
          "type": "address"
        },
        {
          "indexed": true,
          "internalType": "address",
          "name": "approved",
          "type": "address"
        },
        {
          "indexed": true,
          "internalType": "uint256",
          "name": "tokenId",
          "type": "uint256"
        }
      ],
      "name": "Approval",
      "type": "event"
    },
    {
      "anonymous": false,
      "inputs": [
        {
          "indexed": true,
          "internalType": "address",
          "name": "owner",
          "type": "address"
        },
        {
          "indexed": true,
          "internalType": "address",
          "name": "operator",
          "type": "address"
        },
        {
          "indexed": false,
          "internalType": "bool",
          "name": "approved",
          "type": "bool"
        }
      ],
      "name": "ApprovalForAll",
      "type": "event"
    },
    {
      "anonymous": false,
      "inputs": [
        {
          "indexed": false,
          "internalType": "uint256",
          "name": "villageId",
          "type": "uint256"
        },
        {
          "indexed": false,
          "internalType": "enum VillageGame.BuildingTypes",
          "name": "buildingType",
          "type": "uint8"
        },
        {
          "indexed": false,
          "internalType": "uint8",
          "name": "_x",
          "type": "uint8"
        },
        {
          "indexed": false,
          "internalType": "uint8",
          "name": "_y",
          "type": "uint8"
        }
      ],
      "name": "NewBuilding",
      "type": "event"
    },
    {
      "anonymous": false,
      "inputs": [
        {
          "indexed": false,
          "internalType": "uint256",
          "name": "villageId",
          "type": "uint256"
        },
        {
          "indexed": false,
          "internalType": "string",
          "name": "name",
          "type": "string"
        },
        {
          "indexed": false,
          "internalType": "int8",
          "name": "_x",
          "type": "int8"
        },
        {
          "indexed": false,
          "internalType": "int8",
          "name": "_y",
          "type": "int8"
        }
      ],
      "name": "NewVillage",
      "type": "event"
    },
    {
      "anonymous": false,
      "inputs": [
        {
          "indexed": true,
          "internalType": "address",
          "name": "previousOwner",
          "type": "address"
        },
        {
          "indexed": true,
          "internalType": "address",
          "name": "newOwner",
          "type": "address"
        }
      ],
      "name": "OwnershipTransferred",
      "type": "event"
    },
    {
      "anonymous": false,
      "inputs": [
        {
          "indexed": true,
          "internalType": "address",
          "name": "from",
          "type": "address"
        },
        {
          "indexed": true,
          "internalType": "address",
          "name": "to",
          "type": "address"
        },
        {
          "indexed": true,
          "internalType": "uint256",
          "name": "tokenId",
          "type": "uint256"
        }
      ],
      "name": "Transfer",
      "type": "event"
    },
    {
      "inputs": [
        {
          "internalType": "address",
          "name": "to",
          "type": "address"
        },
        {
          "internalType": "uint256",
          "name": "tokenId",
          "type": "uint256"
        }
      ],
      "name": "approve",
      "outputs": [],
      "stateMutability": "nonpayable",
      "type": "function"
    },
    {
      "inputs": [
        {
          "internalType": "address",
          "name": "owner",
          "type": "address"
        }
      ],
      "name": "balanceOf",
      "outputs": [
        {
          "internalType": "uint256",
          "name": "",
          "type": "uint256"
        }
      ],
      "stateMutability": "view",
      "type": "function"
    },
    {
      "inputs": [
        {
          "internalType": "string",
          "name": "_name",
          "type": "string"
        },
        {
          "internalType": "int8",
          "name": "_x",
          "type": "int8"
        },
        {
          "internalType": "int8",
          "name": "_y",
          "type": "int8"
        }
      ],
      "name": "createVillage",
      "outputs": [
        {
          "internalType": "uint256",
          "name": "villageId",
          "type": "uint256"
        }
      ],
      "stateMutability": "nonpayable",
      "type": "function"
    },
    {
      "inputs": [
        {
          "internalType": "uint256",
          "name": "tokenId",
          "type": "uint256"
        }
      ],
      "name": "getApproved",
      "outputs": [
        {
          "internalType": "address",
          "name": "",
          "type": "address"
        }
      ],
      "stateMutability": "view",
      "type": "function"
    },
    {
      "inputs": [
        {
          "internalType": "address",
          "name": "owner",
          "type": "address"
        },
        {
          "internalType": "address",
          "name": "operator",
          "type": "address"
        }
      ],
      "name": "isApprovedForAll",
      "outputs": [
        {
          "internalType": "bool",
          "name": "",
          "type": "bool"
        }
      ],
      "stateMutability": "view",
      "type": "function"
    },
    {
      "inputs": [],
      "name": "name",
      "outputs": [
        {
          "internalType": "string",
          "name": "",
          "type": "string"
        }
      ],
      "stateMutability": "view",
      "type": "function"
    },
    {
      "inputs": [],
      "name": "owner",
      "outputs": [
        {
          "internalType": "address",
          "name": "",
          "type": "address"
        }
      ],
      "stateMutability": "view",
      "type": "function"
    },
    {
      "inputs": [
        {
          "internalType": "uint256",
          "name": "tokenId",
          "type": "uint256"
        }
      ],
      "name": "ownerOf",
      "outputs": [
        {
          "internalType": "address",
          "name": "",
          "type": "address"
        }
      ],
      "stateMutability": "view",
      "type": "function"
    },
    {
      "inputs": [
        {
          "internalType": "uint256",
          "name": "_villageId",
          "type": "uint256"
        },
        {
          "internalType": "enum VillageGame.BuildingTypes",
          "name": "_buildingType",
          "type": "uint8"
        },
        {
          "internalType": "uint8",
          "name": "_x",
          "type": "uint8"
        },
        {
          "internalType": "uint8",
          "name": "_y",
          "type": "uint8"
        }
      ],
      "name": "placeBuilding",
      "outputs": [],
      "stateMutability": "nonpayable",
      "type": "function"
    },
    {
      "inputs": [],
      "name": "renounceOwnership",
      "outputs": [],
      "stateMutability": "nonpayable",
      "type": "function"
    },
    {
      "inputs": [
        {
          "internalType": "address",
          "name": "from",
          "type": "address"
        },
        {
          "internalType": "address",
          "name": "to",
          "type": "address"
        },
        {
          "internalType": "uint256",
          "name": "tokenId",
          "type": "uint256"
        }
      ],
      "name": "safeTransferFrom",
      "outputs": [],
      "stateMutability": "nonpayable",
      "type": "function"
    },
    {
      "inputs": [
        {
          "internalType": "address",
          "name": "from",
          "type": "address"
        },
        {
          "internalType": "address",
          "name": "to",
          "type": "address"
        },
        {
          "internalType": "uint256",
          "name": "tokenId",
          "type": "uint256"
        },
        {
          "internalType": "bytes",
          "name": "_data",
          "type": "bytes"
        }
      ],
      "name": "safeTransferFrom",
      "outputs": [],
      "stateMutability": "nonpayable",
      "type": "function"
    },
    {
      "inputs": [
        {
          "internalType": "address",
          "name": "operator",
          "type": "address"
        },
        {
          "internalType": "bool",
          "name": "approved",
          "type": "bool"
        }
      ],
      "name": "setApprovalForAll",
      "outputs": [],
      "stateMutability": "nonpayable",
      "type": "function"
    },
    {
      "inputs": [
        {
          "internalType": "uint256",
          "name": "_mapSize",
          "type": "uint256"
        }
      ],
      "name": "setMapSize",
      "outputs": [],
      "stateMutability": "nonpayable",
      "type": "function"
    },
    {
      "inputs": [
        {
          "internalType": "bytes4",
          "name": "interfaceId",
          "type": "bytes4"
        }
      ],
      "name": "supportsInterface",
      "outputs": [
        {
          "internalType": "bool",
          "name": "",
          "type": "bool"
        }
      ],
      "stateMutability": "view",
      "type": "function"
    },
    {
      "inputs": [],
      "name": "symbol",
      "outputs": [
        {
          "internalType": "string",
          "name": "",
          "type": "string"
        }
      ],
      "stateMutability": "view",
      "type": "function"
    },
    {
      "inputs": [
        {
          "internalType": "uint256",
          "name": "tokenId",
          "type": "uint256"
        }
      ],
      "name": "tokenURI",
      "outputs": [
        {
          "internalType": "string",
          "name": "",
          "type": "string"
        }
      ],
      "stateMutability": "view",
      "type": "function"
    },
    {
      "inputs": [
        {
          "internalType": "address",
          "name": "from",
          "type": "address"
        },
        {
          "internalType": "address",
          "name": "to",
          "type": "address"
        },
        {
          "internalType": "uint256",
          "name": "tokenId",
          "type": "uint256"
        }
      ],
      "name": "transferFrom",
      "outputs": [],
      "stateMutability": "nonpayable",
      "type": "function"
    },
    {
      "inputs": [
        {
          "internalType": "address",
          "name": "newOwner",
          "type": "address"
        }
      ],
      "name": "transferOwnership",
      "outputs": [],
      "stateMutability": "nonpayable",
      "type": "function"
    }
  ],
  "bytecode": "0x6080604052606460045560016005553480156200001b57600080fd5b506040518060400160405280600881526020017f47616d654c616e640000000000000000000000000000000000000000000000008152506040518060400160405280600381526020017f4c4e440000000000000000000000000000000000000000000000000000000000815250620000a86200009c6200053b60201b60201c565b6200054360201b60201c565b600360016000806006811115620000e8577f4e487b7100000000000000000000000000000000000000000000000000000000600052602160045260246000fd5b600681111562000121577f4e487b7100000000000000000000000000000000000000000000000000000000600052602160045260246000fd5b815260200190815260200160002060006101000a81548160ff021916908360ff16021790555060018060006001600681111562000187577f4e487b7100000000000000000000000000000000000000000000000000000000600052602160045260246000fd5b6006811115620001c0577f4e487b7100000000000000000000000000000000000000000000000000000000600052602160045260246000fd5b815260200190815260200160002060006101000a81548160ff021916908360ff1602179055506000600160006002600681111562000227577f4e487b7100000000000000000000000000000000000000000000000000000000600052602160045260246000fd5b600681111562000260577f4e487b7100000000000000000000000000000000000000000000000000000000600052602160045260246000fd5b815260200190815260200160002060006101000a81548160ff021916908360ff160217905550600180600060036006811115620002c6577f4e487b7100000000000000000000000000000000000000000000000000000000600052602160045260246000fd5b6006811115620002ff577f4e487b7100000000000000000000000000000000000000000000000000000000600052602160045260246000fd5b815260200190815260200160002060006101000a81548160ff021916908360ff16021790555060018060006004600681111562000365577f4e487b7100000000000000000000000000000000000000000000000000000000600052602160045260246000fd5b60068111156200039e577f4e487b7100000000000000000000000000000000000000000000000000000000600052602160045260246000fd5b815260200190815260200160002060006101000a81548160ff021916908360ff16021790555060018060006005600681111562000404577f4e487b7100000000000000000000000000000000000000000000000000000000600052602160045260246000fd5b60068111156200043d577f4e487b7100000000000000000000000000000000000000000000000000000000600052602160045260246000fd5b815260200190815260200160002060006101000a81548160ff021916908360ff1602179055506001806000600680811115620004a2577f4e487b7100000000000000000000000000000000000000000000000000000000600052602160045260246000fd5b6006811115620004db577f4e487b7100000000000000000000000000000000000000000000000000000000600052602160045260246000fd5b815260200190815260200160002060006101000a81548160ff021916908360ff16021790555081600790805190602001906200051992919062000607565b5080600890805190602001906200053292919062000607565b5050506200071c565b600033905090565b60008060009054906101000a900473ffffffffffffffffffffffffffffffffffffffff169050816000806101000a81548173ffffffffffffffffffffffffffffffffffffffff021916908373ffffffffffffffffffffffffffffffffffffffff1602179055508173ffffffffffffffffffffffffffffffffffffffff168173ffffffffffffffffffffffffffffffffffffffff167f8be0079c531659141344cd1fd0a4f28419497f9722a3daafe3b4186f6b6457e060405160405180910390a35050565b8280546200061590620006b7565b90600052602060002090601f01602090048101928262000639576000855562000685565b82601f106200065457805160ff191683800117855562000685565b8280016001018555821562000685579182015b828111156200068457825182559160200191906001019062000667565b5b50905062000694919062000698565b5090565b5b80821115620006b357600081600090555060010162000699565b5090565b60006002820490506001821680620006d057607f821691505b60208210811415620006e757620006e6620006ed565b5b50919050565b7f4e487b7100000000000000000000000000000000000000000000000000000000600052602260045260246000fd5b613e92806200072c6000396000f3fe608060405234801561001057600080fd5b50600436106101215760003560e01c806370a08231116100ad578063a22cb46511610071578063a22cb46514610306578063b88d4fde14610322578063c87b56dd1461033e578063e985e9c51461036e578063f2fde38b1461039e57610121565b806370a0823114610274578063715018a6146102a45780637dabb1f3146102ae5780638da5cb5b146102ca57806395d89b41146102e857610121565b8063095ea7b3116100f4578063095ea7b3146101c057806323b872dd146101dc5780634213edf2146101f857806342842e0e146102285780636352211e1461024457610121565b806301ffc9a71461012657806306fdde0314610156578063081812fc146101745780630838409a146101a4575b600080fd5b610140600480360381019061013b9190612794565b6103ba565b60405161014d9190612dcc565b60405180910390f35b61015e61049c565b60405161016b9190612de7565b60405180910390f35b61018e6004803603810190610189919061284d565b61052e565b60405161019b9190612d65565b60405180910390f35b6101be60048036038101906101b9919061284d565b6105b3565b005b6101da60048036038101906101d59190612758565b61067d565b005b6101f660048036038101906101f19190612652565b610795565b005b610212600480360381019061020d91906127e6565b6107f5565b60405161021f9190613129565b60405180910390f35b610242600480360381019061023d9190612652565b610815565b005b61025e6004803603810190610259919061284d565b610835565b60405161026b9190612d65565b60405180910390f35b61028e600480360381019061028991906125ed565b6108e7565b60405161029b9190613129565b60405180910390f35b6102ac61099f565b005b6102c860048036038101906102c39190612876565b610a27565b005b6102d2610ab1565b6040516102df9190612d65565b60405180910390f35b6102f0610ada565b6040516102fd9190612de7565b60405180910390f35b610320600480360381019061031b919061271c565b610b6c565b005b61033c600480360381019061033791906126a1565b610ced565b005b6103586004803603810190610353919061284d565b610d4f565b6040516103659190612de7565b60405180910390f35b61038860048036038101906103839190612616565b610df6565b6040516103959190612dcc565b60405180910390f35b6103b860048036038101906103b391906125ed565b610e8a565b005b60007f80ac58cd000000000000000000000000000000000000000000000000000000007bffffffffffffffffffffffffffffffffffffffffffffffffffffffff1916827bffffffffffffffffffffffffffffffffffffffffffffffffffffffff1916148061048557507f5b5e139f000000000000000000000000000000000000000000000000000000007bffffffffffffffffffffffffffffffffffffffffffffffffffffffff1916827bffffffffffffffffffffffffffffffffffffffffffffffffffffffff1916145b80610495575061049482610f82565b5b9050919050565b6060600780546104ab90613524565b80601f01602080910402602001604051908101604052809291908181526020018280546104d790613524565b80156105245780601f106104f957610100808354040283529160200191610524565b820191906000526020600020905b81548152906001019060200180831161050757829003601f168201915b5050505050905090565b600061053982610fec565b610578576040517f08c379a000000000000000000000000000000000000000000000000000000000815260040161056f90612f89565b60405180910390fd5b600b600083815260200190815260200160002060009054906101000a900473ffffffffffffffffffffffffffffffffffffffff169050919050565b6105bb611058565b73ffffffffffffffffffffffffffffffffffffffff166105d9610ab1565b73ffffffffffffffffffffffffffffffffffffffff161461062f576040517f08c379a000000000000000000000000000000000000000000000000000000000815260040161062690612fc9565b60405180910390fd5b6004548111610673576040517f08c379a000000000000000000000000000000000000000000000000000000000815260040161066a90613089565b60405180910390fd5b8060048190555050565b600061068882610835565b90508073ffffffffffffffffffffffffffffffffffffffff168373ffffffffffffffffffffffffffffffffffffffff1614156106f9576040517f08c379a00000000000000000000000000000000000000000000000000000000081526004016106f090613069565b60405180910390fd5b8073ffffffffffffffffffffffffffffffffffffffff16610718611058565b73ffffffffffffffffffffffffffffffffffffffff161480610747575061074681610741611058565b610df6565b5b610786576040517f08c379a000000000000000000000000000000000000000000000000000000000815260040161077d90612f09565b60405180910390fd5b6107908383611060565b505050565b6107a66107a0611058565b82611119565b6107e5576040517f08c379a00000000000000000000000000000000000000000000000000000000081526004016107dc906130a9565b60405180910390fd5b6107f08383836111f7565b505050565b6000610802848484611453565b905061080e33826116f4565b9392505050565b61083083838360405180602001604052806000815250610ced565b505050565b6000806009600084815260200190815260200160002060009054906101000a900473ffffffffffffffffffffffffffffffffffffffff169050600073ffffffffffffffffffffffffffffffffffffffff168173ffffffffffffffffffffffffffffffffffffffff1614156108de576040517f08c379a00000000000000000000000000000000000000000000000000000000081526004016108d590612f49565b60405180910390fd5b80915050919050565b60008073ffffffffffffffffffffffffffffffffffffffff168273ffffffffffffffffffffffffffffffffffffffff161415610958576040517f08c379a000000000000000000000000000000000000000000000000000000000815260040161094f90612f29565b60405180910390fd5b600a60008373ffffffffffffffffffffffffffffffffffffffff1673ffffffffffffffffffffffffffffffffffffffff168152602001908152602001600020549050919050565b6109a7611058565b73ffffffffffffffffffffffffffffffffffffffff166109c5610ab1565b73ffffffffffffffffffffffffffffffffffffffff1614610a1b576040517f08c379a0000000000000000000000000000000000000000000000000000000008152600401610a1290612fc9565b60405180910390fd5b610a2560006118c2565b565b833373ffffffffffffffffffffffffffffffffffffffff16610a4882610835565b73ffffffffffffffffffffffffffffffffffffffff1614610a9e576040517f08c379a0000000000000000000000000000000000000000000000000000000008152600401610a9590613009565b60405180910390fd5b610aaa85858585611986565b5050505050565b60008060009054906101000a900473ffffffffffffffffffffffffffffffffffffffff16905090565b606060088054610ae990613524565b80601f0160208091040260200160405190810160405280929190818152602001828054610b1590613524565b8015610b625780601f10610b3757610100808354040283529160200191610b62565b820191906000526020600020905b815481529060010190602001808311610b4557829003601f168201915b5050505050905090565b610b74611058565b73ffffffffffffffffffffffffffffffffffffffff168273ffffffffffffffffffffffffffffffffffffffff161415610be2576040517f08c379a0000000000000000000000000000000000000000000000000000000008152600401610bd990612e89565b60405180910390fd5b80600c6000610bef611058565b73ffffffffffffffffffffffffffffffffffffffff1673ffffffffffffffffffffffffffffffffffffffff16815260200190815260200160002060008473ffffffffffffffffffffffffffffffffffffffff1673ffffffffffffffffffffffffffffffffffffffff16815260200190815260200160002060006101000a81548160ff0219169083151502179055508173ffffffffffffffffffffffffffffffffffffffff16610c9c611058565b73ffffffffffffffffffffffffffffffffffffffff167f17307eab39ab6107e8899845ad3d59bd9653f200f220920489ca2b5937696c3183604051610ce19190612dcc565b60405180910390a35050565b610cfe610cf8611058565b83611119565b610d3d576040517f08c379a0000000000000000000000000000000000000000000000000000000008152600401610d34906130a9565b60405180910390fd5b610d4984848484611f57565b50505050565b6060610d5a82610fec565b610d99576040517f08c379a0000000000000000000000000000000000000000000000000000000008152600401610d9090613049565b60405180910390fd5b6000610da3611fb3565b90506000815111610dc35760405180602001604052806000815250610dee565b80610dcd84611fca565b604051602001610dde929190612d41565b6040516020818303038152906040525b915050919050565b6000600c60008473ffffffffffffffffffffffffffffffffffffffff1673ffffffffffffffffffffffffffffffffffffffff16815260200190815260200160002060008373ffffffffffffffffffffffffffffffffffffffff1673ffffffffffffffffffffffffffffffffffffffff16815260200190815260200160002060009054906101000a900460ff16905092915050565b610e92611058565b73ffffffffffffffffffffffffffffffffffffffff16610eb0610ab1565b73ffffffffffffffffffffffffffffffffffffffff1614610f06576040517f08c379a0000000000000000000000000000000000000000000000000000000008152600401610efd90612fc9565b60405180910390fd5b600073ffffffffffffffffffffffffffffffffffffffff168173ffffffffffffffffffffffffffffffffffffffff161415610f76576040517f08c379a0000000000000000000000000000000000000000000000000000000008152600401610f6d90612e29565b60405180910390fd5b610f7f816118c2565b50565b60007f01ffc9a7000000000000000000000000000000000000000000000000000000007bffffffffffffffffffffffffffffffffffffffffffffffffffffffff1916827bffffffffffffffffffffffffffffffffffffffffffffffffffffffff1916149050919050565b60008073ffffffffffffffffffffffffffffffffffffffff166009600084815260200190815260200160002060009054906101000a900473ffffffffffffffffffffffffffffffffffffffff1673ffffffffffffffffffffffffffffffffffffffff1614159050919050565b600033905090565b81600b600083815260200190815260200160002060006101000a81548173ffffffffffffffffffffffffffffffffffffffff021916908373ffffffffffffffffffffffffffffffffffffffff160217905550808273ffffffffffffffffffffffffffffffffffffffff166110d383610835565b73ffffffffffffffffffffffffffffffffffffffff167f8c5be1e5ebec7d5bd14f71427d1e84f3dd0314c0f7b2291e5b200ac8c7c3b92560405160405180910390a45050565b600061112482610fec565b611163576040517f08c379a000000000000000000000000000000000000000000000000000000000815260040161115a90612ea9565b60405180910390fd5b600061116e83610835565b90508073ffffffffffffffffffffffffffffffffffffffff168473ffffffffffffffffffffffffffffffffffffffff1614806111dd57508373ffffffffffffffffffffffffffffffffffffffff166111c58461052e565b73ffffffffffffffffffffffffffffffffffffffff16145b806111ee57506111ed8185610df6565b5b91505092915050565b8273ffffffffffffffffffffffffffffffffffffffff1661121782610835565b73ffffffffffffffffffffffffffffffffffffffff161461126d576040517f08c379a000000000000000000000000000000000000000000000000000000000815260040161126490613029565b60405180910390fd5b600073ffffffffffffffffffffffffffffffffffffffff168273ffffffffffffffffffffffffffffffffffffffff1614156112dd576040517f08c379a00000000000000000000000000000000000000000000000000000000081526004016112d490612e69565b60405180910390fd5b6112e8838383612177565b6112f3600082611060565b6001600a60008573ffffffffffffffffffffffffffffffffffffffff1673ffffffffffffffffffffffffffffffffffffffff168152602001908152602001600020600082825461134391906133f1565b925050819055506001600a60008473ffffffffffffffffffffffffffffffffffffffff1673ffffffffffffffffffffffffffffffffffffffff168152602001908152602001600020600082825461139a919061329f565b92505081905550816009600083815260200190815260200160002060006101000a81548173ffffffffffffffffffffffffffffffffffffffff021916908373ffffffffffffffffffffffffffffffffffffffff160217905550808273ffffffffffffffffffffffffffffffffffffffff168473ffffffffffffffffffffffffffffffffffffffff167fddf252ad1be2c89b69c2b068fc378daa952ba7f163c4a11628f55a4df523b3ef60405160405180910390a4505050565b60006004548360000b1315801561147b57506004546000611474919061335d565b8360000b12155b6114ba576040517f08c379a00000000000000000000000000000000000000000000000000000000081526004016114b190612fe9565b60405180910390fd5b6004548260000b131580156114e0575060045460006114d9919061335d565b8260000b12155b61151f576040517f08c379a000000000000000000000000000000000000000000000000000000000815260040161151690613109565b60405180910390fd5b6000600360008560000b60000b815260200190815260200160002060008460000b60000b81526020019081526020016000205414611592576040517f08c379a000000000000000000000000000000000000000000000000000000000815260040161158990612ee9565b60405180910390fd5b600560008154809291906115a590613587565b9190505590506000600260008381526020019081526020016000209050838160000160006101000a81548160ff021916908360000b60ff160217905550828160000160016101000a81548160ff021916908360000b60ff16021790555060058160000160026101000a81548160ff021916908360ff16021790555060648160000160036101000a81548160ff021916908360ff160217905550428160000160046101000a81548163ffffffff021916908363ffffffff160217905550848160010190805190602001906116799291906123d2565b5081600360008660000b60000b815260200190815260200160002060008560000b60000b8152602001908152602001600020819055507fb449d51a80a67072b11ef6826bc0a223593d54e719f7444cd86215a462c90bdb828686866040516116e49493929190613189565b60405180910390a1509392505050565b600073ffffffffffffffffffffffffffffffffffffffff168273ffffffffffffffffffffffffffffffffffffffff161415611764576040517f08c379a000000000000000000000000000000000000000000000000000000000815260040161175b90612f69565b60405180910390fd5b61176d81610fec565b156117ad576040517f08c379a00000000000000000000000000000000000000000000000000000000081526004016117a490612e49565b60405180910390fd5b6117b960008383612177565b6001600a60008473ffffffffffffffffffffffffffffffffffffffff1673ffffffffffffffffffffffffffffffffffffffff1681526020019081526020016000206000828254611809919061329f565b92505081905550816009600083815260200190815260200160002060006101000a81548173ffffffffffffffffffffffffffffffffffffffff021916908373ffffffffffffffffffffffffffffffffffffffff160217905550808273ffffffffffffffffffffffffffffffffffffffff16600073ffffffffffffffffffffffffffffffffffffffff167fddf252ad1be2c89b69c2b068fc378daa952ba7f163c4a11628f55a4df523b3ef60405160405180910390a45050565b60008060009054906101000a900473ffffffffffffffffffffffffffffffffffffffff169050816000806101000a81548173ffffffffffffffffffffffffffffffffffffffff021916908373ffffffffffffffffffffffffffffffffffffffff1602179055508173ffffffffffffffffffffffffffffffffffffffff168173ffffffffffffffffffffffffffffffffffffffff167f8be0079c531659141344cd1fd0a4f28419497f9722a3daafe3b4186f6b6457e060405160405180910390a35050565b600060026000868152602001908152602001600020905060006119a9868661217c565b60ff16146119ec576040517f08c379a00000000000000000000000000000000000000000000000000000000081526004016119e3906130e9565b60405180910390fd5b600060016000866006811115611a2b577f4e487b7100000000000000000000000000000000000000000000000000000000600052602160045260246000fd5b6006811115611a63577f4e487b7100000000000000000000000000000000000000000000000000000000600052602160045260246000fd5b815260200190815260200160002060009054906101000a900460ff16905060008160ff1611611ac7576040517f08c379a0000000000000000000000000000000000000000000000000000000008152600401611abe90612ec9565b60405180910390fd5b8160000160029054906101000a900460ff1660ff168185611ae891906132f5565b60ff161115611b2c576040517f08c379a0000000000000000000000000000000000000000000000000000000008152600401611b2390612fa9565b60405180910390fd5b8160000160029054906101000a900460ff1660ff168184611b4d91906132f5565b60ff161115611b91576040517f08c379a0000000000000000000000000000000000000000000000000000000008152600401611b8890612fa9565b60405180910390fd5b60008490505b8185611ba391906132f5565b60ff168160ff161015611d6d5760008490505b8285611bc291906132f5565b60ff168160ff161015611d595760005b84600201805490508160ff161015611d45576000856002018260ff1681548110611c25577f4e487b7100000000000000000000000000000000000000000000000000000000600052603260045260246000fd5b90600052602060002001905060008160000160029054906101000a900460ff168260000160009054906101000a900460ff16611c6191906132f5565b905060008260000160029054906101000a900460ff168360000160019054906101000a900460ff16611c9391906132f5565b90508260000160009054906101000a900460ff1660ff168660ff161080611cbf57508160ff168660ff16115b80611ce057508260000160019054906101000a900460ff1660ff168560ff16105b80611cf057508060ff168560ff16115b611d2f576040517f08c379a0000000000000000000000000000000000000000000000000000000008152600401611d26906130c9565b60405180910390fd5b5050508080611d3d906135d0565b915050611bd2565b508080611d51906135d0565b915050611bb6565b508080611d65906135d0565b915050611b97565b50816002016040518060c001604052808660ff1681526020018560ff1681526020018360ff168152602001600160ff1681526020014263ffffffff168152602001876006811115611de7577f4e487b7100000000000000000000000000000000000000000000000000000000600052602160045260246000fd5b8152509080600181540180825580915050600190039060005260206000200160009091909190915060008201518160000160006101000a81548160ff021916908360ff16021790555060208201518160000160016101000a81548160ff021916908360ff16021790555060408201518160000160026101000a81548160ff021916908360ff16021790555060608201518160000160036101000a81548160ff021916908360ff16021790555060808201518160000160046101000a81548163ffffffff021916908363ffffffff16021790555060a08201518160000160086101000a81548160ff02191690836006811115611f0b577f4e487b7100000000000000000000000000000000000000000000000000000000600052602160045260246000fd5b021790555050507f65ba7aa5381aa165bd92d38abccd807c7fb086876c94483c5648bdc0b0687bac86868686604051611f479493929190613144565b60405180910390a1505050505050565b611f628484846111f7565b611f6e84848484612228565b611fad576040517f08c379a0000000000000000000000000000000000000000000000000000000008152600401611fa490612e09565b60405180910390fd5b50505050565b606060405180602001604052806000815250905090565b60606000821415612012576040518060400160405280600181526020017f30000000000000000000000000000000000000000000000000000000000000008152509050612172565b600082905060005b6000821461204457808061202d90613587565b915050600a8261203d919061332c565b915061201a565b60008167ffffffffffffffff811115612086577f4e487b7100000000000000000000000000000000000000000000000000000000600052604160045260246000fd5b6040519080825280601f01601f1916602001820160405280156120b85781602001600182028036833780820191505090505b5090505b6000851461216b576001826120d191906133f1565b9150600a856120e091906135fa565b60306120ec919061329f565b60f81b818381518110612128577f4e487b7100000000000000000000000000000000000000000000000000000000600052603260045260246000fd5b60200101907effffffffffffffffffffffffffffffffffffffffffffffffffffffffffffff1916908160001a905350600a85612164919061332c565b94506120bc565b8093505050505b919050565b505050565b60006006600084815260200190815260200160002060008360068111156121cc577f4e487b7100000000000000000000000000000000000000000000000000000000600052602160045260246000fd5b6006811115612204577f4e487b7100000000000000000000000000000000000000000000000000000000600052602160045260246000fd5b815260200190815260200160002060009054906101000a900460ff16905092915050565b60006122498473ffffffffffffffffffffffffffffffffffffffff166123bf565b156123b2578373ffffffffffffffffffffffffffffffffffffffff1663150b7a02612272611058565b8786866040518563ffffffff1660e01b81526004016122949493929190612d80565b602060405180830381600087803b1580156122ae57600080fd5b505af19250505080156122df57506040513d601f19601f820116820180604052508101906122dc91906127bd565b60015b612362573d806000811461230f576040519150601f19603f3d011682016040523d82523d6000602084013e612314565b606091505b5060008151141561235a576040517f08c379a000000000000000000000000000000000000000000000000000000000815260040161235190612e09565b60405180910390fd5b805181602001fd5b63150b7a0260e01b7bffffffffffffffffffffffffffffffffffffffffffffffffffffffff1916817bffffffffffffffffffffffffffffffffffffffffffffffffffffffff1916149150506123b7565b600190505b949350505050565b600080823b905060008111915050919050565b8280546123de90613524565b90600052602060002090601f0160209004810192826124005760008555612447565b82601f1061241957805160ff1916838001178555612447565b82800160010185558215612447579182015b8281111561244657825182559160200191906001019061242b565b5b5090506124549190612458565b5090565b5b80821115612471576000816000905550600101612459565b5090565b6000612488612483846131fa565b6131d5565b9050828152602081018484840111156124a057600080fd5b6124ab8482856134e2565b509392505050565b60006124c66124c18461322b565b6131d5565b9050828152602081018484840111156124de57600080fd5b6124e98482856134e2565b509392505050565b60008135905061250081613dc2565b92915050565b60008135905061251581613dd9565b92915050565b60008135905061252a81613df0565b92915050565b60008151905061253f81613df0565b92915050565b600082601f83011261255657600080fd5b8135612566848260208601612475565b91505092915050565b60008135905061257e81613e07565b92915050565b60008135905061259381613e17565b92915050565b600082601f8301126125aa57600080fd5b81356125ba8482602086016124b3565b91505092915050565b6000813590506125d281613e2e565b92915050565b6000813590506125e781613e45565b92915050565b6000602082840312156125ff57600080fd5b600061260d848285016124f1565b91505092915050565b6000806040838503121561262957600080fd5b6000612637858286016124f1565b9250506020612648858286016124f1565b9150509250929050565b60008060006060848603121561266757600080fd5b6000612675868287016124f1565b9350506020612686868287016124f1565b9250506040612697868287016125c3565b9150509250925092565b600080600080608085870312156126b757600080fd5b60006126c5878288016124f1565b94505060206126d6878288016124f1565b93505060406126e7878288016125c3565b925050606085013567ffffffffffffffff81111561270457600080fd5b61271087828801612545565b91505092959194509250565b6000806040838503121561272f57600080fd5b600061273d858286016124f1565b925050602061274e85828601612506565b9150509250929050565b6000806040838503121561276b57600080fd5b6000612779858286016124f1565b925050602061278a858286016125c3565b9150509250929050565b6000602082840312156127a657600080fd5b60006127b48482850161251b565b91505092915050565b6000602082840312156127cf57600080fd5b60006127dd84828501612530565b91505092915050565b6000806000606084860312156127fb57600080fd5b600084013567ffffffffffffffff81111561281557600080fd5b61282186828701612599565b935050602061283286828701612584565b925050604061284386828701612584565b9150509250925092565b60006020828403121561285f57600080fd5b600061286d848285016125c3565b91505092915050565b6000806000806080858703121561288c57600080fd5b600061289a878288016125c3565b94505060206128ab8782880161256f565b93505060406128bc878288016125d8565b92505060606128cd878288016125d8565b91505092959194509250565b6128e281613425565b82525050565b6128f181613437565b82525050565b60006129028261325c565b61290c8185613272565b935061291c8185602086016134f1565b61292581613716565b840191505092915050565b612939816134d0565b82525050565b6129488161348c565b82525050565b600061295982613267565b6129638185613283565b93506129738185602086016134f1565b61297c81613716565b840191505092915050565b600061299282613267565b61299c8185613294565b93506129ac8185602086016134f1565b80840191505092915050565b60006129c5603283613283565b91506129d082613727565b604082019050919050565b60006129e8602683613283565b91506129f382613776565b604082019050919050565b6000612a0b601c83613283565b9150612a16826137c5565b602082019050919050565b6000612a2e602483613283565b9150612a39826137ee565b604082019050919050565b6000612a51601983613283565b9150612a5c8261383d565b602082019050919050565b6000612a74602c83613283565b9150612a7f82613866565b604082019050919050565b6000612a97603c83613283565b9150612aa2826138b5565b604082019050919050565b6000612aba602b83613283565b9150612ac582613904565b604082019050919050565b6000612add603883613283565b9150612ae882613953565b604082019050919050565b6000612b00602a83613283565b9150612b0b826139a2565b604082019050919050565b6000612b23602983613283565b9150612b2e826139f1565b604082019050919050565b6000612b46602083613283565b9150612b5182613a40565b602082019050919050565b6000612b69602c83613283565b9150612b7482613a69565b604082019050919050565b6000612b8c602c83613283565b9150612b9782613ab8565b604082019050919050565b6000612baf602083613283565b9150612bba82613b07565b602082019050919050565b6000612bd2601a83613283565b9150612bdd82613b30565b602082019050919050565b6000612bf5601c83613283565b9150612c0082613b59565b602082019050919050565b6000612c18602983613283565b9150612c2382613b82565b604082019050919050565b6000612c3b602f83613283565b9150612c4682613bd1565b604082019050919050565b6000612c5e602183613283565b9150612c6982613c20565b604082019050919050565b6000612c81602d83613283565b9150612c8c82613c6f565b604082019050919050565b6000612ca4603183613283565b9150612caf82613cbe565b604082019050919050565b6000612cc7601e83613283565b9150612cd282613d0d565b602082019050919050565b6000612cea602c83613283565b9150612cf582613d36565b604082019050919050565b6000612d0d601a83613283565b9150612d1882613d85565b602082019050919050565b612d2c816134b9565b82525050565b612d3b816134c3565b82525050565b6000612d4d8285612987565b9150612d598284612987565b91508190509392505050565b6000602082019050612d7a60008301846128d9565b92915050565b6000608082019050612d9560008301876128d9565b612da260208301866128d9565b612daf6040830185612d23565b8181036060830152612dc181846128f7565b905095945050505050565b6000602082019050612de160008301846128e8565b92915050565b60006020820190508181036000830152612e01818461294e565b905092915050565b60006020820190508181036000830152612e22816129b8565b9050919050565b60006020820190508181036000830152612e42816129db565b9050919050565b60006020820190508181036000830152612e62816129fe565b9050919050565b60006020820190508181036000830152612e8281612a21565b9050919050565b60006020820190508181036000830152612ea281612a44565b9050919050565b60006020820190508181036000830152612ec281612a67565b9050919050565b60006020820190508181036000830152612ee281612a8a565b9050919050565b60006020820190508181036000830152612f0281612aad565b9050919050565b60006020820190508181036000830152612f2281612ad0565b9050919050565b60006020820190508181036000830152612f4281612af3565b9050919050565b60006020820190508181036000830152612f6281612b16565b9050919050565b60006020820190508181036000830152612f8281612b39565b9050919050565b60006020820190508181036000830152612fa281612b5c565b9050919050565b60006020820190508181036000830152612fc281612b7f565b9050919050565b60006020820190508181036000830152612fe281612ba2565b9050919050565b6000602082019050818103600083015261300281612bc5565b9050919050565b6000602082019050818103600083015261302281612be8565b9050919050565b6000602082019050818103600083015261304281612c0b565b9050919050565b6000602082019050818103600083015261306281612c2e565b9050919050565b6000602082019050818103600083015261308281612c51565b9050919050565b600060208201905081810360008301526130a281612c74565b9050919050565b600060208201905081810360008301526130c281612c97565b9050919050565b600060208201905081810360008301526130e281612cba565b9050919050565b6000602082019050818103600083015261310281612cdd565b9050919050565b6000602082019050818103600083015261312281612d00565b9050919050565b600060208201905061313e6000830184612d23565b92915050565b60006080820190506131596000830187612d23565b6131666020830186612930565b6131736040830185612d32565b6131806060830184612d32565b95945050505050565b600060808201905061319e6000830187612d23565b81810360208301526131b0818661294e565b90506131bf604083018561293f565b6131cc606083018461293f565b95945050505050565b60006131df6131f0565b90506131eb8282613556565b919050565b6000604051905090565b600067ffffffffffffffff821115613215576132146136e7565b5b61321e82613716565b9050602081019050919050565b600067ffffffffffffffff821115613246576132456136e7565b5b61324f82613716565b9050602081019050919050565b600081519050919050565b600081519050919050565b600082825260208201905092915050565b600082825260208201905092915050565b600081905092915050565b60006132aa826134b9565b91506132b5836134b9565b9250827fffffffffffffffffffffffffffffffffffffffffffffffffffffffffffffffff038211156132ea576132e961362b565b5b828201905092915050565b6000613300826134c3565b915061330b836134c3565b92508260ff038211156133215761332061362b565b5b828201905092915050565b6000613337826134b9565b9150613342836134b9565b9250826133525761335161365a565b5b828204905092915050565b600061336882613482565b915061337383613482565b9250827f8000000000000000000000000000000000000000000000000000000000000000018212600084121516156133ae576133ad61362b565b5b827f7fffffffffffffffffffffffffffffffffffffffffffffffffffffffffffffff0182136000841216156133e6576133e561362b565b5b828203905092915050565b60006133fc826134b9565b9150613407836134b9565b92508282101561341a5761341961362b565b5b828203905092915050565b600061343082613499565b9050919050565b60008115159050919050565b60007fffffffff0000000000000000000000000000000000000000000000000000000082169050919050565b600081905061347d82613dae565b919050565b6000819050919050565b60008160000b9050919050565b600073ffffffffffffffffffffffffffffffffffffffff82169050919050565b6000819050919050565b600060ff82169050919050565b60006134db8261346f565b9050919050565b82818337600083830152505050565b60005b8381101561350f5780820151818401526020810190506134f4565b8381111561351e576000848401525b50505050565b6000600282049050600182168061353c57607f821691505b602082108114156135505761354f6136b8565b5b50919050565b61355f82613716565b810181811067ffffffffffffffff8211171561357e5761357d6136e7565b5b80604052505050565b6000613592826134b9565b91507fffffffffffffffffffffffffffffffffffffffffffffffffffffffffffffffff8214156135c5576135c461362b565b5b600182019050919050565b60006135db826134c3565b915060ff8214156135ef576135ee61362b565b5b600182019050919050565b6000613605826134b9565b9150613610836134b9565b9250826136205761361f61365a565b5b828206905092915050565b7f4e487b7100000000000000000000000000000000000000000000000000000000600052601160045260246000fd5b7f4e487b7100000000000000000000000000000000000000000000000000000000600052601260045260246000fd5b7f4e487b7100000000000000000000000000000000000000000000000000000000600052602160045260246000fd5b7f4e487b7100000000000000000000000000000000000000000000000000000000600052602260045260246000fd5b7f4e487b7100000000000000000000000000000000000000000000000000000000600052604160045260246000fd5b6000601f19601f8301169050919050565b7f4552433732313a207472616e7366657220746f206e6f6e20455243373231526560008201527f63656976657220696d706c656d656e7465720000000000000000000000000000602082015250565b7f4f776e61626c653a206e6577206f776e657220697320746865207a65726f206160008201527f6464726573730000000000000000000000000000000000000000000000000000602082015250565b7f4552433732313a20746f6b656e20616c7265616479206d696e74656400000000600082015250565b7f4552433732313a207472616e7366657220746f20746865207a65726f2061646460008201527f7265737300000000000000000000000000000000000000000000000000000000602082015250565b7f4552433732313a20617070726f766520746f2063616c6c657200000000000000600082015250565b7f4552433732313a206f70657261746f7220717565727920666f72206e6f6e657860008201527f697374656e7420746f6b656e0000000000000000000000000000000000000000602082015250565b7f4572726f722c20696e76616c6964206275696c64696e672073697a652e20436860008201527f65636b206275696c64696e67207479706520706172616d657465722e00000000602082015250565b7f76696c6c61676520616c7265616479206578697374732061742074686573652060008201527f636f6f7264696e61746573000000000000000000000000000000000000000000602082015250565b7f4552433732313a20617070726f76652063616c6c6572206973206e6f74206f7760008201527f6e6572206e6f7220617070726f76656420666f7220616c6c0000000000000000602082015250565b7f4552433732313a2062616c616e636520717565727920666f7220746865207a6560008201527f726f206164647265737300000000000000000000000000000000000000000000602082015250565b7f4552433732313a206f776e657220717565727920666f72206e6f6e657869737460008201527f656e7420746f6b656e0000000000000000000000000000000000000000000000602082015250565b7f4552433732313a206d696e7420746f20746865207a65726f2061646472657373600082015250565b7f4552433732313a20617070726f76656420717565727920666f72206e6f6e657860008201527f697374656e7420746f6b656e0000000000000000000000000000000000000000602082015250565b7f4e657720706c6163656d656e74206f7574206f6620626f756e647320666f722060008201527f76696c6c6167652073697a650000000000000000000000000000000000000000602082015250565b7f4f776e61626c653a2063616c6c6572206973206e6f7420746865206f776e6572600082015250565b7f7820636f6f7264696e617465206f7574206f6620626f756e6473000000000000600082015250565b7f4e6f7420746865206f776e6572206f66207468652076696c6c61676500000000600082015250565b7f4552433732313a207472616e73666572206f6620746f6b656e2074686174206960008201527f73206e6f74206f776e0000000000000000000000000000000000000000000000602082015250565b7f4552433732314d657461646174613a2055524920717565727920666f72206e6f60008201527f6e6578697374656e7420746f6b656e0000000000000000000000000000000000602082015250565b7f4552433732313a20617070726f76616c20746f2063757272656e74206f776e6560008201527f7200000000000000000000000000000000000000000000000000000000000000602082015250565b7f4e6577206d61702073697a65206d75737420626520626967676572207468616e60008201527f206f6c64206d61702073697a6500000000000000000000000000000000000000602082015250565b7f4552433732313a207472616e736665722063616c6c6572206973206e6f74206f60008201527f776e6572206e6f7220617070726f766564000000000000000000000000000000602082015250565b7f436c61736865732077697468206578697374696e67206275696c64696e670000600082015250565b7f546869732074797065206f66206275696c64696e672068617320616c7265616460008201527f79206265656e206275696c740000000000000000000000000000000000000000602082015250565b7f7920636f6f7264696e617465206f7574206f6620626f756e6473000000000000600082015250565b60078110613dbf57613dbe613689565b5b50565b613dcb81613425565b8114613dd657600080fd5b50565b613de281613437565b8114613ded57600080fd5b50565b613df981613443565b8114613e0457600080fd5b50565b60078110613e1457600080fd5b50565b613e208161348c565b8114613e2b57600080fd5b50565b613e37816134b9565b8114613e4257600080fd5b50565b613e4e816134c3565b8114613e5957600080fd5b5056fea2646970667358221220875ba871126abc9aab188b3bafe54bc082b729629b846b27558601b1f1bdd08f64736f6c63430008040033",
  "linkReferences": {},
  "deployedLinkReferences": {}
}