{
  "_format": "hh-sol-artifact-1",
  "contractName": "VillageGold",
  "sourceName": "contracts/VillageGold.sol",
  "abi": [
    {
      "inputs": [
        {
          "internalType": "uint256",
          "name": "initialSupply",
          "type": "uint256"
        }
      ],
      "stateMutability": "nonpayable",
      "type": "constructor"
    },
    {
      "anonymous": false,
      "inputs": [
        {
          "indexed": true,
          "internalType": "address",
          "name": "owner",
          "type": "address"
        },
        {
          "indexed": true,
          "internalType": "address",
          "name": "spender",
          "type": "address"
        },
        {
          "indexed": false,
          "internalType": "uint256",
          "name": "value",
          "type": "uint256"
        }
      ],
      "name": "Approval",
      "type": "event"
    },
    {
      "anonymous": false,
      "inputs": [
        {
          "indexed": true,
          "internalType": "address",
          "name": "previousOwner",
          "type": "address"
        },
        {
          "indexed": true,
          "internalType": "address",
          "name": "newOwner",
          "type": "address"
        }
      ],
      "name": "OwnershipTransferred",
      "type": "event"
    },
    {
      "anonymous": false,
      "inputs": [
        {
          "indexed": true,
          "internalType": "address",
          "name": "from",
          "type": "address"
        },
        {
          "indexed": true,
          "internalType": "address",
          "name": "to",
          "type": "address"
        },
        {
          "indexed": false,
          "internalType": "uint256",
          "name": "value",
          "type": "uint256"
        }
      ],
      "name": "Transfer",
      "type": "event"
    },
    {
      "inputs": [
        {
          "internalType": "address",
          "name": "owner",
          "type": "address"
        },
        {
          "internalType": "address",
          "name": "spender",
          "type": "address"
        }
      ],
      "name": "allowance",
      "outputs": [
        {
          "internalType": "uint256",
          "name": "",
          "type": "uint256"
        }
      ],
      "stateMutability": "view",
      "type": "function"
    },
    {
      "inputs": [
        {
          "internalType": "address",
          "name": "spender",
          "type": "address"
        },
        {
          "internalType": "uint256",
          "name": "amount",
          "type": "uint256"
        }
      ],
      "name": "approve",
      "outputs": [
        {
          "internalType": "bool",
          "name": "",
          "type": "bool"
        }
      ],
      "stateMutability": "nonpayable",
      "type": "function"
    },
    {
      "inputs": [
        {
          "internalType": "address",
          "name": "account",
          "type": "address"
        }
      ],
      "name": "balanceOf",
      "outputs": [
        {
          "internalType": "uint256",
          "name": "",
          "type": "uint256"
        }
      ],
      "stateMutability": "view",
      "type": "function"
    },
    {
      "inputs": [],
      "name": "decimals",
      "outputs": [
        {
          "internalType": "uint8",
          "name": "",
          "type": "uint8"
        }
      ],
      "stateMutability": "view",
      "type": "function"
    },
    {
      "inputs": [
        {
          "internalType": "address",
          "name": "spender",
          "type": "address"
        },
        {
          "internalType": "uint256",
          "name": "subtractedValue",
          "type": "uint256"
        }
      ],
      "name": "decreaseAllowance",
      "outputs": [
        {
          "internalType": "bool",
          "name": "",
          "type": "bool"
        }
      ],
      "stateMutability": "nonpayable",
      "type": "function"
    },
    {
      "inputs": [
        {
          "internalType": "address",
          "name": "spender",
          "type": "address"
        },
        {
          "internalType": "uint256",
          "name": "addedValue",
          "type": "uint256"
        }
      ],
      "name": "increaseAllowance",
      "outputs": [
        {
          "internalType": "bool",
          "name": "",
          "type": "bool"
        }
      ],
      "stateMutability": "nonpayable",
      "type": "function"
    },
    {
      "inputs": [],
      "name": "name",
      "outputs": [
        {
          "internalType": "string",
          "name": "",
          "type": "string"
        }
      ],
      "stateMutability": "view",
      "type": "function"
    },
    {
      "inputs": [],
      "name": "owner",
      "outputs": [
        {
          "internalType": "address",
          "name": "",
          "type": "address"
        }
      ],
      "stateMutability": "view",
      "type": "function"
    },
    {
      "inputs": [],
      "name": "renounceOwnership",
      "outputs": [],
      "stateMutability": "nonpayable",
      "type": "function"
    },
    {
      "inputs": [
        {
          "internalType": "address",
          "name": "receiver",
          "type": "address"
        },
        {
          "internalType": "uint256",
          "name": "amount",
          "type": "uint256"
        }
      ],
      "name": "sendMiningReward",
      "outputs": [],
      "stateMutability": "nonpayable",
      "type": "function"
    },
    {
      "inputs": [
        {
          "internalType": "address",
          "name": "_contractAddress",
          "type": "address"
        }
      ],
      "name": "setVillageNftAddress",
      "outputs": [],
      "stateMutability": "nonpayable",
      "type": "function"
    },
    {
      "inputs": [],
      "name": "symbol",
      "outputs": [
        {
          "internalType": "string",
          "name": "",
          "type": "string"
        }
      ],
      "stateMutability": "view",
      "type": "function"
    },
    {
      "inputs": [],
      "name": "totalSupply",
      "outputs": [
        {
          "internalType": "uint256",
          "name": "",
          "type": "uint256"
        }
      ],
      "stateMutability": "view",
      "type": "function"
    },
    {
      "inputs": [
        {
          "internalType": "address",
          "name": "recipient",
          "type": "address"
        },
        {
          "internalType": "uint256",
          "name": "amount",
          "type": "uint256"
        }
      ],
      "name": "transfer",
      "outputs": [
        {
          "internalType": "bool",
          "name": "",
          "type": "bool"
        }
      ],
      "stateMutability": "nonpayable",
      "type": "function"
    },
    {
      "inputs": [
        {
          "internalType": "address",
          "name": "sender",
          "type": "address"
        },
        {
          "internalType": "address",
          "name": "recipient",
          "type": "address"
        },
        {
          "internalType": "uint256",
          "name": "amount",
          "type": "uint256"
        }
      ],
      "name": "transferFrom",
      "outputs": [
        {
          "internalType": "bool",
          "name": "",
          "type": "bool"
        }
      ],
      "stateMutability": "nonpayable",
      "type": "function"
    },
    {
      "inputs": [
        {
          "internalType": "address",
          "name": "newOwner",
          "type": "address"
        }
      ],
      "name": "transferOwnership",
      "outputs": [],
      "stateMutability": "nonpayable",
      "type": "function"
    }
  ],
  "bytecode": "0x60806040523480156200001157600080fd5b50604051620021e6380380620021e6833981810160405281019062000037919062000428565b6040518060400160405280600b81526020017f56696c6c616765476f6c640000000000000000000000000000000000000000008152506040518060400160405280600481526020017f56474c44000000000000000000000000000000000000000000000000000000008152508160039080519060200190620000bb92919062000361565b508060049080519060200190620000d492919062000361565b505050620000f7620000eb6200011060201b60201c565b6200011860201b60201c565b620001093382620001de60201b60201c565b506200061a565b600033905090565b6000600560009054906101000a900473ffffffffffffffffffffffffffffffffffffffff16905081600560006101000a81548173ffffffffffffffffffffffffffffffffffffffff021916908373ffffffffffffffffffffffffffffffffffffffff1602179055508173ffffffffffffffffffffffffffffffffffffffff168173ffffffffffffffffffffffffffffffffffffffff167f8be0079c531659141344cd1fd0a4f28419497f9722a3daafe3b4186f6b6457e060405160405180910390a35050565b600073ffffffffffffffffffffffffffffffffffffffff168273ffffffffffffffffffffffffffffffffffffffff16141562000251576040517f08c379a000000000000000000000000000000000000000000000000000000000815260040162000248906200048c565b60405180910390fd5b62000265600083836200035760201b60201c565b8060026000828254620002799190620004dc565b92505081905550806000808473ffffffffffffffffffffffffffffffffffffffff1673ffffffffffffffffffffffffffffffffffffffff1681526020019081526020016000206000828254620002d09190620004dc565b925050819055508173ffffffffffffffffffffffffffffffffffffffff16600073ffffffffffffffffffffffffffffffffffffffff167fddf252ad1be2c89b69c2b068fc378daa952ba7f163c4a11628f55a4df523b3ef83604051620003379190620004ae565b60405180910390a362000353600083836200035c60201b60201c565b5050565b505050565b505050565b8280546200036f9062000543565b90600052602060002090601f016020900481019282620003935760008555620003df565b82601f10620003ae57805160ff1916838001178555620003df565b82800160010185558215620003df579182015b82811115620003de578251825591602001919060010190620003c1565b5b509050620003ee9190620003f2565b5090565b5b808211156200040d576000816000905550600101620003f3565b5090565b600081519050620004228162000600565b92915050565b6000602082840312156200043b57600080fd5b60006200044b8482850162000411565b91505092915050565b600062000463601f83620004cb565b91506200047082620005d7565b602082019050919050565b620004868162000539565b82525050565b60006020820190508181036000830152620004a78162000454565b9050919050565b6000602082019050620004c560008301846200047b565b92915050565b600082825260208201905092915050565b6000620004e98262000539565b9150620004f68362000539565b9250827fffffffffffffffffffffffffffffffffffffffffffffffffffffffffffffffff038211156200052e576200052d62000579565b5b828201905092915050565b6000819050919050565b600060028204905060018216806200055c57607f821691505b60208210811415620005735762000572620005a8565b5b50919050565b7f4e487b7100000000000000000000000000000000000000000000000000000000600052601160045260246000fd5b7f4e487b7100000000000000000000000000000000000000000000000000000000600052602260045260246000fd5b7f45524332303a206d696e7420746f20746865207a65726f206164647265737300600082015250565b6200060b8162000539565b81146200061757600080fd5b50565b611bbc806200062a6000396000f3fe608060405234801561001057600080fd5b50600436106101005760003560e01c80638da5cb5b11610097578063aa691d0c11610066578063aa691d0c146102c5578063c2658087146102e1578063dd62ed3e146102fd578063f2fde38b1461032d57610100565b80638da5cb5b1461022957806395d89b4114610247578063a457c2d714610265578063a9059cbb1461029557610100565b8063313ce567116100d3578063313ce567146101a157806339509351146101bf57806370a08231146101ef578063715018a61461021f57610100565b806306fdde0314610105578063095ea7b31461012357806318160ddd1461015357806323b872dd14610171575b600080fd5b61010d610349565b60405161011a91906114ec565b60405180910390f35b61013d60048036038101906101389190611284565b6103db565b60405161014a91906114d1565b60405180910390f35b61015b6103f9565b604051610168919061166e565b60405180910390f35b61018b60048036038101906101869190611235565b610403565b60405161019891906114d1565b60405180910390f35b6101a96104fb565b6040516101b69190611689565b60405180910390f35b6101d960048036038101906101d49190611284565b610504565b6040516101e691906114d1565b60405180910390f35b610209600480360381019061020491906111d0565b6105b0565b604051610216919061166e565b60405180910390f35b6102276105f8565b005b610231610680565b60405161023e91906114b6565b60405180910390f35b61024f6106aa565b60405161025c91906114ec565b60405180910390f35b61027f600480360381019061027a9190611284565b61073c565b60405161028c91906114d1565b60405180910390f35b6102af60048036038101906102aa9190611284565b610827565b6040516102bc91906114d1565b60405180910390f35b6102df60048036038101906102da9190611284565b610845565b005b6102fb60048036038101906102f691906111d0565b6108e3565b005b610317600480360381019061031291906111f9565b6109a3565b604051610324919061166e565b60405180910390f35b610347600480360381019061034291906111d0565b610a2a565b005b6060600380546103589061179e565b80601f01602080910402602001604051908101604052809291908181526020018280546103849061179e565b80156103d15780601f106103a6576101008083540402835291602001916103d1565b820191906000526020600020905b8154815290600101906020018083116103b457829003601f168201915b5050505050905090565b60006103ef6103e8610b22565b8484610b2a565b6001905092915050565b6000600254905090565b6000610410848484610cf5565b6000600160008673ffffffffffffffffffffffffffffffffffffffff1673ffffffffffffffffffffffffffffffffffffffff168152602001908152602001600020600061045b610b22565b73ffffffffffffffffffffffffffffffffffffffff1673ffffffffffffffffffffffffffffffffffffffff168152602001908152602001600020549050828110156104db576040517f08c379a00000000000000000000000000000000000000000000000000000000081526004016104d2906115ae565b60405180910390fd5b6104ef856104e7610b22565b858403610b2a565b60019150509392505050565b60006012905090565b60006105a6610511610b22565b84846001600061051f610b22565b73ffffffffffffffffffffffffffffffffffffffff1673ffffffffffffffffffffffffffffffffffffffff16815260200190815260200160002060008873ffffffffffffffffffffffffffffffffffffffff1673ffffffffffffffffffffffffffffffffffffffff168152602001908152602001600020546105a191906116c0565b610b2a565b6001905092915050565b60008060008373ffffffffffffffffffffffffffffffffffffffff1673ffffffffffffffffffffffffffffffffffffffff168152602001908152602001600020549050919050565b610600610b22565b73ffffffffffffffffffffffffffffffffffffffff1661061e610680565b73ffffffffffffffffffffffffffffffffffffffff1614610674576040517f08c379a000000000000000000000000000000000000000000000000000000000815260040161066b906115ce565b60405180910390fd5b61067e6000610f76565b565b6000600560009054906101000a900473ffffffffffffffffffffffffffffffffffffffff16905090565b6060600480546106b99061179e565b80601f01602080910402602001604051908101604052809291908181526020018280546106e59061179e565b80156107325780601f1061070757610100808354040283529160200191610732565b820191906000526020600020905b81548152906001019060200180831161071557829003601f168201915b5050505050905090565b6000806001600061074b610b22565b73ffffffffffffffffffffffffffffffffffffffff1673ffffffffffffffffffffffffffffffffffffffff16815260200190815260200160002060008573ffffffffffffffffffffffffffffffffffffffff1673ffffffffffffffffffffffffffffffffffffffff16815260200190815260200160002054905082811015610808576040517f08c379a00000000000000000000000000000000000000000000000000000000081526004016107ff9061162e565b60405180910390fd5b61081c610813610b22565b85858403610b2a565b600191505092915050565b600061083b610834610b22565b8484610cf5565b6001905092915050565b600660009054906101000a900473ffffffffffffffffffffffffffffffffffffffff1673ffffffffffffffffffffffffffffffffffffffff163373ffffffffffffffffffffffffffffffffffffffff16146108d5576040517f08c379a00000000000000000000000000000000000000000000000000000000081526004016108cc9061156e565b60405180910390fd5b6108df828261103c565b5050565b6108eb610b22565b73ffffffffffffffffffffffffffffffffffffffff16610909610680565b73ffffffffffffffffffffffffffffffffffffffff161461095f576040517f08c379a0000000000000000000000000000000000000000000000000000000008152600401610956906115ce565b60405180910390fd5b80600660006101000a81548173ffffffffffffffffffffffffffffffffffffffff021916908373ffffffffffffffffffffffffffffffffffffffff16021790555050565b6000600160008473ffffffffffffffffffffffffffffffffffffffff1673ffffffffffffffffffffffffffffffffffffffff16815260200190815260200160002060008373ffffffffffffffffffffffffffffffffffffffff1673ffffffffffffffffffffffffffffffffffffffff16815260200190815260200160002054905092915050565b610a32610b22565b73ffffffffffffffffffffffffffffffffffffffff16610a50610680565b73ffffffffffffffffffffffffffffffffffffffff1614610aa6576040517f08c379a0000000000000000000000000000000000000000000000000000000008152600401610a9d906115ce565b60405180910390fd5b600073ffffffffffffffffffffffffffffffffffffffff168173ffffffffffffffffffffffffffffffffffffffff161415610b16576040517f08c379a0000000000000000000000000000000000000000000000000000000008152600401610b0d9061152e565b60405180910390fd5b610b1f81610f76565b50565b600033905090565b600073ffffffffffffffffffffffffffffffffffffffff168373ffffffffffffffffffffffffffffffffffffffff161415610b9a576040517f08c379a0000000000000000000000000000000000000000000000000000000008152600401610b919061160e565b60405180910390fd5b600073ffffffffffffffffffffffffffffffffffffffff168273ffffffffffffffffffffffffffffffffffffffff161415610c0a576040517f08c379a0000000000000000000000000000000000000000000000000000000008152600401610c019061154e565b60405180910390fd5b80600160008573ffffffffffffffffffffffffffffffffffffffff1673ffffffffffffffffffffffffffffffffffffffff16815260200190815260200160002060008473ffffffffffffffffffffffffffffffffffffffff1673ffffffffffffffffffffffffffffffffffffffff168152602001908152602001600020819055508173ffffffffffffffffffffffffffffffffffffffff168373ffffffffffffffffffffffffffffffffffffffff167f8c5be1e5ebec7d5bd14f71427d1e84f3dd0314c0f7b2291e5b200ac8c7c3b92583604051610ce8919061166e565b60405180910390a3505050565b600073ffffffffffffffffffffffffffffffffffffffff168373ffffffffffffffffffffffffffffffffffffffff161415610d65576040517f08c379a0000000000000000000000000000000000000000000000000000000008152600401610d5c906115ee565b60405180910390fd5b600073ffffffffffffffffffffffffffffffffffffffff168273ffffffffffffffffffffffffffffffffffffffff161415610dd5576040517f08c379a0000000000000000000000000000000000000000000000000000000008152600401610dcc9061150e565b60405180910390fd5b610de083838361119c565b60008060008573ffffffffffffffffffffffffffffffffffffffff1673ffffffffffffffffffffffffffffffffffffffff16815260200190815260200160002054905081811015610e66576040517f08c379a0000000000000000000000000000000000000000000000000000000008152600401610e5d9061158e565b60405180910390fd5b8181036000808673ffffffffffffffffffffffffffffffffffffffff1673ffffffffffffffffffffffffffffffffffffffff16815260200190815260200160002081905550816000808573ffffffffffffffffffffffffffffffffffffffff1673ffffffffffffffffffffffffffffffffffffffff1681526020019081526020016000206000828254610ef991906116c0565b925050819055508273ffffffffffffffffffffffffffffffffffffffff168473ffffffffffffffffffffffffffffffffffffffff167fddf252ad1be2c89b69c2b068fc378daa952ba7f163c4a11628f55a4df523b3ef84604051610f5d919061166e565b60405180910390a3610f708484846111a1565b50505050565b6000600560009054906101000a900473ffffffffffffffffffffffffffffffffffffffff16905081600560006101000a81548173ffffffffffffffffffffffffffffffffffffffff021916908373ffffffffffffffffffffffffffffffffffffffff1602179055508173ffffffffffffffffffffffffffffffffffffffff168173ffffffffffffffffffffffffffffffffffffffff167f8be0079c531659141344cd1fd0a4f28419497f9722a3daafe3b4186f6b6457e060405160405180910390a35050565b600073ffffffffffffffffffffffffffffffffffffffff168273ffffffffffffffffffffffffffffffffffffffff1614156110ac576040517f08c379a00000000000000000000000000000000000000000000000000000000081526004016110a39061164e565b60405180910390fd5b6110b86000838361119c565b80600260008282546110ca91906116c0565b92505081905550806000808473ffffffffffffffffffffffffffffffffffffffff1673ffffffffffffffffffffffffffffffffffffffff168152602001908152602001600020600082825461111f91906116c0565b925050819055508173ffffffffffffffffffffffffffffffffffffffff16600073ffffffffffffffffffffffffffffffffffffffff167fddf252ad1be2c89b69c2b068fc378daa952ba7f163c4a11628f55a4df523b3ef83604051611184919061166e565b60405180910390a3611198600083836111a1565b5050565b505050565b505050565b6000813590506111b581611b58565b92915050565b6000813590506111ca81611b6f565b92915050565b6000602082840312156111e257600080fd5b60006111f0848285016111a6565b91505092915050565b6000806040838503121561120c57600080fd5b600061121a858286016111a6565b925050602061122b858286016111a6565b9150509250929050565b60008060006060848603121561124a57600080fd5b6000611258868287016111a6565b9350506020611269868287016111a6565b925050604061127a868287016111bb565b9150509250925092565b6000806040838503121561129757600080fd5b60006112a5858286016111a6565b92505060206112b6858286016111bb565b9150509250929050565b6112c981611716565b82525050565b6112d881611728565b82525050565b60006112e9826116a4565b6112f381856116af565b935061130381856020860161176b565b61130c8161182e565b840191505092915050565b60006113246023836116af565b915061132f8261183f565b604082019050919050565b60006113476026836116af565b91506113528261188e565b604082019050919050565b600061136a6022836116af565b9150611375826118dd565b604082019050919050565b600061138d6021836116af565b91506113988261192c565b604082019050919050565b60006113b06026836116af565b91506113bb8261197b565b604082019050919050565b60006113d36028836116af565b91506113de826119ca565b604082019050919050565b60006113f66020836116af565b915061140182611a19565b602082019050919050565b60006114196025836116af565b915061142482611a42565b604082019050919050565b600061143c6024836116af565b915061144782611a91565b604082019050919050565b600061145f6025836116af565b915061146a82611ae0565b604082019050919050565b6000611482601f836116af565b915061148d82611b2f565b602082019050919050565b6114a181611754565b82525050565b6114b08161175e565b82525050565b60006020820190506114cb60008301846112c0565b92915050565b60006020820190506114e660008301846112cf565b92915050565b6000602082019050818103600083015261150681846112de565b905092915050565b6000602082019050818103600083015261152781611317565b9050919050565b600060208201905081810360008301526115478161133a565b9050919050565b600060208201905081810360008301526115678161135d565b9050919050565b6000602082019050818103600083015261158781611380565b9050919050565b600060208201905081810360008301526115a7816113a3565b9050919050565b600060208201905081810360008301526115c7816113c6565b9050919050565b600060208201905081810360008301526115e7816113e9565b9050919050565b600060208201905081810360008301526116078161140c565b9050919050565b600060208201905081810360008301526116278161142f565b9050919050565b6000602082019050818103600083015261164781611452565b9050919050565b6000602082019050818103600083015261166781611475565b9050919050565b60006020820190506116836000830184611498565b92915050565b600060208201905061169e60008301846114a7565b92915050565b600081519050919050565b600082825260208201905092915050565b60006116cb82611754565b91506116d683611754565b9250827fffffffffffffffffffffffffffffffffffffffffffffffffffffffffffffffff0382111561170b5761170a6117d0565b5b828201905092915050565b600061172182611734565b9050919050565b60008115159050919050565b600073ffffffffffffffffffffffffffffffffffffffff82169050919050565b6000819050919050565b600060ff82169050919050565b60005b8381101561178957808201518184015260208101905061176e565b83811115611798576000848401525b50505050565b600060028204905060018216806117b657607f821691505b602082108114156117ca576117c96117ff565b5b50919050565b7f4e487b7100000000000000000000000000000000000000000000000000000000600052601160045260246000fd5b7f4e487b7100000000000000000000000000000000000000000000000000000000600052602260045260246000fd5b6000601f19601f8301169050919050565b7f45524332303a207472616e7366657220746f20746865207a65726f206164647260008201527f6573730000000000000000000000000000000000000000000000000000000000602082015250565b7f4f776e61626c653a206e6577206f776e657220697320746865207a65726f206160008201527f6464726573730000000000000000000000000000000000000000000000000000602082015250565b7f45524332303a20617070726f766520746f20746865207a65726f20616464726560008201527f7373000000000000000000000000000000000000000000000000000000000000602082015250565b7f4f6e6c792076696c6c616765204e465420636f6e747261637420616c6c6f776560008201527f6400000000000000000000000000000000000000000000000000000000000000602082015250565b7f45524332303a207472616e7366657220616d6f756e742065786365656473206260008201527f616c616e63650000000000000000000000000000000000000000000000000000602082015250565b7f45524332303a207472616e7366657220616d6f756e742065786365656473206160008201527f6c6c6f77616e6365000000000000000000000000000000000000000000000000602082015250565b7f4f776e61626c653a2063616c6c6572206973206e6f7420746865206f776e6572600082015250565b7f45524332303a207472616e736665722066726f6d20746865207a65726f20616460008201527f6472657373000000000000000000000000000000000000000000000000000000602082015250565b7f45524332303a20617070726f76652066726f6d20746865207a65726f2061646460008201527f7265737300000000000000000000000000000000000000000000000000000000602082015250565b7f45524332303a2064656372656173656420616c6c6f77616e63652062656c6f7760008201527f207a65726f000000000000000000000000000000000000000000000000000000602082015250565b7f45524332303a206d696e7420746f20746865207a65726f206164647265737300600082015250565b611b6181611716565b8114611b6c57600080fd5b50565b611b7881611754565b8114611b8357600080fd5b5056fea2646970667358221220bf8ee3d29e4f6664c9e2b3c89f6cc4293ac7a342fe6896b944cf1b433c3a5b0164736f6c63430008040033",
  "linkReferences": {},
  "deployedLinkReferences": {}
}